:020000040800F2
:10000000A81F00202D0200082D640008A54C000840
:1000100029640008AD0E0008B18E00080000000041
:1000200000000000000000000000000065660008FD
:10003000190F00080000000031640008756A00080C
:10004000470200084702000847020008470200086C
:10005000470200084702000847020008470200085C
:10006000470200084702000847020008470200084C
:100070004702000847020008010F00080D0F0008A2
:10008000470200084702000847020008470200082C
:10009000298D0008470200084702000847020008AF
:1000A000470200084702000847020008470200080C
:1000B00047020008470200084702000847020008FC
:1000C00047020008470200084702000847020008EC
:1000D00047020008C17100084702000847020008F3
:1000E0001D0F0008470200084702000847020008E9
:1000F000296B0008000000004702000847020008C2
:10010000000000000000000047020008470200084D
:1001100047020008470200084702000800000000EC
:100120004702000800F002F800F070F814A696E804
:10013000000CB244B344DA4501D100F067F8BAE8E4
:100140000F000FA696E83000A5EB040504EB0607A8
:10015000AAEB0704A7F101074FEA15154FEA34147B
:10016000A4F10104AC4201D300F050F813F0010FE8
:1001700018BFFB1A43F0010300F001F8DBE7184752
:1001800050AE000070AE00000A444FF0000C10F8B2
:10019000013B13F0070408BF10F8014B1D1108BF05
:1001A00010F8015B641E05D010F8016B641E01F8A5
:1001B000016BF9D113F0080F1EBF10F8014BAD1CF5
:1001C0000C1B09D16D1E58BF01F801CBFAD505E013
:1001D00014F8016B01F8016B6D1EF9D59142D6D36D
:1001E000704700007047000000230024002500260F
:1001F000103A28BF78C1FBD8520728BF30C148BF8A
:100200000B6070471FB51FBD10B510BD00F06CF836
:100210001146FFF7F7FF08F04DFE00F08AF803B42F
:10022000FFF7F2FF03BC00F08DF80000094880479B
:1002300009480047FEE7FEE7FEE7FEE7FEE7FEE7C8
:10024000FEE7FEE7FEE7FEE704480549054A064BE0
:1002500070470000256B000825010008A819002040
:10026000A81F0020A81B0020A81B00204FF00002A0
:1002700000B5134694469646203922BFA0E80C509C
:10028000A0E80C50B1F12001BFF4F7AF090728BF77
:10029000A0E80C5048BF0CC05DF804EB890028BFF3
:1002A00040F8042B08BF704748BF20F8022B11F01C
:1002B000804F18BF00F8012B704770477047704798
:1002C00010B500F009F8006810BD10B5044600F044
:1002D00003F8046010BD0000004870478001002052
:1002E00000487047800100207546FFF7F9FFAE46D1
:1002F00005006946534620F00700854618B020B532
:10030000FFF7A2FFBDE820404FF000064FF00007C6
:100310004FF000084FF0000BAC46ACE8C009ACE869
:10032000C009ACE8C009ACE8C00921F007018D465E
:10033000704710B50446AFF300802046BDE810407A
:10034000FFF76DBF01491820ABBEFEE72600020093
:1003500070470000B0B582B00446002001902168CB
:100360000A6852064DD4886840F00100886040F267
:100370002400C2F2000000684DF68361C4F21B3114
:10038000A0FB0101880C00EB400001900198A0B196
:10039000019801380190019878B1019801380190D5
:1003A000019850B1019801380190019828B1019845
:1003B0000138019001980028EAD101F0BDFC2168C4
:1003C000096849061CD4054603E000BF00684006E2
:1003D00016D401F0B1FC411B20680329F6D3016853
:1003E0004906F3D4E06C40F01000E064206D40F06A
:1003F00001002065002084F84800012002B0B0BD53
:10040000002002B0B0BD000010B506F0A1FA06F061
:10041000B5FA06F033F804F061FC05F03DFE04F097
:10042000CDFD00F02FFD06F071F908F083FC06F019
:100430002DFC40F20C24C2F200040220207006F0D1
:100440006FF8322001F04CFA06F080F806F00CF953
:1004500004F0AEFD04F050FC00281CBF0420207006
:1004600010BD000010B50178013904296CD8DFE80F
:1004700001F003472D3B0D00407802285CD0012895
:1004800062D1BDE8104005F0BDBF00BF4078022832
:1004900044D0012818BF10BD05F0F8FD044606F051
:1004A00051FA617E45F256534A1C007A53430124A7
:1004B0001B0C012908BF022403EB4303002808BFDB
:1004C000D41AE0B2BDE8104005F080BF40780228A1
:1004D0003AD105F0DBFD807E00280CBF0120002012
:1004E000BDE8104005F086BF407802282CD105F009
:1004F000CDFDC17E81B3BDE8104005F0BFBD00BF9A
:100500004078012820D105F0C1FD007E00280CBFF5
:1005100001200020BDE8104005F036BF05F0B6FD13
:10052000007E012812D9032824D002280ED10320EE
:10053000BDE8104005F028BF05F0AAFF40F20C20EE
:10054000C2F200000021017010BD00BF0220BDE812
:10055000104005F019BF00BF40F20C21C2F20001AB
:1005600005220A700022CA70C1E90422006888616D
:1005700010BD00BF0420BDE8104005F005BF00001D
:100580002DE9F04385B040F20C27C2F2000707F1D5
:100590001C04204604F088FB39780028787018BFC6
:1005A000002923D1DFE801F00498507A329EC80078
:1005B0007878002800F06A81387F012840F0668151
:1005C000787F022840F0628105F07AFF06F04CF84F
:1005D0000220387001F0B0FBB86004F0E9FC05F0CF
:1005E00055FD002840F0788250E100BF387F022896
:1005F000D8D1787F0228D5D10320387000F04CFB89
:100600000020B87000F048FB3978CBE778780028F4
:1006100000F0B88106F096F9397F0139042900F21B
:10062000B181DFE811F00500EF00C900AF01010161
:10063000787F022840F0A68106F0EEF905F028FF49
:10064000002038709EE100BF01A806F019F8C0B183
:1006500001F072FB9DF80D60B86002200121002EB0
:1006600008BF0120012504F097FF002E08BF0225D6
:100670002846002104F090FF01A805F01FFD00F0BE
:100680004FFB05F0F1FF787810B12046FFF7EAFE46
:1006900005F086FF05B0BDE8F08300BF787800283C
:1006A00000F0F48006F04EF9397F0139042900F298
:1006B000ED80DFE811F00500C9009300EB00DD00DC
:1006C000787F022840F0E28006F0A6F90220387018
:1006D00005B0BDE8F08300BF05B0BDE8F04300F011
:1006E0009FBA00BF01A805F0CBFF28B101F024FBA1
:1006F000B86001A805F0E2FC05F0B6FF78780028A4
:1007000000F0DE8105F0C2FC397F032932D00429D4
:1007100040D17A7F012A40F0BD80F978022900F0AB
:10072000E180012900F0DC80002940F0CA810068E6
:10073000B8610120D7E000BF04F03AFC00200E2190
:1007400005F03AFA01200F210F2405F035FA0220B6
:100750000F2105F031FA3879002818BF0024032052
:10076000214605F029FA4FF4FA7005B0BDE8F043D0
:1007700001F0B6B8787F012840F0A281F97802290B
:1007800000F0A680012940F09C8138690130386171
:10079000AAE100BF022940F09381787F012840F050
:1007A0008F81F978022900F09780012940F0898132
:1007B00038690138386197E1797F012940F0E2809A
:1007C0007979022900F09280012940F09F80417AD6
:1007D00002298CBF002101314172D3E0797F0129C8
:1007E00054D1B978DFE801F002C2ACB60178002933
:1007F00040F041810121017005B0BDE8F04300F0F7
:100800004BBA00BF797F012940F0BC807979022979
:1008100000F07480012940F07D80417A00290CBFEE
:10082000032101394172ADE0787F012840F0AA80B0
:100830007879AB220130C1B25143490A01EB410141
:10084000401A78719EE000BF797F01291ED1B978E6
:10085000DFE811F004000C01F80002010178002922
:100860001CBF0139017005B0BDE8F04300F014BAB7
:10087000787F01280AD1B878013000F00300B87001
:1008800005B0BDE8F04300F007BA00BF05B0BDE811
:10089000F08300BFF978022A40F01381032900F0A9
:1008A00010810321F970044601F046FAA27E617EB0
:1008B000F8609AB3002900F0E980022900F0E08096
:1008C000012937D14BF21778C3F65108E2E000BF97
:1008D0007869013002E000BF78690138786103E18E
:1008E000022000E00020F870FEE000BF817A0329BA
:1008F0008CBF00210131817244E000BF817A002960
:100900000CBF0421013981723CE000BF017AB9B308
:10091000002136E0017A99B3013932E0002900F074
:10092000AF80022906D0012904D141F26F28C3F615
:100930008328AFE04DF20A78C3F62348AAE000BF4F
:10094000817801299CBF0131817005B0BDE8F04379
:1009500000F0A2B9C178022900F28D800131C17086
:1009600005B0BDE8F04300F097B900BF4178032916
:100970009CBF0131417005B0BDE8F04300F08CB977
:100980000121017205F0DEFF044604F011FB002096
:100990000E2105F011F978790130C1B2012005F07E
:1009A0000BF9787902280BD0012815D1607A032839
:1009B00042D80021DFE800F03D021618042138E09B
:1009C000A07A042838D8DFE800F0032B192115009D
:1009D0000220072114E000BF207A0121002808BF6F
:1009E000052126E0082124E00320012105F0E4F898
:1009F00006211EE00220022114E000BF0220012196
:100A000005F0DAF80320052110E000BF02200121E3
:100A100005F0D2F80320072105F0CEF8052108E003
:100A20000220012105F0C8F80320002105F0C4F8D8
:100A30000021042005F0C0F805B0BDE8F04305F042
:100A4000B5B800BF817800291CBF0139817005B09D
:100A5000BDE8F04300F020B9C17861B10139C1703F
:100A600005B0BDE8F04300F017B900BF4178002998
:100A70001CBF0139417005B0BDE8F04300F00CB96E
:100A800041F26F28C3F6032804E000BF4CF2AC58D3
:100A9000C3F2A778D7E90450BE6909F0CFFF014639
:100AA00040460AF05FF80446284609F0C7FF0146B1
:100AB00040460AF057F802463046214605F08EFCC3
:100AC000F978032910D101F037F9F968401AB0F527
:100AD000FA6F09D30220387005F0D8FA012180F8A6
:100AE0002A1005B0BDE8F08305F0D0FA044601F005
:100AF00023F944F6D351C1F26201A0FB0101C1F315
:100B0000401804F055FAA17E022000294FF001019F
:100B100008BF012004F040FDA07E172600284FF0FA
:100B200018004FF0000108BF182604F035FD17200B
:100B3000002104F031FDA17E607E59B110B302287E
:100B400014D0012818D14BF21779C3F651090525A5
:100B500023E000BF50B102281AD001280CD141F285
:100B60006F29C3F68329032517E000BF41F26F29DF
:100B7000C3F60329042510E04DF20A79C3F6234990
:100B800000250AE04CF2AC59C3F2A779052504E030
:100B90004DF20A79C3F623490225F878DFE800F020
:100BA000022A0E180D20414604F0F6FC2068294662
:100BB00004F008FC05B0BDE8F08300BF0D20012162
:100BC00004F0EAFC3046414604F0E6FC78691AE09D
:100BD0000D20012104F0E0FC3046012104F0DCFC92
:100BE0002068294604F0EEFB04F0E0FF05B0BDE804
:100BF000F08300BF0D20012104F0CEFC30464146B9
:100C000004F0CAFC386909F019FF0146484609F0AA
:100C1000A9FF294604F0D6FB05B0BDE8F08300002B
:100C2000B0B584B004F0CAF94FF4FA6000F058FE91
:100C300004F0BEF905F08AFC05F016FD01F07CF821
:100C4000044601F079F8001B00097C280DD86D4698
:100C5000284605F015FD98B90A2000F041FE01F084
:100C60006BF8001BB0F5FA6FF2D340F20C20C2F221
:100C70000000012101710621017004B0B0BD00BF68
:100C800040F20C24C2F200040220207001F054F85B
:100C9000A06004B0B0BD000010B505F053FE0446DE
:100CA00004F086F940F20C20C2F200008078DFE800
:100CB00000F0032B131F00BF0020012104F07CFF74
:100CC0002178002918BF0121042004F075FFBDE838
:100CD000104004F06BBF00BF0020032104F06CFF44
:100CE000A178042004F068FFBDE8104004F05EBF66
:100CF0000020042104F060FFE178042004F05CFF90
:100D0000BDE8104004F052BF0020022104F054FF5F
:100D10006178042004F050FFBDE8104004F046BFA5
:100D2000B0B505F0B3F9044690F82A00002808BFD2
:100D3000B0BDA17E607E002584F82A50C1B1022892
:100D400007D8C00040F20551C0B2C0F2040121FA38
:100D500000F505F0F7FDC178032912D0022913D060
:100D600001290CBF4FF080404FF07E500EE000BFD5
:100D7000032838BFC0F1040505F0E4FDC17803295C
:100D8000ECD1406802E000BF4FF07C50216809F0D0
:100D9000E9FEE9B204F016FBA57EB5FA85F041093B
:100DA0000120002D18BF012504F0F6FB0220294682
:100DB00004F0F2FB207E0238B0FA80F041091120E5
:100DC00004F0EAFB207E0338B0FA80F041091320DA
:100DD00004F0E2FB207E0438B0FA80F041091220D2
:100DE00004F0DAFB207E0138B0FA80F041091020CF
:100DF00004F0D2FBE07E18B31820002104F0CCFBF5
:100E000017200021172504F0C7FB0F20012104F053
:100E1000C3FB94F828000138B0FA80F041090D2096
:100E200004F0BAFBA07E94F82810002801F0FE0020
:100E300008BF1825022811D12846012110E000BF63
:100E40000F20002104F0A8FB0D20002104F0A4FBDA
:100E50001820002104F0A0FB172000E02846002104
:100E600004F09AFB05F0E6FA0021C4F2200109F033
:100E7000B2FC18B90020012104F08EFBBDE8B0409F
:100E800004F094BE40F2E01141F2C410C2F200013D
:100E90000022C2F20000C1E90222C1E90422C1E934
:100EA0000622C1E908220A7000F044BBFEE70000F8
:100EB000002070470020704710B540F62874C2F239
:100EC000000440F62831C2F200012046002206F05C
:100ED00091FA40F22871C2F20001204606F084FA2D
:100EE000002010BD10B540F62874C2F2000401467F
:100EF000204606F079FA204606F058FA002010BD88
:100F000041F25C20C2F2000000F0F2BB41F2182076
:100F1000C2F2000000F0ECBB704700004FF48050BC
:100F200000F024BEEFF3108072B600BFFEE70000B1
:100F300070B543F618460446C4F2020600F0FCFE03
:100F40003168C90726D13068800744BF022030606D
:100F50003068C00512D4306800055CBF30685FEAB5
:100F600080400BD43068C0045CBF30685FEA4050FA
:100F700004D4306880055CBF002070BD306841F249
:100F80007C61C005C2F2000120D4002032689205C5
:100F900025D42AE0C4B10546601C10D13068C007D2
:100FA000D1D03068C0071CBF30685FEAC070CAD0BB
:100FB0003068C007F2D1C6E73068C007C3D000F080
:100FC000BBFE401BA042F7D9032070BD486940F02A
:100FD000020048614FF480703268920505D54A6975
:100FE00000F5007042F001024A61326812050BD42C
:100FF0003268920411D43268D20417D43268520590
:101000001DD43060012070BD4A6900F5006042F0D7
:1010100004024A6132689204EDD54A6900F5005035
:1010200042F010024A613268D204E7D54A6940F4BE
:10103000805042F020024A6132685205E1D54A6987
:1010400040F4806042F008024A613060012070BDC7
:1010500010B581B00022009290F84820012A03D1F7
:10106000022001B010BD00BF4B680122062B80F8A2
:10107000482015D8D0F800E003EB83035A1F1F2344
:10108000DEF840C003FA02F40B682CEA040403FA09
:1010900002F22243CEF84020092B48D87FE000BF5F
:1010A0000C2B15D8D0F800E003EB8303A3F1230445
:1010B0001F23DEF83CC003FA04F20B682CEA02029C
:1010C00003FA04F42243CEF83C20092B2FD866E023
:1010D000122B15D8D0F800E003EB8303A3F14104F1
:1010E0001F23DEF838C003FA04F20B682CEA020270
:1010F00003FA04F42243CEF83820092B17D84EE027
:10110000D0F800E0182B03EB830337D8A3F15F047A
:101110001F23DEF834C003FA04F20B682CEA020243
:1011200003FA04F42243CEF83420092B37D9132BC9
:101130000ED803EB4304DEF810C01E3C072289687A
:10114000A2402CEA0202A1401143CEF8101033E075
:101150001A2B0FD803EB4304DEF80CC03C3C0722EB
:101160008968A2402CEA0202A1401143CEF80C107B
:1011700022E000BF00BF0B681EE000BFA3F17D04AA
:101180001F23DEF830C003FA04F20B682CEA0202D7
:1011900003FA04F42243CEF83020092BC7D8DEF836
:1011A00014C003EB430407228968A2402CEA020220
:1011B000A1401143CEF8141023F00101102934D1BD
:1011C00042F20471C4F201010A6812022DD40A68C5
:1011D000102B42F400020A6027D140F22401C2F22F
:1011E000000109684DF68362C4F21B32A1FB0212B2
:1011F000910C01EB8101490000910099A9B100BF58
:10120000009901390091009979B100990139009153
:10121000009951B1009901390091009929B10099C3
:101220000139009100990029EAD1002180F8481085
:10123000002001B010BD00000068806D7047000004
:10124000002804BF0120704770B582B0064656F8EA
:101250004C1F00294CD03168C90661D4C16C41F2E1
:1012600002129143023142F2047CC164C4F2010CC7
:10127000DCF80020436822F44032C46841691A4314
:10128000056ACCF80020214390F83C4090F824E017
:101290002943426B41EA4421102A41EA4E0102D01F
:1012A000856B2A431143026815686D064CD4856826
:1012B000D0E906C403692C43012B44F4807508BFB0
:1012C0002C46B3F5807F90F82C3008BF2C46012BBC
:1012D00041EA0C0130D1BEF1000F25D0C36C43F0C0
:1012E0002003C364036D43F00103036524E000BFE2
:1012F0000021016580F8481043F62001C4F2020184
:101300000A68044642F001020A60096801F001011E
:101310000191019900F056F820463168C9069DD523
:10132000012002B070BD00BF036B4EF60005CFF682
:10133000FF7505EB43331C43536841F2FF65CFF65D
:10134000FC452B402343536093684FF28915CCF240
:10135000FF052B400B4393600369B3F5807F01D0F9
:10136000012B0BD1136B856A0024CFF6F07423F0A8
:10137000F87304EB05552B4303E000BF136B23F018
:10138000F873136392684FF6FE73CBF680731A40BE
:101390008A4207D100220265C06C002120F00302BE
:1013A0000AE000BFC16C41F0100121F00201C164EC
:1013B00050F8502F0121064642F0010030600846E7
:1013C00002B070BD80B586B042F200410068C4F240
:1013D0000101002288420592CDE903220292019286
:1013E00002D006B080BD00BF43F61C00C4F202006C
:1013F000436843F400734360436803F4007300934D
:10140000009B036843F001030360006800F00100E3
:1014100000900098202001900320CDE9020201F500
:101420005C4001A900F0AEFB06B080BD70B504467B
:1014300000680D468268520544BF80685FEAC0506C
:1014400038D400F079FC21680A68920749D406462E
:10145000681C3CD0DDB90868800721D50868800782
:101460003FD4086880071BD50868800739D408680E
:10147000800715D50868800733D4086880070FD522
:1014800008688007E7D52CE00868800729D400F0B9
:1014900053FC801B2168A842F6D908688007F3D462
:1014A000E06C40F00400E064002084F84800032071
:1014B00070BD00BFE06C40F02000E064002084F8C4
:1014C0004800012070BD00BF0868800709D4086883
:1014D000800706D4086880075CBF08685FEA8070F0
:1014E000F2D5A069002804BF6FF012000860E06C1C
:1014F00040F40070E064886810F0405F02D0002083
:1015000070BD00BF94F824000028F8D1086B10F0DB
:10151000F87F02D088684005F1D4E06C20F4807038
:10152000E064E06CC004EAD4E06C40F00100E064E8
:10153000002070BDB0B590F84810012904BF02200A
:10154000B0BD012480F848400546FEF703FF08B10E
:101550002046B0BD2868EA6C40F201739A4302F558
:101560008072EA6442682946520504D5CA6C012398
:1015700063F30D32CA64CA6C0024D2044FF0000237
:1015800044BF0A6D22F006020A6581F848406FF0F8
:1015900022010160816811F0405FD9D1816841F07A
:1015A000804181602046B0BDB0B5044690F8480047
:1015B000012804BF0220B0BD0121206884F8481032
:1015C0000168490609D5816821F00101816000F0B8
:1015D000B3FB2168096849060ED4214651F84C0F27
:1015E00041F2011220EA0202002042F001020A60E8
:1015F000002184F84810B0BD054602E000684006AE
:10160000EBD500F099FB411B20680329F6D3016854
:101610004906F3D5E06C214640F01000E06451F833
:10162000502F0120E1E7000042F20400CEF2040056
:10163000016841F0010101607047000042F20400BE
:10164000CEF20400016841F0020101607047000021
:10165000014690F82100022818D10868D1E90FC38B
:10166000026822F00E020260026822F001020260AB
:1016700003F01C00012202FA00F0CCF8040081F80B
:1016800021200020002281F8202070470420886358
:101690000120002281F820207047000090F82110DE
:1016A000022921D180B50268D0F834C0D0E90FE119
:1016B000136801F01C0123F00E0313601368BCF1E2
:1016C000000F23F0010313604FF0010202FA01F151
:1016D000CEF804104FF0000180F8212080F820108F
:1016E00018BFE047002080BD0421816301207047BE
:1016F000B0B5D0E90FC30268DCF8001003F01C039A
:101700000424D2F800E09C400C4218BF1EF00405EF
:1017100020D102249C400C4218BF1EF0020529D1A2
:10172000D940090714D51EF0080108BFB0BD1168E3
:1017300021F00E011160012101FA03F2CCF804201E
:10174000816380F82110016B002280F8202069B9A4
:10175000B0BD00BF1168890603D4116821F00401EF
:101760001160CCF80440C16A0029F1D0BDE8B04056
:10177000084700BF1168890606D4116821F00A01E4
:101780001160012180F82110CCF80440816A002208
:10179000002980F82020E9D1DAE70000014600287E
:1017A0004FF0010008BF70472DE9F04746F2000CEA
:1017B000C4F2020C0A6849F6F8330CF5816ECBF6D8
:1017C000FD73724538BF03F5806303EB020E4CF6E0
:1017D000CD43CCF6CC43AEFB033E0CF580636FF0FB
:1017E0000304D1E9019AD1F80C803CBF46F2000312
:1017F000C4F2020304EA9E04C1E90F34022381F813
:101800002130136847F6F074A34301F1100743EA4F
:101810000903F0CF43EA0A0343EA080323432B43B7
:1018200033433B43136000228A6381F8210081F82F
:1018300020200020BDE8F0477047000090F820C04D
:10184000BCF1010F04BF02207047F0B54FF0010E4C
:1018500080F820E090F821C0BCF1010F28D14FF0B2
:10186000020C80F821C04FF0000CC0F838C0D0E95D
:1018700000C4C56AC66BDCF80070102C27F00107A5
:10188000CCF80070006C00F01C000EFA00F07060E4
:101890000846CCF8043004BF10460A46CCF80800CD
:1018A000CCF80C20DCF8000045B140F00E000DE053
:1018B000002180F820100220F0BD00BF20F00400BD
:1018C000CCF80000DCF8000040F00A00CCF8000082
:1018D000DCF8000040F00100CCF800000020F0BD72
:1018E000B0B5044600F028FA054640F20000C2F206
:1018F00000004068611C18BF044400BF00F01CFADF
:10190000401BA042FAD3B0BD43F60441C4F2020129
:10191000086840F0010200200A607047F0B581B00D
:1019200041F27C65C2F200052B7C012B02D1022022
:1019300001B0F0BD0446012028744CF250300E4630
:101940001746FFF7F5FA18B10021297401B0F0BD70
:1019500000206861102C4FF00100F5D8DFE804F09A
:101960000C2C140A340A0A0A440A0A0A0A0A0A0A45
:101970001C0000BFE8E700BF4CF25030FFF7D8FA78
:101980000028E1D137703FE04CF25030FFF7D0FA39
:101990000028D9D10EE000BF4CF25030FFF7C8FA52
:1019A0000028D1D143F60440C4F20200016821F4BA
:1019B00080710160376027E04CF25030FFF7B8FAD1
:1019C0000028C1D11FE000BF4CF25030FFF7B0FA41
:1019D0000028B9D143F60440C4F20200016821F4A2
:1019E0008071016037700FE04CF25030FFF7A0FAC1
:1019F00000287FF4A9AF43F60440C4F20200016856
:101A000021F48071016037804CF25030FFF790FA7A
:101A10000021297401B0F0BD43F60C40C4F202006D
:101A200050F8081CC90704BF012070474CF6EF515D
:101A3000C8F6AB11016040F20541C0F2032101601C
:101A400000207047002908BF70472DE9F04F81B092
:101A500000F13E4202F1FF7741F20002C4F20202BD
:101A600005234FEAB726904208BF042300F1200E59
:101A7000042E38BF4FEAB723002400270025009327
:101A800026E000BF02680323A3409A4302606FF080
:101A9000030202EA550607F01C0C5EF806800F22CE
:101AA00002FA0CF228EA02024EF80620C2689A43B3
:101AB000C260426822EA0A02426082689A438260F7
:101AC000013531FA05F207F1040704F102043BD0B5
:101AD000012202FA05FA1AEA0108F1D040F20042A6
:101AE000C4F20102A2F57E7C25F0030307F00C0B83
:101AF0000F225CF8033002FA0BF9009A03EA09039B
:101B000002FA0BF29342BDD140F20046C4F2010644
:101B1000326840F20C4322EA080232607268C4F272
:101B2000010322EA080272601A6822EA08021A60B7
:101B3000B268AB0822EA0802B2605CF8232022EA0D
:101B400009024CF823209DE701B0BDE8F04F704733
:101B5000B0F5805F18BF704740F61000C4F2020075
:101B60000068000548BF04F027BE704740F21441EA
:101B7000C4F201010A68024214BF08607047FFF70F
:101B8000E7BF00002DE9F04F83B00E68002E00F093
:101B9000C98000F1200200F13E4741F2000C0092A2
:101BA00007F1FF77C4F2020C052240F2004B4FEA26
:101BB000B725604508BF0422C4F2010B042D38BFCD
:101BC0004FEAB722002500274FF0000801920AE0F3
:101BD0000E6808F1010836FA08F207F1020705F16C
:101BE000040500F09F80012202FA08FE16EA0E09A1
:101BF000EED0D1F804C003220CF00306741EBA40E4
:101C0000012C6FEA020A11D88268CC6802EA0A0243
:101C1000BC40224382604268CCF3001422EA0E02E8
:101C200004FA08F42243426004E000BF032E01D10D
:101C300003261EE0C2688C6802EA0A02BC40224306
:101C4000022EC26015D16FF0030202EA580E009A0C
:101C500005F01C0452F80EC00F230E69A3402CEAB5
:101C60000303A640334342F80E30D1F804C00CF011
:101C70000306026806FA07F302EA0A021A431CF492
:101C8000403F0260A4D043F62003C4F202031A6866
:101C90004FF6084C42F001021A601A68CFF6FF7C3A
:101CA00002F001020292029A28F003025A4452F80A
:101CB0000C3005F00C060F24B440A343019C04FA39
:101CC00006F6334342F80C30DBF808204B6842EA52
:101CD000090640F20C4CDC0258BF22EA0906CBF898
:101CE0000860C4F2010CDCF800209C0242EA0906FC
:101CF00058BF22EA0906CCF80060DBF804209C03F8
:101D000042EA090658BF22EA0906CBF80460DBF86C
:101D10000020DB0342EA090658BF22EA0906CBF895
:101D2000006055E703B0BDE8F08F0000002A08BF4F
:101D3000090481617047000041F6A410C2F200005E
:101D40000068704740F2000041F6A411C2F20000A2
:101D5000C2F2000140680A68104408607047000041
:101D600080B5032000F072FA002000F009F8002886
:101D70001CBF012080BD00F0EFF9002080BD0000F5
:101D8000B0B540F20005C2F200056968F1B1044641
:101D900040F22400C2F200004FF47A720068B2FBF5
:101DA000F1F1B0FBF1F001F021FE01460F2C4FF0F4
:101DB00001000AD8002918BFB0BD4FF0FF302146FE
:101DC000002200F017FA00202C60B0BD0120B0BD49
:101DD000B0B5044690F83500012805D094F83500D8
:101DE00002281CBF0120B0BD94F8340001284FF038
:101DF000020008BFB0BD012184F8341084F835001A
:101E0000FFF79AFF054600BF2068816849070DD596
:101E1000FFF792FF401BB0F57A7FF5D90220A0634F
:101E20000320002184F83410B0BD00BF00214161BF
:101E30008161C161016241628162C162016341638A
:101E40008163C163016441648164C16401650821E7
:101E5000C160816841F004018160FFF76DFF0546B4
:101E60002068806800070DD4FFF766FF401BB0F5BF
:101E70007A7FF5D90420A0630020002184F8341073
:101E8000B0BD00BF012084F835000020002184F897
:101E90003410B0BD002804BF012070472DE9F04187
:101EA000044690F8350028B9002084F83400204614
:101EB00000F080F8022084F835002068016821F0E5
:101EC00001010160002141618161C16101624162E2
:101ED0008162C162016341638163C16301644164E2
:101EE0008164C1640165816841F0040181604168D9
:101EF000D4E901736FF31911D4E90A253943194361
:101F0000D4E906C81143D4E9086E294341EA08011F
:101F1000314341EA0C0141EA0E014160FFF70CFF39
:101F2000054600BF20688168890608D4FFF704FFD2
:101F3000401BB0F57A7FF5D90120A06320680168C5
:101F400004F10C078CCF21F0FE011143266B1943DD
:101F5000394331430160016841F001010160FFF73D
:101F6000EBFE064620688568FFF7E6FEE9070546B2
:101F70000ED1A81BB0F57A7FF4D90820A063032006
:101F8000BDE8F081FFF7D8FE401BB0F57A7F0BD893
:101F900020688068C006F5D500200121A06384F880
:101FA0003510BDE8F08100BF1020A0630320BDE81C
:101FB000F08100002DE9F04186B042F20045006852
:101FC000C4F200050026A8420596CDE903660296F4
:101FD000019603D006B0BDE8F08100BF43F61C00B7
:101FE000C4F20200816801AC41F400718160816833
:101FF0004FF0020801F400710091009901680B276D
:1020000041F004010160016801F0040100910099B0
:10201000016841F001010160016801F001010091D6
:102020000099016841F0020101600068214600F05A
:1020300002000090009840F2FF10019005F5F23088
:10204000CDE9028604960597FFF79CFD48F2CE7015
:10205000CDE9010805F5EE302146CDE90366059787
:10206000FFF790FD4FF63B70CDE9010805F5F03024
:102070002146CDE903660597FFF784FD06B0BDE86C
:10208000F0810000B0B5044600680821C160816895
:1020900041F004018160FFF74FFE0546206880682B
:1020A00000070DD4FFF748FE401BB0F57A7FF5D945
:1020B0000420A0630320002184F83410B0BD00BFC9
:1020C000012084F835000020002184F83410B0BDD0
:1020D0002DE9F041064690F835009846154601284E
:1020E0000F4606D096F8350002281CBF0120BDE837
:1020F000F08196F83500012822D196F834000128A5
:102100004FF0020008BFBDE8F081012186F83410CD
:1021100086F83500FFF710FE044600BF306881687E
:1021200049070ED5FFF708FE001BB0F57A7FF5D9F9
:102130000220B063002086F834000320BDE8F0815F
:10214000306800EB87004169294041EA080141619C
:102150000020BDE8F081000083B043F62400C4F203
:102160000200016841F000410160016801F0004196
:102170000291029950F8041C41F0010140F8041C3E
:1021800050F8041C01F0010101910199016841F02E
:1021900080510160006800F080500090009803B00A
:1021A00070470000002848BF704700F01F0101225F
:1021B00002FA01F11C2202EAD0004EF28012CEF2A5
:1021C00000028150BFF34F8FBFF36F8F7047000045
:1021D000002848BF704700F01F01012202FA01F1F8
:1021E0001C2202EAD0004EF20012CEF20002815010
:1021F0007047000010B54EF60C5CCEF2000CDCF817
:102200000030C3F3022E8EF00704042C28BF0424F0
:10221000BEF103034FF0FF3E0EFA04F438BF002373
:10222000A14399400EFA03F39A43114300F00F02C1
:1022300000F160430901043A03F564436244002855
:1022400048BF02F10C03197010BD00004EF60C518E
:10225000CEF200010A684FF6FF031A4060F30A222B
:1022600042F0806040F0FD700860704780B501F07A
:10227000070C0CEB8C0C00EBCC0C0CF1100C01EBF4
:10228000810E090600EBCE0058BF00F5A87C5AB1BC
:10229000ACF808301B0C01210A202CF8003000207B
:1022A0008CF80C1080BD00BF002106202CF80030F7
:1022B00000208CF80C1080BD0420C4F201000268DC
:1022C000012922F0010208BF0132026070470000BC
:1022D00001EB8102D0F8D03200EBC200426A18460E
:1022E00005F00EBB01EB8102D0F8D03200EBC2004A
:1022F000D0F86421184605F069BB000010B501F064
:10230000070E0A464FFA81FC0EEB8E0100EBC1036B
:1023100003F5A871BCF1000F48BF03F1100190F85C
:102320009032D209012B4A7081F800E004BF0220EC
:1023300010BD0268012380F890320446104606F072
:10234000C3F8002084F8900210BD0000027901F06B
:102350000F03934284BF0120704710B501F00703BB
:1023600003EB830200EBC2024FFA81FC8E4602F5BA
:10237000A871BCF1000F48BF02F110014FEADE1254
:102380004A7090F890224FF0000C012A81F802C0A8
:102390000B7004BF022010BD0268012380F8903248
:1023A0000446104606F01CF9002084F8900210BD87
:1023B00001F0070101EB810100EBC100D0F86C01D5
:1023C00070470000B0B501F007048C464FFA81FE5B
:1023D00004EB840100EBC10505F5A871BEF1000F07
:1023E00048BF05F110014FEADC156FF3DF224D7095
:1023F0000C700A61022BCB7004BF00220A7190F8A6
:102400009022012A04BF0220B0BD0268012380F897
:1024100090320446104605F0C5FE002084F8900274
:10242000B0BD000010B501F0070C0CEB8C0100EB07
:10243000C10E00680EF5A8710024CEF86421CEF814
:102440006831CEF86C418EF851418EF850C106F0DB
:102450001DF9002010BD0000027901F0070C944521
:102460004FF001022AD810B501EB810300EBC30342
:102470004FFA81FE03F5A8730CEB8C04C90900EB3D
:10248000C404BEF1000F48BF04F11003597090F866
:1024900090129A70012983F800C001D102220BE04A
:1024A0000168012280F8902204460846194606F089
:1024B000D3F8002284F89022BDE8104010467047FF
:1024C00080B501F0070C0CEB8C0100EBC10101F8A9
:1024D00010CF00684FF0010C01F1140781F824C0FF
:1024E0004FF0000E87E80C400B6281F801C006F047
:1024F000CDF8002080BD00002DE9F04F83B00446E8
:10250000006806F021FC01041CD441052ED44104CE
:102510003ED4810400F1D083C10400F1D7830105CA
:1025200000F10884810500F11F84C0052CD52068C6
:10253000B0F8441021F48071A0F8441003B0BDE855
:10254000F08F00BF2068B0F94410B1F1FF3F1BDCF1
:1025500004F5A871019104F1100148F2C00502913F
:1025600004F5267140F60F7900913DE02068B0F83F
:10257000441021F48061A0F84410204600F022FDB0
:1025800094F8900201280DD103B0BDE8F08F00BF90
:102590002068B0F8441021F48041A0F8441003B042
:1025A000BDE8F08F0120002584F890022573206893
:1025B000002106F027FC84F8905203B0BDE8F08FAC
:1025C000B0F850103278084400EB02100021A0F857
:1025D0000C1431782046FFF77BFE00BF2068B0F96D
:1025E0004410B1F1FF3FCFDCB0F8442012F00F08E7
:1025F0000CD030F928104FEA480BB1F1FF3F1FFA19
:1026000081FA2FDD5FEA0A60E8D547E10188D2064A
:1026100062D401EA090101F500410180B0F85010CF
:10262000227C00EB410000EB0210B0F80404616A68
:102630006FF39F20E0620844606220460021FFF7AC
:1026400047FE207B0028C9D0A06A0028C6D1207B85
:10265000216840F08000C0B2A1F84C000020207337
:10266000BCE700BF30F81B1001EA0901803120F8F7
:102670001B10019A08EB880102EBC106317B00298F
:1026800000F07E80F178022940F08A80B0F8503066
:102690003178B26900EB43035FEA4A4703EB011369
:1026A00000F19680B3F80C7400236FF39F27D21BC0
:1026B00038BF1A46B26140F2A1805FEA4A6200F177
:1026C000AD8030F8212002EA09022A4320F82120B7
:1026D000002F40F0A480C3E00A052FD409B2B1F165
:1026E000FF3F3FF77BAF018801EA0901803101809C
:1026F000B0F8501094F8502100EB410101EB0211A9
:10270000B1F80C346FF39F23002BC4F86C3100F048
:10271000FB81D4F8641100293FF460AFB4F856216E
:1027200006F016FBD4F86401D4F86C110844C4F820
:10273000640120460021FFF7D5FD4FE7B0F85010A7
:1027400094F8502100EB410101EB0211B1F80C1497
:102750006FF39F210829C4F86C1140F0D182B4F8BE
:1027600056210099082306F0F3FA2068018801EA4F
:10277000090180310180204600F052FC2EE700BFA5
:10278000B0F85010327800EB410101EB0211B1F8C2
:102790000C746FF39F27002F62D07169F2885AE0A2
:1027A000317830F8212002EA09022A4320F821205A
:1027B00030F82120B0F8503000EB0111520401EB49
:1027C000430115D4B1F80C746FF39F273FBB47E06A
:1027D000B3F8047400236FF39F27D21B38BF1A4647
:1027E000B2611FD95FEA4A622BD497BB38E000BFC1
:1027F000B1F804746FF39F275FBB31E030F82120FC
:1028000043F60F731A404CF28003A3F500535A406D
:1028100020F821205FEA4A627FF553AF07B3716960
:10282000728918E030F8212043F60F731A404CF2F9
:102830008003A3F500535A4020F821205FEA4A6242
:10284000D3D530F8212002EA09022A4320F82120BA
:1028500037B1716932893B4606F07AFA01E000BF70
:102860000027D6E906013944F16110B13069B84258
:1028700008D931782046FFF735FD5FEA0A607FF519
:10288000ADAE0BE07069C11920687161314605F089
:10289000FDFE5FEA0A607FF5A1AE00BF206808EB8D
:1028A000880130F81B20029B03EBC10602EA0901F4
:1028B00001F5004120F81B10F378012B22D1317B68
:1028C00000294FF00001B1613FF483AE5FEA4A6135
:1028D0007CD4717801293FF473AE00297FF479AE7E
:1028E000B0F850103278084400EB0210B0F80C1425
:1028F0006FF39F21A0F80C14B0F80C1441F40041C0
:1029000065E600BF5FEACA511ED4B0F850203178A6
:1029100000EB420202EB0112B2F80424B3696FF338
:102920009F229B1A4FF0000738BF3B46B3617FF6EA
:1029300051AE7169F369114471619918F1613146C1
:1029400005F0A4FE4AE600BFB0F850503178B269F5
:102950005FEA4A6700EB011E50D40EF20C4C3CF8C3
:10296000155000276FF39F25521B38BF3A46B261BE
:1029700074D95FEA4A4208D430F821204CF280032F
:1029800002EA09021A4320F8212096F824100129AE
:1029900040F08381D6E90431D6E9077229442F44F7
:1029A0009A427161F76180F00581002A00F0408150
:1029B0000023336286F8243013467278012A40F0EF
:1029C000FF80B0F850202CF8023050E171780129D6
:1029D00000F0908000297FF4FCADB0F85010327800
:1029E000084400EB0210B0F804146FF39F21A0F824
:1029F0000414B0F8041441F4004182E00EF2044CD7
:102A00003CF8155000276FF39F25521B38BF3A46FC
:102A1000B26147D95FEA4A4208D530F821204CF22A
:102A2000800302EA09021A4320F8212096F82410B4
:102A3000012940F03281D6E90431D6E9072729443B
:102A40002A449F427161F26180F0D0800022002F01
:102A500086F8242040F0CC802F46CAE07278012A04
:102A60005ED0002A48F2C00565D1B0F8502072440B
:102A7000B2F804746FF39F27A2F80474B2F80474D8
:102A800047F40047A2F80474B0F850203CF80270F4
:102A90006FF39F272CF802703CF8027047F4004750
:102AA00047E000BF7278012A5AD0002A48F2C005D8
:102AB00062D1B0F850203CF802506FF39F252CF8FB
:102AC00002503CF8025045F400452CF80250B0F892
:102AD000502048F2C0057244B2F80C746FF39F277F
:102AE000A2F80C74B2F80C7447F40047A2F80C7406
:102AF00042E000BFB0F850103278084400EB0210FA
:102B00000021A0F8041464E5018843F60F72114017
:102B10004CF28002A2F58052514001805EE500BF78
:102B2000B0F8502048F2C0057244A2F80474B0F81E
:102B300050202CF80270022B09D130F8212040F6E9
:102B40003F731A40A5F120035A4020F82120204667
:102B5000FFF7BEFB5FEA4A403FF540AD1FE000BF14
:102B6000B0F8502000252CF80250B0F850207244E4
:102B7000A2F80C5448F2C005022B09D130F82120EC
:102B800040F63F731A40A5F120035A4020F8212057
:102B90002046FFF79DFB5FEA4A407FF51FAD2068A6
:102BA00031784CF2800330F8212002EA09021A43FE
:102BB0007FE000BFD21A32627278012A3FF401AF7F
:102BC000002A54D1B0F850703CF807206FF39F22D0
:102BD0002CF80720A3B33E2B3AD803F001023CF8AF
:102BE000075002EB530245EA82223EE0FA1A1F46E2
:102BF00032627278012A15D0002A4AD1B0F85020EA
:102C00003CF802306FF39F232CF80230E7B13E2FDF
:102C100030D807F001033CF8025003EB570345EAB4
:102C2000832334E0B0F850202CF8027031E000BF6C
:102C3000002286F824202B467278012AC0D1C0E6F3
:102C40003CF807200FE000BF3CF802301DE000BF59
:102C50005A09DD063CF807E04FF0FF3508BF05EBE9
:102C600053124EEA822242F400422CF80720728965
:102C70009BB210E07B09FD063CF802E04FF0FF3507
:102C800008BF05EB57134EEA832343F400432CF8A7
:102C900002303289BBB206F0BDF82068317840F6C8
:102CA0003F7330F8212048F2C0051A40A5F1100307
:102CB0005A4020F8212091E42068B0F8441021F413
:102CC0000051A0F8441003B0BDE8F08F2068B0F8C0
:102CD000401021F00401A0F84010B0F8401021F09D
:102CE0000801A0F84010204600F07EF92068B0F8F6
:102CF000441021F48051A0F8441003B0BDE8F08FD7
:102D0000018843F60F72114005F57C625140018045
:102D1000018840F63F721140A5F130025140018018
:102D2000018840F60F7211408031018003B0BDE888
:102D3000F08F00BF2168B1F8400040F00800A1F812
:102D40004000B1F8440020F40060A1F84400B1F85C
:102D5000400040F004022046A1F8402003B0BDE846
:102D6000F04F00F07FB900BF2168B1F8440020F4B3
:102D700000722046A1F8442003B0BDE8F04F00F0F7
:102D800037B90000002804BF01207047F0B581B0BA
:102D9000044690F8910228B9002084F89002204659
:102DA00000F0F8F8032084F89102206805F00EFC8A
:102DB00094F804E0BEF1000F00F0E0800EF0030C88
:102DC000BEF1040F4FF0000238D30EF0FC03A4F163
:102DD000A0000321012500BFCE1E80F8B0608E1E2A
:102DE00080F8D8604E1E80F8006180F828110E1D12
:102DF000013180F8B15080F8B320C0E93022C0F82A
:102E0000C82080F8D95080F8DB20C0E93A22C0F809
:102E1000F02080F8015180F80321C0E94422C0F875
:102E2000182180F8295180F82B21C0E94E22C0F8E2
:102E30004021A03099423146CED1F21EBCF1000FA4
:102E40002ED004F1100002EB820100EBC10501233A
:102E500000F831200021BCF1010F6B70E970C5E969
:102E60000411A9611CD0551C05EB850600EBC607B3
:102E7000BCF1020F7B7000F83650F970C7E90411FD
:102E8000B9610DD0911C01EB810200EBC203012559
:102E900000F8321000205D70D870C3E9040098611A
:102EA000BEF1000F6AD0BEF1040F4FF0000235D31F
:102EB0000EF0FC0003212346CF1E83F850718F1EB5
:102EC00083F878714F1E83F8C8110D1D013183F806
:102ED000512183F85321C3E95822C3F8682183F8AC
:102EE000792183F87B21C3E96222C3F8902183F81A
:102EF000A12183F8A07183F8A321C3E96C22C3F850
:102F0000B82183F8C92183F8CB21C3E97622C3F81D
:102F1000E021A03381422946CED1EA1EBCF1000F48
:102F20002CD004F5A87002EB820300EBC30700214C
:102F3000BCF1010F797000F83320F970C7E9041172
:102F4000B9611BD0531C03EB830700EBC706BCF130
:102F5000020F717000F83730F170C6E90411B161E9
:102F60000CD0911C01EB810200EBC20300275F70C3
:102F700000F83210DF70C3E904779F6194E807001E
:102F800005F016FB00200121207384F8911201B096
:102F9000F0BD0000006845F60041C4F2000188421F
:102FA00018BF704781B043F62400C4F202000168E4
:102FB00041F400010160006800F4000000900098F6
:102FC00001B0704710B504464079022818BFFDF7DC
:102FD000A9FFD4F8D002012104F0FAFDD4F8D00200
:102FE000BDE8104004F0B4BDD0F8D00204F0DABD62
:102FF000D0F8D00204F0DEBD90F89022012A04BF80
:103000000220704710B5012280F8902201730268F7
:103010000446104605F0F6FE002084F8900210BD2C
:10302000D0F8D02200F52671104604F0E7BD00006C
:1030300090F89012012904BF0220704710B5016872
:10304000012280F890220446084605F063FE2046DF
:103050000121FFF731F9206805F0A8FA002084F873
:10306000900210BD10B50446D0F8D00204F018FE4E
:10307000607A002808BF10BD4EF61050CEF2000056
:10308000016841F00601016010BD00002DE9F0412A
:1030900082B00446007880077BD043F63406C4F241
:1030A000020656F8100C5FEAC0080BD456F8100C54
:1030B00040F0805046F8100C56F8100C00F080508C
:1030C0000190019847F20007C4F200073868C00574
:1030D00012D4386840F480703860FEF72DFE054643
:1030E0003868C00508D4FEF727FE401B6428F7D9CE
:1030F000032002B0BDE8F08156F8341C606801F08E
:10310000C04100F0C04291420AD100F44032B2F511
:10311000403F0ED1A26802F0C042914205D108E0C2
:1031200000F44031B1F5403F03D156F8341C890317
:103130005AD4316811F440311DD000F4403081423E
:103140001CBF20785FEAC07007D1A06800F440304F
:10315000814210D0207880070DD5306840F2DC62C3
:10316000C4F24722012320F4403113600023C0053C
:10317000136031603CD4206881070FD4C0071FD191
:10318000B8F1000F05D456F8100C20F0805046F826
:10319000100C002002B0BDE8F08100BFA26802F46C
:1031A0004031B1F5403F06D156F8343C520F62F33E
:1031B0005E7346F8343C326811433160C007DFD09B
:1031C000616801F44030B0F5403F06D156F8342C28
:1031D000490F61F35E7246F8342C31680843306061
:1031E000B8F1000FCFD5D4E7012002B0BDE8F081DF
:1031F000FEF7A2FD054641F2883700BF3068800522
:10320000B9D4FEF799FD401BB8424FF00300F5D941
:10321000C0E700002DE9F041002800F0A78043F648
:103220000807C4F202070446D7F8F8030D4600F079
:103230000100884215D2012D05D1D7F8F80340F0DE
:103240000400C7F8F803D7F8F80320F0010028437A
:10325000C7F8F803D7F8F80300F00100A84240F0DF
:1032600085802068810705D53968A26821F0F001C2
:1032700011433960C00735D1D7F8F80300F00100D9
:10328000A84209D9D7F8F80320F00100C7F8F803DD
:10329000D7F8F803C00769D12068410705D5396818
:1032A000E26821F4E06111433960000706D538680F
:1032B000216920F4605040EAC10038603968C1F3E8
:1032C0008102501E022842F20040C0F2F40027D3CF
:1032D000C2B957F8040C4FF48031C0F3423001FA00
:1032E00000F01DE0606857F8081C012836D003285C
:1032F0002ED0022838D189035CBF0120BDE8F081BF
:1033000038E000BF4AF6C473C1F38342C0F600033D
:103310009A5CC1F3815101313B685043B0FBF1F03D
:1033200039684AF68472C1F30311C0F60002515C99
:1033300040F2240220FA01F140F20000C2F2000043
:103340000068C2F200021160BDE8F041FEF718BD4E
:1033500089015CBF0120BDE8F0810BE089075CBFFB
:103360000120BDE8F08105E0890503D40120BDE816
:10337000F08100BF396821F0030108433860FEF78F
:10338000DBFC61680646032941F2883839D00229FE
:1033900029D0012910D100BF386800F00C000428A2
:1033A0003FF46AAFFEF7C8FC801B40454FF00300B6
:1033B000F2D9BDE8F08100BF386810F00C0F3FF47F
:1033C0005BAFFEF7B9FC801B40454FF0030088BFA0
:1033D000BDE8F081F0E700BFFEF7AEFC801B404582
:1033E0004FF00300E5D8386800F00C000828F3D14E
:1033F00042E700BFFEF7A0FC801B40454FF00300F2
:10340000D7D8386800F00C000C28F3D134E700005E
:1034100040F2240043F60801C2F20000C4F20201A7
:10342000006809684AF69472C1F30221C0F60002EE
:10343000515CC8407047000040F2240043F6080188
:10344000C2F20000C4F20201006809684AF69472F0
:10345000C1F3C221C0F60002515CC84070470000B1
:10346000002804BF012070472DE9F04383B043F6E4
:1034700000060446C4F20206B068B768217800F07E
:103480000C09C90711D0B9F1080F07D0B9F10C0F19
:1034900040F0EA8017F4803000F0E6803068800366
:1034A00003D56068002800F09382207880072FD52C
:1034B000B9F1040F1ED0B9F10C0F08BF17F480301A
:1034C00018D0E068002840F20000C4F2472000F065
:1034D000438101210160FEF72FFC0546306880071B
:1034E0000FD4FEF729FC401B02284FF00300F5D94A
:1034F0006BE200BF3068800703D5E068012840F028
:1035000067827068216920F4F85040EA01207060F9
:103510002078C00626D42078000741D420784007C0
:1035200058D4656ACDB1B9F10C0F40F0D180012DAE
:1035300000F04E82B068A16A00F480328A4240F006
:103540004782E16A00F470128A4240F04182216BA6
:1035500000F44000884240F03B82002003B0BDE808
:10356000F08300BFB9F1000F6AD0A069002800F015
:103570009B800020C4F2472001210162FEF7DCFBA2
:10358000054600BF3068800500F1C480FEF7D4FB1B
:10359000401B0228F6D9032003B0BDE8F08300BF2A
:1035A0006069002840F20000C4F247206AD001217F
:1035B000C0F88016FEF7C0FB054600BF706B8007A1
:1035C000ACD4FEF7B9FB401B0228F7D9032003B0A7
:1035D000BDE8F083706A5FEAC00808D4706A40F002
:1035E00080507062706A00F080500090009847F23E
:1035F0000007C4F200073868C00513D4386840F4E7
:1036000080703860FEF798FB054600BF3868C0053B
:1036100008D4FEF791FB401B64284FF00300F5D956
:10362000D3E100BFA168706B002900F0AF800529CD
:1036300000F0A480012940F0C18040F48070C3E014
:103640003068800503D5A069002800F0C181206A98
:10365000716801F4604188426AD9B16811F0F00FD5
:1036600000F00281002159E161683068002900F012
:10367000CF80052900F0C480012940F0DF8040F4AC
:103680008030E1E00021C0F88016FEF755FB0546CA
:10369000706B80077FF542AFFEF74EFB401B0228A0
:1036A0004FF00300F4D990E10020C4F2472000213C
:1036B0000162FEF741FB0546306880057FF52BAFC0
:1036C000FEF73AFB401B02284FF00300F4D97CE1DF
:1036D0000027C4F2472700203866FEF72DFB022D95
:1036E00005460BD13068800140F1EA80FEF724FBEB
:1036F000401B02284FF00300F4D966E130688001D6
:103700007FF52BAFFEF718FB401B02284FF003009C
:10371000F4D95AE17068D4E9071220F460401043EC
:103720007060706820F07F4040EA01607060F2E6EF
:10373000716821F46041014371607168E26921F0B0
:103740007F4141EA02617160B16811F0F00F00F051
:10375000A18000210EE100BF00210160FEF7ECFA1C
:10376000054600BF306880077FF5D2AEFEF7E4FA69
:10377000401B02284FF00300F4D926E140F480609A
:103780007063706B40F480701EE000BF20F48070A6
:103790007063706B20F480607063FEF7CDFA0546AD
:1037A00041F28837706B800520D5FEF7C5FA401BC3
:1037B000B8424FF00300F5D907E100BF20F4807054
:1037C0007063706B20F480607063FEF7B5FA054695
:1037D00041F28837706B800508D4FEF7ADFA401BC4
:1037E000B842F7D9032003B0BDE8F083B8F1000F69
:1037F0003FF597AE706A20F08050706291E600BF8E
:1038000040F480203060306840F480301CE000BF1D
:1038100020F480303060306820F480203060FEF783
:103820008BFA0546306880037FF53FAEFEF784FAD9
:10383000401B64284FF00300F4D9C6E020F4803028
:103840003060306820F480203060FEF775FA05465D
:10385000306880033FF529AEFEF76EFA401B6428FE
:103860004FF00300F4D9B0E0716AC90047F20001DB
:10387000C4F2000140D4726A42F080527262726AED
:1038800002F080520192019A0A68716A21F0805117
:10389000716232E0716AC90047F20001C4F20001AE
:1038A00056D4726A42F080527262726A02F080529A
:1038B0000292029A0A68716A21F08051716248E0AE
:1038C000B06804F128030ECB20F47D0008431043B8
:1038D0001843B06001203866FEF72EFA044600BF98
:1038E000306880013FF539AEFEF726FA001B02284A
:1038F0004FF00300F4D968E00A68B0F5404F4FF08C
:1039000000010BD102F4C052B2F5C05F06D1D6F867
:10391000001441F00401C6F800140121D6F8002477
:1039200022F001020A44C6F80024D6F8002402F06E
:1039300001028A424CD1716821F4604101437160F7
:103940007168E26921F07F4141EA026171601EE025
:103950000A68B0F5404F4FF000010BD102F4C0529D
:10396000B2F5C05F06D1D6F8001441F00401C6F8E4
:1039700000140121D6F8002422F001020A44C6F8FE
:103980000024D6F8002402F001028A4220D1B16856
:103990004AF68472C1F30311C0F60002400B515C79
:1039A0004FF4803202FA00F020FA01F140F20000F8
:1039B000C2F2000040F224020068C2F2000211606C
:1039C000FEF7DEF900283FF4A6AD03B0BDE8F083B2
:1039D000012003B0BDE8F0834EF21000CEF20000EB
:1039E000016841F00201016070470000411E0020A3
:1039F000B0EB116F1CBF012070474EF21002CEF2E7
:103A0000000251604EF62351CEF20001F0230B70FC
:103A100007219060116070474EF21000CEF2000056
:103A2000016821F0020101607047000090F8382021
:103A3000012A4FF0020236D010B580F83920026812
:103A4000D2F804E0D2F808C00C682EF070032343CB
:103A500040F2FF74C4F20004A24253600ADCB2F1E7
:103A6000804F13D040F20043C4F200039A420DD0BD
:103A700011E000BF40F60003C4F201039A4205D0F2
:103A800040F60003C4F200039A4204D149682CF0C6
:103A90008003194391600121002280F8391080F8D9
:103AA0003820BDE81040104670470000002804BFD1
:103AB0000120704710B590F8391031B9002180F815
:103AC0003810044600F086F82046022180F83910AC
:103AD000016840F2FF730A68C4F20003994227DDCF
:103AE00040F60003C4F2000399422AD040F60003D6
:103AF000C4F20103994224D040F60043C4F200030B
:103B000099421ED040F6FF33C4F20003994222DDF1
:103B100040F6FF33C4F2010399422DDC40F6004326
:103B2000C4F20003994233D040F600032CE000BFFA
:103B3000B1F1804F05D040F20043C4F20003994236
:103B4000E0D1836822F070021A4340F6FF33C4F2DA
:103B500000039942DCDCB1F1804F19D040F2004300
:103B6000C4F20003994213D040F60003C4F20003EC
:103B700099420DD010E000BF41F20003C4F20103EE
:103B8000994205D040F60043C4F20103994203D1A3
:103B9000036922F440721A434368C46822F0800C1F
:103BA0004269CC628B620B6842EA0C0243F0040368
:103BB0000B6001234B610A6080F83E3080F83A3098
:103BC00080F83B3080F83C3080F83D3080F8393068
:103BD000002010BD006840F60041C4F20001884298
:103BE00018BF704781B043F62400C4F20200016898
:103BF00041F008010160006800F0080000900098A2
:103C000001B0704790F8391001291CBF012070479E
:103C1000022180F83910006840F2FF72C168C4F2D6
:103C20000002904241F00101C16009DCB0F1804F17
:103C300012D040F20041C4F2000188420CD012E0E0
:103C400040F60001C4F20101884205D040F60001AF
:103C5000C4F20001884206D1816801F007010629FB
:103C600004BF00207047016841F00101016000209D
:103C70007047000090F83820012A4FF002026CD003
:103C800080B580F83920D0F800C04FF67772DCF8A4
:103C9000083023EA0202CCF808200B684F2B29DCFD
:103CA0001F2B45DD202B46D0302B44D0402B40F03D
:103CB000AF80D1F804E0C968DCF82030DCF82020BF
:103CC00022F00102CCF82020DCF8182022F0F002CB
:103CD00042EA011123F00A0242EA0E02CCF818105F
:103CE000CCF82020DCF8081041F0470121F0300129
:103CF00028E000BF6F2B33DDB3F5005F74D0B3F560
:103D0000805F21D0702B40F08380D1E901E3C96846
:103D1000DCF8082043EA0E0322F47F4243EA012143
:103D20001143CCF80810DCF8081041F0770109E0E5
:103D30000BB1102B6CD1DCF8081021F07001194385
:103D400041F00701CCF808100022012180F8391059
:103D5000002180F83810BDE880401046704700BF51
:103D6000502B21D0602B53D1D1F804E0C968DCF886
:103D70002030DCF8202022F01002CCF82020DCF8E3
:103D8000182022F4704242EA013123F0A00242EAF4
:103D90000E12CCF81810CCF82020DCF8081041F0F6
:103DA000670121F01001CDE7D1F804E0C968DCF823
:103DB0002030DCF8202022F00102CCF82020DCF8B2
:103DC000182022F0F00242EA011123F00A0242EA2E
:103DD0000E02CCF81810CCF82020DCF8081041F0C6
:103DE000570121F02001ADE7D1E901E3C968DCF812
:103DF000082043EA0E0322F47F4243EA01211143E3
:103E0000CCF80810DCF8081041F480419AE700BFB4
:103E100001229AE790F83830012B04BF0220704746
:103E20004FEAB202032A00F29580F0B5DFE802F013
:103E300002601E420368D3F820C01A6A22F0010211
:103E40001A621A46D3F804E052F8184F91E8E000DD
:103E500024F07304C9682C432CF002052F43C3F8E7
:103E600004E01460D6611F621CE000BF0368D3F851
:103E700020C01A6A22F480721A621A46D3F804E04B
:103E800052F81C5FD1E9004725F07305D1E90261C2
:103E90002C432CF4007545EA0626C3F804E01460B0
:103EA00017621E62136843F008031360136823F05F
:103EB000040342E00368D3F820C01A6A22F4805257
:103EC0001A621A46D3F804E052F81C5FD1E90047A1
:103ED00025F4E645D1E9026145EA04242CF40055B5
:103EE00045EA0636C3F804E0146057621CE000BFE0
:103EF0000368D3F820C01A6A22F010021A621A4628
:103F0000D3F804E052F8185FD1E9004725F4E645FC
:103F1000D1E9026145EA04242CF0200545EA0616A1
:103F2000C3F804E0146017621E621368090243F4C8
:103F300000631360136823F48063136013681943EC
:103F400011600021BDE8F040002280F838200846CA
:103F5000704700BF0121002280F8382008467047D2
:103F6000002804BF0120704710B590F8391031B90E
:103F7000002180F83810044600F086F8204602211F
:103F800080F83910016840F2FF730A68C4F2000338
:103F9000994227DD40F60003C4F2000399422AD07B
:103FA00040F60003C4F20103994224D040F60043D6
:103FB000C4F2000399421ED040F6FF33C4F200035E
:103FC000994222DD40F6FF33C4F2010399422DDC11
:103FD00040F60043C4F20003994233D040F6000398
:103FE0002CE000BFB1F1804F05D040F20043C4F295
:103FF00000039942E0D1836822F070021A4340F630
:10400000FF33C4F200039942DCDCB1F1804F19D0D8
:1040100040F20043C4F20003994213D040F600037B
:10402000C4F2000399420DD010E000BF41F200033A
:10403000C4F20103994205D040F60043C4F20103E3
:10404000994203D1036922F440721A434368C46859
:1040500022F0800C4269CC628B620B6842EA0C024F
:1040600043F004030B6001234B610A6080F83E308B
:1040700080F83A3080F83B3080F83C3080F83D30B2
:1040800080F83930002010BD70470000C1B104290C
:1040900008D0082914BF3D223C22825C012A05D0A9
:1040A00016E000BF3B22825C012A11D102220829BE
:1040B00010D0042914BF80F83D2080F83B200BE08D
:1040C00090F83A20012A03D1022280F83A2003E036
:1040D0000120704780F83C20006801F01F01012298
:1040E000036A02FA01F123EA01020262026A114341
:1040F00040F2FF72C4F20002904201620ADCB0F1A9
:10410000804F13D040F20041C4F2000188420DD02C
:1041100013E000BF40F60001C4F20101884205D05F
:1041200040F60001C4F20001884206D1816801F026
:104130000701062904BF00207047016841F0010112
:10414000016000207047000010B5026801F01F0EEA
:104150004FF0010C146A0CFA0EF324EA0303136205
:10416000136A41F211141362136A23420ED0082914
:1041700012D0042916D000294FF0010114BF80F895
:104180003D1080F83A10002010BD00BF136823F0E6
:10419000010313600829ECD1012180F83C100020B4
:1041A00010BD00BF012180F83B10002010BD0000B1
:1041B000B0B5044690F8380001284FF0020008BF5F
:1041C000B0BD012584F8385084F83900204602F04B
:1041D000B9FC00284FF0010006D0002184F83950C6
:1041E00084F83810B0BD00BF2068C16821F04001DC
:1041F000C160C16821F48041C1600020002184F8C1
:10420000395084F83810B0BD7047000010B504462E
:104210000068416994F84120212A56D111F08001AB
:1042200053D000BF206850E8050F216820F08000BF
:1042300041E80502DAB1206850E8050F216820F056
:10424000800041E8050292B1206850E8050F21681E
:1042500020F0800041E805024AB1206850E8050FCF
:10426000216820F0800041E80502002ADAD1A06B25
:10427000002818BFFDF7ECF9206850E8030F21680B
:1042800020F0C00041E80302DAB1206850E8030FD3
:10429000216820F0C00041E8030292B1206850E894
:1042A000030F216820F0C00041E803024AB12068F2
:1042B00050E8030F216820F0C00041E80302002A03
:1042C000DAD1202084F841002068406994F8421037
:1042D000222940F0A78010F0400000F0A38000BF2A
:1042E000206850E8050F216820F0400041E80502F1
:1042F000DAB1206850E8050F216820F0400041E85D
:10430000050292B1206850E8050F216820F04000B6
:1043100041E805024AB1206850E8050F216820F005
:10432000400041E80502002ADAD1E06B002818BFFE
:10433000FDF78EF9206850E8030F216820F4907093
:1043400041E80302BAB3206850E8030F216820F463
:10435000907041E8030272B3206850E8030F2168AF
:1043600020F4907041E803022AB3206850E8030F5C
:10437000216820F4907041E80302002ADAD11AE0A3
:10438000206850E8050F216820F0010041E805028F
:10439000DAB1206850E8050F216820F0010041E8FB
:1043A000050292B1206850E8050F216820F0010055
:1043B00041E805024AB1206850E8050F216820F065
:1043C000010041E80502002ADAD1206B012824D13E
:1043D000206850E8030F216820F0100041E8030234
:1043E000DAB1206850E8030F216820F0100041E89E
:1043F000030292B1206850E8030F216820F01000FA
:1044000041E803024AB1206850E8030F216820F018
:10441000100041E80302002ADAD1202084F842008B
:1044200000202063002010BD70470000B0B582B0AE
:1044300001680A68CC684B6902F02F05202D04F052
:10444000200505D125B102B0BDE8B04002F0C8BDDD
:104450005FEA027C1EBF03F0010E04F4907313EBBD
:104460000E0341D1036BD50618D5012B16D114F0DC
:10447000100313D0002201920A6801924A68019247
:10448000019A496949064BD4818DC28DC38D002B99
:1044900018BF914240F0048202B0B0BD13062DD582
:1044A00014F080032AD090F84120212AF4D18268A8
:1044B000B2F5805F03D10269002A00F07782026AB8
:1044C000531C036212784A60C28C013A1304C284FE
:1044D000E2D1C86820F08000C860C86840F04000A1
:1044E000C86002B0B0BD00BFD30718BF14F480731A
:1044F00040F0E080530700F1E380E8E05206CBD5BE
:1045000014F04002C8D0CA6822F04002CA602021DC
:1045100080F8411002B0BDE8B04000F0B3BB00BF6E
:10452000C26B11684B68858D99B2002900F0B48088
:10453000A94280F0B180C3859169202900F0A18053
:10454000016851E8031F026821F4807142E80313F7
:10455000DBB1016851E8031F026821F4807142E871
:10456000031393B1016851E8031F026821F48071BD
:1045700042E803134BB1016851E8031F026821F4BC
:10458000807142E80313002BDAD1016851E8051F5E
:10459000026821F0010142E80513C3B3016851E844
:1045A000051F026821F0010142E805137BB3016891
:1045B00051E8051F026821F0010142E8051333B3F9
:1045C000016851E8051F026821F0010142E8051366
:1045D000002BDAD11BE000BF016851E8051F02681B
:1045E00021F0400142E80513DBB1016851E8051FE5
:1045F000026821F0400142E8051393B1016851E8D7
:10460000051F026821F0400142E805134BB1016823
:1046100051E8051F026821F0400142E80513002B14
:10462000DAD1202180F8421000210163016851E8AD
:10463000031F026821F0100142E80313DBB1016897
:1046400051E8031F026821F0100142E8031393B1FF
:10465000016851E8031F026821F0100142E80313CA
:104660004BB1016851E8031F026821F0100142E8D4
:104670000313002BDAD1C16B04460846FCF7E8FFB0
:10468000204602214163818DC28D891A89B202B010
:10469000BDE8B040FFF7B8BD8D427FF4FDAE926932
:1046A000202A7FF4F9AE0222426302B0BDE8B04096
:1046B000FFF7AABD436C43F001034364530706D5DB
:1046C000BEF1000F03D0436C43F002034364930731
:1046D00006D5BEF1000F03D0436C43F004034364DE
:1046E000BCF1000F06D55EEA050303D0436C43F02E
:1046F00008034364436C002B3FF4CEAE920605D50D
:1047000025B1044602F06CFC216820464969426CE0
:1047100001F0400102F00802891800F0B98000BFE2
:10472000016851E8031F026821F4907142E8031305
:10473000BBB3016851E8031F026821F4907142E89D
:10474000031373B3016851E8031F026821F49071E9
:1047500042E803132BB3016851E8031F026821F4F8
:10476000907142E80313002BDAD11AE0016851E896
:10477000051F026821F0010142E80513DBB1016861
:1047800051E8051F026821F0010142E8051393B1C9
:10479000016851E8051F026821F0010142E8051394
:1047A0004BB1016851E8051F026821F0010142E8A0
:1047B0000513002BDAD1016B012924D1016851E8DE
:1047C000031F026821F0100142E80313DBB1016806
:1047D00051E8031F026821F0100142E8031393B16E
:1047E000016851E8031F026821F0100142E8031339
:1047F0004BB1016851E8031F026821F0100142E843
:104800000313002BDAD1202180F84210002101632C
:1048100001684969490640F1C380016851E8051FF4
:10482000026821F0400142E80513DBB1016851E85C
:10483000051F026821F0400142E8051393B10168A9
:1048400051E8051F026821F0400142E805134BB111
:10485000016851E8051F026821F0400142E8051394
:10486000002BDAD1C16B002900F09A8046F6E142B4
:10487000C0F60002044608464A63FCF70FFF002812
:104880003FF40AAEE06B416B02B0BDE8B0400847B0
:104890000446FFF7C9FD0020606402B0B0BD00BF50
:1048A000891A00BF026852E8032F036822F490724D
:1048B00043E80325BDB3026852E8032F036822F4DE
:1048C000907243E8032575B3026852E8032F03682A
:1048D00022F4907243E803252DB3026852E8032FB7
:1048E000036822F4907243E80325002DDAD11AE020
:1048F000026852E8052F036822F0010243E805250B
:10490000DDB1026852E8052F036822F0010243E896
:10491000052595B1026852E8052F036822F00102CF
:1049200043E805254DB1026852E8052F036822F0DF
:10493000010243E80525002DDAD1202280F842202B
:1049400000220263026852E8032F036822F010027B
:1049500043E80325DDB1026852E8032F036822F023
:10496000100243E8032595B1026852E8032F03685B
:1049700022F0100243E803254DB1026852E8032FEC
:10498000036822F0100243E80325002DDAD1022249
:1049900089B2426302B0BDE8B040FFF735BC00BF4A
:1049A00002B0BDE8B040FFF73FBD00BF026A32F879
:1049B000023B6FF35F234B60026285E5002804BF72
:1049C0000120704710B5044690F8410028B9002036
:1049D00084F84000204600F021F8242084F84100AB
:1049E0002068C16821F40051C160204602F078FBC4
:1049F0002068016921F490410161416921F02A0197
:104A00004161C16841F40051C1600020202160640F
:104A100084F8411084F84210606310BD2DE9F04124
:104A200086B0044643F600002168C4F20100002667
:104A300081420596CDE903660296019602D006B042
:104A4000BDE8F08143F61C01C4F202014A6846F257
:104A5000440842F480424A604A6800F54C4002F43F
:104A600080420092009A0A68C4F2020842F00202F0
:104A70000A60096801F0020100910099C0210191CA
:104A80000221CDE90216032104910721059101A914
:104A9000FDF778F841F2182508F11400C2F200057C
:104AA0008027C5E900062846C5E90267C5E904660E
:104AB000C5E90666FCF772FE002818BFFCF732FA5B
:104AC000E5636C6241F25C25C2F200051020002112
:104AD000C5E900802846C5E90217C5E90411C5E902
:104AE0000611FCF75BFE002818BFFCF71BFAA56354
:104AF0006C6206B0BDE8F08170B582B090F84250AB
:104B0000202D0BD113460A460146002A4FF0010022
:104B100018BF002B06D102B070BD00BF022002B04A
:104B200070BD00BF002622200E638A628B854E6412
:104B300081F842000C680D46C86B46F66961C0F604
:104B4000000146F6C97C46F6ED4EC0F6000CC0F6F4
:104B5000000E8162211DC0F82CC0C0F830E0466311
:104B6000FCF76CFE40B110206864202085F84200FC
:104B7000012002B070BD00BF019628682946026876
:104B80000192406801900198286928B3086850E8AC
:104B9000030F0A6840F4807042E80303E3B1086839
:104BA00050E8030F0A6840F4807042E803039BB1A9
:104BB000086850E8030F0A6840F4807042E8030375
:104BC00053B1086850E8030F0A6840F4807042E867
:104BD0000303002BDAD100BF086850E8050F0A680C
:104BE00040F0010042E80503DBB3086850E8050F18
:104BF0000A6840F0010042E8050393B3086850E8F2
:104C0000050F0A6840F0010042E805034BB308684D
:104C100050E8050F0A6840F0010042E80503002B48
:104C2000DAD11EE0086850E8050F0A6840F040003D
:104C300042E80503FBB1086850E8050F0A6840F038
:104C4000400042E80503B3B1086850E8050F0A6860
:104C500040F0400042E80503002B4FF000003FF415
:104C60005AAF086850E8050F0A6840F0400042E873
:104C70000503002BD6D1002002B070BD70470000A4
:104C800070470000006843F60001C4F20101884249
:104C900018BF704740F20820C2F2000000210170E6
:104CA00070470000FEE7000040F2302CC2F2000C1A
:104CB0009CF800309CF801209A4204BF0020704705
:104CC0000CEBC203D9689B68C0E90031501C00F0AE
:104CD00007008CF8010001207047000010B540F279
:104CE0003024C2F2000404F108004021FBF7BEFAB0
:104CF0000020C4E9000010BD81B040F60001C4F2FC
:104D000002010868012262F39B6008604FF40050C2
:104D100088614FF000508861086820F040500860BA
:104D2000C86862F31D70C860086820F040400860E1
:104D3000C86862F39F70C8600020009000986328E4
:104D400018DC00BF0098013000900098632811DC47
:104D5000009801300090009863280BDC0098013027
:104D600000900098632805DC0098013000900098BE
:104D70006428E7DB0869400406D40869012280B290
:104D800082EAD03001E000BF00200A68012322F04F
:104D900040620A60CA6863F39B62CA6001B07047F0
:104DA00080B540F60001C4F202010868012262F3F6
:104DB0009F7008604FF4004088614FF000408861A8
:104DC000086820F040600860C86862F39B60C860B3
:104DD000086820F040500860C86862F31D70C86021
:104DE0000869400406D44FF0060C06204FF0060E6A
:104DF0000FE000BF0869800406D44FF0020C0220C7
:104E00004FF0020E05E000BF4FF0000E03204FF000
:104E1000010C0B6823F040430B60CB6862F39F7377
:104E2000CB600B6862F31D730B604FF480438B61A2
:104E30004FF080438B610B6823F040630B60CB68BD
:104E400062F39B63CB600B6823F040430B60CB683D
:104E500062F39F73CB600A69920404D50869000469
:104E600058BFE64670460A68012322F040520A60A5
:104E7000CA6863F31D72CA600A6863F39B620A60C2
:104E80004FF400528A614FF000528A610A6822F0A2
:104E900040520A60CA6863F31D72CA600A6822F051
:104EA00040420A60CA6863F39F72CA600A6952048A
:104EB00004D4002808BF042006E000BF0A691204D9
:104EC00002D4002808BF05200A6822F040620A6068
:104ED000CA6863F39B62CA6080BD000070B5FFF7CB
:104EE0005FFF40F23024C2F20004A178022923D0EF
:104EF000012941D1E178884244D1616801312829F2
:104F0000616040D3217862784B1C03F0070595421D
:104F10000ED004F1080606EBC10206F831000220AB
:104F20005070FCF709FF2178257006EBC10148603D
:104F30000220A07070BD00BFE17810B1884208BFA8
:104F400070BD20786278431C03F0070595420ED0AF
:104F500004F1080606EBC00206F83010032050707A
:104F6000FCF7EAFE2178257006EBC10148600020BD
:104F70006080606070BD00BF28B10121A170E07049
:104F8000616070BD00B170BD606802382528EED840
:104F900020786278431C03F007059542E7D004F1BE
:104FA000080606EBC00206F830100120D7E7000023
:104FB00041F2A020C2F20000FCF70ABF10B541F296
:104FC000A024C2F200042068016841F001010160E0
:104FD0002046FCF7FDFE0020012100F0EDFD012040
:104FE000022100F0E9FD0220032100F0E5FD03208D
:104FF000042100F0E1FD0420052100F0DDFD052085
:10500000062100F0D9FD204600216FF400324FF454
:105010000033FDF75DF8204600216FF480324FF435
:105020008033FDF755F8204606216FF400424FF417
:105030000043FDF74DF8204604216FF001020123E3
:10504000FDF746F8204606216FF001020123FDF727
:105050003FF8204602216FF001020123FDF738F8E6
:10506000204600216FF001020123FDF731F82046B0
:1050700006216FF400624FF40063FDF729F8204623
:1050800000216FF400524FF40053FDF721F8204641
:1050900006216FF480524FF48053FDF719F8204633
:1050A00002216FF400524FF40053FDF711F820462F
:1050B00004216FF400524FF40053FDF709F8204625
:1050C00006216FF400524FF40053FDF701F820461B
:1050D00000216FF480424FF48043FCF7F9FF204633
:1050E00002216FF480424FF48043FCF7F1FF204629
:1050F00004216FF480424FF48043FCF7E9FF20461F
:1051000006216FF480424FF48043FCF7E1FF204614
:1051100002216FF480424FF48043FCF7D9FF204610
:1051200000216FF400424FF40043FCF7D1FF20460A
:1051300002216FF400424FF40043FCF7C9FF204600
:1051400004216FF400424FF40043FCF7C1FF2046F6
:1051500002216FF480324FF48033FCF7B9FF204610
:1051600004216FF480324FF48033FCF7B1FF204606
:1051700004216FF480324FF48033FCF7A9FF2046FE
:1051800006216FF480324FF48033FCF7A1FF2046F4
:1051900006216FF010021023FCF79AFF204606212B
:1051A0006FF040024023FCF793FF204606216FF486
:1051B00000324FF40033FCF78BFF204602216FF4DE
:1051C00000324FF40033FCF783FF204604216FF4D4
:1051D00000324FF40033FCF77BFF204600216FF4D0
:1051E00080224FF48023FCF773FF204602216FF4E6
:1051F00080224FF48023FCF76BFF204604216FF4DC
:1052000080224FF48023FCF763FF204606216FF4D1
:1052100080224FF48023FCF75BFF204600216FF4CF
:1052200000224FF40023FCF753FF204602216FF4C5
:1052300000224FF40023FCF74BFF204604216FF4BB
:1052400000224FF40023FCF743FF204606216FF4B1
:1052500000224FF40023FCF73BFF204600216FF4AF
:1052600080124FF48013FCF733FF204602216FF4C5
:1052700080124FF48013FCF72BFF204604216FF4BB
:1052800080124FF48013FCF723FF204606216FF4B1
:1052900080124FF48013FCF71BFF204600216FF4AF
:1052A00000124FF40013FCF713FF204602216FF4A5
:1052B00000124FF40013FCF70BFF204604216FF49B
:1052C00000124FF40013FCF703FF204606216FF491
:1052D00000124FF40013FCF7FBFE204600216FF490
:1052E00080024FF48003FCF7F3FE204602216FF4A6
:1052F00080024FF48003FCF7EBFE204604216FF49C
:1053000080024FF48003FCF7E3FE204606216FF491
:1053100080024FF48003FCF7DBFE204600216FF48F
:1053200000024FF40003FCF7D3FE204602216FF485
:1053300000024FF40003FCF7CBFE204604216FF47B
:1053400000024FF40003FCF7C3FE204606216FF471
:1053500000024FF40003FCF7BBFE204600216FF073
:1053600080724FF08073FCF7B3FE204602216FF08D
:1053700080724FF08073FCF7ABFE204604216FF083
:1053800080724FF08073FCF7A3FE204606216FF079
:1053900080724FF08073FCF79BFE204600216FF077
:1053A00000724FF00073FCF793FE204602216FF06D
:1053B00000724FF00073FCF78BFE2046BDE81040F2
:1053C000FCF760BE2DE9F04F83B00D46019100213E
:1053D000044605F00EFA0028029418BF84F0004439
:1053E000204605F055F9064628460F4604F0ECFD28
:1053F0000B4600210246C4F22401002003F06CFE9B
:1054000002460B463046394604F02EFE0023C3F612
:10541000E073002204F07CFB04F092FD4CF6CD41D9
:10542000CCF6CC41A0FB0112D10849F69A12C1F684
:105430009912A1FB023C48F21F53C5F2EB13A0FBEB
:1054400003367309A3FB026E44F6D356C1F262061B
:10545000A0FB0664A409A4FB026741F25976CDF2D1
:10546000B716A0FB06654FEA5538A8FB022945F69A
:10547000C5254209C0F67C25A2FB052A01EB810265
:10548000A0EB420000900CEB8C00A1EB400B0EEB6C
:105490008E00A3EB400607EB8700A4EB400509EB69
:1054A0008900A8EB40044FEADA104CF6CD414143A5
:1054B000C90C01EB8101A0EB410081B2002000F09A
:1054C0007BFB01202146012400F076FB02202946C7
:1054D00000F072FB0320314600F06EFB04205946B9
:1054E00000F06AFB0098C1B2052000F065FB41F2B4
:1054F000A026C2F20006304606216FF00402002307
:10550000FCF7E6FD304606216FF010020023FCF7A1
:10551000DFFD304606216FF040020023FCF7D8FD86
:10552000304606216FF480720023FCF7D1FD30462F
:1055300006216FF480620023FCF7CAFD0199481E22
:10554000C0B204280FD84AF66870C0F60000401AAE
:105550004079062104FA00F341F2A020DA43C2F2B6
:105560000000FCF7B5FD0298002105F042F941F278
:10557000A024C2F200040346002820464FF0040194
:105580006FF0010218BF0123FCF7A2FD204603B013
:10559000BDE8F04FFCF776BDB0B53B2888BFB0BD85
:1055A000DFE810F064017001400158012801C201D8
:1055B000CE013C003C003C003C003C005002340169
:1055C0000A02FA002C024C01AA0120027C01880187
:1055D000F20138020601EE00A402BC0268028C024D
:1055E000DA019E01E601BE00A60076008E005E0094
:1055F000980244021C01B6015C025200B200FE0196
:10560000D4026A00CA00E200F802EC02E002820062
:10561000B002C8029A007402D600800207384AF627
:105620006872C0B2C0F60002105C0122824001FA2A
:1056300000F341F2A020D243C2F200000621BDE8EF
:10564000B040FCF745BD00BF41F2A0204B05C2F2BF
:10565000000002216FF40012BDE8B040FCF738BD35
:1056600041F2A020CB04C2F2000006216FF4002218
:10567000BDE8B040FCF72CBD41F2A0208B05C2F282
:10568000000002216FF48002BDE8B040FCF720BDAD
:1056900041F2A020CB04C2F2000002216FF40022EC
:1056A000BDE8B040FCF714BD41F2A020CB05C2F22A
:1056B000000006216FF40002BDE8B040FCF708BD11
:1056C00041F2A020CB04C2F2000004216FF40022BA
:1056D000BDE8B040FCF7FCBC41F2A0200B06C2F2D2
:1056E000000004216FF08072BDE8B040FCF7F0BC10
:1056F00041F2A020CB04C2F2000000216FF400228E
:10570000BDE8B040FCF7E4BC41F2A0204B05C2F27A
:10571000000004216FF40012BDE8B040FCF7D8BCD3
:1057200041F2A0208B04C2F2000006216FF4802217
:10573000BDE8B040FCF7CCBC41F2A0208B05C2F222
:10574000000004216FF48002BDE8B040FCF7C0BC4B
:1057500041F2A0204B06C2F2000000216FF000725F
:10576000BDE8B040FCF7B4BC41F2A0208B05C2F20A
:10577000000006216FF48002BDE8B040FCF7A8BC31
:1057800041F2A0200B04C2F2000004216FF4803229
:10579000BDE8B040FCF79CBC41F2A0204B03C2F234
:1057A000000004216FF40052BDE8B040FCF790BC4B
:1057B00041F2A0250C04C2F20005284602216FF434
:1057C00080322346FCF784FC284604216FF48032A3
:1057D0002346BDE8B040FCF77BBC00BF41F2A020EF
:1057E0000B05C2F2000004216FF48012BDE8B04046
:1057F000FCF76EBC41F2A020C2F200000B4606216D
:105800006FF00102BDE8B040FCF762BC41F2A0209D
:105810004B03C2F2000000216FF40052BDE8B0401B
:10582000FCF756BC41F2A020CB03C2F200000621D7
:105830006FF40042BDE8B040FCF74ABC41F2A02042
:105840008B03C2F2000000216FF48042BDE8B0403B
:10585000FCF73EBC41F2A020C2F200000B4604213E
:105860006FF00102BDE8B040FCF732BC41F2A0206D
:105870004B04C2F2000000216FF40032BDE8B040DA
:10588000FCF726BC41F2A0200B04C2F2000000216C
:105890006FF48032BDE8B040FCF71ABC41F2A020A2
:1058A0008B03C2F2000006216FF48042BDE8B040D5
:1058B000FCF70EBC41F2A024C2F200048B03204688
:1058C0000D4602216FF48042FCF702FCEB032046F8
:1058D00000216FF40042BDE8B040FCF7F9BB00BF07
:1058E00041F2A0208B04C2F2000002216FF480225A
:1058F000BDE8B040FCF7ECBB41F2A0208B03C2F244
:10590000000002216FF48042BDE8B040FCF7E0BB2C
:1059100041F2A0200B05C2F2000006216FF48012B4
:10592000BDE8B040FCF7D4BB41F2A020C2F20000B9
:105930000B4602216FF00102BDE8B040FCF7C8BB86
:1059400041F2A020C2F200000B4600216FF00102DC
:10595000BDE8B040FCF7BCBB41F2A0208B04C2F212
:10596000000000216FF48022BDE8B040FCF7B0BB1E
:1059700041F2A0208B04C2F2000004216FF48022C7
:10598000BDE8B040FCF7A4BB41F2A020CB03C2F2BB
:10599000000002216FF40042BDE8B040FCF798BB64
:1059A00041F2A0204B05C2F2000006216FF4001264
:1059B000BDE8B040FCF78CBB41F2A024C2F2000469
:1059C0000B0320460D4606216FF48052FCF780FB46
:1059D0006B03204602216FF40052BDE8B040FCF793
:1059E00077BB00BF41F2A0208B03C2F2000004216C
:1059F0006FF48042BDE8B040FCF76ABB41F2A020E2
:105A00004B03C2F2000006216FF40052BDE8B04023
:105A1000FCF75EBB41F2A020CB03C2F200000421E0
:105A20006FF40042BDE8B040FCF752BB41F2A02049
:105A30000B05C2F2000002216FF48012BDE8B040F5
:105A4000FCF746BB41F2A020CB02C2F200000621C7
:105A50006FF40062BDE8B040FCF73ABB41F2A02011
:105A60004B05C2F2000000216FF40012BDE8B04007
:105A7000FCF72EBB41F2A0204B04C2F2000004212F
:105A80006FF40032BDE8B040FCF722BB41F2A02029
:105A90000B06C2F2000006216FF08072BDE8B04034
:105AA000FCF716BB41F2A0204B06C2F20000022117
:105AB0006FF00072BDE8B040FCF70ABB41F2A020D5
:105AC0004B04C2F2000006216FF40032BDE8B04082
:105AD000FCF7FEBA41F2A0200B05C2F20000002143
