:020000040800F2
:10000000D8070020450100080F370008BD2D000863
:100010000D370008B70E000871400008000000000E
:10002000000000000000000000000000253A000869
:100030001F1100080000000011370008273A0008CF
:100040005F0100085F0100085F0100085F01000810
:100050005F0100085F0100085F0100085F01000800
:100060005F0100085F0100085F010008A11000089F
:10007000AD100008B9100008C5100008D110000824
:100080005F0100085F0100085F0100085F010008D0
:100090005F0100085F0100085F0100085F010008C0
:1000A0005F0100085F0100085F0100085F010008B0
:1000B0005F010008A93A00085F0100085F0100081D
:1000C0005F0100085F0100085F0100085F01000890
:1000D0005F010008D93F00085F01000825400008C3
:1000E0005F0100085F0100085F0100085F01000870
:1000F0005F0100085F0100085F0100085F01000860
:100100005F0100085F0100085F0100085F0100084F
:10011000CD3B00085F0100085F0100085F01000897
:100120005F0100085F010008DD100008E910000809
:10013000DFF80CD000F0B6FB00480047194D00086E
:10014000D80700200648804706480047FEE7FEE73C
:10015000FEE7FEE7FEE7FEE7FEE7FEE7FEE7FEE777
:10016000A53A000831010008202A04DB203A21FAD0
:1001700002F00021704721FA02F3D040C2F12002C0
:100180009140084319467047D2B201E000F8012BB4
:10019000491EFBD270470022F6E710B513460A4607
:1001A00004461946FFF7F0FF204610BD30B505465E
:1001B0000020034600E05B1C934205D2EC5CC85C67
:1001C000201A01D1002CF6D130BDF0B480EA010232
:1001D000D40F4200B2EB410F02D20246084611464C
:1001E0004A0042D0C30DDDB2C1F3C752AD1A202D73
:1001F00035DAC1F3160141F4000204B15242C5F1EF
:10020000200602FA06F12A411044B3EBD05F23D056
:10021000C4B1012DA0EBC35009DCF0BC4FF000428B
:1002200002EAC352DBB200F5000000F01EB9400044
:1002300000F1807000EBC350A0F1807040EAD170F3
:10024000490009E0490841EAC071A0EBC35000F53C
:100250000000400800EBC350F0BC00F0FDB8614264
:10026000012202EB4101001BF6E7F0BC704781F070
:100270000041AAE780F00040A7E780EA010210B53C
:1002800002F00043400022D04A001FD0010E01EBD3
:100290001261C0F35600C2F3560240F4000042F46B
:1002A0000002A0FB022000047F39140400D0401C8F
:1002B00050EA124001D44000491EC2B20C0604EBC1
:1002C000D010401C4008802A02D003E0002010BD5E
:1002D00020F00100002900DA0020184310BD30B4DE
:1002E00080EA010202F0004530F0004221F00040B7
:1002F00013D090B1C30DD40DC2F31601C0F3160094
:10030000E41A41F4000140F400027D34914201D32B
:10031000641C00E04900002C02DA30BC0020704769
:100320004FF400000023914201D3891A034340088F
:100330004FEA4101F7D151B1914202D14FF0004152
:1003400005E002D24FF0010101E06FF0010103EB83
:10035000C450284430BC00F07FB8420005D0C0F340
:10036000C7525242914201DC0020704700EBC1505D
:10037000704796230022114600F077B820F0004025
:10038000C10DC0F3160040F400007F2901DA0020FF
:100390007047962903DCC1F19601C8407047963931
:1003A0008840704700F0004230F000400AD0C10D94
:1003B00001F56071C0F3160042EA0151C20840071E
:1003C0001143704700200146704730B50B46014687
:1003D00000202022012409E021FA02F59D4205D3E4
:1003E00003FA02F5491B04FA02F52844151EA2F18E
:1003F0000102F1DC30BD2DE9F05F05460020924698
:100400009B4688460646814640241BE028464146D6
:1004100047462246FFF7A8FE53465A46C01A914166
:1004200010D311461846224600F04EFA2D1A67EBFB
:1004300001084F4622460120002100F045FA17EB43
:1004400000094E41201EA4F10104DFDC484631467C
:100450002A464346BDE8F09F0029A8BF7047401CCC
:10046000490008BF20F00100704710B4B0FA80FCCA
:1004700000FA0CF050EA010404BF10BC704749B107
:10048000CCF1200421FA04F411FA0CF118BF012177
:1004900021430843A3EB0C01CB1D4FEA00614FEA57
:1004A000102042BF002010BC704700EBC350104426
:1004B0000029A4BF10BC7047401C490008BF20F0B1
:1004C000010010BC704710B541000CD0C0F3C751FB
:1004D000962908DC7E2909DC06DB410204D000F005
:1004E000004040F07E5010BD002010BDC1F19604C8
:1004F000C4F1200100FA01F1E040FFF7ADFFA04098
:1005000010BD2DE9FE4F804681EA0300C00F0C4666
:10051000009021F0004123F00045B8EB0200A94112
:1005200005D24046214690461C460B46024623F023
:100530000040104347D0270DC7F30A00C3F30A5108
:100540000290401A019040286BDAC3F3130040F484
:10055000801B0098924620B10023D2EB030A63EB84
:100560000B0B01985946C0F14002504600F0ACF91F
:1005700006460D4650465946019A00F0B4F910EB74
:1005800008006141002487EA115284EAE7731A43A4
:1005900040D0009A62B3019A012A4FEA075215DC53
:1005A000001B61EB02014FF0004202EA0752CDE965
:1005B0000042001C41F5801132462B4600F0B4F990
:1005C00003B0BDE8F08F40462146F9E7001B61EB20
:1005D0000201001C41F5801300185B412018A2F5B0
:1005E000001747EB030140EAD570B6196D4111E0E1
:1005F0006D084FEA360645EAC0754FEA0752001B00
:1006000061EB0201001C41F5801149084FEA3000FE
:100610000019514132462B4603B0BDE8F04F00F0BF
:1006200074B90098012240000023D0EB020263EB72
:10063000E073009821464FEAE074B8EB000061EBEC
:100640000401E9E783F000435BE781F0004158E7EC
:100650002DE9FE4F81EA030404F0004421F000413B
:1006600000944FF0000B23F0004350EA01045ED0E9
:1006700052EA03045BD0C3F30A54C1F30A552C4475
:10068000A4F2F3340194A0FB0254C1F3130141F42A
:100690008011C3F3130343F4801301FB024400FBF6
:1006A000034E840A970A44EA815447EA8357A4FB1D
:1006B000076802958D0A05FB07854FEA932C04FB1A
:1006C0000C542705029D4FEA065847EA1637B5EB4A
:1006D00008056EEB070C870E920E47EA811742EA77
:1006E0008312A7FB0201B6EB0B0164EB00042B0D98
:1006F00043EA0C335E1844EB1C50DA465146E7FBE4
:100700000201C5F313044FEA0B3343EA14534FEAD3
:100710000432019C43EA0603A4F10C040294009CF9
:10072000CDE900B400F000F903B0BDE8F08F00207F
:100730000146F9E72DE9F04D81EA030404F0004B8E
:1007400021F0004514464FF0000A23F0004150EA22
:10075000050220D054EA01021DD0C5F30A57024613
:10076000C5F31303C1F31300C1F30A5640F4801517
:1007700043F48013A7EB0608101BD64608F2FD3899
:1007800073EB050002D308F1010801E092185B4108
:10079000B8F1000F03DA00200146BDE8F08D00201B
:1007A0004FF48011064684460EE0171B73EB0507D5
:1007B00005D3121B63EB050306434CEA010C490801
:1007C0004FEA300092185B4150EA0107EDD152EA3E
:1007D000030012D082EA040083EA0501084305D031
:1007E000101BAB4106D20122002306E000224FF08D
:1007F000004302E06FF0010253101AEB06004CEBCD
:10080000085110EB0A0041EB0B01BDE8F04D00F080
:100810007CB800F0004220F00040C10DC0F316008B
:1008200040F400007F2901DA00207047962903DC9C
:10083000C1F19601C84001E096398840002AF4D001
:1008400040427047C1F30A52C1F3130140F2FF3333
:1008500041F480119A4202DA00200146704740F2CA
:1008600033439A42A2F2334202DC5242FFF77CBC8D
:1008700000F02AB830B5041E71F1000404DB4FF01B
:100880000044404264EB0101141E73F1000405DBD7
:100890001C464FF00043524263EB0403994208BFE9
:1008A000904230BD064C074D06E0E06840F0010381
:1008B00094E8070098471034AC42F6D3FFF73CFCAD
:1008C000404F0008604F0008202A04DB203A00FA5D
:1008D00002F1002070479140C2F1200320FA03F397
:1008E000194390407047202A06DBCB17203A41FA83
:1008F00002F043EAE07306E041FA02F3D040C2F1AD
:100900002002914008431946704710B5141E73F138
:10091000000408DA401C41F1000192185B411A43BF
:1009200001D120F0010010BD2DE9F04D92469B460B
:1009300011B1B1FA81F202E0B0FA80F220329046B1
:10094000FFF7C2FF04460F4640EA0A0041EA0B01E6
:1009500053465A46084313D0114653EA010019D0B2
:10096000C8F140025046FFF7FFFB05460E465046D1
:1009700059464246FFF7A8FF084305D0012004E08E
:1009800020463946BDE8F08D0020054346EAE07672
:100990002C4337430A986305E40AA0EB08000022C1
:1009A000FD0A44EA47540A3002D500200146E9E72F
:1009B000010510196941DDE9084500196941BDE8E3
:1009C000F04DA2E7C10F80EAE0700844CA07962301
:1009D0000021FFF74ABD000070B504460068816839
:1009E000C943C90717D1816821F00101816001F075
:1009F000A7F905460AE000BF01F0A2F9401B022852
:100A000004D920688068C043C00706D02068806889
:100A1000C043C007F0D0002070BDA06A40F01000B5
:100A2000A062E06A40F00100E062012070BD10B5F4
:100A30000146406A826A12F0500F05D0006A026BCC
:100A4000BDE8104008461047816A41F40071816298
:100A500001688968C1F3424107290CD1017B51B972
:100A6000816A21F480718162816AC90403D4816A38
:100A700041F00101816200F0EFFB10BD10B5406A4A
:100A8000816A41F040018162C16A41F00401C162A2
:100A900000F0E4FB10BD10B5406A00F0DEFB10BDB5
:100AA000F8B500260446009600688168C943C90766
:100AB0002DD0816841F00101816016481649006817
:100AC000B0FBF1F000E0401E00900028FBD101F0E7
:100AD00037F9054616E000BF01F032F9401B022845
:100AE00010D920688068C043C0070BD0A06A40F0CE
:100AF0001000A062E06A40F00100E06284F8246027
:100B00000120F8BD20688068C043C007E4D1002000
:100B1000F8BD00000C00002040420F000148008892
:100B2000FFF727BC7803002001484088FFF721BC6D
:100B30007803002002220249024800F067BC00004E
:100B4000780300203800002010B50021094800F08B
:100B50005CFD1021074800F058FD4FF0814000F087
:100B60004BFA4FF07E5000F071FABDE81040FFF7ED
:100B7000E1BF0000AC00002003480121C0F8801153
:100B8000C0F8841170470000000022422DE9F041B6
:100B900015460E460446B0F5005F1CD2DDB100F0EC
:100BA000F5F8A02000F0C8F800F024F998B9200A60
:100BB00000F0C2F800F01EF968B9E0B200F0BCF82D
:100BC00000F018F938B900F0E1F8A12000F0B4F80D
:100BD00000F010F910B10120BDE8F08100246F1E73
:100BE00009E0BC4201D1002000E0012000F040F803
:100BF0003055641CA4B2AC42F3D300F0DFF80020FF
:100C0000EAE770B515460E460446B0F5005F21D2FE
:100C100005B304F01F00284420281BD800F0B6F8C4
:100C2000A02000F089F800F0E5F898B9200A00F05B
:100C300083F800F0DFF868B9E0B200F07DF800F06A
:100C4000D9F838B9002409E0305D00F075F800F0FB
:100C5000D1F808B1012070BD641CA4B2AC42F3D33A
:100C600000F0ACF8052000F057FF002070BD000038
:100C70002DE9F0478146002600F03EF800271D4C84
:100C80003D464FF0010800BFC4F88051052004F034
:100C90001BF8C4F880817006060ED4F8040108B170
:100CA00046F00106052004F00FF87F1CFFB2082F64
:100CB000EAD3B9F1000FC4F8805104F5C07408D02C
:100CC00000F02AF86560052003F0FEFFC4F80080FC
:100CD00008E000F021F84746C4F80480052003F03E
:100CE000F3FF2760052003F0EFFF25603046BDE8E5
:100CF000F0870000000022421FB500200190039001
:100D000002200090012002906946024800F016FF80
:100D10001FBD0000001001401FB5002002900220FE
:100D2000009001200190032003906946014800F0E3
:100D300005FF1FBD001001402DE9F0410646FFF7F9
:100D4000EBFF114C0027C4F880713D464FF00108BD
:100D5000300602D5C4F8848101E0C4F884717006BD
:100D6000060E052003F0B0FFC4F88081052003F0D3
:100D7000ABFFC4F88071052003F0A6FF6D1CEDB237
:100D8000082DE5D3BDE8F0810000224270B5FFF7E1
:100D9000C3FF094C0120C4F88401C4F88001052078
:100DA00004F5C07403F090FF00256560052003F092
:100DB0008BFF256070BD00000000224270B5FFF778
:100DC000ABFF0B4C0020C4F88001C4F8840105205F
:100DD00004F5C07403F078FF01252560052003F0B9
:100DE00073FF6560BDE87040052003F06DBF000033
:100DF0000000224270B50024FFF77EFF0D4D012652
:100E0000C5F88461052003F05FFFC5F88061052007
:100E100003F05AFF07E0641CE4B2FA2C03D9FFF791
:100E2000CDFF012070BDD5F804010028F3D1C5F82D
:100E3000800170BD0000224200B5002000F008F8DB
:100E400002490020C1F8A00100BD0000008021423D
:100E50001049114A087000F00101C2F8B0110F4AA0
:100E6000C0F34001C2F888110D49C0F38002C1F8F7
:100E70008C21C0F3C002C1F89021C0F30012C1F868
:100E80009421C0F34012C1F89821C0F38010C1F83A
:100E90009C01704724000020000022420080224272
:100EA0000080214200F00F01000900EB800001EBFF
:100EB0004000C0B27047FEE7034800210171417154
:100EC0008171C17170470000290000200021084A8B
:100ED000012807D0022807D0032807D0042800D112
:100EE000D17170471171704751717047917170479E
:100EF00029000020094900200A7802B101204A781F
:100F00000AB140F002008A780AB140F00400C978C2
:100F1000002901D040F0080070470000290000209F
:100F200000B500F03BF8FFF7C7FF0548011F027846
:100F30000A7042784A7082788A70C078C87000BDA2
:100F4000290000200949012807D0022807D00328DA
:100F500007D0042807D000207047087970474879E7
:100F6000704788797047C8797047000029000020D1
:100F70000949012807D0022807D0032807D00428F0
:100F800007D0002070470878704748787047887805
:100F90007047C878704700002900002030B5144918
:100FA000D1F83001134BC4B201221D78181DAC4298
:100FB00001D002711C700470D1F834415D78E4B244
:100FC000AC4201D042715C704470D1F838419D78D8
:100FD000E4B2AC4201D082719C708470D1F83C11B3
:100FE000DC78C9B2A14201D0C271D970C17030BDE4
:100FF000008021422500002010B54FF081410F4AAA
:10100000884201DA084602E0904200DD10460C4CAE
:101010006060FFF72CF96FF00301FFF79EF90949B3
:10102000FFF72BF9FFF7AAF983B223800022BDE86E
:1010300010401146044800F0D7BA00000000A0415B
:101040008403002000F07F45AC00002010B54FF075
:101050007E510F4A884201DA084602E0904200DDE4
:1010600010460C4CA060FFF702F96FF00101FFF78A
:1010700074F90949FFF701F9FFF780F983B263803A
:101080000022BDE810401021044800F0ADBA000075
:101090000000A0408403002000F07F45AC00002049
:1010A000014800F09FBB000068000020014800F0EC
:1010B00099BB000034030020014800F093BB0000FE
:1010C000F0020020014800F08DBB0000AC020020BF
:1010D000014800F087BB000068020020014800F0D2
:1010E00081BB0000E0010020014800F07BBB000054
:1010F0002402002030B590F840500124AC40C56B6C
:101100006C60046863604368102B036803D09960C7
:101110000068C26030BD9A600068C16030BD704731
:1011200072B6FEE703480021017541751421FFF7EF
:1011300032B8000090030020FFF7F4BF00280AD067
:10114000002201E0521C92B2815C0029FAD10146D2
:10115000014801F0CDBD704798010020F8B500248A
:10116000009490F824202546012A12D0012280F80C
:1011700024204A681F23072A0DD20668776B521E67
:1011800002EB820293409F430B6893401F437763B7
:1011900019E00220F8BD06680D2A0AD2376BD21F6B
:1011A00002EB820293409F430B6893401F433763D7
:1011B00009E0F76A0D3A02EB820293409F430B6805
:1011C00093401F43F7620A68072306680A2A0AD376
:1011D000F7680A3A02EB420293409F438B689340C0
:1011E0001F43F76008E0376902EB420293409F43D8
:1011F0008B6893401F4337610A68102A01D0112A77
:1012000020D1124B02689A4217D193681B0219D45D
:10121000936843F4000393600968102912D10C49C4
:101220000C4A0968B1FBF2F101EB8101490000E0D1
:10123000491E00910029FBD104E0816A41F02001A0
:101240008162012480F824502046F8BD002401402A
:101250000C00002040420F007047704770470000AC
:101260002DE9F04104004FF000057FD0A06A002670
:1012700028B9E66284F82460204600F081F8204610
:10128000FFF7AAFBA16AC90600D420B1A06A40F00A
:101290001000A0626AE0A16A21F4885141F00201C5
:1012A000A162334923688B42E16904D1B1F5402F33
:1012B00001D14FF40021277B4FF4807C41EA4702A3
:1012C00061680A43A168614508D0012906D0002160
:1012D00094F814E0BEF1010F02D00AE06146F7E78E
:1012E000C7B1A76A47F02007A762E76A47F001077E
:1012F000E7625F6827F469470F435F602368996876
:101300001C4F394011439960A16861450BD00129F8
:1013100009D00CE0DFF860E0A7690EEB47370F4318
:1013200047F40061E5E7218A0D05A5F580152168E0
:10133000CB6A23F470032B43CB62216889680F4B7F
:101340001940914208D1E662A16A21F0020141F000
:101350000101A162BDE8F081A06A20F0020040F026
:101360001000A062E06A40F00100E0620120F1E7B5
:10137000003C0140FDF7E1FF00E0FFFFFE0E1FFF14
:1013800070B586B000250646009501950295039537
:101390000068194988422DD11849886940F40070C5
:1013A0008861886900F400700490886940F0040046
:1013B00088618869694600F004000490C0200090AC
:1013C000032001900E4800F0B9FB0F4C0D48C4E912
:1013D00000058020C4E90250400020618000C4E97B
:1013E00005052046E56100F021FB08B1FFF798FEF6
:1013F0003462666206B070BD0024014000100240F5
:101400000008014008000240680000202DE9F04774
:10141000894604463B4900683B4F0E1D9046884272
:1014200001D0B84207D1306810F4702F03D00125E5
:101430002846BDE8F08794F8240001280CD001204C
:1014400084F824002046FFF72BFB05004FF0000036
:1014500004D084F82400EBE70220EAE7A16A40F612
:101460000162914341F48071A1622168B94218D1AF
:10147000326812F4702F14D0A16A41F48011A16275
:101480003168490505D5A16A21F4005141F4805124
:10149000A162A16AC9040AD5E16A21F00601E162EC
:1014A00006E0A26A22F48012A2624968E9E7E062DB
:1014B00084F82400216A15488862216A1448C862A9
:1014C000216A1448086321686FF0020008602068F0
:1014D000816841F480718160216843464A464C31FD
:1014E000206A00F0E1FA20688168C1F342410729CF
:1014F000816803D041F48011816099E741F4A00133
:10150000FAE7000000240140002801402F0A0008EB
:10151000970A00087D0A000870B500B3F9B1437955
:10152000012B1ED0012646710223037105682C6829
:1015300002F0100340F6FE729A409443D1E9002174
:101540000A439A4022432A6001680A68C0249C40EA
:10155000A2430A60067100214171084670BD012056
:1015600070BD022070BD70B5040003D02079002545
:1015700010B105E0012070BD6571204600F008F84B
:1015800002202071256101202071002070BD000023
:1015900000B585B00021009101910291039100688E
:1015A0000E49884218D10E48C16941F00051C1610D
:1015B000C16901F000510491816941F00401816128
:1015C0008069694600F004000490302000900320F8
:1015D0000190044800F0B2FA05B000BD007400406C
:1015E000001002400008014018B50024009440B1EA
:1015F00000680090104431B1143000900360002066
:1016000018BD012018BD0830F7E770B508B342795E
:10161000012A20D001224271022303710468266846
:1016200001F0100302FA03F52E4326600029016839
:1016300013D00C6804F470153C249C40A54203D1DF
:101640004B6843F002034B60027100214171084670
:1016500070BD012070BD022070BD0B68C3F3830311
:101660000F2BF1D14B6843F00103ECE710B590F874
:1016700021100022022905D00421816380F8202056
:10168000012010BD01680B6823F00E030B60016898
:101690000B6823F001030B6090F84030C46B01210C
:1016A00001FA03F3636080F8211080F820201046CF
:1016B00010BD00002DE9F05F90F8211000240229F0
:1016C00003D004218163012485E001680A6822F0C7
:1016D0000E020A6001680A6822F001020A603F4EA9
:1016E0003E4FB215DFF8F4C0DFF8F090DFF8ECA061
:1016F000DFF8E8B0DFF8E4E00168783F1301150295
:10170000ACF1640CA9F15009AAF13C0AABF1280B29
:10171000AEF1140E4FF48018B14227D9B9420ED061
:10172000614512D049451DD0514518D0594518D0B2
:10173000714501D1424615E0294EB14201D1012245
:1017400010E0274E1436B14201D110220AE0244E97
:101750002836B14206D0224A3C32914201D11A4683
:1017600000E02A461E49091F0A602BE0B94213D047
:10177000614517D0494522D051451DD059451DD04E
:10178000714501D142461AE0B14202D14FF0807258
:1017900015E0134EB14201D1012210E0104E143673
:1017A000B14201D110220AE00D4E2836B14206D0D6
:1017B0000B4A3C32914201D11A4600E02A460749C1
:1017C00080394A60012180F82110002180F8201022
:1017D000416B01B188472046BDE8F09F8000024080
:1017E000080402402DE9F05FC16B0A6801680B68CC
:1017F000046C4FF0040808FA04F8844D844E854FB9
:10180000DFF814C2DFF81492DFF814A2DFF814B284
:10181000DFF814E218EA020F65D05FEA437862D578
:101820000A68920603D40A6822F004020A60DFF80C
:10183000F0814FF48062016808F11408130114026A
:10184000414524D9A9420DD0B1420FD0B9421AD096
:10185000614515D0494515D0514501D1120312E01B
:10186000594501D104220EE0714501D140220AE020
:101870006D4D1435A94206D06B4A2832914201D1F0
:101880001A4600E022466749091F0A6029E0A9427A
:1018900013D0B14215D0B94220D061451BD0494583
:1018A0001BD0514502D14FF4800217E0414502D1CF
:1018B0004FF0806212E0594501D104220EE07145DB
:1018C00001D140220AE0584D1435A94206D0564AAB
:1018D0002832914201D11A4600E022464B4908398C
:1018E0004A60C16A71E04FF0020808FA04F818EA89
:1018F000020F70D05FEA83786DD50A68920606D42D
:101900000A6822F00A020A60012180F82110DFF83B
:1019100010814FF40072016808F1140813011402D9
:10192000414524D9A9420DD0B1420FD0B9421AD0B5
:10193000614515D0494515D0514501D1120312E03A
:10194000594501D102220EE0714501D120220AE061
:10195000354D1435A94206D0334A2832914201D17F
:101960001A4600E022462F49091F0A6029E0A942D1
:1019700013D0B14215D0B94220D061451BD04945A2
:101980001BD0514502D14FF4001217E0414502D15E
:101990004FF0007212E0594501D102220EE071456C
:1019A00001D120220AE0204D1435A94206D01E4A5A
:1019B0002832914201D11A4600E0224613490839E3
:1019C0004A60002180F82010816A00291CD0BDE8FF
:1019D000F05F0847FFE70825A540154214D01A0715
:1019E00012D50A6822F00E020A6090F84020C36BFC
:1019F000012101FA02F25A60816380F8211000216E
:101A000080F82010016BE0E7BDE8F09F080002407D
:101A10001C000240300002404400024058000240D6
:101A20006C000240080402401C04024030B560B162
:101A30001A4B026814219A4209D2194B1344B3FB82
:101A4000F1F18900016417490AE0012030BD134B10
:101A50005B421344B3FBF1F1890001640F4908397B
:101A6000C163022180F82110136843F6F0718B43A3
:101A7000F0E901142143D0E902452C4321430469D4
:101A800021434469214384692143194311600021A2
:101A90004163012242770177084630BD08040240C5
:101AA000F8FFFDBF0000024070B5044690F820002A
:101AB000002501280CD0012084F8200094F8216032
:101AC0000020012E06D084F820000225284670BD93
:101AD000022070BD022684F82160A0632068066899
:101AE00026F0010606602046FFF704FBE06A0028A6
:101AF0002068016802D041F00E0106E021F00401E7
:101B000001602068016841F00A01016020680168F5
:101B100041F001010160D9E770B5044600F010F909
:101B20000546601C02D004480078044400F008F91F
:101B3000401BA042FAD370BD000000202DE9F84FF1
:101B4000DFF8C8910024A9F1040B23460F2709F1FF
:101B5000040AABF1040ED1E00125A54006EA050216
:101B6000AA4276D1DFF8A8C14E68A6EB0C086645FC
:101B70002BD00DDC032E34D005DC36B3012E19D06A
:101B8000022E2FD11BE0112E16D0122E2AD119E0D1
:101B9000B8F5881F19D006DCB8F5803F15D0B8F528
:101BA000801F1FD111E0B8F5001F0ED0B8F5041F3B
:101BB00018D10AE0CB6815E0CB681B1D12E0CB689A
:101BC00008330FE0CB680C330CE08B682BB1012B92
:101BD0004FF0080303D0456104E0042302E00561EF
:101BE00000E00023FF2A01D8064601E000F10406C8
:101BF0004FEA840501D9A5F12005D6F8008007FA3F
:101C000005FC28EA0C0803FA05F548EA0508C6F8B9
:101C100000804D68ED0070D53E4DAE6946F001067E
:101C2000AE61AD6924F0030605F0010500953A4D5B
:101C300006EB050CDCF80850A607360F07FA06F885
:101C400025EA0805DFF8D480404503D14FF00008AD
:101C500025E052E0DFF8C880404502D14FF001088E
:101C60001DE0DFF8C080404502D14FF0020816E0C9
:101C7000DFF8B480404502D14FF003080FE0DFF8F1
:101C8000AC80404502D14FF0040808E0DFF8A080A6
:101C9000404502D14FF0050801E04FF0060808FA70
:101CA00006F848EA0508CCF808804D68D9F80060C5
:101CB000ED024D4601D5164300E096432E604D6877
:101CC000DAF80060AD02554601D5164300E09643B0
:101CD0002E604D68DBF80060AD035D4601D516430C
:101CE00000E096432E604D68DEF80060ED03754617
:101CF00001D5164300E096432E60641C0A68164620
:101D0000E2407FF429AFBDE8F88F000008040140ED
:101D100000001110001002400000014000080140C6
:101D2000000C014000100140001401400018014067
:101D3000001C01400AB1016170470904FBE7000083
:101D40000148806870470000000000200248816858
:101D5000027811448160704700000020074810B5E8
:101D6000016841F010010160032000F075F80F20B8
:101D700000F006F800F024F8002010BD002002401A
:101D800070B50D4D04464FF47A712878B1FBF0F030
:101D90000A490968B1FBF0F000F052FB48B9102C79
:101DA00007D200222146501E00F036F800206C6059
:101DB00070BD012070BD0000000000200C0000205C
:101DC0000C4808B5816941F001018161816901F028
:101DD00001010091C16941F08051C161C06900F009
:101DE000805000900448416821F0E06141F00071AA
:101DF000416008BD0010024000000140002809DBDE
:101E000000F01F02012191404009800000F1E02014
:101E1000C0F8001170470000F0B40E4B1B680C4670
:101E2000C3F30223C3F10705042D00D90425191DAE
:101E3000072901D2002300E0DB1E012606FA05F186
:101E4000491E214099409E40761E16403143F0BC09
:101E500002F037B90CED00E0064900F0070208680F
:101E60004FF6FF03184040EA0220034A104308607F
:101E7000704700000CED00E00000FA052DE9F84382
:101E800005460078354CC00754D0E0690026C000F4
:101E900008D4E06940F08050E061E069012600F07C
:101EA000805000902E480168C90512D40168804610
:101EB00041F480710160FFF743FF074605E000BF72
:101EC000FFF73EFFC01B642823D8D8F80000C005E8
:101ED000F6D5206A10F4407021D0A98801F4407131
:101EE00081421CD0206A1F49012220F440700A6000
:101EF00000220A602062C00711D0FFF721FF0746C9
:101F000041F2883808E000BFFFF71AFFC11B4145C6
:101F100002D90320BDE8F883206A8007F4D5206A3F
:101F2000696820F44070084320621EB1E06920F027
:101F30008050E0612878800705D56068A96820F4A2
:101F40004040084360602878C00605D5606869692C
:101F500020F48000084360600020DBE700100240AE
:101F600000700040400442422DE9F0470F46050052
:101F700061D0434E306800F00700B84209D23068A3
:101F800020F0070038433060306800F00700B842A6
:101F900051D128683B4C810712D5400703D56068B2
:101FA00040F4E06060602878000703D5606840F482
:101FB000605060606068A96820F0F00008436060CD
:101FC0002878C00728D06868012810D02168022826
:101FD00010D0890700292EDA616821F0030101433E
:101FE0006160FFF7ADFE804641F288390DE021685F
:101FF0008903EFE78901EDE7FFF7A2FEA0EB0801F7
:10200000494502D90320BDE8F0876068696800F09F
:102010000C00B0EB810FEFD1306800F00700B84240
:102020000BD9306820F0070038433060306800F08A
:102030000700B84201D00120E5E72878400705D520
:102040006068E96820F4E060084360602878000771
:1020500006D56068296920F4605040EAC1006060DC
:1020600000F038F86168084AC1F30311515CC840B8
:102070000649086006480068FFF782FE0020C2E7B4
:102080000020024000100240064F00080C00002013
:10209000040000200448054900684968044AC1F367
:1020A0000221515CC84070470C0000200010024023
:1020B000164F00080448054900684968044AC1F3FE
:1020C000C221515CC84070470C0000200010024043
:1020D000164F00080E4A51680E4801F00C03042BFD
:1020E00011D0082B0FD10C48C1F38343C903C05C46
:1020F0000AD55168084AC1F34041921E515C054A15
:102100005043B0FBF1F0704704494843704700006A
:102110000010024000127A00F64E000800093D004F
:102120002DE9F84F040070D02078C04DC00749D089
:102130006868C0F38100012807D06868C0F3810097
:10214000022809D16868C00306D52868800339D5FC
:1021500060680028E7D035E06068B0F5803F0BD0BC
:1021600010B1B0F5A02F11D0286820F4803028607D
:10217000286820F4802002E0286840F4803028603D
:10218000606890B1FFF7DCFD06460AE0286840F47D
:1021900080202860F0E700BFFFF7D2FD801B642895
:1021A00073D828688003F7D50CE0FFF7C9FD064611
:1021B00005E000BFFFF7C4FD801B6428F0D8286845
:1021C0008003F7D420789A4E80074FF001094FF032
:1021D000000839D5686810F00C0F07D06868C0F3A4
:1021E0008100022809D16868C00306D428688007E6
:1021F00014D52069012808D110E02069B0B1C6F8D3
:102200000090FFF79DFD074605E00AE1FFF798FD06
:10221000C01B0228C4D828688007F7D528686169E0
:1022200020F0F80040EAC10028600DE0C6F8008008
:10223000FFF786FD074604E0FFF782FDC01B02287A
:1022400023D828688007F7D4207800072CD5794850
:10225000A169D9B1C0F80090FFF772FD074604E00C
:10226000FFF76EFDC01B02280FD8686A8007F7D5FC
:1022700071484FF4FA510068B0FBF1F0009000BFD4
:102280000098411E0091FAD20EE080E0C0F8008074
:10229000FFF756FD074604E0FFF752FDC01B02287A
:1022A00075D8686A8007F7D42078400760D5E86958
:1022B0000027C00008D4E86940F08050E861E86970
:1022C000012700F0805000905C480168C90513D4D4
:1022D0000168834641F480710160FFF731FD824659
:1022E00006E000BFFFF72CFDA0EB0A0064284ED8E3
:1022F000DBF80000C005F5D5E06801280AD008B178
:10230000052813D0286A20F001002862286A20F0EE
:10231000040002E0286A40F001002862E06841F20F
:10232000883B98B1FFF70CFD82460BE0286A40F02D
:1023300004002862EEE700BFFFF702FDA0EB0A01F0
:1023400059455AD8286A8007F6D50CE0FFF7F8FC03
:10235000824605E0FFF7F4FCA0EB0A0159454CD892
:10236000286A8007F6D41FB1E86920F08050E86140
:10237000E06988B36968C1F38101022944D0022869
:10238000C6F8608004D0FFF7DBFC044638E034E098
:10239000FFF7D6FC074604E0FFF7D2FCC01B02287B
:1023A0002BD828688001F7D4206AB0F5803F05D18A
:1023B0006868A16820F4003008436860D4E9080127
:1023C0000843696821F4741108436860C6F8609096
:1023D000FFF7B6FC044606E025E000BFFFF7B0FCBF
:1023E000001B022809D828688001F7D51BE000BF30
:1023F000FFF7A6FC001B022802D90320BDE8F88FD6
:1024000028688001F4D40EE00128F7D06868226AB9
:1024100000F48031914204D1616A00F47010884266
:1024200001D00120EAE70020E8E7000000100240A8
:1024300000004242800442420C0000200070004034
:1024400010B5401EB0F1807F01D3012010BD4FF0C8
:10245000E02460610F21601701F033FE0020A061CD
:1024600007202061002010BD7047704770B590F8BC
:102470003C20012A2CD0012480F83C40022280F824
:102480003D2003685A689D6822F070060A6832434E
:102490005A60104B02689A420ED00F4B9A420BD0F2
:1024A000B2F1804F08D00D4B9A4205D00C4B9A42A6
:1024B00002D00C4B9A4204D1496825F0800319439D
:1024C000916080F83D40002180F83C10084670BDC6
:1024D000022070BD002C0140003401400004004087
:1024E00000080040000C004010B5040003D094F830
:1024F0003D0010B107E0012010BD002084F83C0031
:10250000204600F01FF8022084F83D00211D2068BD
:1025100001F0D0FA012084F8460084F83E0084F8E7
:102520003F0084F8400084F8410084F8420084F8B9
:10253000430084F8440084F8450084F83D000020FE
:1025400010BD000008B500680649884208D1064859
:10255000C16941F00201C161C06900F00200009050
:1025600008BD0000000400400010024070B50446A1
:1025700090F83C000025012817D0012684F83C6023
:10258000022084F83D002068826822F0770222F45D
:102590007F4282600868502838D00DDC20284FD058
:1025A00005DC90B3102811D14AE0022070BD30281C
:1025B00046D040280AD13BE060282FD070280DD0AB
:1025C000B0F5805F03D0B0F5005F12D0012584F82C
:1025D0003D60002084F83C00284670BDCB68D1E9FE
:1025E0000121206801F0B4FA2068816841F0770188
:1025F00009E0CB68D1E90121206801F0A9FA20683F
:10260000816841F480418160E1E719E0CA68496866
:10261000206801F0AFFA5021206806E0CA684968D6
:10262000206801F0B8FA6021206801F09BFACEE73B
:10263000CA684968206801F09DFA40212068F4E7E3
:10264000226801461046F0E770472DE9F041044644
:102650000068C66805694FF00007A90713D5B107E0
:1026600011D5F91E0161012020772068806980075B
:10267000204602D0FFF7E8FF04E000F07EF8204695
:1026800000F07CF82777680716D5700714D5216805
:102690006FF004000861022020772068806910F440
:1026A000407F204602D0FFF7CFFF04E000F065F83E
:1026B000204600F063F82777280715D5300713D593
:1026C00021686FF008000861042020772068C06945
:1026D0008007204602D0FFF7B7FF04E000F04DF876
:1026E000204600F04BF82777E80616D5F00614D5FB
:1026F00021686FF010000861082020772068C06909
:1027000010F4407F204602D0FFF79EFF04E000F067
:1027100034F8204600F032F82777E80708D0F007B1
:1027200006D021686FF001000861204600F027F80C
:10273000280608D5300606D521686FF080000861AC
:102740002046FFF791FE680608D5700606D5216879
:102750006FF040000861204600F012F8A8060AD584
:10276000B00608D521686FF0200008612046BDE85A
:10277000F041FFF77ABEBDE8F081704770477047BF
:102780007047704710B504460068406994F84110DE
:10279000C0F3C010212911D180B12068143050E855
:1027A000001F21F0800140E80012002AF5D1A06B43
:1027B00008B1FEF75BFF204601F0FAFA2068406995
:1027C00094F84210C0F38010222911D180B1206802
:1027D000143050E8001F21F0400140E80012002AA8
:1027E000F5D1E06B08B1FEF741FF204601F0B9FAE0
:1027F000002010BD70470000F8B501680446086865
:10280000CA684B6910F00F0F4FF0000559D003F064
:10281000010602F49077374365D0C10705D0D10592
:1028200003D5616C41F001016164410705D5D90709
:1028300003D0616C41F002016164810705D5D907BD
:1028400003D0616C41F004016164010707D502F017
:102850002001314303D0616C41F008016164616C77
:1028600000293AD0800604D5900602D5204601F012
:10287000ADFA20684069616CC0F38010090700D48C
:1028800060B3204601F06DFA20684069400621D50A
:102890002068143050E8001F21F0400140E8001289
:1028A000002AF5D1E06BA8B16D494163E06BFEF7FA
:1028B00001FF002811D0E06B416B01B0BDE8F04092
:1028C000084783060FD593060DD52046BDE8F8408E
:1028D00001F07CBA2046FFF78DFFF8BD2046FFF7D8
:1028E00089FF6564F8BD266B2023012E7CD1C606C6
:1028F0007AD5D60678D508684868009048694FF0C0
:102900000206400640D5E16B086840680004000CF0
:10291000E8D0A28D8242E5D9E085886920282DD0B3
:1029200020680C3050E8001F21F4807140E800124C
:10293000002AF5D12068143050E8001F21F0010171
:1029400040E80012002AF5D12068143050E8001F3A
:1029500021F0400140E80012002AF5D184F842300D
:10296000256320680C3050E8001F21F0100140E87A
:102970000012002AF5D1E06BFEF778FE6663A08DA9
:10298000E18D401A81B22AE0A08DE18D401A81B21A
:10299000E08D0028A6D00029A4D022680C3252E88D
:1029A000000F20F4907042E80007002FF5D1206856
:1029B000143050E8002F22F0010240E80027002FD9
:1029C000F5D184F84230256320680C3050E8002FA0
:1029D00022F0100240E80023002BF5D16663204668
:1029E000FFF7CFFEF8BDFFE705062BD5150629D565
:1029F00094F841002128F5D1A068B0F5805F01D19D
:102A00002069B0B1206A411C2162216800784860C9
:102A1000E08C401E0004000CE084E3D12068C16813
:102A200021F08001C1602068C16841F04001C160AF
:102A3000D8E7206A0088C0F308004860206A801C3C
:102A40002062E5E74006CDD55006CBD5CA682046C2
:102A500022F04002CA6084F8413000F085F9C1E7F5
:102A6000193C000870B5040004D094F8410000251A
:102A700010B106E0012070BD84F84050204600F0FF
:102A800023F8242084F841002068C16821F4005113
:102A9000C160204601F0FCF92068016921F49041F1
:102AA00001612068416921F02A0141612068C16803
:102AB00041F40051C1606564202084F8410084F82D
:102AC00042006563002070BD2DE9F04385B000250C
:102AD0000095019502950395044603687248DFF856
:102AE000C4C106150221032280274FF400694FF06C
:102AF0001008634543D1C36943F40023C361C3692C
:102B000003F400230493836943F010038361806915
:102B1000CDE9006100F01000CDE90320634E694665
:102B20003046FFF70BF8CDE900956946304602952F
:102B3000FFF704F85F4E5E48C6E90005C6E9025794
:102B400035617561B5613046F561FEF76FFF08B11B
:102B5000FEF7E6FAE66356487462564E283044366D
:102B6000C6E9025735617561B561F561C6E90008CE
:102B700030468EE0A663746205B0BDE8F083DFF8EE
:102B800038C1634542D1836943F4804383618369DB
:102B900003F480430493836943F0040383618069F1
:102BA000DFF8189100F0040004904FF40070CDE9B4
:102BB0000001039269464846FEF7C0FFCDE9006573
:102BC000694648460295FEF7B9FF3A4E3C488836BA
:102BD000C6E90005C6E9025735617561B561304641
:102BE000F561FEF723FF08B1FEF79AFAE663344871
:102BF0007462304E1438CC36C6E9025735617561BF
:102C0000B561F561C6E90008304642E0DFF8B4C0BE
:102C10006345B1D1C36943F48023C361C36903F43D
:102C200080230493836943F0080383618069CDE9BD
:102C3000006100F00800CDE90320234E69463046CC
:102C4000FEF77CFFCDE90095694630460295FEF718
:102C500075FF1B481D4E2838C6E90005C6E9025716
:102C600035617561B5613046F561FEF7DFFE08B18B
:102C7000FEF756FAE6637462144E114844363C3847
:102C8000C6E9025735617561B561F561C6E90008AD
:102C90003046FEF7CBFE00283FF46CAFFEF740FA5B
:102CA00068E70000004C00400010024000100140A6
:102CB00030040240E00100200038014000080140DB
:102CC0005800024000480040000C0140F002002083
:102CD00090F84230202B01D00220704721B11AB168
:102CE0000023036301F030B901207047704770473B
:102CF00070B5044690F84100202801D0022070BD34
:102D000049B342B32162A284E2840020606421239B
:102D100084F84130A56B114BAB62A56B104BEB6295
:102D2000A56B104B2B63A36B5863256813462A1DB4
:102D3000A06BFEF7B9FE21686FF0400008602068C4
:102D4000143050E8001F41F0800140E80012002AD2
:102D5000F5D1002070BD012070BD0000173D0008B6
:102D6000593D0008293C000870477047034800217E
:102D7000017541751421FDF70EBA0000A60300206D
:102D8000FFF7F4BF002806D0002904D00A46014608
:102D90000148FFF7ADBF70475001002000280AD05E
:102DA000002201E0521C92B2815C0029FAD1014656
:102DB0000148FFF79DBF704750010020FEE700006B
:102DC0002DE9F043A3B0FEF7BBFFA14CE168411A27
:102DD000B1F57A7F7ED3E060A2689EA1521C03A861
:102DE000A26001F047F903A800F0E7FE1CA800F07C
:102DF000ADFCA0B19DA000BF00F0DFFEA0A11EAA07
:102E0000D1E90001002582E8230008221EA92846F6
:102E10002195FDF7F6FE00281FD09BA035E09DF818
:102E2000760000909DF875309DF874209CA103A851
:102E300001F020F903A800F0C0FE9DF873109DF882
:102E40007200CDE900019DF871309DF870209BA1C2
:102E500003A801F00FF903A8CEE70A20FEF75CFEF5
:102E6000082220A90020FDF791FE08B19CA00CE0EB
:102E700000201EA920AA0B5C165CB34201D09EA0C4
:102E800003E0401C0828F6DBA1A000F096FE207AA3
:102E900000F07F063046FDF7DBFF3246A2A103A813
:102EA00001F0E8F803A800F088FEFDF737FE804641
:102EB000FDF73AFEFDF776FA06460F464046FDF767
:102EC00071FA0B4602469EA103A8CDE9006701F006
:102ED000D1F800E0B8E003A800F06FFEA149206936
:102EE000FDF773F9A0492061884200DD2561A04605
:102EF000206901F03BFF9D49FDF767F9064620690F
:102F000001F024FE0221FDF728FA9949FDF75DF949
:102F100004463046FEF79AF82046FEF76DF8204644
:102F2000FDF740FA04460F463046FDF73BFACDE97F
:102F3000004702460B468FA103A801F09BF803A8A7
:102F400000F03BFEFEF72AF8FDF7D4FF814604208F
:102F5000FEF70EF807460320FEF70AF806460220A1
:102F6000FEF706F804460120FEF702F88DE8D000CF
:102F700003464A4688A103A801F07CF803A800F0A4
:102F80001CFE01242046FDF7DDFF70B12046FDF751
:102F9000EFFF034622468FA103A801F06BF803A8B8
:102FA00000F00BFE2046FDF791FF641CE4B2042CF8
:102FB000E8D944468FA103A8D8F8082001F05AF8B0
:102FC00003A8FFF7EBFE8FA103A8A26801F052F857
:102FD00003A8FEF7B3F88FA103A8A26801F04AF88E
:102FE00003A800F0A3FB8F4C207D01280FD1627D48
:102FF0008DA103A801F03EF803A8FFF7CFFE617D85
:103000002046FFF7BFFE2CA0FFF7C8FE25758C4CAD
:10301000207D012808D1627D8AA103A801F02AF849
:1030200003A800F0CAFD25758C4C207D012808D12D
:10303000627D8BA103A801F01DF803A800F0BDFD7F
:1030400025758DA000F0B9FD23B0BDE8F083000028
:10305000100000200D0A3D3D3D20B2E2CAD4D6DC6E
:10306000C6DA202564203D3D3D0D0A005B525443E5
:103070005D20B6C1C8A1CAA7B0DC210D0A000000BE
:1030800011223344556677885B454550524F4D5D5C
:1030900020D0B4C8EBCAA7B0DC210D0A00000000A4
:1030A0005B525443CAB1BCE45D20253032643A25FA
:1030B0003032643A253032640D0A00005B525443CA
:1030C000C8D5C6DA5D203230253032642D25303245
:1030D000642D2530326420D0C7C6DA25640D0A007D
:1030E0005B454550524F4D5D20B6C1C8A1CAA7B03F
:1030F000DC210D0A000000005B454550524F4D5D3C
:1031000020CAFDBEDDB2BBC6A5C5E4210D0A000084
:103110005B454550524F4D5D20B6C1D0B4B2E2CAB6
:10312000D4CDA8B9FD0D0A005B424344CAE4B3F60E
:103130005D20B5B1C7B0D6B53A2025640D0A0000B0
:103140005B4144435D20B5E7C1F73A20252E336645
:10315000412C20B5E7D1B93A20252E3366560D0A09
:1031600000000000CDCCCC3DC3F5C840000040407D
:10317000000040415B4441435D20B5E7D1B93A20AE
:10318000252E3366562C20B5E7C1F73A20252E337D
:10319000666D410D0A0000005BD6B8C1EECAE4C8F6
:1031A000EB5D20D7B4CCAC3A2030782530325820B3
:1031B00028434D44313A256420434D44323A256436
:1031C00020434D44333A256420434D44343A25642A
:1031D000290D0A005BD6B8C1EECAE4C8EB5D2043F6
:1031E0004D44256420D7B4CCACB1E4BBAF3A202524
:1031F000640D0A00484D4920546573742025640D00
:103200000A0000003438355F31205465737420257E
:10321000640D0A003438355F3220546573742025FC
:10322000640D0A00A60300205B484D49BDD3CAD5F2
:103230005D20B3A4B6C83A256420CAFDBEDD3A00BD
:10324000900300205B3438355F31BDD3CAD55D2093
:10325000B3A4B6C83A25640D0A000000BC030020E0
:103260005B3438355F32BDD3CAD55D20B3A4B6C850
:103270003A25640D0A0000003D3D3D20B2E2CAD46B
:10328000CDEAB3C9203D3D3D0D0A0D0A0000000006
:103290003EB50021174800910191154A0291026044
:1032A0009215826001240473017502254FF4602297
:1032B0000561C2614160FDF7D3FF08B1FDF730FF42
:1032C0000620CDE900040520029069460948FDF773
:1032D00045FF08B1FDF724FF0720CDE90005694649
:1032E0000448FDF73BFF002801D0FDF719FF3EBD64
:1032F00000240140380000201CB50024104900942F
:103300000E48019408600846FEF72DF908B1FDF754
:1033100007FF00940022694609480194FEF7FCF873
:1033200008B1FDF7FDFE102269460548FEF7F4F8E6
:10333000002801D0FDF7F4FE1CBD00000074004021
:10334000AC000020094808B5416941F00101416124
:10335000416901F001010091416941F002014161BF
:10336000406900F00200009008BD0000001002401B
:103370002DE9F04F85B000243A480094019402945E
:103380000394816941F020018161816901F020018C
:103390000491816941F010018161816901F010019E
:1033A0000491816941F004018161816901F00401A6
:1033B0000491816941F0080181618069DFF8A8907A
:1033C00000F0080041F20F0504900022294648460B
:1033D000FEF7B0FCDFF894A04FF4FE7700223946E8
:1033E0005046FEF7A7FCDFF888B04FF400480022F3
:1033F00041465846FEF79EFC002204211D48FEF778
:1034000099FC0095032601250396CDE901546946F0
:103410004846FEF793FB00970396CDE901546946B1
:103420005046FEF78BFB4FF47040CDE9000469462F
:1034300050460294FEF782FB0220CDE90240CDE91E
:10344000008569465846FEF779FB0420CDE9000562
:10345000CDE9024669460748FEF770FB05B0BDE8B6
:10346000F08F00000010024000100140000C0140ED
:10347000000801400014014010B5002201211D2068
:10348000FEF7CAFC1D20FEF7B9FC002211462520DC
:10349000FEF7C2FC2520FEF7B1FC002211462720D2
:1034A000FEF7BAFC2720FEF7A9FC002211463420C3
:1034B000FEF7B2FC3420FEF7A1FC002202213A20E4
:1034C000FEF7AAFC3A20FEF799FC002202213B20DD
:1034D000FEF7A2FC3B20FEF791FC002202210B200C
:1034E000FEF79AFC0B20FEF789FC002202210C203B
:1034F000FEF792FC0C20FEF781FC002202210D2039
:10350000FEF78AFC0D20FEF779FC002202210E2036
:10351000FEF782FC0E20FEF771FC002202210F2034
:10352000FEF77AFCBDE810400F20FEF767BC0000F4
:1035300010B586B0002417480094019402940394B7
:1035400004941349059401604721C0E9011442F233
:103550000F71C0E903148461FEF7C6FF08B1FDF7DF
:10356000DFFD4FF48050009069460A48FEF7FEFFE9
:1035700008B1FDF7D5FD049404A906480594FEF7AB
:1035800075FF002801D0FDF7CBFD06B010BD00008F
:1035900000040040C00000200C4810B50A4901603A
:1035A0004FF4E1314160002181600C22C160C0E92B
:1035B00004128161C161FFF755FA002803D0BDE80C
:1035C0001040FDF7ADBD10BD004C004008010020CB
:1035D0000C4810B50A4901604FF4E1314160002107
:1035E00081600C22C160C0E904128161C161FFF7F2
:1035F00039FA002803D0BDE81040FDF791BD10BD99
:1036000000380140500100200C4810B50A49016003
:103610004FF4E1314160002181600C22C160C0E9BA
:1036200004128161C161FFF71DFA002803D0BDE8D3
:103630001040FDF775BD10BD004800409801002006
:1036400070B5174C174D6068401C606020780026EC
:1036500090B1FFF7B5FB287D01280CD1687D0928C2
:1036600008D3092210A12846FCF7A0FD10B9267046
:1036700010A012E02E7570BD287D0128FBD1687D59
:103680000A28F7D30A2217A10648FCF78FFD002865
:10369000F0D10120207016A0A660FFF77FFBE9E7BC
:1036A00010000020A6030020455849545F5445539C
:1036B000540000000D0A3E3E3E20CDCBB3F6B2E2F0
:1036C000CAD4C4A3CABDA3ACBDF8C8EBD5FDB3A38F
:1036D000B9A4D7F7C4A3CABD203C3C3C0D0A0D0ACF
:1036E00000000000454E5445525F544553540000BD
:1036F0000D0A3E3E3E20BDF8C8EBB2E2CAD4C4A3D8
:10370000CABD203C3C3C0D0A0D0A0000FEE7FEE766
:103710007047000003480021017541751421FCF732
:103720003ABD0000BC030020FFF7F4BF00280AD018
:10373000002201E0521C92B2815C0029FAD10146BC
:103740000148FFF7D5BA70470801002038B5044694
:103750006946002000F0A2F8F0BB9DF8000000F0E0
:103760007F00FDF79FFBA0716946012000F096F8ED
:1037700090BB9DF8000000F07F00FDF793FB6071A7
:103780006946022000F08AF830BB9DF8000000F086
:103790003F00FDF787FB20716946032000F07EF8AB
:1037A000D0B99DF8000000F00700FDF77BFBE0704A
:1037B0006946042000F072F870B99DF8000000F02E
:1037C0003F00FDF76FFBA0706946052000F066F82A
:1037D00010B99DF8000000E009E000F01F00FDF7BF
:1037E00061FB60706946062000F058F808B10120BE
:1037F00038BD9DF80000FDF755FB2070002038BD56
:1038000003480121C0F88811C0F88C1170470000EE
:10381000000022422DE9F0478146002600F062F8C0
:1038200000271D4C3D464FF0010800BFC4F88851E9
:10383000052001F049FAC4F888817006060ED4F814
:103840000C0108B146F00106052001F03DFA7F1C8D
:10385000FFB2082FEAD3B9F1000FC4F8885104F57C
:10386000C47408D000F04EF86560052001F02CFA11
:10387000C4F8008008E000F045F84746C4F804802A
:10388000052001F021FA2760052001F01DFA2560CE
:103890003046BDE8F08700000000224270B50C46BB
:1038A000054600F069F8642000F03CF800F098F854
:1038B00068B9284600F036F800F092F838B900F000
:1038C0005BF8652000F02EF800F08AF808B10120BE
:1038D00070BD0020FFF79EFF207000F065F800200B
:1038E00070BD00001FB500200190039008200090DB
:1038F0000120029069460248FEF720F91FBD000032
:10390000001001401FB50020029008200090012007
:1039100001900320039069460148FEF70FF91FBD8F
:10392000001001402DE9F0410646FFF7EBFF114C76
:103930000027C4F888713D464FF00108300602D5D3
:10394000C4F88C8101E0C4F88C717006060E052065
:1039500001F0BAF9C4F88881052001F0B5F9C4F87E
:103960008871052001F0B0F96D1CEDB2082DE5D38A
:10397000BDE8F0810000224270B5FFF7C3FF094C9B
:103980000120C4F88C01C4F88801052004F5C47432
:1039900001F09AF900256560052001F095F9256090
:1039A00070BD00000000224270B5FFF7ABFF0B4C6A
:1039B0000020C4F88801C4F88C01052004F5C47403
:1039C00001F082F901252560052001F07DF965608F
:1039D000BDE87040052001F077B9000000002242E8
:1039E00070B50024FFF77EFF0D4D0126C5F88C61F0
:1039F000052001F069F9C5F88861052001F064F936
:103A000007E0641CE4B2FA2C03D9FFF7CDFF0120D4
:103A100070BDD5F80C010028F3D1C5F8880170BD40
:103A2000000022427047FEF791B930B595B02821C9
:103A30006846FCF7B0FB14210AA8FCF7ACFB182180
:103A40000FA8FCF7A8FB01210804CDE90010002510
:103A5000029502240491CDE907404FF4E01009904B
:103A60006846FEF75DFB08B172B6FEE70AA90F20B3
:103A700081E831004FF48060CDE90D0502210AA8EC
:103A8000FEF772FA08B172B6FEE74FF400401190EB
:103A90000F940FA8FEF7F2F9002801D072B6FEE7E6
:103AA00015B030BD704700000148FEF7CEBD0000E4
:103AB000C0000020F0B50268204C214D214E224F5D
:103AC000224B4FF0804CA04209D0984207D060456D
:103AD00005D0A84203D0B04201D0B84204D122F0B0
:103AE000700E4A6842EA0E02A04209D0984207D0FE
:103AF000604505D0A84203D0B04201D0B84203D1FE
:103B000022F44075CA682A434D6922F080022A4394
:103B100002608A68C2620A688262A04201D098424A
:103B200001D109690163012141610169C90703D01C
:103B3000016921F001010161F0BD0000002C01408C
:103B40000004004000080040000C00400034014028
:103B500010B5846842EA032224F47F440A432243D6
:103B6000826010BD826822F070020A4342F00701B1
:103B70008160704710B5036A046A24F0010404628E
:103B8000846924F0F00444EA021423F00A020A4390
:103B90008461026210BD10B5036A046A24F0100447
:103BA0000462846923F0A00324F4704444EA0232DE
:103BB00043EA01118261016210BD10B50446FFF7AE
:103BC000EDF82046BDE81040FFF7B0BD38B510480D
:103BD000FEF712FE0E4C20680168C943C9060FD4D7
:103BE0000168406800902046FEF7CCFDE06B00685D
:103BF000406880B2C0F11401064841750121017589
:103C0000BDE83840142203490148FFF761B80000BD
:103C100008010020BC03002010B5406A0021C185C6
:103C2000C184FEF7E7FD10BD70B5446A20684069A5
:103C300094F84110C0F3C0100025212904D118B117
:103C4000E584204600F0B4F82068406994F84210FA
:103C5000C0F38010222904D118B1E585204600F078
:103C600080F8606C40F0100060642046FEF7C2FDF2
:103C700070BD10B50146406A096809684FF000023E
:103C800089062ED4C28501680C3151E8003F23F427
:103C9000807341E80034002CF5D10168143151E8FB
:103CA000003F23F0010341E80034002CF5D1016806
:103CB000143151E8003F23F0400341E80034002C68
:103CC000F5D1202180F84210016B012909D101684A
:103CD0000C3151E8003F23F0100341E80034002C80
:103CE000F5D14263016B012902D0FEF7FFFF10BD41
:103CF000818DFEF746FD10BD10B5406A012141637C
:103D0000016B012902D0FEF7F2FF10BD818D490839
:103D1000FEF737FD10BD10B50146406A0968096815
:103D2000890616D40021C1840168143151E8002F9E
:103D300022F0800241E80023002BF5D101680C310C
:103D400051E8002F42F0400241E80023002BF5D15A
:103D500010BDFFF709F810BD10B5406AFFF705F870
:103D600010BD01680C3151E8002F22F4907241E837
:103D70000023002BF5D10168143151E8002F22F007
:103D8000010241E80023002BF5D1016B012909D183
:103D900001680C3151E8002F22F0100241E80023A5
:103DA000002BF5D1202180F84210002101637047DB
:103DB00001680C3151E8002F22F0C00241E80023D5
:103DC000002BF5D1202180F84110704708B590F8FC
:103DD0004210222901D0022008BD82684FF480538E
:103DE0009A4201D1016921B1816A9A421BD04AB13C
:103DF0000AE00268816A5268C2F308020A80816A96
:103E0000891C08E0026972B10268526802F07F0200
:103E10000A70816A491C8162C18D491E0904090C1E
:103E2000C18503D01BE002685268F1E70168CA68E7
:103E300022F02002CA600168CA6822F48072CA6057
:103E400001684A6922F001024A61202180F842108B
:103E500000214163026B012A03D0FEF747FF0020D7
:103E600008BD016301680C3151E8002F22F01002F7
:103E700041E80023002BF5D101680A68D20602D57B
:103E80000A6849680091818DFEF77BFCE7E7000036
:103E900070B5044600680169E26821F4405111439D
:103EA00001612169A0680843616908432168CA6803
:103EB00041F20C639A430243CA6020684169A269D7
:103EC00021F44071114341611E492068884202D1AA
:103ED000FEF7F0F801E0FEF7DDF800EBC00101EBC2
:103EE0000012606864218000B2FBF0F3B3FBF1F3D1
:103EF0006FF018067343B2FBF0F5B2FBF0F605EB7A
:103F00008305322303EB0515B5FBF1F5B6FBF1F69E
:103F100005F0F00505EB0615B2FBF0F6B2FBF0F08C
:103F2000B0FBF1F06FF01802504306EB800003EB9A
:103F30000010B0FBF1F0216800F00F002844886009
:103F400070BD00000038014038B5816204468285AA
:103F5000002013466064222284F84220E56B1B4A4D
:103F6000AA62E56B1A4AEA62E56B1A4A2A63E26BB7
:103F700050630A462168E06B091DFDF795FD206836
:103F8000016840680090206948B120680C3050E812
:103F9000001F41F4807140E80012002AF5D120682A
:103FA000143050E8001F41F0010140E80012002ADF
:103FB000F5D12068143050E8001F41F0400140E87E
:103FC0000012002AF5D1002038BD0000733C000823
:103FD000F93C0008293C000838B51048FEF70CFCF5
:103FE0000E4C20680168C943C9060FD401684068B7
:103FF00000902046FEF7C6FBE06B0068406880B288
:10400000C0F114010648417501210175BDE8384031
:10401000142203490148FEF75BBE00005001002056
:10402000A603002038B51048FEF7E6FB0E4C2068CA
:104030000168C943C9060FD4016840680090204652
:10404000FEF7A0FBE06B0068406880B2C0F114018D
:104050000648417501210175BDE838401422034925
:104060000148FEF735BE00009801002090030020B3
:10407000FEE700000FB4084B10B504A902AA03988C
:1040800000F0C8F9044602A9002000F05AFD2046BD
:1040900010BC5DF814FB0000434B0008410008020F
:1040A00018BF04200A0E18BF40F001004FF07F42F5
:1040B00032EA010108BF40F00200012808BF0520D4
:1040C00070470907090E002804DB00F1E02080F8A2
:1040D0000014704700F00F0000F1E02080F8141D7C
:1040E00070470121FCF739B900210846FCF7F7B801
:1040F0006FF05E010807FCF730B900002DE9F04DC4
:104100000D4614464FF07F41B1EB440F9EBF4FF078
:10411000FF312960BDE8F08D4FF0004040EA0421F6
:10412000C4F3C750783810F01F024A4B4FEA601CA6
:10413000C2F120067B44C4F3C750A0F178004FEAD7
:10414000601003EB800053F82C3008BFD0E901C6A3
:1041500012D0D0F804C093402CFA06F73B4387688E
:104160000CFA02FC27FA06F8C06807FA02F2F040DF
:104170004CEA080C42EA0006A3FB0132ACFB01C08A
:10418000A6FB016101EB0C068E4234BF4FF0010C1F
:104190004FF0000CC1186144BCF1000F02D0814205
:1041A00002D903E0814201D2012000E00020104446
:1041B00000F120024FEA92188006CA0C40EA423011
:1041C0004F03C5F80080FCF7FDFB82463846FCF73C
:1041D000D0F86FF01201FCF7C0F807463046FCF744
:1041E000C8F86FF02501FCF7B8F883463946504609
:1041F000FBF7EBFF5946FBF7E8FF00F500666FF3AE
:104200000B0651463046FCF732F83946FCF72FF8DA
:104210005946FCF72FF81049FCF72FF807460F49CD
:104220003046FCF72AF83946FBF7CFFF07460C4922
:104230003046FCF722F83946FBF7C7FF14F0004F71
:1042400008BFBDE8F08DC8F1805180F000402960C2
:10425000BDE8F08DE80D0000DB0FC92F22AAFD2973
:104260000000C92F02E008C8121F08C1002AFAD1B5
:1042700070477047002001E001C1121F002AFBD1E6
:1042800070470000014908607047000034000020BA
:104290002DE9FF5F82B00021DDE90430020DDDF879
:1042A00040B0034318D044F61050A2F2FF3242430C
:1042B0001514119801281FD0A5EB0B00401C5FEAD4
:1042C000000A4FF000064E4FDFF83891B0465046D6
:1042D00015D5CAF1000413E0119801244AA301285E
:1042E00001D16FEA0B010298119AC0E90031C0E9CF
:1042F000024206B0BDE8F09FCBF10000DFE70446C4
:104300000021404A491842EB0450CDE9001012E068
:10431000E00707D032463B4640464946FCF798F94D
:104320008046894632463B4610461946FCF790F9CE
:1043300006460F466410002CEAD1DDE90401DDE9F0
:104340000023BAF1000F06DAFCF782F942464B4629
:10435000FCF77EF905E0FCF7EDF942464B46FCF729
:10436000E9F904460E460022284BFCF783FA03D8ED
:104370004FF0FF30014607E00022254B2046314632
:10438000FCF7BFF8FCF75EFA102409E0002C0ADB0A
:104390000A220023FCF72FF8039B30321A55641EC3
:1043A00050EA0102F2D1641C039AC4F111031444CF
:1043B000119A012A03D0012208430DD10AE00843D3
:1043C00004D000204FF0110B119072E7A3EB0B0506
:1043D0006D1E0DE05B4504DD4FF0000205F10105A7
:1043E00004E003DA4FF00002A5F10105002AECD049
:1043F00002981199C0E90231C0E9004579E700004F
:10440000000014400000F03F300000000000F043C6
:104410000000E03F2DE9FF4F95B09B4689460646D8
:1044200000250FE2252877D100242746F84A0121EC
:10443000059400E0044316F8013F203B01FA03F025
:104440001042F7D130782A2811D06FF02F0330783E
:10445000A0F13002092A16D8059A44F0020402EBB2
:10446000820203EB42021044761C0590EFE759F8F4
:10447000042B0592002A03DA504244F400540590BC
:1044800044F00204761C30782E2816D116F8010F5D
:1044900044F004042A280DD06FF02F023078A0F1E8
:1044A0003003092B09D807EB870302EB4303C71836
:1044B000761CF3E759F8047B761C30786C280FD013
:1044C00006DC4C2817D068280DD06A2814D104E0E7
:1044D000742810D07A280FD10DE044F400140AE0BB
:1044E00044F4801401E044F440147278824202D112
:1044F00004F58014761C761C307866280BD013DC0B
:10450000582877D009DC002875D04528F6D04628F1
:10451000F4D047281AD19DE118E0632835D06428EB
:1045200079D0652812D195E1702873D008DC67280E
:10453000F1D069286FD06E280DD06F2806D1B5E074
:1045400073282CD0752875D0782874D05A461799BE
:1045500090476D1C75E1C4F30250022809D003286E
:104560000DD0D9F8001004280DD00D6009F1040910
:1045700067E1D9F80010EA17C1E90052F6E7D9F867
:1045800000100D80F2E70D70F0E719F8041B8DF8AC
:10459000001000208DF80100EA46012003E059F8E0
:1045A00004AB4FF0FF3061074FF0000102D40DE083
:1045B00008F101018846B9420FDA8045F8DB1AF8A4
:1045C00008100029F4D108E008F101018846814271
:1045D000FADB1AF808100029F6D105985B46A0EB23
:1045E000080721463846179A00F094FA284400EB51
:1045F000080507E04DE029E10DE01AF8010B5A46E5
:1046000017999047B8F10108F7D25B462146384622
:10461000179A13E142E00A220092C4F302524FF0CB
:10462000000A022A08D059F804CB032A4FEAEC7199
:104630000AD00DE029E02AE009F1070121F0070284
:10464000F2E802C1914609E00FFA8CFC4FEAEC71E6
:10465000042A03D14FFA8CFC4FEAEC71002907DAE7
:104660000A460021DCF1000C61EB02012D2202E080
:10467000220504D52B228DF80420012203E0E20755
:1046800001D02022F7E7904659E00A2102E01022EB
:104690000DE010214FF0000A00910BE010224FF0C6
:1046A000000A44F004040827009203E008224FF0B7
:1046B000000A0092C4F30252022A05D059F804CB32
:1046C0000021032A08D009E009F1070121F00702BF
:1046D000F2E802C1914605E01FFA8CFC042A01D1E0
:1046E0000CF0FF0C4FF00008220728D5702806D0E8
:1046F000009B83F0100353EA0A0305D00EE040222A
:104700008DF80420012208E05CEA010206D0302284
:104710008DF804208DF8050002229046009B83F05E
:10472000080353EA0A030AD15CEA010201D16207D5
:1047300005D530228DF804204FF001087F1E58283F
:1047400004D034A003900EA802900DE036A0F9E743
:1047500053466046009AFBF74EFE84460398825CFF
:104760000298401E029002705CEA0100F0D10298AB
:1047700006A9081A00F1200A600702D524F4803443
:1047800000E00127574502DDA7EB0A0000E000200A
:1047900000EB0A01009005984144401A0590E0039F
:1047A00006D45B462146179A059800F0B3F90544F4
:1047B000002706E001A85A46C05D179990476D1C76
:1047C0007F1C4745F6DBE0030CD55B462146179A74
:1047D000059800F09FF9054404E030205A461799E7
:1047E00090476D1C0099481E00900029F5DC08E0F8
:1047F000029802995A460078491C029117999047ED
:104800006D1CBAF10001AAF1010AF1DC65E10000BA
:104810000928010030313233343536373839616296
:10482000636465660000000030313233343536375A
:1048300038394142434445460000000000F058F931
:104840000544761C307800287FF4ECAD19B028467A
:10485000BDE8F08F620700D4062709F1070222F0B5
:10486000070CFCE80223E14603F000485FEA080C6D
:1048700002D00FF2702C0DE05FEA045C02D50FF25B
:10488000682C07E05FEAC47C02D00FF2602C01E0E4
:10489000AFF2700C4FF0FF3823F00043CDF850C05A
:1048A00065280CD006DC452809D046281DD04728AD
:1048B0003DD13DE0662818D067287ED138E0002140
:1048C000112F01DB112000E0781CCDE9000106A9C1
:1048D0000EA8FFF7DDFCDDE90F010E9A0391002120
:1048E000009207F1010A04914DE04FF0004000975B
:1048F000CDE9011006A90EA8FFF7CAFCDDE90F02F9
:1049000003920E9B11990022DDF80CA000930492F3
:1049100011B9791C00EB010AB7EB0A0004D4C0F10D
:10492000FF3007F1010A0490AAEB0700019044E070
:10493000012F00DA01270021112F01DD112000E0F5
:104940003846CDE9000106A90EA8FFF7A1FCDDE974
:104950000F010E9A0391002104910092BA4621079B
:104960000CD40399514500DA8A46BAF1010F05DDEE
:10497000009AAAF10101515C302908D0B84202DA4C
:1049800010F1040F06DA0121CDE9011015E0AAF1BA
:104990000101E9E7002805DC049901440491AAEB30
:1049A000000102E0411C514500DD8A460499401A8D
:1049B000401C01904FF000400290200704D4019861
:1049C000504501DBCDF8048000208DF84F0002989F
:1049D0000DF14F07B0F1004F25D02B200E9002981B
:1049E0004FF0020800280CDA404202902D200E9071
:1049F00007E00A210298FBF7E8FC3031029007F843
:104A0000011DB8F10001A8F10108F2DC02980028AC
:104A1000EFD1791E0E980870307800F0200040F039
:104A2000450007F8020D12A8C01B00F107081498F2
:104A3000007800B1012000EB0A01019801EBE07160
:104A400005984144401A401E0590E00306D45B4699
:104A50002146179A059800F05DF8054414980078EF
:104A600018B15A46179990476D1CE00324D55B4650
:104A70002146179A059800F04DF805441CE004986B
:104A8000002807DBDDE90301884203DD0098405C74
:104A9000179901E0179930205A469047049805F17C
:104AA0000105401C04900198401E019004D12E2065
:104AB0005A46179990476D1CBAF10001AAF1010AF4
:104AC000DDDC05E017F8010B5A46179990476D1C7D
:104AD000B8F10001A8F10108F4DC5B462146179A01
:104AE0000598ABE62D0000002B0000002000000020
:104AF0002DE9F041044600251E461746880404D4DB
:104B000005E039462020B0476D1C641EF9D52846C3
:104B1000BDE8F0812DE9F041044600251E4690468F
:104B2000C80301D5302700E02027880404D505E01C
:104B300041463846B0476D1C641EF9D52846BDE88D
:104B4000F0810A68531C0B60107070472DE9F84320
:104B5000044602464F486946B0EB420F09D94FF070
:104B6000E640B0EB420F94BF00204FF0FF300090C2
:104B700030E0494B22F00040834271D9474920463A
:104B8000FBF77BFBFBF79FFC8046FBF742FE00F048
:104B90000300009042494046FBF76FFB0546414940
:104BA0004046FBF76AFB06463F494046FBF765FB7C
:104BB00007463E494046FBF760FB2146FBF75AFBA0
:104BC0003946FBF754FB3146FBF751FB2946FBF70F
:104BD0004EFB04462546009C002C45DB294614F07C
:104BE000010F08461CD0FBF748FB06463049FBF78F
:104BF00044FB3049FBF73EFB3146FBF73EFB2E49B9
:104C0000FBF7E3FA3146FBF738FB2946FBF735FBA8
:104C10002946FBF7DAFA14F0020F1CD0BDE8F8833E
:104C2000FBF72BFB05462549FBF727FB2449FBF740
:104C3000CCFA2946FBF721FB2249FBF7C6FA2946A5
:104C4000FBF71BFB4FF07E51FBF7BFFA14F0020F8E
:104C500008BFBDE8F88380F00040BDE8F883FFE7B7
:104C60001046FFF74BFAB4E76800B0F17F4F3CBF46
:104C70004FF07E50BDE8F88307D14FF00100FFF7F9
:104C800001FBBDE8F843FFF72FBA2846BDE8F8431B
:104C9000FFF727BAB61F927E490E494683F9223F95
:104CA0001A61342C0020A23300A0FD390000C93F56
:104CB000336D4C39DA82083CA0AA2ABEB93AB2BA9E
:104CC000CA9F2A3DDDFFFFBE71B54FF461754FF0FD
:104CD000E023104E009819E02C46A04200D804466C
:104CE0009869614201EBC10110EBC10105D49A69D9
:104CF000824208DA8A42FADA05E08A199969814221
:104D0000FCDD9142FADC0098001B00900028E3D102
:104D100078BD000040190100FDF720F8FEF785FE80
:104D2000FEF726FBFEF70EFBFEF752FCFEF700FC3B
:104D3000FEF7AEFAFEF7E0FAFEF72EFCFEF764FC93
:104D4000FEF79AFBFEF75CFDFBF716FFFCF774F825
:104D5000FBF7FAFEFEF714F8FCF7EEF9FEF7E4FCB9
:104D6000FCF7DEF8FEF76CFCFCE700002DE9F843E9
:104D70000446024652486946B0EB420F09D94FF04B
:104D8000E640B0EB420F94BF00204FF0FF300090A0
:104D900030E04C4B22F00040834271D94A49204612
:104DA000FBF76BFAFBF78FFB8046FBF732FD00F059
:104DB0000300009045494046FBF75FFA0546444929
:104DC0004046FBF75AFA064642494046FBF755FA79
:104DD000074641494046FBF750FA2146FBF74AFA9D
:104DE0003946FBF744FA3146FBF741FA2946FBF70F
:104DF0003EFA04462546009C002C45DB294614F06B
:104E0000010F08461ED0FBF738FA05463349FBF779
:104E100034FA3349FBF7D9F92946FBF72EFA314921
:104E2000FBF7D3F92946FBF728FA4FF07E51FBF741
:104E3000CCF914F0020F08BFBDE8F88380F0004001
:104E4000BDE8F883FBF719FA06462749FBF715FA80
:104E50002649FBF70FFA3146FBF70FFA2449FBF717
:104E6000B4F93146FBF709FA2946FBF706FA294659
:104E7000FBF7ABF914F0020FE0D1BDE8F883FFE7D0
:104E80001046FFF73BF9B4E76800B0F17F4F09D255
:104E90002846FFF703F9042808BFFFF729F9284639
:104EA000BDE8F88306D10120FFF7ECF9BDE8F8432F
:104EB000FFF71AB92846BDE8F843FFF712B900001A
:104EC000B61F927E490E494683F9223F1A61342C5F
:104ED0000020A23300A0FD390000C93FB93AB2BAA0
:104EE000CA9F2A3DDDFFFFBE336D4C39DA82083C94
:104EF000A0AA2ABE010202030405060708090A0B3C
:104F00000C0D0E0F10100000000000000000010248
:104F10000304060708090000000001020304000062
:104F2000000000006E83F9A22915444ED15727FCDA
:104F3000C0DD34F5999562DB4190433CAB6351FE93
:104F4000604F0008000000203800000064420008A4
:104F5000984F000838000020A007000074420008A5
:104F60000100000010000000000000000024F40018
:104F70000100000000000000000000000000000030
:104F80000000000000000000000000000000000021
:084F9000000000000000000019
:0400000508000131BD
:00000001FF
