:020000040800F2
:10000000A81F0020D9020008C5770008DD5E00089F
:10001000C1770008B11F00080DA40008000000000F
:1000200000000000000000000000000071790008DE
:100030005520000800000000C9770008557D000821
:10004000F3020008F3020008F3020008F3020008BC
:10005000F3020008F3020008F3020008F3020008AC
:10006000F3020008F3020008F3020008F30200089C
:10007000F3020008F30200083D20000849200008B0
:10008000F3020008F3020008F3020008F30200087C
:10009000DDA10008F3020008F3020008F3020008E3
:1000A000F3020008F3020008F3020008F30200085C
:1000B000F3020008F3020008F3020008F30200084C
:1000C000F3020008F3020008F3020008F30200083C
:1000D000F302000835860008F3020008F302000866
:1000E00059200008F3020008F3020008F302000898
:1000F000097E000800000000F3020008F302000877
:100100000000000000000000F3020008F3020008F5
:10011000F3020008F3020008F302000800000000E8
:10012000F302000800F002F800F0C6F814A696E802
:10013000000CB244B344DA4501D100F0BDF8BAE88E
:100140000F000FA696E83000A5EB040504EB0607A8
:10015000AAEB0704A7F101074FEA15154FEA34147B
:10016000A4F10104AC4201D300F0A6F813F0010F92
:1001700018BFFB1A43F0010300F001F8DBE7184752
:100180008CCD0000ACCD00000A444FF0000C10F8FC
:10019000013B13F0070408BF10F8014B1D1108BF05
:1001A00010F8015B641E05D010F8016B641E01F8A5
:1001B000016BF9D113F0080F1EBF10F8014BAD1CF5
:1001C0000C1B09D16D1E58BF01F801CBFAD505E013
:1001D00014F8016B01F8016B6D1EF9D59142D6D36D
:1001E000704700007047000000230024002500260F
:1001F000103A28BF78C1FBD8520728BF30C148BF8A
:100200000B6070476E2900F07981702900F0BD8283
:1002100066290CF0FE8465290CF0FB8467290CF03C
:10022000F88461290CF0F78403681B0A28BF41F0A9
:100230008001692900F02681642900F02381752955
:1002400000F020816F2900F04B82782900F089822C
:10025000E92900F0E581E42900F0E281F52900F0C8
:10026000DF81EF2900F04882F82900F088820368D6
:10027000DB0928BF41F08001632900F08D877329D5
:1002800000F09287E32900F09D87F32900F0A28710
:10029000002070471FB500F0F7FF04000020002188
:1002A0000BF006FB401C6060002000210BF0EAFA16
:1002B000E0601FBD10B510BD00F0B8FF1146FFF79C
:1002C000E9FF0AF0A5F801F095F803B4FFF7F2FF93
:1002D00003BC01F0D9F800000948804709480047ED
:1002E000FEE7FEE7FEE7FEE7FEE7FEE7FEE7FEE7E6
:1002F000FEE7FEE704480549054A064B7047000043
:10030000057E000825010008A8190020A81F00206C
:10031000A81B0020A81B00207CB51D4616460C001B
:10032000009007D04142A14202D32044401E01E088
:100330004FF0FF30064B7B442A4669460190304619
:1003400000F0F5F8002C02D0009A002111707CBD5D
:100350001B0200004FF0000200B51346944696467B
:10036000203922BFA0E80C50A0E80C50B1F12001C8
:10037000BFF4F7AF090728BFA0E80C5048BF0CC076
:100380005DF804EB890028BF40F8042B08BF7047D4
:1003900048BF20F8022B11F0804F18BF00F8012B46
:1003A000704770477047704710B500F0BDFA00689D
:1003B00010BD10B5044600F0B7FA046010BD70B56A
:1003C000044685690068C10601D5302600E0202674
:1003D000C00707D070BDD4E9012130469047206A9C
:1003E000401C20626D1EF6D570BD70B5044685694F
:1003F0000078C00707D170BDD4E9012120209047C3
:10040000206A401C20626D1EF6D570BD09684A0541
:1004100001D540B27047C905FCD500B270470968E4
:100420004A0501D5C0B27047C905FCD580B27047F6
:1004300070B50C460546012A05D02878800600D5FF
:10044000EA69002302E0012305E05B1C934202D22B
:10045000E05C0028F9D1A869E618C01AA861286AEA
:10046000184428622846FFF7AAFF04E0D5E90121D5
:1004700014F8010B9047B442F8D32846FFF7B5FFB4
:1004800070BD00002DE9F041064600241068752972
:10049000314616A510D0FFF7B9FF002802DA404216
:1004A00013A507E031688A0701D512A502E04907C4
:1004B00004D511A5012401E0FFF7B1FF00210A22B4
:1004C00006F1240709E0B0FBF2FCB0FBF2F302FBFB
:1004D0001C00303078541846491C0028F3D12346BC
:1004E0002A463046BDE8F04100F067BA000000003F
:1004F0002D0000002B0000002000000011680268A1
:10050000006A530501D508700AE0D30501D50880BB
:1005100006E0130603D5C217C1E9000200E0086037
:100520000120704701694A1C02610878704700B5D4
:100530008FB0CDE901310021059105497944CDE91C
:1005400003101146684600F02BF90FB000BD000003
:10055000E5FFFFFFD1E900239A4202D2531C0B6052
:10056000107070472DE9FF5F15468A460446DFF894
:10057000AC80F8440027D8E900103E46CDE90010D1
:1005800010E03AF816106A4602A800F027FE411C57
:1005900007D02178890603D5E269391891420DD830
:1005A0000744761C2078800602D5E069B84205DD54
:1005B000AE42E6DB3AF816000028E2D1A069C01B83
:1005C000A0612046FFF7FBFED8E90010CDE900103E
:1005D000002017E03AF818106A4602A800F0FEFD65
:1005E000B0F1FF3F81460BD000250DF1080B05E06F
:1005F000D4E901211BF8050090476D1C4D45F7D348
:1006000008F10100B0428046E4DB206A38442062F1
:100610002046FFF7EAFEBDE8FF9F000022C8000069
:100620002DE9F0418046D21D22F007020025D2E9D3
:100630000002F52915A614D0011E72F1000106DA98
:100640000023D0EB030063EB020211A608E0D8F808
:1006500000108B0701D50FA602E0490701D50EA6B1
:1006600001251146002408F1240704E000F060F998
:1006700030323A55641C50EA0102F7D12B4632461B
:1006800021464046BDE8F04100F097B90000000067
:100690002D0000002B0000002000000030B40021DD
:1006A00000F1240408E002F00705D208303542EAE0
:1006B0004372DB086554491C52EA0305F3D1046810
:1006C000002310A2250708D504F020040C4304D011
:1006D000C46901230CA2641EC46130BC00F06DB972
:1006E00010B5044621461068FFF799FE02462046E1
:1006F000BDE810400023D1E7D21D22F00701D1E967
:100700000023CBE70000000030000000F0B40D46ED
:100710000188090502D5214C7C4402E01F4C7C4431
:100720000E34002100F1240608E002F00F07120940
:10073000E75D42EA03721B097754491C52EA03073A
:10074000F3D102780023120704D5702D06D009B129
:10075000022311342246F0BC00F02FB901231034DB
:10076000F8E770B504460D4621461068FFF757FEBE
:10077000024629462046BDE870400023C6E7D21D48
:1007800022F00703D3E90023C0E70368126843F0AF
:10079000200303600823C3610023B7E784C6000079
:1007A0002DE9F05F894604464FF0000ADFF874B186
:1007B000FB44C0F820A02046E1688847002874D098
:1007C000252806D0D4E901219047206A401C2062E8
:1007D000F1E700265F462046E16888472028054665
:1007E00007DB312D05D2781910F8200C08B106432B
:1007F000F1E7B00701D526F00406C4F81CA00027D5
:10080000C4F818A02A2D09D028460AF09FFA38B358
:1008100004EB8708303DC8F8185019E059F8041B5C
:10082000204604EB87029161E1688847012F054665
:1008300018D1E069002820DA26F020061DE0D8F85B
:10084000180000EB800005EB40003038C8F81800B5
:100850002046E168884705460AF078FA0028EED17C
:10086000012F0AD02E2D08D12046E16888477F1C31
:100870000546022F46F02006C4DBA069002803DAF3
:10088000404246F00106A061F00701D026F01006B4
:100890006C2D0BD0682D09D04C2D39D06A2D35D058
:1008A000742D35D07A2D33D016E038E0E1682F462C
:1008B00020468847B842054609D16C2F26D04FF410
:1008C0008060E168064320468847054604E06C2FB7
:1008D0001AD04FF4807006430DB3A5F141001928DA
:1008E00002D8203546F400664A462946204626604E
:1008F0004E46FFF787FC80B101280BD0F61D26F08D
:10090000070000F1080956E74020E4E78020D8E717
:100910000020D6E706F104094DE7284652E7206A91
:10092000BDE8F09F14C60000004870478001002019
:1009300030B5B0F10A0271F100034FEA900E4EEAB1
:10094000817EB0EB0E0061EB91014FEA101E4EEA82
:10095000017E10EB0E0041EB11114FEA102E4EEA12
:10096000016E10EB0E0041EB11214FEA104E4EEAE2
:10097000014E10EB0E0041EB1141401841F1000116
:100980004FEAD00040EA41704FEAD1014FEA8104BA
:1009900044EA907410EB800544EB01046D1944EBBC
:1009A0000404521BA3414FF0000348BF0A3200D594
:1009B00030BD401C41F1000130BD2DE9F0470D462E
:1009C00099469246044600F124080168880604D539
:1009D000E06921F01001216000E00120A84201DD62
:1009E000471B00E00027A1697A1902EB0900081AE9
:1009F000A0612078C00602D42046FFF7E0FC002664
:100A000008E0D4E901211AF806009047206A401C4A
:100A1000761C20624E45F4DB2078C0060AD52046BD
:100A2000FFF7CDFC06E0D4E9012130209047206A91
:100A3000401C2062381EA7F10107F4DC07E0D4E96E
:100A4000012118F805009047206A401C2062281EEA
:100A5000A5F10105F3DC2046FFF7C7FC207800066E
:100A600002D50220BDE8F0870120FBE72DE9FF4F0A
:100A70000C461E464FF0FF378BB0D2E90001DDF87F
:100A800060800A908A46C1F30A5505B93D460021A7
:100A900008464FF00000BAF1000F00F4400005DAFC
:100AA00000EB80004FF4400101EA50004FEA9059FA
:100AB000B9F1010F00DDB9460A9850EA4A000ED09C
:100AC00044F61050A5F2FF3545432F14B8F1000F3E
:100AD0001ED07542291E1EDDC9F100021CE0B8F1CE
:100AE000010F4FF0000001D0302103E0F24305E098
:100AF0002154401CB042FBDB30460022002121542F
:100B00000B99C1F80880C1E900200FB0BDE8F08F53
:100B1000BD1B6D1CDEE74A4600DA694206A800F0FC
:100B2000F7FB06AB93E8070003AB83E807005046EA
:100B30000A9909F0B8FC8DE80700A0F500501F38AD
:100B400000900398002D0ADD42F21F014A46084436
:100B5000002303A90390684609F022FF09E0A0F5ED
:100B600000504A461F38002303A90390684609F045
:100B70002CFF8DE807000004000C03D04FF0FF307D
:100B8000410800E01046B8F1000F03D000220092A7
:100B900015461EE0751E05D4FFF7CAFE30326255B9
:100BA0006D1EF9D5B3460122084302D000227F1CF6
:100BB00004E02078302801D100227F1E002A099706
:100BC00084D01DE0112D07DAFFF7B2FE30326255F6
:100BD0006D1C50EA0102F5D1084302D00098C8B15B
:100BE0000EE00021681E05E0235C625C6354225421
:100BF000401E491C8142F7DBAB46A81B401E0990F2
:100C0000002004F80B000B98099AC0F80880C0E98E
:100C1000002B7AE711264FF0000857E72DE9F04F37
:100C200088460446D21D22F0070191B0D1E90001A7
:100C3000CDE90A010AF000F802460B98C00F01D076
:100C40002D2007E02068810701D52B2002E020211C
:100C500001EAC000032A099001D0072A05DB0346F8
:100C60004146204600F014FB0BE12078800601D5B8
:100C7000E06900E00620B8F1650F814606D0B8F1C2
:100C8000660F18D0B8F1670F70D131E00020B9F1CC
:100C9000110F009001DB112301E009F101030AAA01
:100CA00001A90CA8FFF7E2FEDDE90C70002609F1AE
:100CB0000105834647E001204B4600904FF0004776
:100CC0000AAA01A90CA8FFF7D1FEDDE90DB00C9925
:100CD0005D46002610B909F101000D18B9EB0500B9
:100CE00003D4C0F1FF3609F10105A5EB09002BE0A3
:100CF000B9F1010F01DA4FF001090020B9F1110F2C
:100D00000090484601DD112300E003460AAA01A92C
:100D10000CA8FFF7ABFEDDE90C704D4600268346BC
:100D2000207800070AD4AB4500DA5D4601A8012D02
:100D300004DD411911F8011C302907D04F4502DAB2
:100D400017F1040F04DA012082460FE06D1EEEE772
:100D5000002F02DCED1B3E4403E0781CA84200DDBE
:100D60007D1CB81B00F1010A4FF0004720780007F6
:100D700003D4AA4501DB4FF0FF3A0021B7F1004F41
:100D80000DF143088DF8431024D002202B23002FAF
:100D900001DA7F422D230A21021EA0F1010000DCAE
:100DA0005FB197FBF1FC97FBF1F201FB1C7C17464E
:100DB0000CF1300C08F801CDEEE7A8F1010003704A
:100DC0002188090501D5452100E06521A0F1010830
:100DD00000F8011C09980FA9A1EB0807FF1D00B13D
:100DE0000120411901EBEA70A1693844081A401E3C
:100DF000A0612078C00602D42046FFF7E0FA0998E7
:100E000028B1D4E901219047206A401C2062207853
:100E1000C00622D52046FFF7D2FA1EE0002E04DBE2
:100E2000B34502DD01A8805D00E03020D4E9012156
:100E30009047206A401C2062761CAAF101005FEAFC
:100E4000000A0AD100F020FAC0680168405CD4E9C9
:100E500001219047206A401C2062281EA5F101054F
:100E6000DCDC07E0D4E9012118F8010B9047206A87
:100E7000401C2062381EA7F10107F3DC2046FFF773
:100E8000B4FA032011B041E62DE9F04F04460D46B7
:100E9000D21D22F0070089B0D0E9009748463946B4
:100EA00009F0CAFE0246F80F01D02D2307E02068A2
:100EB000810701D52B2302E0202101EAC0038DF830
:100EC00020300BB1012000E00020032A824601D02F
:100ED000072A04DB2946204600F0DAF93FE12078B2
:100EE000800601D40D2500E0E569C7F30A560D2DF3
:100EF00049DA00214FEA175B08464FF00000002F47
:100F000000F4400007DA00EB80004FF4400100EBF2
:100F1000D07001EA60008115012901DD4FF0FF3139
:100F200000224FEA850CBCF1180F06D31346ACF132
:100F300018004FF08052C24003E04FF4801323FAB0
:100F40000CF30CF10C0CBCF1200F04D3ACF1200C11
:100F500009FA0CF001E007FA0CF000294FF0004804
:100F600001DD18B90FE00ED140450CD319EB020991
:100F70005F4121B9404502D19F4329EA0209BBEBF9
:100F8000175F00D0761C2088000502D57B48784486
:100F900002E07A487844193808AA302302F80A3067
:100FA000037C0AF10101002E0AF1020A53546A4639
:100FB00002DC4FF0300101E04FF031014FF0010849
:100FC0008DF8001002D0A6F2FF3603E059EA47017F
:100FD00000D06B4E002D02DC2178090704D54FF0BC
:100FE00002082E218DF80110C44600210BE0C7F342
:100FF00003433F01C35C491C6D1E02F808300529FC
:1010000008F1010801DA002DF1DC00210CE000EB11
:101010001973491C1B786D1E082902F808304FEA25
:10102000091908F1010801DA002DF0DC21688B06AE
:1010300002D516E0A8F10108E04505DD02EB080342
:1010400013F8013C302BF5D0B8F1000F09DD02EBAD
:10105000080313F8013C2E2B03D1090701D4A8F192
:101060000108002D05DD3E2102F808106D1E08F173
:101070000108407C002E02F8080008F1010804DA9B
:101080002D20764202F8080002E02B2002F808002A
:101090000A214FF47A70864208F101080BDB96FBB7
:1010A000F0F3303302F8083096FBF0F308F1010852
:1010B00000FB136601E0642E0CDB642096FBF0F36A
:1010C000303302F8083096FBF0F308F1010800FB1A
:1010D000136601E00A2E06DB96FBF1F0303002F8D1
:1010E000080008F1010896FBF1F001FB10603030B8
:1010F00002F80800A16908F1010808EB050202EBFB
:101100000A00081AA0612078C00602D42046FFF722
:1011100056F9216A08AE01EB0A00206204E0D4E926
:10112000012116F8010B9047BAF1010AF7D2207895
:10113000C00602D52046FFF742F96E4609E016F8D0
:10114000010B3E280FD0D4E901219047206A401CB2
:101150002062B8F10108F2D22046FFF746F909B043
:101160000320BDE8F08F206A2844206203E0D4E920
:101170000121302090476D1EEBD3F8E769BE0000D7
:1011800002FCFFFF10B5436913B1AFF3008001E02B
:10119000FFF74EF9012010BD127800F124010A700A
:1011A00000224A700122EDE711684FF0FF32E9E7B3
:1011B00010B5436913B1AFF3008001E0FFF7D2F936
:1011C000012010BD128800F1240182840022C28413
:1011D0000122EDE711684FF0FF32E9E72DE9F04118
:1011E00016460C46054600F047F8036893F80101DF
:1011F000012807D0FF2C12D8185D80B101202C7077
:10120000BDE8F081D3F807013246214603F2071307
:10121000C7182846BC46BDE8F041002360474FF0A0
:10122000FF30EDE700487047800100207546FFF76A
:10123000F9FFAE4605006946534620F00700854693
:1012400018B020B5FFF756F8BDE820404FF0000673
:101250004FF000074FF000084FF0000BAC46ACE831
:10126000C009ACE8C009ACE8C009ACE8C00921F08D
:1012700007018D467047000010B500F005F8001D0D
:1012800010BD00BF2DA6000000487047A00100203F
:101290002DE9F0411F46044603260168072A01F4A0
:1012A000006004DB08B116A505E016A503E008B14F
:1012B00015A500E015A521F010002060A069C01E52
:1012C000A0610FB1401EA0612046FFF778F84FB132
:1012D000D4E9012138469047206A401C2062C01C96
:1012E000206206E0206AFAE7D4E9012115F8010B33
:1012F0009047761EF8D22046FFF777F8BDE8F081D8
:101300004E414E006E616E00494E4600696E6600A9
:101310002DE9F047814616468AB0354878440DC815
:101320008DE80D0032487844801C03AC0DC884E879
:101330000D0041F69B300844372190FBF1F290FB01
:10134000F1F5A5F1800501FB12041B3C02D56442B6
:10135000012000E00020DFF898A080460027FA4432
:10136000AAF1BE0A0EE0E0070AD03246684607EB53
:10137000470101230AEB810109F027FB8DE80700F3
:1013800064107F1C002CEED1194F7F44AE3F19E052
:10139000E80715D007EB04100DF1180A90E80E00CD
:1013A0008AE80E00C068F04201D1981908903246D0
:1013B000012306A903A809F008FB03AB83E8070093
:1013C0006D10641C002DE3D14FF0010332466946D5
:1013D000B8F1000F03A802D009F0E2FA01E009F029
:1013E000F4FAC9E90001C9F808200AB0BDE8F0879D
:1013F0006CBB000010B50446AFF300802046BDE88A
:101400001040FEF762BF00004FF0013C50F8042B83
:1014100051F8043B9A4221D1A2EB0C03934313EA07
:10142000CC1317D150F8042B51F8043B9A4215D134
:10143000A2EB0C03934313EACC130BD150F8042B0B
:1014400051F8043B9A4209D1A2EB0C03934313EAEF
:10145000CC13DBD04FF00000704700BFD01A01BAA8
:10146000B1FA81F101F0180122FA01F0CB40DBB2B0
:10147000C0B2C01AC1F120012CFA01F3D11A914374
:1014800011EAC311E6D1704701491820ABBEFEE74F
:101490002600020070470000B0B582B0044600206C
:1014A000019021680A6852064DD4886840F0010016
:1014B000886040F22400C2F2000000684DF68361AB
:1014C000C4F21B31A0FB0101880C00EB400001902D
:1014D0000198A0B1019801380190019878B1019864
:1014E00001380190019850B101980138019001989C
:1014F00028B101980138019001980028EAD101F043
:10150000B9FC2168096849061CD4054603E000BF00
:101510000068400616D401F0ADFC411B2068032989
:10152000F6D301684906F3D4E06C40F01000E064A3
:10153000206D40F001002065002084F84800012063
:1015400002B0B0BD002002B0B0BD000010B506F082
:101550006FFB06F083FB06F05DF904F0DBFC05F0A1
:10156000B3FE04F047FE00F00FFD06F03FFA08F06E
:101570003BFE06F0FBFC40F20C24C2F20004022009
:10158000207006F069F906F0F5F904F02DFE04F07C
:10159000CFFC00281CBF0420207010BD10B50178BE
:1015A000013904296CD8DFE801F003472D3B0D0019
:1015B000407802285CD0012862D1BDE8104006F0D6
:1015C000E3B800BF4078022844D0012818BF10BDFE
:1015D00005F074FE044606F025FB617E45F2565385
:1015E0004A1C007A534301241B0C012908BF022422
:1015F00003EB4303002808BFD41AE0B2BDE8104053
:1016000006F05AB8407802283AD105F057FE807E9D
:1016100000280CBF01200020BDE8104006F060B893
:10162000407802282CD105F049FEC17E81B3BDE887
:10163000104005F03BBE00BF4078012820D105F0E6
:101640003DFE007E00280CBF01200020BDE81040B8
:1016500006F008B805F032FE007E012812D90328F2
:1016600024D002280ED10320BDE8104005F0FABFB7
:1016700006F0DAF840F20C20C2F2000000210170FE
:1016800010BD00BF0220BDE8104005F0EBBF00BF59
:1016900040F20C21C2F2000105220A700022CA7039
:1016A000C1E904220068886110BD00BF0420BDE8C4
:1016B000104005F0D7BF00002DE9F04385B040F29F
:1016C0000C27C2F2000707F11C04204604F008FCB6
:1016D000787068B1387F02280AD1787F022807D154
:1016E0000320387000F046FB0020B87000F042FB89
:1016F00038780138052800F2FD82DFE800F0037138
:101700003553099B05B0BDE8F04300F0F7BA00BFC0
:1017100001A806F03BF928B101F0ACFBB86001A8C4
:1017200005F0E4FD06F026F97878002800F0448200
:1017300005F0C4FD397F032900F09A80042940F0A8
:10174000A7807A7F012A40F01F81F978022900F0F2
:101750004381012900F03E81002940F02E8200687B
:10176000B861012039E100BF7878002800F0C2821A
:1017700006F058FA397F0139042900F2BB82DFE80C
:1017800011F00500C1009900B902E500787F022838
:1017900040F0B08206F0B0FA0220387005B0BDE823
:1017A000F08300BF7878002800F0868106F03AFACE
:1017B000397F0139042900F27F81DFE811F005004B
:1017C000B70091007D01D500787F022840F0748138
:1017D00006F092FA06F028F8002038706CE100BF9D
:1017E00001A806F0D3F8C0B101F044FB9DF80D60EC
:1017F000B86002200121002E08BF0120012504F05D
:10180000E3FF002E08BF02252846002104F0DCFF7C
:1018100001A805F06BFD00F0F1FA06F0ABF878785E
:1018200010B12046FFF7BAFE06F040F805B0BDE85B
:10183000F08300BF04F0D8FC00200E2105F0D4FA9C
:1018400001200F210F2405F0CFFA02200F2105F00F
:10185000CBFA3879002818BF00240320214605F070
:10186000C3FA4FF4FA7005B0BDE8F04301F0D6B802
:10187000787F012840F0A081F978022900F0A28049
:10188000012940F09A81386901303861A8E100BF30
:10189000022940F09181787F012840F08D81F9780C
:1018A000022900F09380012940F0878138690138CE
:1018B000386195E1797F012940F01C82B978DFE831
:1018C00001F003D1BDC700BF0178002940F0ED80D1
:1018D0000121017005B0BDE8F04300F04BBA00BF34
:1018E000797F012940F0E8807979022900F0788039
:1018F000012940F08580417A02298CBF0021013105
:101900004172D9E0797F012940F0F481B978DFE8AC
:1019100001F003C7B3BD00BF017800291CBF013926
:10192000017005B0BDE8F04300F024BA797F0129C9
:1019300040F0C280797902295AD0012966D1417AD2
:1019400000290CBF032101394172B5E0787F0128DD
:1019500040F0D081B878013000F00300B87005B0D5
:10196000BDE8F04300F006BA787F012840F0A4807B
:101970007879AB220130C1B25143490A01EB4101F0
:10198000401A787198E000BFF978022A40F015817A
:10199000032900F012810321F970044601F06AFA6C
:1019A000A27E617EF860BAB3002900F0EB800229C4
:1019B00000F0E28001293BD14BF21778C3F65108C1
:1019C000E4E000BF7869013002E000BF78690138C7
:1019D000786105E1022000E00020F87000E100BF1E
:1019E000817A03298CBF00210131817264E000BF3C
:1019F000817A00290CBF0421013981725CE000BFAB
:101A0000017A002956D0002155E000BF017A002953
:101A100050D001394FE000BF002900F0AD8002290D
:101A200006D0012904D141F26F28C3F68328ADE026
:101A30004DF20A78C3F62348A8E000BF8178012957
:101A40009CBF0131817005B0BDE8F04300F092B950
:101A5000C178022929D80131C17005B0BDE8F04331
:101A600000F088B9417803299CBF0131417005B06D
:101A7000BDE8F04300F07EB9817800291CBF013930
:101A8000817005B0BDE8F04300F074B9C17861B170
:101A90000139C17005B0BDE8F04300F06BB900BF7B
:101AA000417800291CBF0139417005B0BDE8F04301
:101AB00000F060B90121017206F0B4F8044604F0A8
:101AC00093FB00200E2105F08FF978790130C1B227
:101AD000012005F089F9787902280BD0012815D169
:101AE000607A032842D80021DFE800F03D02161892
:101AF000042138E0A07A042838D8DFE800F0032B6E
:101B0000192115000220072114E000BF207A0121CD
:101B1000002808BF052126E0082124E00320012138
:101B200005F062F906211EE00220022114E000BF48
:101B30000220012105F058F90320052110E000BF23
:101B40000220012105F050F90320072105F04CF98E
:101B5000052108E00220012105F046F903200021BB
:101B600005F042F90021042005F03EF905B0BDE87A
:101B7000F04305F033B900BF41F26F28C3F60328E4
:101B800004E000BF4CF2AC58C3F2A778D7E9045088
:101B9000BE690AF039FE014640460AF0C9FE044615
:101BA00028460AF031FE014640460AF0C1FE0246D0
:101BB0003046214605F088FDF978032910D101F05F
:101BC00059F9F968401AB0F5FA6F09D30220387054
:101BD00005F074FB012180F82A1005B0BDE8F08300
:101BE00005F06CFB044601F045F944F6D351C1F20F
:101BF0006201A0FB0101C1F3401804F0F5FAA17ED7
:101C0000022000294FF0010108BF012004F0DCFD93
:101C1000A07E172600284FF018004FF0000108BFE3
:101C2000182604F0D1FD1720002104F0CDFDA17E7F
:101C3000607E59B110B3022814D0012818D14BF29C
:101C40001779C3F65109052523E000BF50B10228DA
:101C50001AD001280CD141F26F29C3F6832903253C
:101C600017E000BF41F26F29C3F60329042510E0F5
:101C70004DF20A79C3F6234900250AE04CF2AC592B
:101C8000C3F2A779052504E04DF20A79C3F623498A
:101C90000225F878DFE800F0021A06100D20414610
:101CA00010E000BF0D20012104F08EFD30464146BA
:101CB00004F08AFD786912E00D20012104F084FD12
:101CC0003046012104F080FD20680EE00D20012146
:101CD00004F07AFD3046414604F076FD38690AF09A
:101CE00093FD014648460AF023FE294604F086FC8F
:101CF00005F074F805B0BDE8F0830000B0B584B01D
:101D000004F078FA4FF4FA6000F088FE04F06CFA00
:101D100005F0A2FD05F02EFE01F0ACF8044601F03E
:101D2000A9F8001B00097C280DD86D46284605F04F
:101D30002DFE98B90A2000F071FE01F09BF8001BFF
:101D4000B0F5FA6FF2D340F20C20C2F2000001218C
:101D500001710621017004B0B0BD00BF40F20C2437
:101D6000C2F200040220207001F084F8A06004B0E8
:101D7000B0BD000010B505F055FF044604F034FA7C
:101D800040F20C20C2F200008078DFE800F0032B64
:101D9000131F00BF0020012105F026F8217800293B
:101DA00018BF0121042005F01FF8BDE8104005F020
:101DB00015B800BF0020032105F016F8A178042013
:101DC00005F012F8BDE8104005F008B80020042125
:101DD00005F00AF8E178042005F006F8BDE81040A7
:101DE00004F0FCBF0020022104F0FEFF6178042013
:101DF00004F0FAFFBDE8104004F0F0BFF0B581B088
:101E000005F05CFA044690F82A00002800F0B28041
:101E1000A17E607E002784F82A7059B102280DD86F
:101E2000C00040F20551C0B2C0F2040121FA00F72F
:101E300004E000BF032838BFC0F1040705F0F2FE3C
:101E40000546C07803280DD0022807D001280CBF12
:101E50004FF080404FF07E5005E000BF4FF07C50C7
:101E600001E000BF686821680AF062FDF9B2064629
:101E700004F0C4FBA77EB7FA87F041090120002FC8
:101E800018BF012704F0A0FC0220394604F09CFC96
:101E9000207E0238B0FA80F04109112004F094FC51
:101EA000207E0338B0FA80F04109132004F08CFC46
:101EB000207E0438B0FA80F04109122004F084FC3E
:101EC000207E0138B0FA80F04109102004F07CFC3B
:101ED000E07E18B31820002104F076FC17200021C2
:101EE000172704F071FC0F20012104F06DFC94F819
:101EF00028000138B0FA80F041090D2004F064FC9C
:101F0000A07E94F82810002801F0FE0008BF1827D2
:101F1000022811D13846012110E000BF0F20002116
:101F200004F052FC0D20002104F04EFC182000218A
:101F300004F04AFC172000E03846002104F044FC7D
:101F400005F044FC0021C4F220010AF02AFB18B974
:101F50000020012104F038FC04F040FFA87801289B
:101F60000AD038B9627EA17E304601B0BDE8F040AB
:101F700008F06EB901B0F0BD627EA17E304601B0BE
:101F8000BDE8F04006F060B840F2E01141F2C41044
:101F9000C2F200010022C2F20000C1E90222C1E93E
:101FA0000422C1E90622C1E908220A7000F060BBE0
:101FB000FEE70000002070470020704710B540F693
:101FC0002874C2F2000440F62831C2F20001204613
:101FD000002206F049FC40F22871C2F200012046BE
:101FE00006F03CFC002010BD10B540F62874C2F28B
:101FF00000040146204606F031FC204606F010FCA5
:10200000002010BD40F62872C2F20002D2F89022E1
:10201000D2F81432002B1CBF0120704710B540F6D7
:102020002874C2F200040A460146204606F01CFC51
:102030002046BDE8104006F083BC000041F25C2061
:10204000C2F2000000F0F2BB41F21820C2F2000020
:1020500000F0ECBB704700004FF4805000F024BE4D
:10206000EFF3108072B600BFFEE7000070B543F6D4
:1020700018460446C4F2020600F0FCFE3168C907A7
:1020800026D13068800744BF022030603068C00528
:1020900012D4306800055CBF30685FEA80400BD422
:1020A0003068C0045CBF30685FEA405004D43068D8
:1020B00080055CBF002070BD306841F27C61C005C6
:1020C000C2F2000120D400203268920525D42AE013
:1020D000C4B10546601C10D13068C007D1D030684B
:1020E000C0071CBF30685FEAC070CAD03068C00744
:1020F000F2D1C6E73068C007C3D000F0BBFE401B7A
:10210000A042F7D9032070BD486940F00200486141
:102110004FF480703268920505D54A6900F5007069
:1021200042F001024A61326812050BD4326892040F
:1021300011D43268D20417D4326852051DD43060ED
:10214000012070BD4A6900F5006042F004024A6156
:1021500032689204EDD54A6900F5005042F0100251
:102160004A613268D204E7D54A6940F4805042F0AF
:1021700020024A6132685205E1D54A6940F4806024
:1021800042F008024A613060012070BD10B581B094
:102190000022009290F84820012A03D1022001B0C9
:1021A00010BD00BF4B680122062B80F8482015D8CF
:1021B000D0F800E003EB83035A1F1F23DEF840C072
:1021C00003FA02F40B682CEA040403FA02F2224335
:1021D000CEF84020092B48D87FE000BF0C2B15D843
:1021E000D0F800E003EB8303A3F123041F23DEF800
:1021F0003CC003FA04F20B682CEA020203FA04F46E
:102200002243CEF83C20092B2FD866E0122B15D89C
:10221000D0F800E003EB8303A3F141041F23DEF8B1
:1022200038C003FA04F20B682CEA020203FA04F441
:102230002243CEF83820092B17D84EE0D0F800E022
:10224000182B03EB830337D8A3F15F041F23DEF8B9
:1022500034C003FA04F20B682CEA020203FA04F415
:102260002243CEF83420092B37D9132B0ED803EB99
:102270004304DEF810C01E3C07228968A2402CEA05
:102280000202A1401143CEF8101033E01A2B0FD8F0
:1022900003EB4304DEF80CC03C3C07228968A240F3
:1022A0002CEA0202A1401143CEF80C1022E000BF3C
:1022B00000BF0B681EE000BFA3F17D041F23DEF802
:1022C00030C003FA04F20B682CEA020203FA04F4A9
:1022D0002243CEF83020092BC7D8DEF814C003EB18
:1022E000430407228968A2402CEA0202A14011435C
:1022F000CEF8141023F00101102934D142F20471F8
:10230000C4F201010A6812022DD40A68102B42F4AB
:1023100000020A6027D140F22401C2F200010968DC
:102320004DF68362C4F21B32A1FB0212910C01EB49
:102330008101490000910099A9B100BF00990139BC
:102340000091009979B1009901390091009951B13A
:10235000009901390091009929B100990139009142
:1023600000990029EAD1002180F84810002001B02E
:1023700010BD00000068806D70470000002804BF99
:102380000120704770B582B0064656F84C1F0029F0
:102390004CD03168C90661D4C16C41F2021291433C
:1023A000023142F2047CC164C4F2010CDCF800206A
:1023B000436822F44032C46841691A43056ACCF884
:1023C0000020214390F83C4090F824E02943426BE0
:1023D00041EA4421102A41EA4E0102D0856B2A438A
:1023E0001143026815686D064CD48568D0E906C4AF
:1023F00003692C43012B44F4807508BF2C46B3F5C8
:10240000807F90F82C3008BF2C46012B41EA0C014C
:1024100030D1BEF1000F25D0C36C43F02003C3645C
:10242000036D43F00103036524E000BF0021016553
:1024300080F8481043F62001C4F202010A680446FD
:1024400042F001020A60096801F00101019101995D
:1024500000F056F820463168C9069DD5012002B02B
:1024600070BD00BF036B4EF60005CFF6FF7505EBA0
:1024700043331C43536841F2FF65CFF6FC452B40C4
:102480002343536093684FF28915CCF2FF052B402C
:102490000B4393600369B3F5807F01D0012B0BD10F
:1024A000136B856A0024CFF6F07423F0F87304EB05
:1024B00005552B4303E000BF136B23F0F873136340
:1024C00092684FF6FE73CBF680731A408A4207D1AA
:1024D00000220265C06C002120F003020AE000BF68
:1024E000C16C41F0100121F00201C16450F8502F7D
:1024F0000121064642F001003060084602B070BD7E
:1025000080B586B042F200410068C4F201010022A9
:1025100088420592CDE903220292019202D006B0D0
:1025200080BD00BF43F61C00C4F20200436843F4C0
:1025300000734360436803F400730093009B0368D7
:1025400043F001030360006800F001000090009870
:10255000202001900320CDE9020201F55C4001A991
:1025600000F0AEFB06B080BD70B5044600680D46B5
:102570008268520544BF80685FEAC05038D400F0DA
:1025800079FC21680A68920749D40646681C3CD049
:10259000DDB90868800721D5086880073FD408683E
:1025A00080071BD50868800739D40868800715D5CF
:1025B0000868800733D4086880070FD5086880074B
:1025C000E7D52CE00868800729D400F053FC801B75
:1025D0002168A842F6D908688007F3D4E06C40F07F
:1025E0000400E064002084F84800032070BD00BFB0
:1025F000E06C40F02000E064002084F848000120F6
:1026000070BD00BF0868800709D40868800706D439
:10261000086880075CBF08685FEA8070F2D5A0692F
:10262000002804BF6FF012000860E06C40F40070F6
:10263000E064886810F0405F02D0002070BD00BFE9
:1026400094F824000028F8D1086B10F0F87F02D02D
:1026500088684005F1D4E06C20F48070E064E06CA0
:10266000C004EAD4E06C40F00100E064002070BDDA
:10267000B0B590F84810012904BF0220B0BD012474
:1026800080F848400546FEF707FF08B12046B0BD78
:102690002868EA6C40F201739A4302F58072EA649A
:1026A00042682946520504D5CA6C012363F30D32F2
:1026B000CA64CA6C0024D2044FF0000244BF0A6D01
:1026C00022F006020A6581F848406FF0220101609D
:1026D000816811F0405FD9D1816841F0804181600B
:1026E0002046B0BDB0B5044690F84800012804BFAC
:1026F0000220B0BD0121206884F848100168490615
:1027000009D5816821F00101816000F0B3FB2168E7
:10271000096849060ED4214651F84C0F41F20112C6
:1027200020EA0202002042F001020A60002184F83F
:102730004810B0BD054602E000684006EBD500F049
:1027400099FB411B20680329F6D301684906F3D59C
:10275000E06C214640F01000E06451F8502F012059
:10276000E1E7000042F20400CEF20400016841F00B
:10277000010101607047000042F20400CEF2040043
:10278000016841F00201016070470000014690F8C5
:102790002100022818D10868D1E90FC3026822F08D
:1027A0000E020260026822F00102026003F01C00C7
:1027B000012202FA00F0CCF8040081F82120002068
:1027C000002281F820207047042088630120002225
:1027D00081F820207047000090F82110022921D1B3
:1027E00080B50268D0F834C0D0E90FE1136801F079
:1027F0001C0123F00E0313601368BCF1000F23F0DB
:10280000010313604FF0010202FA01F1CEF8041047
:102810004FF0000180F8212080F8201018BFE04719
:10282000002080BD0421816301207047B0B5D0E94C
:102830000FC30268DCF8001003F01C030424D2F874
:1028400000E09C400C4218BF1EF0040520D1022479
:102850009C400C4218BF1EF0020529D1D94009073F
:1028600014D51EF0080108BFB0BD116821F00E019B
:102870001160012101FA03F2CCF80420816380F891
:102880002110016B002280F8202069B9B0BD00BF83
:102890001168890603D4116821F004011160CCF895
:1028A0000440C16A0029F1D0BDE8B040084700BF2C
:1028B0001168890606D4116821F00A01116001210E
:1028C00080F82110CCF80440816A0022002980F8A9
:1028D0002020E9D1DAE70000014600284FF001008E
:1028E00008BF70472DE9F04746F2000CC4F2020C15
:1028F0000A6849F6F8330CF5816ECBF6FD73724524
:1029000038BF03F5806303EB020E4CF6CD43CCF6E3
:10291000CC43AEFB033E0CF580636FF00304D1E9BA
:10292000019AD1F80C803CBF46F20003C4F20203C6
:1029300004EA9E04C1E90F34022381F821301368B0
:1029400047F6F074A34301F1100743EA0903F0CFFF
:1029500043EA0A0343EA080323432B4333433B433D
:10296000136000228A6381F8210081F82020002072
:10297000BDE8F0477047000090F820C0BCF1010F9F
:1029800004BF02207047F0B54FF0010E80F820E040
:1029900090F821C0BCF1010F28D14FF0020C80F853
:1029A00021C04FF0000CC0F838C0D0E900C4C56A9F
:1029B000C66BDCF80070102C27F00107CCF8007013
:1029C000006C00F01C000EFA00F070600846CCF8B5
:1029D000043004BF10460A46CCF80800CCF80C209E
:1029E000DCF8000045B140F00E000DE0002180F859
:1029F00020100220F0BD00BF20F00400CCF8000041
:102A0000DCF8000040F00A00CCF80000DCF8000020
:102A100040F00100CCF800000020F0BDB0B5044645
:102A200000F028FA054640F20000C2F200004068BB
:102A3000611C18BF044400BF00F01CFA401BA042F8
:102A4000FAD3B0BD43F60441C4F20201086840F075
:102A5000010200200A607047F0B581B041F27C6548
:102A6000C2F200052B7C012B02D1022001B0F0BD87
:102A70000446012028744CF250300E461746FFF7EA
:102A8000F5FA18B10021297401B0F0BD0020686189
:102A9000102C4FF00100F5D8DFE804F00C2C140ADC
:102AA000340A0A0A440A0A0A0A0A0A0A1C0000BF6F
:102AB000E8E700BF4CF25030FFF7D8FA0028E1D128
:102AC00037703FE04CF25030FFF7D0FA0028D9D1F0
:102AD0000EE000BF4CF25030FFF7C8FA0028D1D109
:102AE00043F60440C4F20200016821F480710160E1
:102AF000376027E04CF25030FFF7B8FA0028C1D118
:102B00001FE000BF4CF25030FFF7B0FA0028B9D1F7
:102B100043F60440C4F20200016821F480710160B0
:102B200037700FE04CF25030FFF7A0FA00287FF426
:102B3000A9AF43F60440C4F20200016821F4807199
:102B4000016037804CF25030FFF790FA0021297471
:102B500001B0F0BD43F60C40C4F2020050F8081C6E
:102B6000C90704BF012070474CF6EF51C8F6AB11FE
:102B7000016040F20541C0F203210160002070476E
:102B8000002908BF70472DE9F04F81B000F13E42A7
:102B900002F1FF7741F20002C4F2020205234FEA7C
:102BA000B726904208BF042300F1200E042E38BF40
:102BB0004FEAB723002400270025009326E000BF3A
:102BC00002680323A3409A4302606FF0030202EA03
:102BD000550607F01C0C5EF806800F2202FA0CF274
:102BE00028EA02024EF80620C2689A43C260426890
:102BF00022EA0A02426082689A438260013531FA11
:102C000005F207F1040704F102043BD0012202FAA5
:102C100005FA1AEA0108F1D040F20042C4F20102BA
:102C2000A2F57E7C25F0030307F00C0B0F225CF865
:102C3000033002FA0BF9009A03EA090302FA0BF2D5
:102C40009342BDD140F20046C4F20106326840F220
:102C50000C4322EA080232607268C4F2010322EADD
:102C6000080272601A6822EA08021A60B268AB08A9
:102C700022EA0802B2605CF8232022EA09024CF83A
:102C800023209DE701B0BDE8F04F7047B0F5805FAD
:102C900018BF704740F61000C4F20200006800053B
:102CA00048BF04F0F9BE704740F21441C4F201017C
:102CB0000A68024214BF08607047FFF7E7BF0000D0
:102CC0002DE9F04F83B00E68002E00F0C98000F1AE
:102CD000200200F13E4741F2000C009207F1FF771D
:102CE000C4F2020C052240F2004B4FEAB7256045C2
:102CF00008BF0422C4F2010B042D38BF4FEAB722EB
:102D0000002500274FF0000801920AE00E6808F144
:102D1000010836FA08F207F1020705F1040500F090
:102D20009F80012202FA08FE16EA0E09EED0D1F8C1
:102D300004C003220CF00306741EBA40012C6FEA93
:102D4000020A11D88268CC6802EA0A02BC40224317
:102D500082604268CCF3001422EA0E0204FA08F4FE
:102D60002243426004E000BF032E01D103261EE08F
:102D7000C2688C6802EA0A02BC402243022EC2608A
:102D800015D16FF0030202EA580E009A05F01C04F8
:102D900052F80EC00F230E69A3402CEA0303A6408D
:102DA000334342F80E30D1F804C00CF00306026839
:102DB00006FA07F302EA0A021A431CF4403F0260D3
:102DC000A4D043F62003C4F202031A684FF6084C5D
:102DD00042F001021A601A68CFF6FF7C02F001028D
:102DE0000292029A28F003025A4452F80C3005F07D
:102DF0000C060F24B440A343019C04FA06F63343A7
:102E000042F80C30DBF808204B6842EA090640F231
:102E10000C4CDC0258BF22EA0906CBF80860C4F269
:102E2000010CDCF800209C0242EA090658BF22EAA5
:102E30000906CCF80060DBF804209C0342EA09068E
:102E400058BF22EA0906CBF80460DBF80020DB0358
:102E500042EA090658BF22EA0906CBF8006055E7A6
:102E600003B0BDE8F08F0000002A08BF09048161AB
:102E70007047000041F6A410C2F2000000687047DD
:102E800040F2000041F6A411C2F20000C2F20001BB
:102E900040680A68104408607047000080B503204D
:102EA00000F072FA002000F009F800281CBF012091
:102EB00080BD00F0EFF9002080BD0000B0B540F209
:102EC0000005C2F200056968F1B1044640F2240031
:102ED000C2F200004FF47A720068B2FBF1F1B0FB6D
:102EE000F1F001F033FE01460F2C4FF001000AD83B
:102EF000002918BFB0BD4FF0FF302146002200F07E
:102F000017FA00202C60B0BD0120B0BDB0B504465A
:102F100090F83500012805D094F8350002281CBF30
:102F20000120B0BD94F8340001284FF0020008BF22
:102F3000B0BD012184F8341084F83500FFF79AFF02
:102F4000054600BF2068816849070DD5FFF792FF4D
:102F5000401BB0F57A7FF5D90220A0630320002141
:102F600084F83410B0BD00BF002141618161C161AE
:102F7000016241628162C162016341638163C16335
:102F8000016441648164C16401650821C160816894
:102F900041F004018160FFF76DFF054620688068FD
:102FA00000070DD4FFF766FF401BB0F57A7FF5D917
:102FB0000420A0630020002184F83410B0BD00BFBD
:102FC000012084F835000020002184F83410B0BDC1
:102FD000002804BF012070472DE9F041044690F815
:102FE000350028B9002084F83400204600F080F82D
:102FF000022084F835002068016821F00101016099
:10300000002141618161C161016241628162C162ED
:10301000016341638163C163016441648164C1648C
:103020000165816841F0040181604168D4E9017360
:103030006FF31911D4E90A2539431943D4E906C8B5
:103040001143D4E9086E294341EA0801314341EABA
:103050000C0141EA0E014160FFF70CFF054600BF7D
:1030600020688168890608D4FFF704FF401BB0F58B
:103070007A7FF5D90120A0632068016804F10C076C
:103080008CCF21F0FE011143266B194339433143A4
:103090000160016841F001010160FFF7EBFE0646A7
:1030A00020688568FFF7E6FEE90705460ED1A81BF4
:1030B000B0F57A7FF4D90820A0630320BDE8F08141
:1030C000FFF7D8FE401BB0F57A7F0BD820688068E8
:1030D000C006F5D500200121A06384F83510BDE8B5
:1030E000F08100BF1020A0630320BDE8F081000044
:1030F0002DE9F04186B042F200450068C4F20005B7
:103100000026A8420596CDE903660296019603D0F3
:1031100006B0BDE8F08100BF43F61C00C4F2020017
:10312000816801AC41F40071816081684FF0020850
:1031300001F400710091009901680B2741F004012E
:103140000160016801F0040100910099016841F0FB
:1031500001010160016801F001010091009901681D
:1031600041F0020101600068214600F00200009079
:10317000009840F2FF10019005F5F230CDE902868B
:1031800004960597FFF79CFD48F2CE70CDE9010843
:1031900005F5EE302146CDE903660597FFF790FD72
:1031A0004FF63B70CDE9010805F5F0302146CDE939
:1031B00003660597FFF784FD06B0BDE8F0810000C7
:1031C000B0B5044600680821C160816841F004017F
:1031D0008160FFF74FFE05462068806800070DD428
:1031E000FFF748FE401BB0F57A7FF5D90420A063B5
:1031F0000320002184F83410B0BD00BF012084F802
:1032000035000020002184F83410B0BD2DE9F041D4
:10321000064690F835009846154601280F4606D018
:1032200096F8350002281CBF0120BDE8F08196F811
:103230003500012822D196F8340001284FF0020011
:1032400008BFBDE8F081012186F8341086F835000A
:10325000FFF710FE044600BF3068816849070ED5AD
:10326000FFF708FE001BB0F57A7FF5D90220B063A6
:10327000002086F834000320BDE8F081306800EBC0
:1032800087004169294041EA080141610020BDE809
:10329000F081000083B043F62400C4F2020001680C
:1032A00041F000410160016801F000410291029982
:1032B00050F8041C41F0010140F8041C50F8041CB3
:1032C00001F0010101910199016841F08051016013
:1032D000006800F080500090009803B07047000034
:1032E000002848BF704700F01F01012202FA01F1D7
:1032F0001C2202EAD0004EF28012CEF2000281506F
:10330000BFF34F8FBFF36F8F70470000002848BF97
:10331000704700F01F01012202FA01F11C2202EAAB
:10332000D0004EF20012CEF2000281507047000031
:1033300010B54EF60C5CCEF2000CDCF80030C3F396
:10334000022E8EF00704042C28BF0424BEF10303D0
:103350004FF0FF3E0EFA04F438BF0023A14399401A
:103360000EFA03F39A43114300F00F0200F1604399
:103370000901043A03F564436244002848BF02F19E
:103380000C03197010BD00004EF60C51CEF2000176
:103390000A684FF6FF031A4060F30A2242F0806089
:1033A00040F0FD700860704780B501F0070C0CEB31
:1033B0008C0C00EBCC0C0CF1100C01EB810E09060F
:1033C00000EBCE0058BF00F5A87C5AB1ACF808302D
:1033D0001B0C01210A202CF8003000208CF80C1066
:1033E00080BD00BF002106202CF8003000208CF8A2
:1033F0000C1080BD0420C4F201000268012922F0F3
:10340000010208BF013202607047000001EB810237
:10341000D0F8D03200EBC200426A184605F0CABCB0
:1034200001EB8102D0F8D03200EBC200D0F8642169
:10343000184605F025BD000010B501F0070E0A463C
:103440004FFA81FC0EEB8E0100EBC10303F5A8716E
:10345000BCF1000F48BF03F1100190F89032D2097F
:10346000012B4A7081F800E004BF022010BD026801
:10347000012380F890320446104606F07FFA0020BF
:1034800084F8900210BD0000027901F00F0393420E
:1034900084BF0120704710B501F0070303EB8302DE
:1034A00000EBC2024FFA81FC8E4602F5A871BCF116
:1034B000000F48BF02F110014FEADE124A7090F887
:1034C00090224FF0000C012A81F802C00B7004BF5B
:1034D000022010BD0268012380F890320446104695
:1034E00006F0D8FA002084F8900210BD01F0070120
:1034F00001EB810100EBC100D0F86C0170470000C6
:10350000B0B501F007048C464FFA81FE04EB84014C
:1035100000EBC10505F5A871BEF1000F48BF05F12C
:1035200010014FEADC156FF3DF224D700C700A6159
:10353000022BCB7004BF00220A7190F89022012A5E
:1035400004BF0220B0BD0268012380F89032044617
:10355000104606F081F8002084F89002B0BD00000B
:1035600010B501F0070C0CEB8C0100EBC10E0068EC
:103570000EF5A8710024CEF86421CEF86831CEF89B
:103580006C418EF851418EF850C106F0D9FA0020F6
:1035900010BD0000027901F0070C94454FF00102C4
:1035A0002AD810B501EB810300EBC3034FFA81FE6B
:1035B00003F5A8730CEB8C04C90900EBC404BEF13D
:1035C000000F48BF04F11003597090F890129A70E0
:1035D000012983F800C001D102220BE00168012219
:1035E00080F8902204460846194606F08FFA002219
:1035F00084F89022BDE810401046704780B501F075
:10360000070C0CEB8C0100EBC10101F810CF006836
:103610004FF0010C01F1140781F824C04FF0000EA7
:1036200087E80C400B6281F801C006F089FA00209F
:1036300080BD00002DE9F04F83B00446006806F01D
:1036400031FE01041CD441052ED441043ED4810432
:1036500000F1D083C10400F1D783010500F1088493
:10366000810500F11F84C0052CD52068B0F84410F6
:1036700021F48071A0F8441003B0BDE8F08F00BFC2
:103680002068B0F94410B1F1FF3F1BDC04F5A871CC
:10369000019104F1100148F2C005029104F5267170
:1036A00040F60F7900913DE02068B0F8441021F415
:1036B0008061A0F84410204600F022FD94F89002AA
:1036C00001280DD103B0BDE8F08F00BF2068B0F82D
:1036D000441021F48041A0F8441003B0BDE8F08FFD
:1036E0000120002584F8900225732068002106F04F
:1036F00037FE84F8905203B0BDE8F08FB0F8501058
:103700003278084400EB02100021A0F80C14317844
:103710002046FFF77BFE00BF2068B0F94410B1F1EE
:10372000FF3FCFDCB0F8442012F00F080CD030F986
:1037300028104FEA480BB1F1FF3F1FFA81FA2FDD45
:103740005FEA0A60E8D547E10188D20662D401EA5F
:10375000090101F500410180B0F85010227C00EB16
:10376000410000EB0210B0F80404616A6FF39F207F
:10377000E0620844606220460021FFF747FE207B9C
:103780000028C9D0A06A0028C6D1207B216840F05B
:103790008000C0B2A1F84C0000202073BCE700BF3D
:1037A00030F81B1001EA0901803120F81B10019A42
:1037B00008EB880102EBC106317B002900F07E8016
:1037C000F178022940F08A80B0F850303178B2693F
:1037D00000EB43035FEA4A4703EB011300F19680D5
:1037E000B3F80C7400236FF39F27D21B38BF1A461F
:1037F000B26140F2A1805FEA4A6200F1AD8030F828
:10380000212002EA09022A4320F82120002F40F05B
:10381000A480C3E00A052FD409B2B1F1FF3F3FF7FE
:103820007BAF018801EA090180310180B0F85010B6
:1038300094F8502100EB410101EB0211B1F80C3476
:103840006FF39F23002BC4F86C3100F0FB81D4F898
:10385000641100293FF460AFB4F8562106F026FD4C
:10386000D4F86401D4F86C110844C4F8640120460B
:103870000021FFF7D5FD4FE7B0F8501094F8502124
:1038800000EB410101EB0211B1F80C146FF39F2121
:103890000829C4F86C1140F0D182B4F8562100997F
:1038A000082306F003FD2068018801EA0901803140
:1038B0000180204600F052FC2EE700BFB0F8501007
:1038C000327800EB410101EB0211B1F80C746FF397
:1038D0009F27002F62D07169F2885AE0317830F862
:1038E000212002EA09022A4320F8212030F8212071
:1038F000B0F8503000EB0111520401EB430115D434
:10390000B1F80C746FF39F273FBB47E0B3F8047422
:1039100000236FF39F27D21B38BF1A46B2611FD90D
:103920005FEA4A622BD497BB38E000BFB1F8047459
:103930006FF39F275FBB31E030F8212043F60F7310
:103940001A404CF28003A3F500535A4020F821207E
:103950005FEA4A627FF553AF07B37169728918E075
:1039600030F8212043F60F731A404CF28003A3F580
:1039700000535A4020F821205FEA4A62D3D530F83C
:10398000212002EA09022A4320F8212037B1716977
:1039900032893B4606F08AFC01E000BF0027D6E9E9
:1039A00006013944F16110B13069B84208D9317863
:1039B0002046FFF735FD5FEA0A607FF5ADAE0BE00C
:1039C0007069C11920687161314606F0B9F85FEA83
:1039D0000A607FF5A1AE00BF206808EB880130F8CF
:1039E0001B20029B03EBC10602EA090101F500411D
:1039F00020F81B10F378012B22D1317B00294FF0E6
:103A00000001B1613FF483AE5FEA4A617CD4717812
:103A100001293FF473AE00297FF479AEB0F850105D
:103A20003278084400EB0210B0F80C146FF39F21B9
:103A3000A0F80C14B0F80C1441F4004165E600BF86
:103A40005FEACA511ED4B0F85020317800EB420230
:103A500002EB0112B2F80424B3696FF39F229B1AA0
:103A60004FF0000738BF3B46B3617FF651AE716936
:103A7000F369114471619918F161314606F060F8FB
:103A80004AE600BFB0F850503178B2695FEA4A6741
:103A900000EB011E50D40EF20C4C3CF815500027E0
:103AA0006FF39F25521B38BF3A46B26174D95FEA63
:103AB0004A4208D430F821204CF2800302EA09027D
:103AC0001A4320F8212096F82410012940F0838120
:103AD000D6E90431D6E9077229442F449A4271612C
:103AE000F76180F00581002A00F0408100233362F5
:103AF00086F8243013467278012A40F0FF80B0F82F
:103B000050202CF8023050E17178012900F09080AB
:103B100000297FF4FCADB0F850103278084400EB77
:103B20000210B0F804146FF39F21A0F80414B0F849
:103B3000041441F4004182E00EF2044C3CF81550AC
:103B400000276FF39F25521B38BF3A46B26147D911
:103B50005FEA4A4208D530F821204CF2800302EA9D
:103B600009021A4320F8212096F82410012940F078
:103B70003281D6E90431D6E9072729442A449F42F5
:103B80007161F26180F0D0800022002F86F824203D
:103B900040F0CC802F46CAE07278012A5ED0002A1D
:103BA00048F2C00565D1B0F850207244B2F80474F0
:103BB0006FF39F27A2F80474B2F8047447F4004727
:103BC000A2F80474B0F850203CF802706FF39F27FD
:103BD0002CF802703CF8027047F4004747E000BF41
:103BE0007278012A5AD0002A48F2C00562D1B0F892
:103BF00050203CF802506FF39F252CF802503CF8FF
:103C0000025045F400452CF80250B0F8502048F21C
:103C1000C0057244B2F80C746FF39F27A2F80C74BD
:103C2000B2F80C7447F40047A2F80C7442E000BFED
:103C3000B0F850103278084400EB02100021A0F8D0
:103C4000041464E5018843F60F7211404CF28002BF
:103C5000A2F58052514001805EE500BFB0F85020CF
:103C600048F2C0057244A2F80474B0F850202CF851
:103C70000270022B09D130F8212040F63F731A4020
:103C8000A5F120035A4020F821202046FFF7BEFB73
:103C90005FEA4A403FF540AD1FE000BFB0F850205A
:103CA00000252CF80250B0F850207244A2F80C54B1
:103CB00048F2C005022B09D130F8212040F63F73AD
:103CC0001A40A5F120035A4020F821202046FFF792
:103CD0009DFB5FEA4A407FF51FAD206831784CF2CA
:103CE000800330F8212002EA09021A437FE000BF76
:103CF000D21A32627278012A3FF401AF002A54D1FD
:103D0000B0F850703CF807206FF39F222CF8072082
:103D1000A3B33E2B3AD803F001023CF8075002EB64
:103D2000530245EA82223EE0FA1A1F463262727856
:103D3000012A15D0002A4AD1B0F850203CF80230B0
:103D40006FF39F232CF80230E7B13E2F30D807F0F5
:103D500001033CF8025003EB570345EA832334E0A8
:103D6000B0F850202CF8027031E000BF002286F835
:103D700024202B467278012AC0D1C0E63CF80720E7
:103D80000FE000BF3CF802301DE000BF5A09DD061D
:103D90003CF807E04FF0FF3508BF05EB53124EEA41
:103DA000822242F400422CF8072072899BB210E074
:103DB0007B09FD063CF802E04FF0FF3508BF05EB3C
:103DC00057134EEA832343F400432CF80230328920
:103DD000BBB206F0CDFA2068317840F63F7330F878
:103DE000212048F2C0051A40A5F110035A4020F8DE
:103DF000212091E42068B0F8441021F40051A0F88B
:103E0000441003B0BDE8F08F2068B0F8401021F0F6
:103E10000401A0F84010B0F8401021F00801A0F80B
:103E20004010204600F07EF92068B0F8441021F4DC
:103E30008051A0F8441003B0BDE8F08F018843F62C
:103E40000F72114005F57C6251400180018840F6F7
:103E50003F721140A5F1300251400180018840F6C7
:103E60000F7211408031018003B0BDE8F08F00BFB8
:103E70002168B1F8400040F00800A1F84000B1F816
:103E8000440020F40060A1F84400B1F8400040F084
:103E900004022046A1F8402003B0BDE8F04F00F036
:103EA0007FB900BF2168B1F8440020F400722046B9
:103EB000A1F8442003B0BDE8F04F00F037B900008E
:103EC000002804BF01207047F0B581B0044690F887
:103ED000910228B9002084F89002204600F0F8F8FA
:103EE000032084F89102206805F0CAFD94F804E0EC
:103EF000BEF1000F00F0E0800EF0030CBEF1040FE5
:103F00004FF0000238D30EF0FC03A4F1A00003210F
:103F1000012500BFCE1E80F8B0608E1E80F8D860EC
:103F20004E1E80F8006180F828110E1D013180F8C6
:103F3000B15080F8B320C0E93022C0F8C82080F822
:103F4000D95080F8DB20C0E93A22C0F8F02080F890
:103F5000015180F80321C0E94422C0F8182180F8FB
:103F6000295180F82B21C0E94E22C0F84021A03011
:103F700099423146CED1F21EBCF1000F2ED004F191
:103F8000100002EB820100EBC105012300F8312093
:103F90000021BCF1010F6B70E970C5E90411A96142
:103FA0001CD0551C05EB850600EBC607BCF1020FC3
:103FB0007B7000F83650F970C7E90411B9610DD073
:103FC000911C01EB810200EBC203012500F83210C5
:103FD00000205D70D870C3E904009861BEF1000F45
:103FE0006AD0BEF1040F4FF0000235D30EF0FC0092
:103FF00003212346CF1E83F850718F1E83F87871FA
:104000004F1E83F8C8110D1D013183F8512183F82B
:104010005321C3E95822C3F8682183F8792183F832
:104020007B21C3E96222C3F8902183F8A12183F8A0
:10403000A07183F8A321C3E96C22C3F8B82183F8E7
:10404000C92183F8CB21C3E97622C3F8E021A0334C
:1040500081422946CED1EA1EBCF1000F2CD004F5D6
:10406000A87002EB820300EBC3070021BCF1010F33
:10407000797000F83320F970C7E90411B9611BD0D9
:10408000531C03EB830700EBC706BCF1020F7170F2
:1040900000F83730F170C6E90411B1610CD0911C01
:1040A00001EB810200EBC20300275F7000F83210C1
:1040B000DF70C3E904779F6194E8070005F0D2FC44
:1040C00000200121207384F8911201B0F0BD00009E
:1040D000006845F60041C4F20001884218BF7047ED
:1040E00081B043F62400C4F20200016841F40001EB
:1040F0000160006800F400000090009801B0704773
:1041000010B504464079022818BFFDF7A9FFD4F87E
:10411000D002012104F0B6FFD4F8D002BDE810406F
:1041200004F070BFD0F8D00204F096BFD0F8D002EF
:1041300004F09ABF90F89022012A04BF0220704731
:1041400010B5012280F890220173026804461046DF
:1041500006F006F9002084F8900210BDD0F8D022B5
:1041600000F52671104604F0A3BF000090F89012ED
:10417000012904BF0220704710B50168012280F8B0
:1041800090220446084606F01FF820460121FFF75A
:1041900031F9206805F064FC002084F8900210BD1D
:1041A00010B50446D0F8D00204F0D4FF607A00289D
:1041B00008BF10BD4EF61050CEF20000016841F06D
:1041C0000601016010BD000047F20000C4F20000CB
:1041D000016841F0020101604EF61050CEF200007D
:1041E000016841F00401016030BF70472DE9F041E2
:1041F00082B00446007880077BD043F63406C4F2D0
:10420000020656F8100C5FEAC0080BD456F8100CE2
:1042100040F0805046F8100C56F8100C00F080501A
:104220000190019847F20007C4F200073868C00502
:1042300012D4386840F480703860FEF71BFE0546E3
:104240003868C00508D4FEF715FE401B6428F7D96E
:10425000032002B0BDE8F08156F8341C606801F01C
:10426000C04100F0C04291420AD100F44032B2F5A0
:10427000403F0ED1A26802F0C042914205D108E051
:1042800000F44031B1F5403F03D156F8341C8903A6
:104290005AD4316811F440311DD000F440308142CD
:1042A0001CBF20785FEAC07007D1A06800F44030DE
:1042B000814210D0207880070DD5306840F2DC6252
:1042C000C4F24722012320F4403113600023C005CB
:1042D000136031603CD4206881070FD4C0071FD120
:1042E000B8F1000F05D456F8100C20F0805046F8B5
:1042F000100C002002B0BDE8F08100BFA26802F4FB
:104300004031B1F5403F06D156F8343C520F62F3CC
:104310005E7346F8343C326811433160C007DFD029
:10432000616801F44030B0F5403F06D156F8342CB6
:10433000490F61F35E7246F8342C316808433060EF
:10434000B8F1000FCFD5D4E7012002B0BDE8F0816D
:10435000FEF790FD054641F2883700BF30688005C2
:10436000B9D4FEF787FD401BB8424FF00300F5D9E2
:10437000C0E700002DE9F041002800F0A78043F6D7
:104380000807C4F202070446D7F8F8030D4600F008
:104390000100884215D2012D05D1D7F8F80340F06D
:1043A0000400C7F8F803D7F8F80320F00100284309
:1043B000C7F8F803D7F8F80300F00100A84240F06E
:1043C00085802068810705D53968A26821F0F00151
:1043D00011433960C00735D1D7F8F80300F0010068
:1043E000A84209D9D7F8F80320F00100C7F8F8036C
:1043F000D7F8F803C00769D12068410705D53968A7
:10440000E26821F4E06111433960000706D538689D
:10441000216920F4605040EAC10038603968C1F376
:104420008102501E022842F20040C0F2F40027D35D
:10443000C2B957F8040C4FF48031C0F3423001FA8E
:1044400000F01DE0606857F8081C012836D00328EA
:104450002ED0022838D189035CBF0120BDE8F0814D
:1044600038E000BF4CF60073C1F38342C0F600038E
:104470009A5CC1F3815101313B685043B0FBF1F0CC
:1044800039684CF6C062C1F30311C0F60002515CFA
:1044900040F2240220FA01F140F20000C2F20000D2
:1044A0000068C2F200021160BDE8F041FEF706BDEF
:1044B00089015CBF0120BDE8F0810BE089075CBF8A
:1044C0000120BDE8F08105E0890503D40120BDE8A5
:1044D000F08100BF396821F0030108433860FEF71E
:1044E000C9FC61680646032941F2883839D002299F
:1044F00029D0012910D100BF386800F00C00042831
:104500003FF46AAFFEF7B6FC801B40454FF0030056
:10451000F2D9BDE8F08100BF386810F00C0F3FF40D
:104520005BAFFEF7A7FC801B40454FF0030088BF40
:10453000BDE8F081F0E700BFFEF79CFC801B404522
:104540004FF00300E5D8386800F00C000828F3D1DC
:1045500042E700BFFEF78EFC801B40454FF0030092
:10456000D7D8386800F00C000C28F3D134E70000ED
:1045700040F2240043F60801C2F20000C4F2020136
:10458000006809684CF6D062C1F30221C0F600024F
:10459000515CC8407047000040F2240043F6080117
:1045A000C2F20000C4F20201006809684CF6D06251
:1045B000C1F3C221C0F60002515CC8407047000040
:1045C000002804BF012070472DE9F04383B043F673
:1045D00000060446C4F20206B068B768217800F00D
:1045E0000C09C90711D0B9F1080F07D0B9F10C0FA8
:1045F00040F0EA8017F4803000F0E68030688003F5
:1046000003D56068002800F09382207880072FD5BA
:10461000B9F1040F1ED0B9F10C0F08BF17F48030A8
:1046200018D0E068002840F20000C4F2472000F0F3
:10463000438101210160FEF71DFC054630688007BB
:104640000FD4FEF717FC401B02284FF00300F5D9EA
:104650006BE200BF3068800703D5E068012840F0B6
:1046600067827068216920F4F85040EA0120706088
:104670002078C00626D42078000741D4207840074F
:1046800058D4656ACDB1B9F10C0F40F0D180012D3D
:1046900000F04E82B068A16A00F480328A4240F095
:1046A0004782E16A00F470128A4240F04182216B35
:1046B00000F44000884240F03B82002003B0BDE897
:1046C000F08300BFB9F1000F6AD0A069002800F0A4
:1046D0009B800020C4F2472001210162FEF7CAFB43
:1046E000054600BF3068800500F1C480FEF7C2FBBC
:1046F000401B0228F6D9032003B0BDE8F08300BFB9
:104700006069002840F20000C4F247206AD001210D
:10471000C0F88016FEF7AEFB054600BF706B800741
:10472000ACD4FEF7A7FB401B0228F7D9032003B047
:10473000BDE8F083706A5FEAC00808D4706A40F090
:1047400080507062706A00F080500090009847F2CC
:104750000007C4F200073868C00513D4386840F475
:1047600080703860FEF786FB054600BF3868C005DC
:1047700008D4FEF77FFB401B64284FF00300F5D9F7
:10478000D3E100BFA168706B002900F0AF8005295C
:1047900000F0A480012940F0C18040F48070C3E0A3
:1047A0003068800503D5A069002800F0C181206A27
:1047B000716801F4604188426AD9B16811F0F00F64
:1047C00000F00281002159E161683068002900F0A1
:1047D000CF80052900F0C480012940F0DF8040F43B
:1047E0008030E1E00021C0F88016FEF743FB05466B
:1047F000706B80077FF542AFFEF73CFB401B022841
:104800004FF00300F4D990E10020C4F247200021CA
:104810000162FEF72FFB0546306880057FF52BAF60
:10482000FEF728FB401B02284FF00300F4D97CE17F
:104830000027C4F2472700203866FEF71BFB022D35
:1048400005460BD13068800140F1EA80FEF712FB8B
:10485000401B02284FF00300F4D966E13068800164
:104860007FF52BAFFEF706FB401B02284FF003003D
:10487000F4D95AE17068D4E9071220F4604010437B
:104880007060706820F07F4040EA01607060F2E67E
:10489000716821F46041014371607168E26921F03F
:1048A0007F4141EA02617160B16811F0F00F00F0E0
:1048B000A18000210EE100BF00210160FEF7DAFABD
:1048C000054600BF306880077FF5D2AEFEF7D2FA0A
:1048D000401B02284FF00300F4D926E140F4806029
:1048E0007063706B40F480701EE000BF20F4807035
:1048F0007063706B20F480607063FEF7BBFA05464E
:1049000041F28837706B800520D5FEF7B3FA401B63
:10491000B8424FF00300F5D907E100BF20F48070E2
:104920007063706B20F480607063FEF7A3FA054635
:1049300041F28837706B800508D4FEF79BFA401B64
:10494000B842F7D9032003B0BDE8F083B8F1000FF7
:104950003FF597AE706A20F08050706291E600BF1C
:1049600040F480203060306840F480301CE000BFAC
:1049700020F480303060306820F480203060FEF712
:1049800079FA0546306880037FF53FAEFEF772FA8C
:10499000401B64284FF00300F4D9C6E020F48030B7
:1049A0003060306820F480203060FEF763FA0546FE
:1049B000306880033FF529AEFEF75CFA401B64289F
:1049C0004FF00300F4D9B0E0716AC90047F200016A
:1049D000C4F2000140D4726A42F080527262726A7C
:1049E00002F080520192019A0A68716A21F08051A6
:1049F000716232E0716AC90047F20001C4F200013D
:104A000056D4726A42F080527262726A02F0805228
:104A10000292029A0A68716A21F08051716248E03C
:104A2000B06804F128030ECB20F47D000843104346
:104A30001843B06001203866FEF71CFA044600BF38
:104A4000306880013FF539AEFEF714FA001B0228EA
:104A50004FF00300F4D968E00A68B0F5404F4FF01A
:104A600000010BD102F4C052B2F5C05F06D1D6F8F6
:104A7000001441F00401C6F800140121D6F8002406
:104A800022F001020A44C6F80024D6F8002402F0FD
:104A900001028A424CD1716821F460410143716086
:104AA0007168E26921F07F4141EA026171601EE0B4
:104AB0000A68B0F5404F4FF000010BD102F4C0522C
:104AC000B2F5C05F06D1D6F8001441F00401C6F873
:104AD00000140121D6F8002422F001020A44C6F88D
:104AE0000024D6F8002402F001028A4220D1B168E5
:104AF0004CF6C062C1F30311C0F60002400B515CDA
:104B00004FF4803202FA00F020FA01F140F2000086
:104B1000C2F2000040F224020068C2F200021160FA
:104B2000FEF7CCF900283FF4A6AD03B0BDE8F08352
:104B3000012003B0BDE8F0834EF21000CEF2000079
:104B4000016841F00201016070470000411E002031
:104B5000B0EB116F1CBF012070474EF21002CEF275
:104B6000000251604EF62351CEF20001F0230B708B
:104B700007219060116070474EF21000CEF20000E5
:104B8000016821F0020101607047000090F83820B0
:104B9000012A4FF0020236D010B580F839200268A1
:104BA000D2F804E0D2F808C00C682EF0700323435A
:104BB00040F2FF74C4F20004A24253600ADCB2F176
:104BC000804F13D040F20043C4F200039A420DD04C
:104BD00011E000BF40F60003C4F201039A4205D081
:104BE00040F60003C4F200039A4204D149682CF055
:104BF0008003194391600121002280F8391080F868
:104C00003820BDE81040104670470000002804BF5F
:104C10000120704710B590F8391031B9002180F8A3
:104C20003810044600F086F82046022180F839103A
:104C3000016840F2FF730A68C4F20003994227DD5D
:104C400040F60003C4F2000399422AD040F6000364
:104C5000C4F20103994224D040F60043C4F2000399
:104C600099421ED040F6FF33C4F20003994222DD80
:104C700040F6FF33C4F2010399422DDC40F60043B5
:104C8000C4F20003994233D040F600032CE000BF89
:104C9000B1F1804F05D040F20043C4F200039942C5
:104CA000E0D1836822F070021A4340F6FF33C4F269
:104CB00000039942DCDCB1F1804F19D040F200438F
:104CC000C4F20003994213D040F60003C4F200037B
:104CD00099420DD010E000BF41F20003C4F201037D
:104CE000994205D040F60043C4F20103994203D132
:104CF000036922F440721A434368C46822F0800CAE
:104D00004269CC628B620B6842EA0C0243F00403F6
:104D10000B6001234B610A6080F83E3080F83A3026
:104D200080F83B3080F83C3080F83D3080F83930F6
:104D3000002010BD006840F60041C4F20001884226
:104D400018BF704781B043F62400C4F20200016826
:104D500041F008010160006800F008000090009830
:104D600001B0704790F8391001291CBF012070472D
:104D7000022180F83910006840F2FF72C168C4F265
:104D80000002904241F00101C16009DCB0F1804FA6
:104D900012D040F20041C4F2000188420CD012E06F
:104DA00040F60001C4F20101884205D040F600013E
:104DB000C4F20001884206D1816801F0070106298A
:104DC00004BF00207047016841F00101016000202C
:104DD0007047000090F83820012A4FF002026CD092
:104DE00080B580F83920D0F800C04FF67772DCF833
:104DF000083023EA0202CCF808200B684F2B29DC8C
:104E00001F2B45DD202B46D0302B44D0402B40F0CB
:104E1000AF80D1F804E0C968DCF82030DCF820204D
:104E200022F00102CCF82020DCF8182022F0F00259
:104E300042EA011123F00A0242EA0E02CCF81810ED
:104E4000CCF82020DCF8081041F0470121F03001B7
:104E500028E000BF6F2B33DDB3F5005F74D0B3F5EE
:104E6000805F21D0702B40F08380D1E901E3C968D5
:104E7000DCF8082043EA0E0322F47F4243EA0121D2
:104E80001143CCF80810DCF8081041F0770109E074
:104E90000BB1102B6CD1DCF8081021F07001194314
:104EA00041F00701CCF808100022012180F83910E8
:104EB000002180F83810BDE880401046704700BFE0
:104EC000502B21D0602B53D1D1F804E0C968DCF815
:104ED0002030DCF8202022F01002CCF82020DCF872
:104EE000182022F4704242EA013123F0A00242EA83
:104EF0000E12CCF81810CCF82020DCF8081041F085
:104F0000670121F01001CDE7D1F804E0C968DCF8B1
:104F10002030DCF8202022F00102CCF82020DCF840
:104F2000182022F0F00242EA011123F00A0242EABC
:104F30000E02CCF81810CCF82020DCF8081041F054
:104F4000570121F02001ADE7D1E901E3C968DCF8A0
:104F5000082043EA0E0322F47F4243EA0121114371
:104F6000CCF80810DCF8081041F480419AE700BF43
:104F700001229AE790F83830012B04BF02207047D5
:104F80004FEAB202032A00F29580F0B5DFE802F0A2
:104F900002601E420368D3F820C01A6A22F00102A0
:104FA0001A621A46D3F804E052F8184F91E8E0006C
:104FB00024F07304C9682C432CF002052F43C3F876
:104FC00004E01460D6611F621CE000BF0368D3F8E0
:104FD00020C01A6A22F480721A621A46D3F804E0DA
:104FE00052F81C5FD1E9004725F07305D1E9026151
:104FF0002C432CF4007545EA0626C3F804E014603F
:1050000017621E62136843F008031360136823F0ED
:10501000040342E00368D3F820C01A6A22F48052E5
:105020001A621A46D3F804E052F81C5FD1E900472F
:1050300025F4E645D1E9026145EA04242CF4005543
:1050400045EA0636C3F804E0146057621CE000BF6E
:105050000368D3F820C01A6A22F010021A621A46B6
:10506000D3F804E052F8185FD1E9004725F4E6458B
:10507000D1E9026145EA04242CF0200545EA061630
:10508000C3F804E0146017621E621368090243F457
:1050900000631360136823F480631360136819437B
:1050A00011600021BDE8F040002280F83820084659
:1050B000704700BF0121002280F838200846704761
:1050C000002804BF0120704710B590F8391031B99D
:1050D000002180F83810044600F086F820460221AE
:1050E00080F83910016840F2FF730A68C4F20003C7
:1050F000994227DD40F60003C4F2000399422AD00A
:1051000040F60003C4F20103994224D040F6004364
:10511000C4F2000399421ED040F6FF33C4F20003EC
:10512000994222DD40F6FF33C4F2010399422DDC9F
:1051300040F60043C4F20003994233D040F6000326
:105140002CE000BFB1F1804F05D040F20043C4F223
:1051500000039942E0D1836822F070021A4340F6BE
:10516000FF33C4F200039942DCDCB1F1804F19D067
:1051700040F20043C4F20003994213D040F600030A
:10518000C4F2000399420DD010E000BF41F20003C9
:10519000C4F20103994205D040F60043C4F2010372
:1051A000994203D1036922F440721A434368C468E8
:1051B00022F0800C4269CC628B620B6842EA0C02DE
:1051C00043F004030B6001234B610A6080F83E301A
:1051D00080F83A3080F83B3080F83C3080F83D3041
:1051E00080F83930002010BD70470000C1B104299B
:1051F00008D0082914BF3D223C22825C012A05D038
:1052000016E000BF3B22825C012A11D1022208294C
:1052100010D0042914BF80F83D2080F83B200BE01B
:1052200090F83A20012A03D1022280F83A2003E0C4
:105230000120704780F83C20006801F01F01012226
:10524000036A02FA01F123EA01020262026A1143CF
:1052500040F2FF72C4F20002904201620ADCB0F137
:10526000804F13D040F20041C4F2000188420DD0BB
:1052700013E000BF40F60001C4F20101884205D0EE
:1052800040F60001C4F20001884206D1816801F0B5
:105290000701062904BF00207047016841F00101A1
:1052A000016000207047000010B5026801F01F0E79
:1052B0004FF0010C146A0CFA0EF324EA0303136294
:1052C000136A41F211141362136A23420ED00829A3
:1052D00012D0042916D000294FF0010114BF80F824
:1052E0003D1080F83A10002010BD00BF136823F075
:1052F000010313600829ECD1012180F83C10002043
:1053000010BD00BF012180F83B10002010BD00003F
:10531000B0B5044690F8380001284FF0020008BFED
:10532000B0BD012584F8385084F83900204602F0D9
:1053300079FD00284FF0010006D0002184F8395093
:1053400084F83810B0BD00BF2068C16821F040016A
:10535000C160C16821F48041C1600020002184F84F
:10536000395084F83810B0BD7047000010B50446BD
:105370000068416994F84120212A56D111F080013A
:1053800053D000BF206850E8050F216820F080004E
:1053900041E80502DAB1206850E8050F216820F0E5
:1053A000800041E8050292B1206850E8050F2168AD
:1053B00020F0800041E805024AB1206850E8050F5E
:1053C000216820F0800041E80502002ADAD1A06BB4
:1053D000002818BFFDF7DAF9206850E8030F2168AC
:1053E00020F0C00041E80302DAB1206850E8030F62
:1053F000216820F0C00041E8030292B1206850E823
:10540000030F216820F0C00041E803024AB1206880
:1054100050E8030F216820F0C00041E80302002A91
:10542000DAD1202084F841002068406994F84210C5
:10543000222940F0A78010F0400000F0A38000BFB8
:10544000206850E8050F216820F0400041E805027F
:10545000DAB1206850E8050F216820F0400041E8EB
:10546000050292B1206850E8050F216820F0400045
:1054700041E805024AB1206850E8050F216820F094
:10548000400041E80502002ADAD1E06B002818BF8D
:10549000FDF77CF9206850E8030F216820F4907034
:1054A00041E80302BAB3206850E8030F216820F4F2
:1054B000907041E8030272B3206850E8030F21683E
:1054C00020F4907041E803022AB3206850E8030FEB
:1054D000216820F4907041E80302002ADAD11AE032
:1054E000206850E8050F216820F0010041E805021E
:1054F000DAB1206850E8050F216820F0010041E88A
:10550000050292B1206850E8050F216820F00100E3
:1055100041E805024AB1206850E8050F216820F0F3
:10552000010041E80502002ADAD1206B012824D1CC
:10553000206850E8030F216820F0100041E80302C2
:10554000DAB1206850E8030F216820F0100041E82C
:10555000030292B1206850E8030F216820F0100088
:1055600041E803024AB1206850E8030F216820F0A7
:10557000100041E80302002ADAD1202084F842001A
:1055800000202063002010BD70470000B0B582B03D
:1055900001680A68CC684B6902F02F05202D04F0E1
:1055A000200505D125B102B0BDE8B04002F052BFE0
:1055B0005FEA027C1EBF03F0010E04F4907313EB4C
:1055C0000E0341D1036BD50618D5012B16D114F06B
:1055D000100313D0002201920A6801924A680192D6
:1055E000019A496949064BD4818DC28DC38D002B28
:1055F00018BF914240F0048202B0B0BD13062DD511
:1056000014F080032AD090F84120212AF4D1826836
:10561000B2F5805F03D10269002A00F07782026A46
:10562000531C036212784A60C28C013A1304C2848C
:10563000E2D1C86820F08000C860C86840F040002F
:10564000C86002B0B0BD00BFD30718BF14F48073A8
:1056500040F0E080530700F1E380E8E05206CBD54C
:1056600014F04002C8D0CA6822F04002CA6020216B
:1056700080F8411002B0BDE8B04000F01DBC00BF92
:10568000C26B11684B68858D99B2002900F0B48017
:10569000A94280F0B180C3859169202900F0A180E2
:1056A000016851E8031F026821F4807142E8031386
:1056B000DBB1016851E8031F026821F4807142E800
:1056C000031393B1016851E8031F026821F480714C
:1056D00042E803134BB1016851E8031F026821F44B
:1056E000807142E80313002BDAD1016851E8051FED
:1056F000026821F0010142E80513C3B3016851E8D3
:10570000051F026821F0010142E805137BB301681F
:1057100051E8051F026821F0010142E8051333B387
:10572000016851E8051F026821F0010142E80513F4
:10573000002BDAD11BE000BF016851E8051F0268A9
:1057400021F0400142E80513DBB1016851E8051F73
:10575000026821F0400142E8051393B1016851E865
:10576000051F026821F0400142E805134BB10168B2
:1057700051E8051F026821F0400142E80513002BA3
:10578000DAD1202180F8421000210163016851E83C
:10579000031F026821F0100142E80313DBB1016826
:1057A00051E8031F026821F0100142E8031393B18E
:1057B000016851E8031F026821F0100142E8031359
:1057C0004BB1016851E8031F026821F0100142E863
:1057D0000313002BDAD1C16B04460846FCF7D6FF51
:1057E000204602214163818DC28D891A89B202B09F
:1057F000BDE8B040FFF7B8BD8D427FF4FDAE9269C1
:10580000202A7FF4F9AE0222426302B0BDE8B04024
:10581000FFF7AABD436C43F001034364530706D569
:10582000BEF1000F03D0436C43F0020343649307BF
:1058300006D5BEF1000F03D0436C43F0040343646C
:10584000BCF1000F06D55EEA050303D0436C43F0BC
:1058500008034364436C002B3FF4CEAE920605D59B
:1058600025B1044602F0F6FD216820464969426CE4
:1058700001F0400102F00802891800F0B98000BF71
:10588000016851E8031F026821F4907142E8031394
:10589000BBB3016851E8031F026821F4907142E82C
:1058A000031373B3016851E8031F026821F4907178
:1058B00042E803132BB3016851E8031F026821F487
:1058C000907142E80313002BDAD11AE0016851E825
:1058D000051F026821F0010142E80513DBB10168F0
:1058E00051E8051F026821F0010142E8051393B158
:1058F000016851E8051F026821F0010142E8051323
:105900004BB1016851E8051F026821F0010142E82E
:105910000513002BDAD1016B012924D1016851E86C
:10592000031F026821F0100142E80313DBB1016894
:1059300051E8031F026821F0100142E8031393B1FC
:10594000016851E8031F026821F0100142E80313C7
:105950004BB1016851E8031F026821F0100142E8D1
:105960000313002BDAD1202180F8421000210163BB
:1059700001684969490640F1C380016851E8051F83
:10598000026821F0400142E80513DBB1016851E8EB
:10599000051F026821F0400142E8051393B1016838
:1059A00051E8051F026821F0400142E805134BB1A0
:1059B000016851E8051F026821F0400142E8051323
:1059C000002BDAD1C16B002900F09A8048F29D02C9
:1059D000C0F60002044608464A63FCF7FDFE0028B4
:1059E0003FF40AAEE06B416B02B0BDE8B04008473F
:1059F0000446FFF7C9FD0020606402B0B0BD00BFDF
:105A0000891A00BF026852E8032F036822F49072DB
:105A100043E80325BDB3026852E8032F036822F46C
:105A2000907243E8032575B3026852E8032F0368B8
:105A300022F4907243E803252DB3026852E8032F45
:105A4000036822F4907243E80325002DDAD11AE0AE
:105A5000026852E8052F036822F0010243E8052599
:105A6000DDB1026852E8052F036822F0010243E825
:105A7000052595B1026852E8052F036822F001025E
:105A800043E805254DB1026852E8052F036822F06E
:105A9000010243E80525002DDAD1202280F84220BA
:105AA00000220263026852E8032F036822F010020A
:105AB00043E80325DDB1026852E8032F036822F0B2
:105AC000100243E8032595B1026852E8032F0368EA
:105AD00022F0100243E803254DB1026852E8032F7B
