:020000040800F2
:10000000200B002061020008C54B0008313C0008AD
:10001000FD49000815140008415A000800000000BE
:10002000000000000000000000000000C54D0008B6
:100030001914000800000000A14C0008C94D000878
:100040007B0200087B0200087B0200087B0200089C
:100050007B0200087B0200087B0200087B0200088C
:100060007B0200087B0200087B0200087B0200087C
:100070007B0200087B0200087B0200087B0200086C
:100080007B0200087B0200087B0200087B0200085C
:100090007B0200087B0200087B0200087B0200084C
:1000A0007B020008D14D00087B0200087B0200089B
:1000B0007B0200087B0200087B0200087B0200082C
:1000C0007B0200087B0200087B0200087B0200081C
:1000D0007B0200087B0200087B0200087B0200080C
:1000E0007B0200087B0200087B02000800F002F897
:1000F00000F0A6F814A696E8000CB244B344DA4522
:1001000001D100F09DF8BAE80F000FA696E8300084
:10011000A5EB040504EB0607AAEB0704A7F101070A
:100120004FEA15154FEA3414A4F10104AC4201D38F
:1001300000F086F813F0010F18BFFB1A43F001031B
:1001400000F001F8DBE7184714810000348100005B
:10015000103A24BF78C878C1FAD8520724BF30C8F3
:1001600030C144BF04680C60704700007047000055
:100170000023002400250026103A28BF78C1FBD8B0
:10018000520728BF30C148BF0B6070476E2900F08E
:100190004F81702900F09382662907F0F481652968
:1001A00007F0F181672907F0EE81612907F0ED8101
:1001B00003681B0A28BF41F08001692900F0FC8018
:1001C000642900F0F980752900F0F6806F2900F0AD
:1001D0002182782900F05F82E92900F0BB81E429BF
:1001E00000F0B881F52900F0B581EF2900F01E82FA
:1001F000F82900F05E820368DB0928BF41F0800126
:10020000632900F08787732900F08C87E32900F0C9
:100210009787F32900F09C87002070471FB500F0F6
:10022000EDFF04000020002106F028FC401C606067
:100230000020002106F00CFCE0601FBD10B510BDD1
:1002400000F0AEFF1146FFF7E9FF05F065FE01F093
:100250008BF803B4FFF7F2FF03BC01F0D3F8000002
:100260000948804709480047FEE7FEE7FEE7FEE74A
:10027000FEE7FEE7FEE7FEE7FEE7FEE70448054986
:10028000054A064B70470000CD4D0008ED00000800
:1002900020050020200B0020200700202007002040
:1002A0007CB51D4616460C00009007D04142A14285
:1002B00002D32044401E01E04FF0FF30064B7B4448
:1002C0002A4669460190304600F0CBF8002C02D057
:1002D000009A002111707CBDC701000002F0FF03ED
:1002E00043EA032242EA024200F0BABA704770477A
:1002F000704770B5044685690068C10601D530268F
:1003000000E02026C00707D070BDD4E901213046A7
:100310009047206A401C20626D1EF6D570BD70B5F6
:10032000044685690078C00707D170BDD4E9012172
:1003300020209047206A401C20626D1EF6D570BDBB
:1003400009684A0501D540B27047C905FCD500B21D
:10035000704709684A0501D5C0B27047C905FCD588
:1003600080B2704770B50C460546012A05D0287842
:10037000800600D5EA69002302E0012305E05B1C4A
:10038000934202D2E05C0028F9D1A869E618C01AAD
:10039000A861286A184428622846FFF7AAFF04E0EB
:1003A000D5E9012114F8010B9047B442F8D328464F
:1003B000FFF7B5FF70BD00002DE9F04106460024AF
:1003C00010687529314616A510D0FFF7B9FF00282F
:1003D00002DA404213A507E031688A0701D512A569
:1003E00002E0490704D511A5012401E0FFF7B1FFA0
:1003F00000210A2206F1240709E0B0FBF2FCB0FB61
:10040000F2F302FB1C00303078541846491C0028D7
:10041000F3D123462A463046BDE8F04100F08ABABF
:10042000000000002D0000002B0000002000000054
:1004300011680268006A530501D508700AE0D30507
:1004400001D5088006E0130603D5C217C1E90002F2
:1004500000E008600120704701694A1C02610878C9
:10046000704700B58FB0CDE90131002105910549F4
:100470007944CDE903101146684600F02BF90FB01E
:1004800000BD0000E5FFFFFFD1E900239A4202D240
:10049000531C0B60107070472DE9FF5F15468A46AC
:1004A0000446DFF8AC80F8440027D8E900103E4647
:1004B000CDE9001010E03AF816106A4602A800F0E4
:1004C0004BFE411C07D02178890603D5E269391813
:1004D00091420DD80744761C2078800602D5E06949
:1004E000B84205DDAE42E6DB3AF816000028E2D15C
:1004F000A069C01BA0612046FFF7FBFED8E90010F1
:10050000CDE90010002017E03AF818106A4602A85A
:1005100000F022FEB0F1FF3F81460BD000250DF127
:10052000080B05E0D4E901211BF8050090476D1C7C
:100530004D45F7D308F10100B0428046E4DB206A64
:10054000384420622046FFF7EAFEBDE8FF9F000026
:10055000E67000002DE9F0418046D21D22F007022E
:100560000025D2E90002F52915A614D0011E72F16A
:10057000000106DA0023D0EB030063EB020211A6B0
:1005800008E0D8F800108B0701D50FA602E0490754
:1005900001D50EA601251146002408F1240704E028
:1005A00000F083F930323A55641C50EA0102F7D169
:1005B0002B46324621464046BDE8F04100F0BAB92C
:1005C000000000002D0000002B00000020000000B3
:1005D00030B4002100F1240408E002F00705D2083D
:1005E000303542EA4372DB086554491C52EA030580
:1005F000F3D10468002310A2250708D504F02004D5
:100600000C4304D0C46901230CA2641EC46130BC35
:1006100000F090B910B5044621461068FFF799FE26
:1006200002462046BDE810400023D1E7D21D22F04B
:100630000701D1E90023CBE70000000030000000F3
:10064000F0B40D460188090502D5214C7C4402E036
:100650001F4C7C440E34002100F1240608E002F017
:100660000F071209E75D42EA03721B097754491C20
:1006700052EA0307F3D102780023120704D5702D44
:1006800006D009B1022311342246F0BC00F052B961
:1006900001231034F8E770B504460D462146106872
:1006A000FFF757FE024629462046BDE8704000236A
:1006B000C6E7D21D22F00703D3E90023C0E7036891
:1006C000126843F0200303600823C3610023B7E7E7
:1006D000486F00002DE9F05F894604464FF0000A9C
:1006E000DFF874B1FB44C0F820A02046E1688847D9
:1006F000002874D0252806D0D4E901219047206A2B
:10070000401C2062F1E700265F462046E1688847EA
:100710002028054607DB312D05D2781910F8200C6A
:1007200008B10643F1E7B00701D526F00406C4F886
:100730001CA00027C4F818A02A2D09D0284606F0CE
:100740007FF938B304EB8708303DC8F8185019E03A
:1007500059F8041B204604EB87029161E168884741
:10076000012F054618D1E069002820DA26F020067E
:100770001DE0D8F8180000EB800005EB4000303891
:10078000C8F818002046E1688847054606F058F981
:100790000028EED1012F0AD02E2D08D12046E16885
:1007A00088477F1C0546022F46F02006C4DBA0695F
:1007B000002803DA404246F00106A061F00701D0AC
:1007C00026F010066C2D0BD0682D09D04C2D39D099
:1007D0006A2D35D0742D35D07A2D33D016E038E01F
:1007E000E1682F4620468847B842054609D16C2F5C
:1007F00026D04FF48060E1680643204688470546CE
:1008000004E06C2F1AD04FF4807006430DB3A5F1AD
:100810004100192802D8203546F400664A46294688
:10082000204626604E46FFF7B1FC80B101280BD070
:10083000F61D26F0070000F1080956E74020E4E71E
:100840008020D8E70020D6E706F104094DE72846C6
:1008500052E7206ABDE8F09FD86E00004FF000021A
:1008600000B5134694469646203922BFA0E80C50A6
:10087000A0E80C50B1F12001BFF4F7AF090728BF81
:10088000A0E80C5048BF0CC05DF804EB890028BFFD
:1008900040F8042B08BF704748BF20F8022B11F026
:1008A000804F18BF00F8012B704730B5B0F10A0235
:1008B00071F100034FEA900E4EEA817EB0EB0E001C
:1008C00061EB91014FEA101E4EEA017E10EB0E0023
:1008D00041EB11114FEA102E4EEA016E10EB0E00A3
:1008E00041EB11214FEA104E4EEA014E10EB0E0083
:1008F00041EB1141401841F100014FEAD00040EABC
:1009000041704FEAD1014FEA810444EA907410EB40
:10091000800544EB01046D1944EB0404521BA34110
:100920004FF0000348BF0A3200D530BD401C41F1F2
:10093000000130BD2DE9F0470D4699469246044628
:1009400000F124080168880604D5E06921F010014F
:10095000216000E00120A84201DD471B00E00027E4
:10096000A1697A1902EB0900081AA0612078C00673
:1009700002D42046FFF7BDFC002608E0D4E901219F
:100980001AF806009047206A401C761C20624E45EB
:10099000F4DB2078C0060AD52046FFF7AAFC06E063
:1009A000D4E9012130209047206A401C2062381E83
:1009B000A7F10107F4DC07E0D4E9012118F80500EC
:1009C0009047206A401C2062281EA5F10105F3DC37
:1009D0002046FFF7A4FC2078000602D50220BDE8DF
:1009E000F0870120FBE72DE9FF4F0C461E464FF034
:1009F000FF378BB0D2E90001DDF860800A908A46AB
:100A0000C1F30A5505B93D46002108464FF00000E4
:100A1000BAF1000F00F4400005DA00EB80004FF45B
:100A2000400101EA50004FEA9059B9F1010F00DD91
:100A3000B9460A9850EA4A000ED044F61050A5F282
:100A4000FF3545432F14B8F1000F1ED07542291E03
:100A50001EDDC9F100021CE0B8F1010F4FF00000EB
:100A600001D0302103E0F24305E02154401CB042A4
:100A7000FBDB30460022002121540B99C1F808808D
:100A8000C1E900200FB0BDE8F08FBD1B6D1CDEE793
:100A90004A4600DA694206A800F0F4FB06AB93E888
:100AA000070003AB83E8070050460A9905F0EBFB0B
:100AB0008DE80700A0F500501F3800900398002D26
:100AC0000ADD42F21F014A460844002303A90390AD
:100AD000684605F055FE09E0A0F500504A461F386B
:100AE000002303A90390684605F05FFE8DE8070028
:100AF0000004000C03D04FF0FF30410800E0104626
:100B0000B8F1000F03D00022009215461EE0751EBA
:100B100005D4FFF7CAFE303262556D1EF9D5B346D3
:100B20000122084302D000227F1C04E020783028F4
:100B300001D100227F1E002A099784D01DE0112DCB
:100B400007DAFFF7B2FE303262556D1C50EA01023F
:100B5000F5D1084302D00098C8B10EE00021681E0C
:100B600005E0235C625C63542254401E491C8142B0
:100B7000F7DBAB46A81B401E0990002004F80B00D1
:100B80000B98099AC0F80880C0E9002B7AE7112673
:100B90004FF0000857E72DE9F04F88460446D21D74
:100BA00022F0070191B0D1E90001CDE90A0105F079
:100BB00033FF02460B98C00F01D02D2007E02068BC
:100BC000810701D52B2002E0202101EAC000032A81
:100BD000099001D0072A05DB03464146204600F074
:100BE00011FB0BE12078800601D5E06900E00620CA
:100BF000B8F1650F814606D0B8F1660F18D0B8F18C
:100C0000670F70D131E00020B9F1110F009001DBC6
:100C1000112301E009F101030AAA01A90CA8FFF7B9
:100C2000E2FEDDE90C70002609F10105834647E08C
:100C300001204B4600904FF000470AAA01A90CA8DA
:100C4000FFF7D1FEDDE90DB00C995D46002610B925
:100C500009F101000D18B9EB050003D4C0F1FF360E
:100C600009F10105A5EB09002BE0B9F1010F01DA4B
:100C70004FF001090020B9F1110F0090484601DD45
:100C8000112300E003460AAA01A90CA8FFF7ABFE56
:100C9000DDE90C704D4600268346207800070AD413
:100CA000AB4500DA5D4601A8012D04DD411911F8BC
:100CB000011C302907D04F4502DA17F1040F04DA7E
:100CC000012082460FE06D1EEEE7002F02DCED1BD7
:100CD0003E4403E0781CA84200DD7D1CB81B00F1F7
:100CE000010A4FF000472078000703D4AA4501DB32
:100CF0004FF0FF3A0021B7F1004F0DF143088DF896
:100D0000431024D002202B23002F01DA7F422D2311
:100D10000A21021EA0F1010000DC5FB197FBF1FC8B
:100D200097FBF1F201FB1C7C17460CF1300C08F824
:100D300001CDEEE7A8F1010003702188090501D576
:100D4000452100E06521A0F1010800F8011C099887
:100D50000FA9A1EB0807FF1D00B10120411901EB0C
:100D6000EA70A1693844081A401EA0612078C006C4
:100D700002D42046FFF7BDFA099828B1D4E9012131
:100D80009047206A401C20622078C00622D5204669
:100D9000FFF7AFFA1EE0002E04DBB34502DD01A829
:100DA000805D00E03020D4E901219047206A401C9A
:100DB0002062761CAAF101005FEA000A0AD100F065
:100DC0001DFAC0680168405CD4E901219047206A9F
:100DD000401C2062281EA5F10105DCDC07E0D4E9F7
:100DE000012118F8010B9047206A401C2062381E30
:100DF000A7F10107F3DC2046FFF791FA032011B0B9
:100E000041E600002DE9F04F04460D46D21D22F0C8
:100E1000070089B0D0E900974846394605F0FCFD47
:100E20000246F80F01D02D2307E02068810701D585
:100E30002B2302E0202101EAC0038DF820300BB102
:100E4000012000E00020032A824601D0072A04DBAB
:100E50002946204600F0D6F93FE12078800601D4EB
:100E60000D2500E0E569C7F30A560D2D49DA00218A
:100E70004FEA175B08464FF00000002F00F44000D7
:100E800007DA00EB80004FF4400100EBD07001EA7C
:100E900060008115012901DD4FF0FF3100224FEA8A
:100EA000850CBCF1180F06D31346ACF118004FF0B7
:100EB0008052C24003E04FF4801323FA0CF30CF18C
:100EC0000C0CBCF1200F04D3ACF1200C09FA0CF08F
:100ED00001E007FA0CF000294FF0004801DD18B9D5
:100EE0000FE00ED140450CD319EB02095F4121B947
:100EF000404502D19F4329EA0209BBEB175F00D0AE
:100F0000761C2088000502D57B48784402E07A48A8
:100F10007844193808AA302302F80A30037C0AF111
:100F20000101002E0AF1020A53546A4602DC4FF016
:100F3000300101E04FF031014FF001088DF8001051
:100F400002D0A6F2FF3603E059EA470100D06B4E0B
:100F5000002D02DC2178090704D54FF002082E216C
:100F60008DF80110C44600210BE0C7F303433F0195
:100F7000C35C491C6D1E02F80830052908F1010800
:100F800001DA002DF1DC00210CE000EB1973491CA3
:100F90001B786D1E082902F808304FEA091908F17C
:100FA000010801DA002DF0DC21688B0602D516E07D
:100FB000A8F10108E04505DD02EB080313F8013C48
:100FC000302BF5D0B8F1000F09DD02EB080313F860
:100FD000013C2E2B03D1090701D4A8F10108002DF3
:100FE00005DD3E2102F808106D1E08F10108407C65
:100FF000002E02F8080008F1010804DA2D207642DC
:1010000002F8080002E02B2002F808000A214FF441
:101010007A70864208F101080BDB96FBF0F330335F
:1010200002F8083096FBF0F308F1010800FB1366A4
:1010300001E0642E0CDB642096FBF0F3303302F801
:10104000083096FBF0F308F1010800FB136601E09D
:101050000A2E06DB96FBF1F0303002F8080008F1AA
:10106000010896FBF1F001FB1060303002F8080037
:10107000A16908F1010808EB050202EB0A00081A51
:10108000A0612078C00602D42046FFF732F9216A19
:1010900008AE01EB0A00206204E0D4E9012116F851
:1010A000010B9047BAF1010AF7D22078C00602D5A9
:1010B0002046FFF71EF96E4609E016F8010B3E28A0
:1010C0000FD0D4E901219047206A401C2062B8F17A
:1010D0000108F2D22046FFF722F909B00320BDE84B
:1010E000F08F206A2844206203E0D4E901213020F7
:1010F00090476D1EEBD3F8E7D666000002FCFFFFB9
:1011000010B5436913B1AFF3008001E0FFF72AF98E
:10111000012010BD127800F124010A7000224A70EB
:101120000122EDE711684FF0FF32E9E710B543699E
:1011300013B1AFF3008001E0FFF7AEF9012010BD5D
:10114000128800F1240182840022C2840122EDE78A
:1011500011684FF0FF32E9E72DE9F04116460C46E1
:10116000054600F043F8036893F80101012807D011
:10117000FF2C12D8185D80B101202C70BDE8F081E1
:10118000D3F807013246214603F20713C718284651
:10119000BC46BDE8F041002360474FF0FF30EDE76B
:1011A000754600F0EBF8AE4605006946534620F060
:1011B0000700854618B020B5FFF760F8BDE820406D
:1011C0004FF000064FF000074FF000084FF0000B03
:1011D000AC46ACE8C009ACE8C009ACE8C009ACE872
:1011E000C00921F007018D467047000010B500F0DE
:1011F00005F8001D10BD00BF85580000004870476D
:10120000300000202DE9F0411F4604460326016806
:10121000072A01F4006004DB08B116A505E016A555
:1012200003E008B115A500E015A521F0100020602D
:10123000A069C01EA0610FB1401EA0612046FFF74B
:1012400058F84FB1D4E9012138469047206A401C34
:101250002062C01C206206E0206AFAE7D4E901217E
:1012600015F8010B9047761EF8D22046FFF757F885
:10127000BDE8F0814E414E006E616E00494E460061
:10128000696E66002DE9F047814616468AB03548FA
:1012900078440DC88DE80D0032487844801C03ACBA
:1012A0000DC884E80D0041F69B300844372190FBBF
:1012B000F1F290FBF1F5A5F1800501FB12041B3C56
:1012C00002D56442012000E00020DFF898A08046AB
:1012D0000027FA44AAF1BE0A0EE0E0070AD032461F
:1012E000684607EB470101230AEB810105F05DFA2F
:1012F0008DE8070064107F1C002CEED1194F7F444D
:10130000AE3F19E0E80715D007EB04100DF1180AFD
:1013100090E80E008AE80E00C068F04201D19819EA
:1013200008903246012306A903A805F03EFA03AB54
:1013300083E807006D10641C002DE3D14FF001031A
:1013400032466946B8F1000F03A802D005F018FA3A
:1013500001E005F02AFAC9E90001C9F808200AB03D
:10136000BDE8F087E063000010B50446AFF30080ED
:101370002046BDE81040FEF76CBF000000487047F3
:10138000100000204FF0013C50F8042B51F8043BB2
:101390009A4221D1A2EB0C03934313EACC1317D149
:1013A00050F8042B51F8043B9A4215D1A2EB0C03E0
:1013B000934313EACC130BD150F8042B51F8043BA0
:1013C0009A4209D1A2EB0C03934313EACC13DBD06E
:1013D0004FF00000704700BFD01A01BAB1FA81F196
:1013E00001F0180122FA01F0CB40DBB2C0B2C01A02
:1013F000C1F120012CFA01F3D11A914311EAC31172
:10140000E6D1704701491820ABBEFEE72600020076
:1014100070470000FEE70000704700002DE9F04330
:1014200081B040F2F810C2F20000006840F290076C
:10143000C2F20007466A786845F629420130CCF2CC
:101440008F22398842434AF615634FEAF202C0F20E
:1014500047139A42A6EB0105786001D32CB21AE03B
:1014600040F60004C4F2010420464FF400411FFA84
:1014700086F800F04BFB814604F58060082100F0FF
:1014800045FB2CB2844608A0414622464B46CDF887
:1014900000C004F0DBFEB8683E80011928B2B960D4
:1014A00001B0BDE8F08300BF5B4442472D37455D86
:1014B0002054494D3220636E743D25752064656C5F
:1014C00074613D2564207C20504131353D256420E8
:1014D0005042333D25640D0A0000000040F24020D8
:1014E000C2F20000006840F29001C2F20001406ABE
:1014F0004A88CB68821A488010B21A18CA607047AE
:101500002DE9F04782B040F2F818C2F200084046D8
:101510003C2101F011FF40F24029C2F200090646C9
:1015200048463C2101F008FF024647F24870C0F6E9
:101530000000314604F08AFED8F8000040F2900A1C
:10154000406AC2F2000AD9F80010AAF80000486AFE
:1015500040F60006C4F20106AAF8020030464FF435
:10156000004100F0D3FA074606F58060082100F03C
:10157000CDFA04463046402100F0C8FA0546304610
:10158000802100F0C3FA064647F2F760C0F600007B
:10159000394622462B46009604F058FEBAF8001051
:1015A000BAF802200BA004F051FE4FF4FA7000F0DC
:1015B00091F9D8F80000406AD9F800104A6A81B25F
:1015C00047F28D7092B2C0F6000002B0BDE8F0475D
:1015D00004F03CBE5B4442472D48485D20456E63A5
:1015E0006F6465725F496E69743A2054494D325F89
:1015F000434E543D25752054494D335F434E543D71
:1016000025750D0A0000000040F29000C2F20000B3
:101610000021C0E902117047EFF3108072B600BFDD
:10162000FEE700002DE9F04F89B040F2A009C2F2B8
:101630000009B9F80200002800F04981800081B259
:1016400040F21C4AFF29C2F2000A06D80AEB010048
:10165000C1F58071FF22FEF741FE40F20C08C2F294
:101660000008D8F8004040F6FF7024EA000B20463E
:1016700051464FF4807204F0C7FB0020089008A97F
:101680002046042204F0CEFA9DF820309DF8211067
:101690009AF800205C4515D1934229D19AF801703F
:1016A0009AF802009DF822E0B94245D1864542D120
:1016B0009DF823C09AF8030084453BD10022012005
:1016C000BFE000BF93421BD19AF801009AF8027064
:1016D0009DF822C0814219D1BC4529D19DF8230033
:1016E0009AF80370B842674608460FD1DDE000BFA4
:1016F0009DF822E09AF801709AF802001CE000BF01
:101700009DF822C09AF801009AF802709DF82350C3
:101710009AF80360CDE9040747F65660CDE9001C4E
:10172000CDE90252C0F60000214601220696B0E043
:101730000846EBE770460F469DF823609AF8035081
:10174000CDE9047047F65660CDE9001ECDE902628E
:10175000C0F6000021460122069504F077FD5846A8
:1017600004F070F9204651464FF4807204F04CFBAF
:101770000020089008A92046042204F053FA9DF89E
:1017800020309AF800209DF82110934212D19AF847
:1017900001509AF802009DF822E0A94214D1864532
:1017A00011D19DF823C09AF8030084450AD1012283
:1017B00046E000BF9DF822E09AF801509AF8020036
:1017C00002E000BF70460D469DF823709AF8036052
:1017D000CDE9045047F65660CDE9001ECDE902720E
:1017E000C0F6000021460222069604F02FFD58465E
:1017F00004F028F9204651464FF4807204F004FBAF
:101800000020089008A92046042204F00BFA9DF855
:1018100020309AF800209DF8211093421ED19AF8AA
:1018200001609AF802009DF822E0B14220D186457D
:101830001DD19DF823C09AF80300844516D10222D9
:10184000002090BB47F60F60CDE9001EC0F60000F7
:101850002146CDF808C004F0F9FC26E09DF822E00E
:101860009AF801609AF8020002E000BF70460E4646
:101870009DF823709AF80350CDE9046047F656604E
:10188000CDE9001ECDE90272C0F600002146032218
:10189000069504F0DBFC47F66530C0F600002146F3
:1018A00004F0D4FC012089F80100D8F800004FF4BE
:1018B000807100F58070C8F800000020A9F80200CF
:1018C00040F21C40C2F20000FF22FEF707FD09B003
:1018D000BDE8F08FB0B5044600F024F9054640F2AB
:1018E0000000C2F200000078611C18BF044400BF71
:1018F00000F018F9401BA042FAD3B0BD2DE9F04F1B
:1019000082B00E68002E00F0FD8041F20042C4F269
:101910000102042340F2004E904208BF03234FF619
:10192000FF7CC4F2010E009300240123C1F2100CCD
:101930004FF0000A4FF000094BE000BF41F20002F7
:10194000C4F20102009F904208BF022704F00C037A
:101950000F229A402BEA020207FA03F34FEA9A0594
:101960001A4346F825204E6840F20C45F202DEF894
:10197000082054BF22EA080242EA0802C4F2010524
:10198000CEF808202A68B30254BF22EA080242EACD
:1019900008022A60B303DEF8042054BF22EA0802DA
:1019A00042EA0802F303CEF80420DEF800204FF0EC
:1019B000010354BF22EA080242EA0802CEF80020DE
:1019C0000E680AF1010A36FA0AF204F1040400F082
:1019D000998003FA0AFB16EA0B08F1D04E686645B7
:1019E00012DC122E56D8DFE806F0350B4D4955555E
:1019F000555555555555555555555545510000BFEB
:101A0000D1F80C9046E000BF4FF6FF72C1F2210200
:101A100096420FDC0022C1F2110296421AD0002237
:101A2000C1F21202964215D00022C1F22102964262
:101A300010D02FE00022C1F2220296420AD00022EA
:101A4000C1F23102964205D00022C1F23202964222
:101A500020D100BF8A684AB1012A14BFC0F814B06F
:101A6000C0F810B04FF0080914E000BF4FF00409AF
:101A700010E000BFCA6802F104090BE04FF0000952
:101A800008E000BFCA6802F1080903E0CA6802F171
:101A90000C0900BF02462646B8F5807F24BF0432F9
:101AA000203E17680F25B54027EA050509FA06F616
:101AB00035431560CA79D2067FF582AF41F218032B
:101AC000C4F202031A68AEF57E7642F001021A6093
:101AD0001A6802F001020192019A2AF0030256F8F4
:101AE00002B040F60002C4F20102904208D040F673
:101AF0000042C4F2010290427FF420AF012725E7A3
:101B0000002723E702B0BDE8F08F0000806808409E
:101B100018BF012070470000002A08BF09040161B6
:101B20007047000040F21840C2F2000000687047A1
:101B3000002804BF01207047F0B581B0044690F83A
:101B40003D0028B9002084F83C00204600F0F8FA57
:101B5000242084F83D002068016821F00101016023
:101B6000016841F400410160016821F40041016015
:101B700000F0B0FC636848F2A16CC0F2010C40F6C2
:101B80000011C0F23D0163453CBF48F28041C0F204
:101B90001E01884202D2012001B0F0BD4DF68361E2
:101BA000C4F21B31A0FB01122168970CD1F804E0AC
:101BB0004FF496762EF03F0545EA92454D60774307
:101BC00048F638160D6AC0F24106A7FB067625F0E6
:101BD0003F07634538BF960C721C3A430A62CA69D4
:101BE00048F2A0664CF6FF77C0F20106B34222EA43
:101BF00007020BD801385B00B0FBF3F001306FF344
:101C00001F30042898BF04201BE000BFA7680138DC
:101C100057B119277B43B0FBF3F001306FF31F304E
:101C200070B100F5804007E003EB4303B0FBF3F035
:101C300001306FF31F3018B100F5004001E000BF24
:101C400001201043C8610868D4E9072320F0C000D0
:101C5000104318430860886848F2FF3204F10C070B
:101C600090438CCF18431043A6698860C86820F061
:101C7000FF0038433043C860086840F00100086046
:101C800000202021206484F83D10206384F83E0069
:101C900001B0F0BD2DE9F04F85B004460020994613
:101CA00016460F460490FFF73DFF94F83D1020299B
:101CB00027D10546206800BF816989071CD5FFF739
:101CC00031FF411B20681A29F6D381698907F3D5B2
:101CD00000202021206384F83D1084F83E00206C11
:101CE00004F13C0A40F020002064022000218AF820
:101CF000001005B0BDE8F08FA2461AF83C1F01297C
:101D000004D1022005B0BDE8F08F00BF01228AF89F
:101D100000200368DDE90F180E9ADB0703D1036882
:101D200043F001030360036823F40063036022208F
:101D300084F83D00402084F83E0000202064626268
:101D40006185608D394620850020CFF6FF70E06206
:101D5000204632464B46CDE9008501F06BFF18B1B5
:101D6000012005B0BDE8F08F208D022826D0012883
:101D70000ED0002838D100200390206841690391DB
:101D8000816903910399016841F40071016037E0B2
:101D90002068016821F480610160EFF3108072B661
:101DA00000200390206841690391816903910399A0
:101DB000016841F40071016062B621E020680168A9
:101DC00041F400610160EFF3108072B600200390CF
:101DD000206841690391816903910399016821F4A5
:101DE0008061016062B60BE02068016841F48061A7
:101DF0000160002103914169039180690390039878
:101E0000208D002800F0CE80042740F208094BF214
:101E1000895BC0F20107C2F20009C1F2F84B232628
:101E20000EE000BF10690870606A218D01306062A9
:101E3000481E2085618D01396185010400F0B28062
:101E400080B203280CD802282CD001284AD1204681
:101E500041462A4602F08CF9002800F09F807FE777
:101E6000204641462A4602F083F900287FF478AFE5
:101E70002068616A00690870606A2268411C208DD0
:101E8000616201382085638D013B638553695B077F
:101E9000D3D580B20328C5D1106820F480601060CB
:101EA000C0E700BF2046394600224346009502F0B5
:101EB0000DF800287FF454AFEFF3108072B620685D
:101EC000616A026842F40072026000690870606A28
:101ED000218D01306062481E2085608D013860854B
:101EE00062B65BE02046394600224346009501F089
:101EF000EDFF00287FF434AF2068016821F4806191
:101F00000160EFF3108072B62068616A00690870A2
:101F1000606A218D0130013960622185618D01394E
:101F20006185D9F80010C908A1FB0B12110A714391
:101F30000491049901390491049900293ED0216843
:101F40004A6952071AD40499013904910499A9B332
:101F500021684A69520711D40499013904910499FE
:101F600061B321684A69520708D404990139049180
:101F7000049919B321684A695207DAD50A6842F40C
:101F800000720A6009690170606A218D0130606227
:101F9000481E2085608D0138608562B62068616AC0
:101FA000006940E7202084F83D00002084F83E00CE
:101FB00000218AF8001005B0BDE8F08F0020202134
:101FC000206384F83D1084F83E00206C40F020002F
:101FD000206462B6012000218AF8001005B0BDE837
:101FE000F08F00002DE9F04383B0994616460F4666
:101FF0000446FFF797FD94F83D10202924D10546AB
:10200000206800BF816989071AD5FFF78BFD411B46
:1020100020681A29F6D381698907F3D50020202189
:10202000206384F83D1084F83E00216C41F02001CB
:10203000216484F83C00022003B0BDE8F08300BFB7
:1020400094F83C10012903D1022003B0BDE8F083CD
:10205000012284F83C200368DDE90B180A9ADB07AB
:1020600003D1036843F001030360036823F40063B2
:102070000360212084F83D00402084F83E000020C9
:10208000206462626185608D394620850020CFF62C
:10209000FF70E062204632464B46CDE9008501F0F4
:1020A00053FE18B1012003B0BDE8F083208D98B92C
:1020B000204641462A4601F0ABFE88B3206C042836
:1020C000F0D12068016841F400710160012003B083
:1020D000BDE8F0830004EBD0204641462A4602F0DA
:1020E0008FF80028EAD1616A2268084610F8013B9F
:1020F0001361238D6062581E2085678D013F6785BF
:1021000057697F07E6D50704E4D048781061881C3A
:102110006062981E2085618D01396185DAE700BF14
:102120002068016841F400710160202084F83D00BE
:10213000002084F83E0084F83C0003B0BDE8F08342
:1021400010B586B0016845F20040C4F2000081423B
:102150004FF00001CDE90411CDE9021102D006B023
:1021600010BD00BF41F21804C4F20204216800F55A
:10217000384041F008012160216801F00801019117
:102180000199C0210291122103910321059102A915
:10219000FFF7B4FB606840F400106060606800F412
:1021A00000100190019806B010BD000040F2000040
:1021B00040F21841C2F20000C2F2000100780A6841
:1021C000104408607047000080B542F20000C4F27D
:1021D0000200016841F010010160032000F08CF85A
:1021E0000F2000F005F800F027F8002080BD000067
:1021F00070B540F20006C2F2000640F208013278E3
:10220000C2F200014FF47A730968B3FBF2F204469C
:10221000B1FBF2F1084600F083FD0F2C4FF00105F1
:1022200008D838B94FF0FF3021460022002500F0D1
:1022300037F87460284670BD82B041F21800C4F2CD
:1022400002000168022241F001010160016801F011
:10225000010101910199416841F08051416040685C
:1022600000F08050009000980420C4F20100016842
:1022700062F31A61016002B070470000002848BF95
:10228000704700F01F01012202FA01F11C2202EA4C
:10229000D0004EF20012CEF20002815070470000D2
:1022A00010B54EF60C5CCEF2000CDCF80030C3F337
:1022B000022E8EF00704042C28BF0424BEF1030371
:1022C0004FF0FF3E0EFA04F438BF0023A1439940BB
:1022D0000EFA03F39A43114300F00F0200F160433A
:1022E0000901043A03F564436244002848BF02F13F
:1022F0000C03197010BD00004EF60C51CEF2000117
:102300000A684FF6FF031A4060F30A2242F0806029
:1023100040F0FD7008607047002804BF012070473E
:102320002DE9F04381B042F20008C4F202080446ED
:10233000D8F800000D4600F0070088420CD2D8F80B
:10234000000020F007002843C8F80000D8F800007B
:1023500000F00700A8426CD1206841F2040981070F
:10236000C4F2020917D5410705D5D9F8001041F488
:10237000E061C9F80010010705D5D9F8001041F453
:102380006051C9F80010D9F80010A26821F0F001DE
:102390001143C9F80010C00742D1D8F8000000F07E
:1023A0000700A8420CD9D8F8000020F00700284305
:1023B000C8F80000D8F8000000F00700A84238D1A3
:1023C0002068410707D5D9F80010E26821F4E061E0
:1023D0001143C9F80010000708D5D9F80000216999
:1023E00020F4605040EAC100C9F80000D9F800208C
:1023F00002F00C00082841F20020C0F27A004DD112
:1024000047F2A663C2F38341C0F60003595CD203CE
:1024100038D440F60010C0F23D0048433EE000BF13
:10242000606859F8041C022808D0012826D18903C5
:1024300006D4012001B0BDE8F08300BF8901F8D5C2
:10244000D9F8001021F003010843C9F80000FFF794
:1024500069FB064641F28837D9F80000616800F050
:102460000C00B0EB810F98D0FFF75CFB801BB842EB
:10247000F2D9032001B0BDE8F08300BF8907D8D5A9
:10248000DEE700BFD9F8002047F2A463C2F3404260
:10249000C0F600039A5C4843B0FBF2F0D9F8001094
:1024A00047F28C62C1F30311C0F60002515C40F2A6
:1024B000080220FA01F140F20400C2F200000068B4
:1024C000C2F200021160FFF793FE002001B0BDE8E8
:1024D000F083000040F2080041F20401C2F2000063
:1024E000C4F202010068096847F29C62C1F302214C
:1024F000C0F60002515CC8407047000040F208007E
:1025000041F20401C2F20000C4F20201006809684D
:1025100047F29C62C1F3C221C0F60002515CC84080
:1025200070470000002804BF012070472DE9F041EA
:1025300082B00446007841F20006C007C4F20206E9
:102540000CD0706800F00C00042840F081803068E6
:10255000800303D56068002800F04681207880075A
:102560001BD5706810F00C0F09D0706800F00C00DB
:10257000082840F087807068C00300F183803068CD
:10258000800703D52069012840F02E8130686169F9
:1025900020F0F80040EAC10030602078000713D432
:1025A000207840072CD4E569002D00F01881706870
:1025B00000F00C00082840F0A780012D40F00481B5
:1025C000012002B0BDE8F081A069002800F08480FD
:1025D0000020C4F242200121C0F88014FFF7A2FAC3
:1025E000054600BF706A800700F1B280FFF79AFAD3
:1025F000401B0228F6D9032002B0BDE8F08100BFDD
:10260000F0695FEAC00808D4F06940F08050F061DA
:10261000F06900F080500090009847F20007C4F283
:1026200000073868C00549D4386840F480703860C5
:10263000FFF778FA054600BF3868C0053ED4FFF7BB
:1026400071FA401B6428F7D9032002B0BDE8F0817D
:10265000706800F00C00082803D17068C0033FF5D3
:1026600076AF61683068002900F00C81B1F5A02FC9
:1026700000F00081B1F5803F40F01A8140F48030D5
:102680001CE100BF2069002840F20000C4F2422093
:1026900000F0888001210160FFF744FA054600BF81
:1026A000306880073FF572AFFFF73CFA401B022805
:1026B000F6D9032002B0BDE8F08100BFE168306ABE
:1026C000002900F09D80052900F09280012940F04A
:1026D000AF8040F00100B1E00020C4F242200021B0
:1026E000C0F88014FFF71EFA054600BF706A800725
:1026F0007FF556AFFFF716FA401B0228F6D90320E4
:1027000002B0BDE8F08100BF0027C4F242270020DC
:102710003866FFF707FA022D05460DD130688001B3
:1027200040F1DE80FFF7FEF9401B02284FF0030066
:10273000F4D902B0BDE8F081306880014FD5FFF7D1
:10274000F1F9401B02284FF00300F5D9F1E700BF73
:1027500040F20800C2F20000006844F6D351C1F212
:102760006201A0FB0101480A019000BF00BF01986F
:10277000411E002801913FF413AF00BF0198411E94
:10278000002801913FF40CAF00BF0198411E0028C2
:1027900001913FF405AF00BF0198411E002801914F
:1027A000E4D1FDE600210160FFF7BCF9054600BF5A
:1027B000306880077FF5F1AEFFF7B4F9401B0228BF
:1027C0004FF00300F4D9B4E77068216A00F4803256
:1027D0008A4209D1616A00F47010884204D1002055
:1027E00002B0BDE8F08100BF012002B0BDE8F08179
:1027F00040F004003062306A40F001001EE000BF8B
:1028000020F001003062306A20F004003062FFF7EF
:1028100089F9054641F28837306A800720D5FFF7ED
:1028200081F9401BB8424FF00300F5D981E700BFA2
:1028300020F001003062306A20F004003062FFF7BF
:1028400071F9054641F28837306A800708D4FFF7EE
:1028500069F9401BB842F7D9032002B0BDE8F08106
:10286000B8F1000F3FF59FAEF06920F08050F061A5
:1028700099E600BF40F480203060306840F480303A
:102880001CE000BF20F480303060306820F48020ED
:102890003060FFF747F90546306880037FF55EAE8C
:1028A000FFF740F9401B64284FF00300F4D940E7DC
:1028B00020F480303060306820F480203060FFF7F2
:1028C00031F90546306880033FF548AEFFF72AF935
:1028D000401B6428F6D9032002B0BDE8F08100BF98
:1028E000206AB0F5803F05D17168A26821F40031FB
:1028F000114371607168626A21F4741111430843D5
:10290000706001203866FFF70DF9044630688001D9
:102910003FF565AFFFF706F9001B02284FF00300F3
:10292000F4D906E770B528B1416A29B100210161E7
:10293000142106E0012070BD4168B1F5827F02D00C
:102940001C21002242500026866290F8511029B9BD
:1029500080F85060054600F039F82846022180F8DA
:10296000511090E82E0002F482720C6803F40443C4
:1029700024F040040C601A4405F4006305691A440D
:1029800005F0020345691A4405F001038569C4692D
:102990001A4405F400731A4404F03803046A1A4414
:1029A00004F08003846A1A4304F400531A430A6053
:1029B000042202EA15424A60CA6922F40062CA612E
:1029C0000121466580F85110304670BD70B586B063
:1029D00040F60044C4F201040068A4F55441002606
:1029E00088420596CDE90366029601D006B070BD17
:1029F00041F21800C4F20200416802AD41F4804186
:102A00004160416801F4804101910199016841F000
:102A1000080101600068294600F008000190019853
:102A20004FF420400290022003900320059020469E
:102A3000FEF764FF4FF48040CDE9020620462946A8
:102A40000496FEF75BFF06B070BD00002DE9F04371
:102A500083B01E4615460F460446FFF763F894F808
:102A600051108146012909D1002F4FF0010018BFF4
:102A7000002D0FD103B0BDE8F08300BF6068B0F552
:102A8000827F0DD104294FF00200F3D1A168002903
:102A9000EAD0EFE7002EEDD094F85000012803D1E2
:102AA000022003B0BDE8F083012084F8500094F8C0
:102AB0005100002104281CBF052084F851006165E5
:102AC000A563E687A6872763E6862068A686216435
:102AD00061640168490603D4016841F04001016066
:102AE0006168731EE268B1FA81F1B3FA83F3DDF82D
:102AF000288049095B09B2F5006F41EA030165D1FD
:102B000031B137F8021BC1602763E08E0138E086DF
:102B1000012518F1010032D102E000BFFFF702F8F1
:102B2000E08E18B9E08F002800F0B8802068816836
:102B300089070CD5E18E51B1012D08D1216B0025FB
:102B400031F8022BC2602163E18E0139E186816890
:102B5000C907E3D0E18F0029E0D0C068A16B01254F
:102B600021F8020BA163E08F0138E087D6E700BFB0
:102B7000FEF7D8FFA0EB0900404580F0AF80E08E63
:102B800018B9E08F002800F08980206881688907E3
:102B90000CD5E18E51B1012D08D1216B002531F802
:102BA000022BC2602163E18E0139E1868168C90789
:102BB000DED0E18F0029DBD0C068A16B012521F8B0
:102BC000020BA163E08F0138E087D1E739B1397892
:102BD0000173206B01302063E08E0138E08601250F
:102BE00018F1010032D101E0FEF79CFFE08E10B930
:102BF000E08F002852D02068816889070ED5E18EC9
:102C000061B1012D0AD1216B002509780173216B77
:102C1000206801312163E18E0139E1868168C907AD
:102C2000E2D0E18F0029DFD0C068A16B01250870D8
:102C3000A06B0130A063E08F0138E087D4E700BFCC
:102C4000FEF770FFA0EB0900404547D2E08E08B9BF
:102C5000E08F18B32068816889070ED5E18E61B1D5
:102C6000012D0AD1216B002509780173216B2068A1
:102C700001312163E18E0139E1868168C907DFD026
:102C8000E18F0029DCD0C068A16B01250870A06B22
:102C90000130A063E08F0138E087D1E720460221B0
:102CA00001224346CDF8009001F0FCFF40B92046D8
:102CB000802100224346CDF8009001F0F3FFB8B127
:102CC000606D40F02000606520206065002084F881
:102CD0005000012003B0BDE8F08300BF012084F85C
:102CE0005100002084F85000032003B0BDE8F083B9
:102CF000A06838B9002002902068C16802918068FD
:102D000002900298012084F85100002084F85000BD
:102D1000606D002818BF012003B0BDE8F0830000FB
:102D2000411E0020B0EB116F1CBF012070474EF216
:102D30001002CEF2000251604EF62351CEF2000195
:102D4000F0230B70072190601160704770470000FE
:102D50007047000090F83C20012A4FF0020236D064
:102D600010B580F83D200268D2F804E0D2F808C01F
:102D70000C682EF07003234340F2FF74C4F2000489
:102D8000A24253600ADCB2F1804F13D040F20043FC
:102D9000C4F200039A420DD011E000BF42F6004396
:102DA000C4F201039A4205D040F60003C4F20003C6
:102DB0009A4204D149682CF08003194391600121A3
:102DC000002280F83D1080F83C20BDE810401046FD
:102DD00070470000002804BF0120704710B590F82C
:102DE0003D1031B9002180F83C10044600F070F825
:102DF0002046022180F83D10016840F2FF740B6804
:102E0000C4F2000442F6004CA142C4F2010C15DCED
:102E1000B1F1804F1AD040F20042C4F20002914258
:102E200014D0A14218DCB1F1804F1DD040F2004215
:102E3000C4F20002914217D01AE000BF614505D0EC
:102E400040F60002C4F200029142EAD1826823F007
:102E500070031343A142E6DD614505D040F6000250
:102E6000C4F20002914203D1026923F44073134378
:102E7000846923F08002D0F804E0C36822436145EE
:102E80000A60CB62C1F828E002D14269CCF8302058
:102E900001224A610B69DB0703D00B6923F00103B0
:102EA0000B6180F8462080F83E2080F83F2080F8B3
:102EB000402080F8412080F8422080F8432080F8AC
:102EC000442080F8452080F83D20002010BD0000FF
:102ED00080B582B0006840F60001C4F2000188426B
:102EE0001ED042F60041C4F20101884225D141F2D0
:102EF0001800C4F202000168002241F40061016080
:102F00000068002100F40060019001981920FFF78B
:102F1000C7F9192002B0BDE88040FFF7AFB900BF84
:102F200041F21800C4F20200416841F0040141601E
:102F3000406800F004000090009802B080BD0000DE
:102F400090F83C20012A4FF002026CD080B580F846
:102F50003D20D0F800C04FF67772DCF8083023EA45
:102F60000202CCF808200B684F2B29DC1F2B45DD13
:102F7000202B46D0302B44D0402B40F0AF80D1F8EE
:102F800004E0C968DCF82030DCF8202022F00102DF
:102F9000CCF82020DCF8182022F0F00242EA0111DF
:102FA00023F00A0242EA0E02CCF81810CCF82020D6
:102FB000DCF8081041F0470121F0300128E000BFA3
:102FC0006F2B33DDB3F5005F74D0B3F5805F21D094
:102FD000702B40F08380D1E901E3C968DCF8082058
:102FE00043EA0E0322F47F4243EA01211143CCF865
:102FF0000810DCF8081041F0770109E00BB1102B44
:103000006CD1DCF8081021F07001194341F0070180
:10301000CCF808100022012180F83D10002180F832
:103020003C10BDE880401046704700BF502B21D0B7
:10303000602B53D1D1F804E0C968DCF82030DCF80B
:10304000202022F01002CCF82020DCF8182022F4F6
:10305000704242EA013123F0A00242EA0E12CCF89B
:103060001810CCF82020DCF8081041F0670121F09E
:103070001001CDE7D1F804E0C968DCF82030DCF8B5
:10308000202022F00102CCF82020DCF8182022F0C9
:10309000F00242EA011123F00A0242EA0E02CCF8E1
:1030A0001810CCF82020DCF8081041F0570121F06E
:1030B0002001ADE7D1E901E3C968DCF8082043EA63
:1030C0000E0322F47F4243EA01211143CCF8081099
:1030D000DCF8081041F480419AE700BF01229AE72A
:1030E000002804BF012070472DE9F04F81B090F80F
:1030F0003D2042B9002280F83C2004460D4600F0F5
:103100009DF829462046022280F83D20026844F2BC
:103110000705936842F6004CAB43936040F2FF739F
:103120001468C4F200039A42C4F2010C14DCB2F138
:10313000804F19D040F20045C4F20005AA4213D0D6
:103140009A4217DCB2F1804F1CD040F20043C4F227
:1031500000039A4216D01AE0624505D040F60005F9
:10316000C4F20005AA42EBD1856824F070042C4318
:103170009A42E7DD624505D040F60003C4F2000341
:103180009A4204D1036924F4407543EA050424F00B
:1031900080038469D0F804E0C56823436245136066
:1031A000D562C2F828E002D14369CCF830304FF044
:1031B000010EC2F814E01569ED0703D0156925F07A
:1031C0000105156195689469D2F820C0D1E90038ED
:1031D000D1E9027B43EA050A8D694FF6FF7924EABB
:1031E000090447EA05254FF6FC47BD43D1E90776B8
:1031F00044EA0B040B692C4344EA07242CF0220711
:10320000496944EA031347EA080743EA063347EAF1
:103210000111C2F808A09361116280F846E080F8BD
:103220003EE080F83FE080F842E080F843E080F83C
:103230003DE0002001B0BDE8F08F0000B0B586B0E1
:10324000006840F20042C4F2000200219042059161
:10325000CDE9031102914BD0B0F1804F6AD141F218
:103260001800C4F202000168042241F0010101606B
:103270000168C4F2010201F0010101910199116894
:10328000022363F31A6111601368012161F30923BA
:103290001360426840F6000442F001024260426856
:1032A000002502F001020192019A0268C4F20104B1
:1032B00042F004020260026802F004020192019AE4
:1032C000026842F008020260006800F00800019005
:1032D00001984FF400400290CDE9035102A9204625
:1032E000FEF70CFB0820CDE9020504F580601CE028
:1032F00041F21800C4F20200426842F00202426049
:10330000426802F002020192019A026842F004024D
:103310000260006800F0040001900198C020CDE92F
:10332000020140F60000C4F201000121049102A94B
:10333000FEF7E4FA06B0B0BD80B590F83E2090F8F4
:103340003F3090F842E090F843C004290AD0B9B960
:10335000012A4FF0010208BFBEF1010F34D0104620
:1033600080BD00BF012B4FF0010208BFBCF1010F6F
:10337000F5D1022180F83F1080F8431000681EE06C
:10338000012A4FF0010208BF012BE8D1BEF1010F65
:10339000E5D1BCF1010FE2D1022280F83E2080F895
:1033A0003F2080F8422080F8432091B10068016AF4
:1033B00021F001010162016A41F001010162102165
:1033C0006FF0100209E000BF022180F83E1080F883
:1033D0004210006801216FF00102036A1A40026284
:1033E000026A114301620168002241F0010101609B
:1033F000104680BD7047000070B504460068C5687F
:103400000669B10716D515F0020113D06FF002015D
:103410000161012121778069800703D02046FFF7F1
:10342000E9FF05E0204600F08FF8204600F010FA92
:1034300000202077700719D515F0040016D02068F9
:103440006FF00401016102212177806910F4407F4F
:1034500004D02046FFF7CEFF06E000BF204600F074
:1034600073F8204600F0F4F900202077300717D5D4
:1034700015F0080014D020686FF0080101610421E4
:103480002177C069800703D02046FFF7B3FF05E02E
:10349000204600F059F8204600F0DAF900202077A5
:1034A000F00619D515F0100016D020686FF0100145
:1034B000016108212177C06910F4407F04D02046C3
:1034C000FFF798FF06E000BF204600F03DF82046D9
:1034D00000F0BEF900202077F00718BF15F00100BA
:1034E00002D1300609D412E020686FF001010161B9
:1034F000204600F01DFA300609D515F0800006D0F0
:1035000020686FF0800101612046FFF71FFC700604
:1035100009D515F0400006D020686FF04001016128
:10352000204600F007FAB00658BF70BD15F0200025
:1035300008D021686FF0200220460A61BDE8704083
:10354000FFF706BC70BD00007047000090F83C30EB
:10355000012B04BF022070474FEAB202032A00F297
:10356000F1802DE9F043DFE802F003A53B7500BFD1
:10357000036842F600461D6A1A6AC4F2010622F088
:1035800001021A621A465C6852F818CFB3428E687C
:10359000D1F800E025F0020545EA06050CD1CE6819
:1035A000D1E9057824F4407425F00C0526F00406D2
:1035B0003C43354344EA08042CF0730747EA0E07FE
:1035C0005C609F614F6809695F631D629F6947F096
:1035D00008079F619F6927F004079F61A6E000BF6D
:1035E000036842F600461D6A1A6AC4F2010622F414
:1035F00080721A621A46D3F804C052F81CEFB34224
:103600008E680C6825F4007545EA06250FD1CE6852
:10361000D1E90598360240F2FF4725F44065BE43E4
:1036200035432CF4405748EA090647EA061C2EF0B9
:1036300073072743C3F804C0DF614F680969DF637C
:103640001D62DF6947F00807DF61DF6927F00407C3
:10365000DF616BE0036842F60047D3F820C01A6AC6
:10366000C4F2010722F480521A621A465C6852F8CA
:103670001C5FD1F800E08E68BB4204D14F6924F48E
:10368000804444EA87142CF4005747EA063725F4AF
:10369000E64646EA0E265C60DE614E6809691E64F5
:1036A0001F62DF6947F40067DF61DF6927F4806725
:1036B000DF613AE0036842F600461D6A1A6AC4F206
:1036C000010622F010021A621A46D3F804C052F81A
:1036D000184FB3428E68D1F800E025F0200545EA86
:1036E00006150FD1CE68D1E905986FF0400725F097
:1036F000C00507EA061635432CF4406748EA090678
:1037000047EA860C24F4E64444EA0E27C3F804C0D2
:103710009F614F6809699F631D629F6947F4006755
:103720009F619F6927F480679F61090213681943AD
:1037300011600021BDE8F043002280F83C200846DB
:10374000704700BF0121002280F83C2008467047E6
:10375000002804BF0120704710B590F83D1031B922
:10376000002180F83C10044600F070F82046022149
:1037700080F83D10016840F2FF740B68C4F2000449
:1037800042F6004CA142C4F2010C15DCB1F1804FAD
:103790001AD040F20042C4F20002914214D0A14279
:1037A00018DCB1F1804F1DD040F20042C4F200029B
:1037B000914217D01AE000BF614505D040F60002E3
:1037C000C4F200029142EAD1826823F070031343ED
:1037D000A142E6DD614505D040F60002C4F20002D8
:1037E000914203D1026923F440731343846923F0A7
:1037F0008002D0F804E0C368224361450A60CB62CE
:10380000C1F828E002D14269CCF8302001224A6197
:103810000B69DB0703D00B6923F001030B6180F810
:10382000462080F83E2080F83F2080F8402080F835
:10383000412080F8422080F8432080F8442080F81E
:10384000452080F83D20002010BD0000704700009A
:1038500070470000C1B1042908D0082914BF4122D3
:103860004022825C012A05D016E000BF3F22825C24
:10387000012A11D10222082910D0042914BF80F88E
:10388000412080F83F200BE090F83E20012A03D130
:10389000022280F83E2003E00120704780F840209B
:1038A000006801F01F010122036A8A4023EA020135
:1038B0000162036A42F64441C4F201011A43A1F1D4
:1038C0004403984202620FD040F2FF71C4F200013B
:1038D000884213DCB0F1804F1CD040F20041C4F2AA
:1038E0000001884216D01CE00A6842F400420A60D7
:1038F00040F2FF71C4F200018842EBDD42F6004164
:10390000C4F20101884205D040F60001C4F2000172
:10391000884206D1816801F00701062904BF002012
:103920007047016841F0010101600020704700000C
:103930007047000070470000002804BF0120704756
:1039400010B5044690F8410028B9002084F84000E2
:10395000204600F063F8242084F841002068D4E970
:103960000212C36823F40053C360036923F4405375
:103970001A430261D4E904231143C268194341F296
:103980000C639A431143C1604169A26921F44071FB
:10399000114343F60002C4F201029042416103D098
:1039A000FEF798FD02E000BFFEF7A8FDD4E9002372
:1039B000192148439900B0FBF1F048F21F5CC5F2B1
:1039C000EB1CA0FB0C314FF69C734909C0F6FF734A
:1039D00001FB0300322303EB0010A0FB0C03F020DB
:1039E00000EA531000EB0110C3F343110844906048
:1039F0001069202120F490401061506920F02A00C5
:103A00005061D06840F40050D0600020606484F8B9
:103A1000411084F84210606310BD000070B586B09C
:103A200040F60004C4F20104006804F54051002689
:103A300088420596CDE90366029601D006B070BDB6
:103A400041F21800C4F20200016802AD41F4804165
:103A50000160016801F4804101910199016841F020
:103A6000040101600068294600F0040001900198FB
:103A70004FF400700290022003900320059020462E
:103A8000FDF73CFF4FF48060CDE902062046294651
:103A90000496FDF733FF06B070BD00002DE9F0433A
:103AA00081B0044690F84100202809D100294FF048
:103AB000010018BF002A07D101B0BDE8F08300BFA4
:103AC000022001B0BDE8F0830020606421201D4683
:103AD0000E4684F841001746FEF724F8A784E784D1
:103AE000A1688146B1F5805F02D1206900285DD0D0
:103AF00037460020E28C2168002A5DD06A1C24D061
:103B0000002D4AD0804600BF0868000608D4FEF7A2
:103B100009F8A0EB0900A8427AD82168C868F3E741
:103B200017B117F8010B04E038F8020B00276FF308
:103B30005F204860E08C0138E084E08C0028E3D10D
:103B40003AE000BF0A68120609D40A68120606D4D1
:103B50000A6812065CBF0A685FEA0262F2D51FB10A
:103B600017F8012B05E000BF30F8022B00276FF398
:103B70005F224A60E28C013AE284E28C002AE4D1BE
:103B80001AE000BF30F8022B00276FF35F224A6073
:103B9000E28C013AE284E28C72B10A68120635D5F1
:103BA000002FEFD017F8012BF1E700BF00273046B8
:103BB000E28C2168002AA1D1086840061ED42DB3EA
:103BC000681C14D1086840062AD40868400627D427
:103BD0000868400624D4086840064FF00000F1D57C
:103BE0000DE000BF2068C1680068400618D4FDF7EA
:103BF00099FFA0EB0900A842F4D909E00020202198
:103C000084F8411001B0BDE8F08300BFFDF78AFFE2
:103C10000320202184F8411001B0BDE8F08300BFEB
:103C20000020202184F8411001B0BDE8F08300009D
:103C3000FEE700002DE9F04782B0044600689A468E
:103C40000B9D0A9E0368914643F4806202600268FD
:103C50000F4642F48071016020464FF001110022AE
:103C60003346009500F032F950B120680068C00575
:103C700044BF4FF400702064032002B0BDE8F08719
:103C800040F202082068C0F2010807F0FE07076151
:103C90002046414632462B4600F0FEF920B1012075
:103CA00002B0BDE8F08700BF0020019020682A46DE
:103CB000416901918069314601900198204600F0E8
:103CC0009FFAB0B92068BAF1010F09D04FEA192163
:103CD0000161204631462A4600F092FA48B9206830
:103CE0005FFA89F10161204631462A4600F088FAE0
:103CF00060B1206C0428D2D12068016841F40071C1
:103D00000160012002B0BDE8F08700BF20680022FA
:103D10000168334641F48071016020464FF0011183
:103D2000009500F0D3F800289FD147F0010C2768D8
:103D30002046414632462B46C7F810C002B0BDE8C7
:103D4000F04700F0A9B900002DE9F04383B0044624
:103D500000680F4601680A9D0B9E41F480719946E8
:103D60009046016020464FF0011100222B4600963C
:103D700000F0ACF850B120680068C00544BF4FF4B3
:103D800000702064032003B0BDE8F083206807F0D2
:103D9000FE0101610221C0F2010120462A4633469C
:103DA00000F07AF920B1012003B0BDE8F08300BF34
:103DB00000200290206832464169029180692946BC
:103DC00002900298204600F01BFA58B1206C04289B
:103DD000E9D12068016841F400710160012003B05D
:103DE000BDE8F0832068B9F1010F0AD04FEA18212D
:103DF000016120462946324600F002FA0028E5D14A
:103E000020685FFA88F10161002003B0BDE8F0830B
:103E100070B50368044653F8140F400711D40E46DA
:103E2000481C29D086BB00BF1868400527D4FDF781
:103E300079FE236853F8140F400737D518684007F8
:103E4000F2D5002070BD00BF18684007F9D418688B
:103E5000400514D418684007F3D4186840050ED400
:103E600018684007EDD41868400508D41868400762
:103E70004FF0000048BF70BD18684005E4D56FF4EE
:103E800080601860042012E0154603E053F8140F18
:103E90004007D6D418684005F1D4FDF743FE401B17
:103EA0002368B042F2D958694007EFD4202000219E
:103EB0002022216384F83D2084F83E10226C1043B8
:103EC0002064012084F83C1070BD00002DE9F04111
:103ED000054600681E46144601F47F0201338FB286
:103EE00042D0DDF81880B2F5803F40F0878040690D
:103EF0003840C01BB0FA80F04009A04240F0C880B2
:103F00004EB924E040693840C01BB0FA80F0400947
:103F1000A04240F0BD80FDF705FEA0EB0801286837
:103F2000B142EFD941693940C91BB1FA81F1490960
:103F3000A142E7D19BE000BF40693840C01BB0FA06
:103F400080F04009A0424FF0000040F0A280FDF751
:103F5000E9FD286841693940C91BB1FA81F1490975
:103F6000A142E9D183E000BFB2F5803F24D100BF78
:103F700041693940C91BB1FA81F14909A14240F0B8
:103F8000878041693940C91BB1FA81F14909A142D1
:103F900040F07E8041693940C91BB1FA81F149097D
:103FA000A14275D141693940C91BB1FA81F1490972
:103FB000A142DDD06CE000BF81693940C91BB1FA74
:103FC00081F14909A14263D181693940C91BB1FA24
:103FD00081F14909A1425BD181693940C91BB1FA1C
:103FE00081F14909A14253D181693940C91BB1FA14
:103FF00081F14909A142DFD04AE000BF8069384021
:10400000C01BB0FA80F04009A04241D146B923E07C
:1040100080693840C01BB0FA80F04009A04237D117
:10402000FDF780FDA0EB08012868B142F0D9816955
:104030003940C91BB1FA81F14909A142E8D116E022
:1040400080693840C01BB0FA80F04009A0424FF0B0
:10405000000018BFBDE8F081FDF764FD28688169A4
:104060003940C91BB1FA81F14909A142E8D10020C8
:104070002021286385F83D1085F83E00296C41F029
:104080002001296485F83C000120BDE8F08100BFD3
:104090000020BDE8F0810000F0B581B00446006862
:1040A0001D4643698FB203EA0701B94202D10020DD
:1040B00001B0F0BD4169164601323CD0490512D429
:1040C0007EB300BFFDF72EFD411B2068B14203D92E
:1040D00041693940B9422BD141693940B942E6D0F2
:1040E00041694905EED5016841F4007101606FF442
:1040F00080614161042000212022216384F83D2059
:1041000084F83E10226C1043206484F83C10012097
:1041100001B0F0BD41693940B942C8D04169490593
:10412000E1D4FDF7FFFC206841693940B942F1D084
:104130002020E0E741694905D5D441693940B942B9
:10414000B5D041694905CED441693940B942AED0B4
:1041500041694905C7D441693940B942A7D041698D
:104160004905C0D441693940B942E3D19FE7000015
:1041700070B504460068154650F8143F5A063DD401
:104180000E4629B926E000BF50F8141F490635D461
:104190000168C90621D4FDF7C5FC411B2068B14266
:1041A000F2D941694906EFD400202021206384F828
:1041B0003D1084F83E00206C40F0200018E000BF65
:1041C000FDF7B0FC206850F8141F4906ECD50168D3
:1041D000490613D40168C906F2D56FF010010160D9
:1041E00000202021206384F83D1084F83E00206CDC
:1041F0002064002084F83C00012070BD002070BDC8
:1042000070B50368044653F8140F000611D40E4627
:10421000481C29D086BB00BF1868400527D4FDF78D
:1042200081FC236853F8140F000637D51868000680
:10423000F2D5002070BD00BF18680006F9D41868D8
:10424000400514D418680006F3D4186840050ED44D
:1042500018680006EDD41868400508D418680006F0
:104260004FF0000048BF70BD18684005E4D56FF4FA
:1042700080601860042012E0154603E053F8140F24
:104280000006D6D418684005F1D4FDF74BFC401B5E
:104290002368B042F2D958690006EFD420200021EB
:1042A0002022216384F83D2084F83E10226C1043C4
:1042B0002064012084F83C1070BD00002DE9F04F0F
:1042C00089B020F03F0040F2A0084FF4805140F246
:1042D0001834C2F2000801EB8009C2F20004C8F8E9
:1042E0001000484621464FF4807201F09BFCB4F95F
:1042F0001200B4F90A50B4F902B0B4F904200890DD
:1043000004A8D8F81010B4F90030B4F90670B4F964
:104310000860B4F90CC0B4F90EE0B4F910A080E85C
:10432000205047F62910CDE900B2C0F600004A46F9
:10433000CDE90276CDF81CA001F088FF002514A677
:104340000AE000BFD8F8101030462A46009701F066
:104350007DFF0135402D17D034F9253004EB850160
:104360001846002B48BF5842B1F902700004002FD4
:10437000394648BF7942B0F5481FE3DC0804B0F580
:10438000481FE6DDDEE700BF09B0BDE8F08F00BFE3
:104390005B4442472D54335D20414E4F4D414C59B3
:1043A00020626173653D256C75206F66663D256CE6
:1043B00075204C3D256420523D25640D0A00000007
:1043C0002DE9F04186B00D46804600260596CDE9E0
:1043D0000366CDE901660096A9B100246F4600BFCF
:1043E000384600F08BF8BDF90A0002F0F7FE0146EE
:1043F000304602F049FD06460520FDF76BFA013410
:10440000A0B2A842ECD3284602F000FF0146304695
:1044100002F0D2FDC8F8140006B0BDE8F08100003B
:10442000F0B585B0002464208DF80E406425FDF7BA
:1044300051FA01200DF10E01CDE9001040F20410F7
:10444000C2F20000D021682201230295FDF722FC70
:10445000002850D19DF80E0068284CD140F2041578
:1044600001240DF10F00C2F2000500276426CDE9FA
:1044700000042846D0216B2201238DF80F7002968C
:10448000FDF7B0FD0A20FDF725FA09208DF8100090
:1044900004A8CDE900042846D02119220123029660
:1044A000FDF7A0FD02208DF811000DF11100CDE9FE
:1044B00000042846D0211A2201230296FDF792FD1E
:1044C00008208DF812000DF11200CDE900042846F5
:1044D000D0211B2201230296FDF784FD0DF113006C
:1044E00000902846D0211C2201238DF813700296DB
:1044F0000194FDF777FD204605B0F0BD10B588B0FA
:1045000004460E200DF11201CDE9001040F2041016
:104510004FF0640CC2F20000D0213B220123CDF801
:1045200008C0FDF7B7FB08B108B010BDBDF8120018
:10453000BDF8141000BA000C208008BABDF816109F
:10454000000C608008BABDF81A10000CA08008BAF0
:10455000BDF81C10000CE08008BA000C2081BDF8EA
:104560001E00BDF8181000BA000C6081C8BA02F035
:1045700035FE0021C4F2AA3102F01EFD41F6B861F9
:10458000C4F2122102F080FCE06008B010BD00000F
:10459000002101617047000070B50446B0F90A00BF
:1045A0000D4602F01BFE616902F078FF0021C4F2A3
:1045B000832102F001FD2669294602F0A3FE31465F
:1045C00002F062FC206170BD2DE9F04F85B04FF024
:1045D000000941F21800CDE90399CDE90199C4F22F
:1045E0000200016840F6000841F010010160016816
:1045F000C4F2010801F0100100910099016808F56A
:10460000006641F0200101600168002201F02001F4
:104610000091009901684FF4005741F004010160D6
:10462000016801F0040100910099016841F008015E
:10463000016000684FF4005100F0080000900098FD
:104640003046FDF769FA08F58065284640F60341D3
:104650000022FDF761FA28464FF48051012201241F
:10466000FDF75AFA40464FF4807100224FF4807AE9
:10467000FDF752FACDE9017401AF4FF0020B30465D
:104680003946CDF80C90CDF810B0FDF737F9302051
:10469000CDE90109404639460394FDF72FF941F66B
:1046A000034001A981E8110A28463946FDF726F999
:1046B00040463946CDE901A4CDE9039BFDF71EF93B
:1046C00005B0BDE8F08F000080B540F2041045F25F
:1046D0000041C2F20000C4F2000148F2A0620023CF
:1046E0004FF4804CC0F2010280E80E00C0E9033CA8
:1046F000C0E90533C0E90733FDF71AFA002808BFFF
:1047000080BDBDE88040FCF787BF000080B540F267
:10471000581043F60001C2F20000C4F200014FF449
:104720008272002380E80E0000F114014FF4007C37
:104730004FF0180E81E808500A21C0E90333C0E9A0
:104740000833C0E90A31FEF7EDF8002808BF80BD44
:10475000BDE88040FCF760BF80B586B040F2B01085
:1047600042F600420021C2F20000C4F2010241F60A
:104770001F434FF0630C0591CDE90311CDE9001102
:10478000C0E90023C0E9021CC0E904118161FEF701
:1047900021FB002818BFFCF73FFF4FF48050029028
:1047A00040F2B010C2F2000002A9FEF7C9FB0028D7
:1047B00018BFFCF731FF40F2B010C2F200006946AA
:1047C000FEF7C8FA002818BFFCF726FF06B080BD28
:1047D00080B58CB040F2F8100021C2F200004FF01A
:1047E00080424FF6FF73C0E900210322C0E90213A3
:1047F000CDE9032101220823CDE900110161816186
:10480000CDE90521CDE90731CDE909210B9103A9B6
:10481000FEF766FC002818BFFCF7FEFE40F2F81019
:10482000C2F200006946FEF795FA002818BFFCF7AF
:10483000F3FE0CB080BD000080B58CB040F240208B
:1048400040F200420021C2F20000C4F200024FF622
:10485000FF73C0E900210322C0E90213CDE903215F
:1048600001220823CDE9001101618161CDE9052113
:10487000CDE90731CDE909210B9103A9FEF730FC01
:10488000002818BFFCF7C8FE40F24020C2F200002A
:104890006946FEF75FFA002818BFFCF7BDFE0CB0B2
:1048A00080BD0000B0B594B040F6000540F288200D
:1048B000C4F200050021C2F20000472240F2E733B3
:1048C0000E91CDE90C110991CDE90711CDE9051142
:1048D000CDE90311CDE90111C0E90052C0E902138D
:1048E00001618161FEF776FA002818BFFCF794FE9B
:1048F0004FF480500B9040F28820C2F200000BA9C8
:10490000FEF71EFB002818BFFCF786FE40F2882049
:10491000C2F20000FEF71CFF002818BFFCF77CFE67
:1049200040F288200024C2F2000008A9CDE9084422
:10493000FEF710FA002818BFFCF76EFE6020CDE9E4
:10494000010440F28820C2F2000001A90822039469
:104950000594FEF7FBFD002818BFFCF75DFE40F252
:104960008824C2F2000401A920460C22FEF7EEFDC5
:10497000002818BFFCF750FE21680020A942CDE9AD
:1049800012001190109001D014B0B0BD41F2180087
:10499000C4F20200016841F008010160006810A93A
:1049A00000F008000F900F984FF440701090022014
:1049B0001190139005F58230FCF7A0FF14B0B0BD44
:1049C00080B540F2D02043F60001C2F20000C4F2EC
:1049D000010100234FF00C0C4FF4E13280E80E008F
:1049E000C0E90333C0E905C3C361FEF7A5FF002892
:1049F00008BF80BDBDE88040FCF70EBEFEE70000AA
:104A000010B540F60044C4F2010420460121012201
:104A1000FDF782F8204602210122FDF77DF82046AD
:104A20004FF480610122FDF777F820464FF40061D2
:104A30000122FDF771F840F28820C2F20000006800
:104A40000021C163016410BD0246002840F6000049
:104A5000C4F201004FF4807118BF0122FDF75CB869
:104A6000B0B540F60044C4F20104A4F580604FF4F0
:104A700080710122FDF750F8204601210022002517
:104A8000FDF74AF8204602210022FDF745F82046AE
:104A90004FF480610022FDF73FF820464FF400619B
:104AA0000022FDF739F840F28824C2F200042068A1
:104AB0000821C56305642046FEF7CCFE20460C2184
:104AC000BDE8B040FEF7C6BE2DE9F04140F2E73642
:104AD0004FF61947B042CFF6FF7740F60048B8BF0F
:104AE0000646BE42C4F201080D46D8BF3E46002825
:104AF00040464FF0010109D40122FDF70DF8404670
:104B000002210022FDF708F809E000BF0022FDF7AE
:104B100003F8404602210122FCF7FEFF764240F2F4
:104B2000E734A542B8BF2C46BC42D8BF3C4640F251
:104B30008827C2F200073868002DC66340464FF44C
:104B400080610DD40122FCF7E7FF40464FF400617D
:104B50000022FCF7E1FF38680464BDE8F08100BF83
:104B60000022FCF7D9FF40464FF400610122FCF718
:104B7000D3FF644238680464BDE8F081B0B540F604
:104B80000044C4F201042046012100220025FCF764
:104B9000C3FF204602210022FCF7BEFF20464FF44F
:104BA00080610022FCF7B8FF20464FF4006100222C
:104BB000FCF7B2FF40F28820C2F200000068C56333
:104BC0000564B0BDFEE700002DE9F0470446084645
:104BD000114602F063FCE168A769054602F054F94A
:104BE00039460646E06002F0BFF930B987F0004769
:104BF0003046394602F0BFF908B93E46E760216900
:104C0000D4E90087D4F80890284602F047FC824691
:104C100038463146256102F075FB06464046294676
:104C200002F070FB314602F02FF905464846514626
:104C300002F068FB294602F027F96469054621461F
:104C400002F092F948B984F000462846314602F055
:104C500092F92C46002808BF34462046BDE8F0876C
:104C600070B50546049E002085E80E0043F2BD7134
:104C7000C5E90300C3F28651104614466E6102F086
:104C800073F9002808BF4FF07E543046214602F0E9
:104C900093F9A86170BD00000021C0E903117047BD
:104CA000704700002DE9F04381B0089C98461546F6
:104CB0000E468146FCF736FF201A00EB0804FCF78D
:104CC00031FF40F20801C2F200010968C1F3CB31A3
:104CD00061430091D9F800108A683240921BB2FA01
:104CE00082F25209AA423DD0074618F1010031D0A4
:104CF000FCF718FFC01BA04238D20098009900288A
:104D0000A1F101010091D9F80010896808BF04469B
:104D100001EA0600801BB0FA80F04009A842E7D102
:104D200020E000BF88683040801BB0FA80F0400966
:104D3000A84217D088683040801BB0FA80F0400944
:104D4000A8420FD088683040801BB0FA80F040093C
:104D5000A84207D088683040801BB0FA80F0400934
:104D6000A842DFD1002001B0BDE8F083D9E90001FD
:104D70004268B1F5827F22F0E00242600BD1D9F89F
:104D80000810B1F5004F02D0B1F5806F03D1016872
:104D900021F040010160D9F82810B1F5005F07D17A
:104DA000016821F400510160016841F40051016083
:104DB000012089F85100002089F85000032001B03B
:104DC000BDE8F08370470000FDF7F0B970470000C0
:104DD00040F2B010C2F20000FEF70EBB40F2A0009D
:104DE000C2F20000007870472DE9F04182B0FFF771
:104DF00037FEFCF785FB34A001F028FA00F08AFEAC
:104E0000014639A03FA2002908BF02463EA001F09A
:104E10001DFA47A001F01AFAFFF702FB40F2A008C2
:104E2000C2F20008C0B147F6F920C0F6000001F058
:104E30000DFA08F114006421FFF7C2FAD8F828002F
:104E400001F0F6FF024647F6F250C0F600000B46AE
:104E500001F0FCF906E000BF47F63340C0F6000061
:104E600001F0F4F948F22700C0F6000001F0EEF975
:104E7000002449F69A154CF6CD464CF20007C4F2D0
:104E8000A004C3F69965C3F6CC56C4F2794708F17D
:104E90002C0021462A4633460097FFF7E1FE08F131
:104EA000480021462A4633460097FFF7D9FE0021E5
:104EB00047F6BD50C0F6000088F8001002B0BDE80B
:104EC000F04101F0C3B900BF5B4442475D20453A61
:104ED000206265666F7265205732355136345F49FE
:104EE0006E69740D0A0000004641494C202D205384
:104EF00050492F776972696E67206572726F7221EF
:104F0000000000004F4B00005B4442472D48455DC8
:104F1000205732355136345F496E6974207265749A
:104F200075726E656420257520282573290D0A0089
:104F30005B4442475D20463A206265666F72652099
:104F40004D5055363035305F496E69740D0A00009A
:104F5000F0B583B040F2A007C2F20007387808B17C
:104F600003B0F0BD47F63F20C0F600001F2101F05E
:104F70006DF947F66720C0F6000001F067F90020E0
:104F8000002400F05FFD41A001F060F902A90020BB
:104F90000422029400F046FE9DF808109DF80920B6
:104FA0009DF80A309DF80B6047F68E00C0F60000B1
:104FB000009601F04BF93DA001F048F94FF4805004
:104FC00000F040FD42A001F041F948F23F06022402
:104FD0004FF40055C0F6000607E000BF05F5805508
:104FE000B5F5003F04F101040AD0284600F02AFD7F
:104FF0006007F3D1304621461F2201F027F9EDE783
:1050000047F6CE20C0F6000001F020F9002040F263
:105010000C01C7E902007880C2F200014FF480520F
:10502000787040F21C400A60C2F200004FF48071B8
:10503000FF22FBF753F9FCF7F1F9FCF74FFAFCF705
:10504000E3FA07F114042046FFF758FA2046FFF769
:105050009FFA0020FFF7F8FC48F27610C0F6000037
:1050600001F0F4F80120387041F20000C4F20100B0
:105070004FF400510022FCF74FFD47F66440C0F6A4
:10508000000001F0E3F803B0F0BD00BF5B4442470D
:105090002D48455D20536563746F72203020657222
:1050A00061736520646F6E652E0D0A005B44424794
:1050B0002D48455D2045726173696E672064617497
:1050C0006120736563746F7220312E2E2E0D0A00DD
:1050D0005B4442472D48455D2044617461207365FF
:1050E00063746F72203120657261736520646F6E26
:1050F000652E0D0A000000002DE9F0438BB040F250
:10510000A008C2F2000898F8001072A001F09EF802
:1051100098F8000030B17AA00BB0BDE8F04301F080
:1051200095B800BF44F2592407A900201022C5F207
:10513000FF4400F077FDDDE9076548F23610C0F660
:105140000000314622462B4601F080F8A64251D19C
:10515000002D4FD00020C8E902500120FFF774FC59
:105160000020FFF7ABF840F21834C2F20004B4F9A3
:105170000600B4F90860B4F90A50B4F90010B4F9A3
:105180000220B4F90430B4F90C70B4F90EC0B4F9CB
:1051900010E0B4F91290CDE9000602A880E8A05012
:1051A00047F6E000C0F60000CDF8189001F04EF888
:1051B00098F80100012805D147F6CA40C0F6000062
:1051C00001F044F821884FF6FF7081422CD16188AC
:1051D000814229D1A188814226D1E188814223D10F
:1051E00047F64100C0F6000001F030F80BB0BDE812
:1051F000F08300BFA64207D047F6FE60C0F600006D
:105200003146224601F022F82DB947F2DB70C0F694
:10521000000001F01BF847F60D00C0F6000001F099
:1052200015F80BB0BDE8F08308F12C00FFF734FD52
:1052300008F14800FFF730FD40F2F814C2F2000414
:10524000206840F24025C2F20005416A2868426A9F
:1052500048F28E00C0F6000000F0F8FFFCF7DEF820
:10526000FCF73CF92068416A2868426A48F260000D
:10527000C0F6000000F0EAFF08F114042046FFF732
:105280003DF92046FFF784F9032088F8000041F239
:105290000000C4F201004FF400510022FCF73CFC76
:1052A000D8F8084004EB8400400001F059FD44F2B6
:1052B0000003C4F28F03002201F0F6FB024647F61A
:1052C0007C500B46C0F60000214600F0BFFF0BB03B
:1052D000BDE8F0835B4442472D37455D2053746140
:1052E00072745265706C61792063616C6C65642CBA
:1052F000207379735F73746174653D25640D0A00D2
:105300005B4442472D37455D20537461727452658A
:10531000706C6179204541524C5920524554555288
:105320004E3A20737461746520213D2049444C45F8
:10533000210D0A00F0B587B040F2A004C2F20004CB
:105340002078012840F033816088022100282170F4
:1053500018BFFCF767F944F25920A168C5F2FF4075
:10536000CDE903010A2005904FF0FF300690542547
:1053700090A059214222FF23009500F067FF03A966
:1053800000201022002700F03FFD02A90020042287
:10539000029700F047FC9DF808209DF809309DF821
:1053A0000A509DF80B6047F6B660C0F60000002179
:1053B000CDE9005600F04AFF9DF808009DF80C105A
:1053C000884212D19DF809009DF80D1088420CD139
:1053D0009DF80A009DF80E10884206D19DF80B003A
:1053E0009DF80F10884200F0848047F68F20C0F6A9
:1053F0000000012100F02AFF002000F023FB03A998
:105400000020102200F000FD02A9002004220297D3
:1054100000F008FC9DF808209DF809309DF80A70FE
:105420009DF80B6047F6B660C0F600000121CDE99B
:10543000007600F00BFF9DF808009DF80C108842E4
:1054400014D19DF809009DF80D1088420ED19DF8E9
:105450000A009DF80E10884208D19DF80B009DF8B7
:105460000F10884202D1012140E000BF47F68F2093
:10547000C0F60000022100F0E9FE0020002500F047
:10548000E1FA03A90020102200F0BEFC02A90020CE
:105490000422029500F0C6FB9DF808209DF8093013
:1054A0009DF80A709DF80B6047F6B660C0F60000E4
:1054B0000221CDE9007600F0C9FE9DF808009DF8B4
:1054C0000C10884218D19DF809009DF80D108842F3
:1054D00012D19DF80A009DF80E1088420CD19DF85B
:1054E0000B009DF80F10884206D1022141A000F068
:1054F000ADFE002514E000BF47F6F010C0F6000036
:10550000032100F0A3FE47F62230C0F6000000F0B1
:105510009DFE47F67C10C0F6000000F097FE0125C6
:105520000120FFF791FAFFF729FB0020207041F2DC
:105530000000C4F201004FF400510122FCF7ECFA24
:10554000A16848F2FA00C0F6000000F07FFE607823
:1055500001280BD147F6EA30C0F6000000F076FED5
:1055600047F6AA30C0F6000000F070FEA4684DB106
:1055700047F61A50C0F60000214600F067FE07B05B
:10558000F0BD00BF04EB8400400001F0E9FB44F2F1
:105590000003C4F28F03002201F086FA024647F6A8
:1055A000C4100B46C0F60000214600F04FFE07B0C5
:1055B000F0BD00BF5B4442472D37455D205052454A
:1055C0002D5752495445206865616465725B302EE1
:1055D0002E335D3D307825303258203078253032FA
:1055E0005820307825303258203078253032580D08
:1055F0000A0000005B4442472D37455D2048656145
:10560000646572207772697465204F4B20616674FF
:10561000657220257520726574726965732E0D0A96
:105620000000000010B540F2A004C2F2000420788F
:10563000032818BF10BDFFF7E3F93220FCF74AF941
:10564000FFF79CFA0020207041F20000C4F2010034
:105650004FF400510122FCF75FFAD4E9022102A0C5
:10566000BDE8104000F0F2BD5B52504C5D20537419
:105670006F7070656420617420706F696E7420258E
:105680006C75202F20256C752E0D0A002DE9F04F2A
:105690008BB0FBF7C3FE0446FBF720FF40F2A00BE4
:1056A000C2F2000B0BF1140605463046FEF726FF4A
:1056B0004DF20A71C3F623413046FEF76DFF9BF8A9
:1056C0000000032814D0012840F0D180DBF8081036
:1056D000B1F5F84FC0F0CE8047F69840C0F6000014
:1056E00000F0B4FD0BB0BDE8F04FFFF723BE00BFE4
:1056F000DBE90210884280F00F81DBF8101088424D
:1057000003D301F14002904203D3FEF7D7FDDBE95A
:10571000030140F21832411AC2F2000232F92100AC
:1057200002EB810801F05AFD0646204601F056FDC5
:1057300002460BF12C003146FFF746FAB8F9021089
:105740000746084601F04AFD0646284601F046FD98
:1057500002460BF148003146FFF736FADBF80C60E1
:1057600048F21F51C5F2EB11A6FB0121142E4FF098
:1057700000090A90099704D30809322100FB11603F
:1057800050BBB8F90200B8F900A00890384601F003
:1057900009FD07460A9801F005FD8DE8B000844632
:1057A00047F66570089BC0F6000031465246CDF8BA
:1057B0000CC000F04BFDDBF80C6045F62940CCF244
:1057C0008F2070434BF652014FEA7000C0F21E5119
:1057D000884238BF4FF00109C82E02D3B9F1000F3B
:1057E00027D0DBF83800DBF8547001F021FBCDE95D
:1057F0000710384601F01CFB06900998894601F015
:10580000D1FC82460A9801F0CDFCB8F90010B8F935
:10581000022007460698CDE904128DE8010647F6F6
:10582000AF70DDE90732C0F600003146039700F0A3
:105830000DFD099801F0B6FC06460A9801F0B2FC8D
:1058400001463046FFF740F9DBF80C0045F62841E9
:10585000461C45F62940CCF28F2070434FEAB00039
:10586000C0F28F218842CBF80C6040F295800BB0DB
:10587000BDE8F08F45F6294288B2CCF28F22504322
:105880004BF651024FEA7000C0F21E52904217D8F8
:1058900040F2F810C2F2000000682246476A40F267
:1058A0004020C2F2000000682B46466A48F2BC0065
:1058B000C0F60000CDE9007600F0C8FCDBF8081067
:1058C000601B02B280EAE230A0EBE230BBF90420B8
:1058D00006B296420CDD47F6F670C0F6000022468E
:1058E0002B46ABF80460009600F0B0FCDBF8081023
:1058F0004CF6CD40CCF6CC40484349F699124FEADD
:105900007000C1F69912904222D9062E28DB41A0E0
:1059100022462B46009621E0FFF772F85020FBF755
:10592000D9FFFFF72BF900208BF8000041F20000AF
:10593000C4F201004FF400510122FCF7EDF8DBF84E
:1059400008101EA00BB0BDE8F04F00F07FBC00BFF8
:1059500047F64370C0F6000022462B4600F076FC66
:10596000BBF8020040F21C41C2F2000101EB8002D0
:1059700021F8204055800130DBF8082081B2ABF8D7
:105980000200501C4029CBF80800FFF470AF0BB0A8
:10599000BDE8F04FFBF746BEDBF82400DBF80870EB
:1059A00001F046FACDE902010FA031463A462346FE
:1059B000009500F04BFC0BB0BDE8F08F5B52504CF3
:1059C0005D205265706C617920636F6D706C6574D9
:1059D000652120546F74616C20256C7520706F698F
:1059E0006E74732E0D0A00005B52504C5D20256CC6
:1059F000752F256C7520707473207C204C3D2564B8
:105A000020523D2564207C205961773D252E31664A
:105A10000D0A00005B4442472D54325D205455521C
:105A20004E202070743D256C75204C3D256420521D
:105A30003D256420646966663D25640D0A0000000A
:105A4000FEE700002DE9F04184B040F60044C4F2C6
:105A50000104064620464FF4805100224FF0000812
:105A6000FCF75AF840F258150620C2F200058DF8EE
:105A7000070064270DF107010DF1060228460123F6
:105A80000097FCF7E3FF20464FF480510122FCF71A
:105A900043F820464FF480510022FCF73DF82020C7
:105AA0008DF809000DF1090102AA2846012300978B
:105AB000FCF7CCFF300C8DF80B000DF10B010DF154
:105AC0000A02284601230097FCF7C0FFF02000EAF5
:105AD00016208DF80D000DF10D0103AA28460123B3
