:020000040800F2
:10000000400D0020E1010008194500080D3C0008E2
:100010001545000889120008355D00080000000041
:10002000000000000000000000000000554D000826
:10003000D512000800000000514D0008594D00087D
:10004000FB010008FB010008FB010008FB010008A0
:10005000FB010008FB010008FB010008FB01000890
:10006000FB010008FB010008FB010008C9120008A1
:10007000FB010008FB010008FB010008FB01000870
:10008000FB010008FB010008FB010008FB01000860
:10009000FB010008FB010008FB010008FB01000850
:1000A000FB010008FB010008FB010008FB01000840
:1000B000FB010008FB010008FB010008FB01000830
:1000C000FB010008FB010008FB010008FB01000820
:1000D000FB010008D55B0008FB010008FB010008DC
:1000E000FB010008FB010008FB01000800F002F81A
:1000F00000F066F814A696E8000CB244B344DA4562
:1001000001D100F05DF8BAE80F000FA696E83000C4
:10011000A5EB040504EB0607AAEB0704A7F101070A
:100120004FEA15154FEA3414A4F10104AC4201D38F
:1001300000F046F813F0010F18BFFB1A43F001035B
:1001400000F001F8DBE71847087100002871000093
:10015000103A24BF78C878C1FAD8520724BF30C8F3
:1001600030C144BF04680C60704700007047000055
:100170000023002400250026103A28BF78C1FBD8B0
:10018000520728BF30C148BF0B607047662906F090
:100190002887752900F0B480632900F0B78473299B
:1001A00000F0BC84002070471FB500F0BBFC0400C9
:1001B0000020002106F04EFBE0601FBD10B510BD11
:1001C00000F0B0FD1146FFF7EFFF05F0B5FD00F0C0
:1001D000CEFD03B4FFF7F2FF03BC00F011FE0000F8
:1001E0000948804709480047FEE7FEE7FEE7FEE7CB
:1001F000FEE7FEE7FEE7FEE7FEE7FEE70448054907
:10020000054A064B704700005D4D0008ED000008F0
:1002100040070020400D0020400900204009002038
:100220000FB41CB50C0007AA009007D04142A142B0
:1002300002D32044401E01E04FF0FF30074B7B44C7
:1002400069460190069800F03CFC0020002C01D08B
:10025000009908701CBC5DF814FB0000A7080000A2
:1002600070B5044685690068C10601D5302600E0F6
:100270002026C00707D070BDD4E901213046904741
:10028000206A401C20626D1EF6D570BD70B5044614
:1002900085690078C00707D170BDD4E9012120200D
:1002A0009047206A401C20626D1EF6D570BD70B567
:1002B0000C460546012A05D02878800600D5EA6953
:1002C000002302E0012305E05B1C934202D2E05CC4
:1002D0000028F9D1A869E618C01AA861286A18444C
:1002E00028622846FFF7BCFF04E0D5E9012114F895
:1002F000010B9047B442F8D32846FFF7C7FF70BD03
:100300002DE9F0410646002410687529314616A5EE
:1003100010D0AFF30080002802DA404213A507E0B6
:1003200031688A0701D512A502E0490704D511A555
:10033000012401E0AFF3008000210A2206F1240726
:1003400009E0B0FBF2FCB0FBF2F302FB1C00303022
:1003500078541846491C0028F3D123462A463046D3
:10036000BDE8F04100F041B9000000002D000000A0
:100370002B000000200000002DE9F05F89460446B4
:100380004FF0000ADFF874B1FB44C0F820A020460B
:10039000E1688847002874D0252806D0D4E90121D7
:1003A0009047206A401C2062F1E700265F46204605
:1003B000E16888472028054607DB312D05D27819EA
:1003C00010F8200C08B10643F1E7B00701D526F07C
:1003D0000406C4F81CA00027C4F818A02A2D09D0D0
:1003E000284606F02FFA38B304EB8708303DC8F8EA
:1003F000185019E059F8041B204604EB870291615C
:10040000E1688847012F054618D1E069002820DA05
:1004100026F020061DE0D8F8180000EB800005EB60
:1004200040003038C8F818002046E1688847054683
:1004300006F008FA0028EED1012F0AD02E2D08D19F
:100440002046E16888477F1C0546022F46F02006BB
:10045000C4DBA069002803DA404246F00106A0612F
:10046000F00701D026F010066C2D0BD0682D09D0B6
:100470004C2D39D06A2D35D0742D35D07A2D33D00E
:1004800016E038E0E1682F4620468847B842054626
:1004900009D16C2F26D04FF48060E16806432046D6
:1004A0008847054604E06C2F1AD04FF4807006434D
:1004B0000DB3A5F14100192802D8203546F4006695
:1004C0004A462946204626604E46FFF75FFE80B129
:1004D00001280BD0F61D26F0070000F1080956E7A9
:1004E0004020E4E78020D8E70020D6E706F10409A1
:1004F0004DE7284652E7206ABDE8F09F5A6C00009D
:1005000040EA010310B59B070FD1042A0DD310C890
:1005100008C9121F9C42F8D020BA19BA884201D9E2
:10052000012010BD4FF0FF3010BD1AB1D30703D02A
:10053000521C07E0002010BD10F8013B11F8014BE0
:100540001B1B07D110F8013B11F8014B1B1B01D1FC
:10055000921EF1D1184610BD10B5431C02E010F8F0
:10056000011B71B18107FAD14FF0013202C88C1A18
:100570008C4314EAC211F9D0C01A0A0603D0C01E77
:1005800010BDC01A10BD0A0401D0801E10BD0902A2
:10059000FCD0401E10BD4FF0000200B5134694463B
:1005A0009646203922BFA0E80C50A0E80C50B1F1CB
:1005B0002001BFF4F7AF090728BFA0E80C5048BFDF
:1005C0000CC05DF804EB890028BF40F8042B08BF7D
:1005D000704748BF20F8022B11F0804F18BF00F879
:1005E000012B70477047704770472DE9F0470D4663
:1005F00099469246044600F124080168880604D50D
:10060000E06921F01001216000E00120A84201DD35
:10061000471B00E00027A1697A1902EB0900081ABC
:10062000A0612078C00602D42046FFF719FE0026FC
:1006300008E0D4E901211AF806009047206A401C1E
:10064000761C20624E45F4DB2078C0060AD5204691
:10065000FFF706FE06E0D4E9012130209047206A2A
:10066000401C2062381EA7F10107F4DC07E0D4E942
:10067000012118F805009047206A401C2062281EBE
:10068000A5F10105F3DC2046FFF700FE2078000607
:1006900002D50220BDE8F0870120FBE72DE9FF4FDE
:1006A0000C461E464FF0FF378BB0D2E90001DDF853
:1006B00060800A908A46C1F30A5505B93D4600217B
:1006C00008464FF00000BAF1000F00F4400005DAD0
:1006D00000EB80004FF4400101EA50004FEA9059CE
:1006E000B9F1010F00DDB9460A9850EA4A000ED070
:1006F00044F61050A5F2FF3545432F14B8F1000F12
:100700001ED07542291E1EDDC9F100021CE0B8F1A1
:10071000010F4FF0000001D0302103E0F24305E06B
:100720002154401CB042FBDB304600220021215402
:100730000B99C1F80880C1E900200FB0BDE8F08F27
:10074000BD1B6D1CDEE74A4600DA694206A800F0D0
:1007500073FA06AB93E8070003AB83E80700504643
:100760000A9905F093FC8DE80700A0F500501F38AA
:1007700000900398002D0ADD42F21F014A4608440A
:10078000002303A90390684605F0FCFE09E0A0F5EC
:1007900000504A461F38002303A90390684605F01D
:1007A00006FF8DE807000004000C03D04FF0FF3077
:1007B000410800E01046B8F1000F03D0002200927B
:1007C00015461EE0751E05D400F0B0F930326255B2
:1007D0006D1EF9D5B3460122084302D000227F1CCA
:1007E00004E02078302801D100227F1E002A0997DA
:1007F00084D01DE0112D07DA00F098F930326255EF
:100800006D1C50EA0102F5D1084302D00098C8B12E
:100810000EE00021681E05E0235C625C63542254F4
:10082000401E491C8142F7DBAB46A81B401E0990C5
:10083000002004F80B000B98099AC0F80880C0E962
:10084000002B7AE711264FF0000857E72DE9F04F0B
:1008500088460446D21D22F0070191B0D1E900017B
:10086000CDE90A0105F0DAFF02460B98C00F01D06E
:100870002D2007E02068810701D52B2002E02021F0
:1008800001EAC000032A099001D0072A05DB0346CC
:100890004146204600F090F90BE12078800601D512
:1008A000E06900E00620B8F1650F814606D0B8F196
:1008B000660F18D0B8F1670F70D131E00020B9F1A0
:1008C000110F009001DB112301E009F101030AAAD5
:1008D00001A90CA8FFF7E2FEDDE90C70002609F182
:1008E0000105834647E001204B4600904FF000474A
:1008F0000AAA01A90CA8FFF7D1FEDDE90DB00C99F9
:100900005D46002610B909F101000D18B9EB05008C
:1009100003D4C0F1FF3609F10105A5EB09002BE076
:10092000B9F1010F01DA4FF001090020B9F1110FFF
:100930000090484601DD112300E003460AAA01A900
:100940000CA8FFF7ABFEDDE90C704D460026834690
:10095000207800070AD4AB4500DA5D4601A8012DD6
:1009600004DD411911F8011C302907D04F4502DA86
:1009700017F1040F04DA012082460FE06D1EEEE746
:10098000002F02DCED1B3E4403E0781CA84200DD92
:100990007D1CB81B00F1010A4FF0004720780007CA
:1009A00003D4AA4501DB4FF0FF3A0021B7F1004F15
:1009B0000DF143088DF8431024D002202B23002F83
:1009C00001DA7F422D230A21021EA0F1010000DC82
:1009D0005FB197FBF1FC97FBF1F201FB1C7C174622
:1009E0000CF1300C08F801CDEEE7A8F1010003701E
:1009F0002188090501D5452100E06521A0F1010804
:100A000000F8011C09980FA9A1EB0807FF1D00B110
:100A10000120411901EBEA70A1693844081A401E0F
:100A2000A0612078C00602D42046FFF719FC09987F
:100A300028B1D4E901219047206A401C2062207827
:100A4000C00622D52046FFF70BFC1EE0002E04DB7B
:100A5000B34502DD01A8805D00E03020D4E901212A
:100A60009047206A401C2062761CAAF101005FEAD0
:100A7000000A0AD100F056F8C0680168405CD4E969
:100A800001219047206A401C2062281EA5F1010523
:100A9000DCDC07E0D4E9012118F8010B9047206A5B
:100AA000401C2062381EA7F10107F3DC2046FFF747
:100AB000EDFB032011B041E601694A1C0261087890
:100AC000704700B58FB0CDE901310021059105498E
:100AD0007944CDE9031011466846FFF74DFC0FB08D
:100AE00000BD0000E5FFFFFFD1E900239A4202D2DA
:100AF000531C0B601070704710B5436913B1AFF30E
:100B0000008001E0FFF7D3FB012010BD127800F157
:100B100024010A7000224A700122EDE711684FF0AB
:100B2000FF32E9E7004870474800002030B5B0F1D7
:100B30000A0271F100034FEA900E4EEA817EB0EB9B
:100B40000E0061EB91014FEA101E4EEA017E10EBA0
:100B50000E0041EB11114FEA102E4EEA016E10EB20
:100B60000E0041EB11214FEA104E4EEA014E10EB00
:100B70000E0041EB1141401841F100014FEAD00055
:100B800040EA41704FEAD1014FEA810444EA90748F
:100B900010EB800544EB01046D1944EB0404521B77
:100BA000A3414FF0000348BF0A3200D530BD401CBE
:100BB00041F1000130BD00002DE9F0411F4604461F
:100BC00003260168072A01F4006004DB08B116A5BA
:100BD00005E016A503E008B115A500E015A521F074
:100BE00010002060A069C01EA0610FB1401EA0616E
:100BF0002046FFF735FB4FB1D4E901213846904735
:100C0000206A401C2062C01C206206E0206AFAE7CD
:100C1000D4E9012115F8010B9047761EF8D2204641
:100C2000FFF734FBBDE8F0814E414E006E616E006F
:100C3000494E4600696E66002DE9F047814616462A
:100C40008AB0354878440DC88DE80D0032487844A4
:100C5000801C03AC0DC884E80D0041F69B300844AD
:100C6000372190FBF1F290FBF1F5A5F1800501FB36
:100C700012041B3C02D56442012000E00020DFF892
:100C800098A080460027FA44AAF1BE0A0EE0E007C9
:100C90000AD03246684607EB470101230AEB81017F
:100CA00005F085FC8DE8070064107F1C002CEED158
:100CB000194F7F44AE3F19E0E80715D007EB041049
:100CC0000DF1180A90E80E008AE80E00C068F042A4
:100CD00001D1981908903246012306A903A805F00E
:100CE00066FC03AB83E807006D10641C002DE3D1A4
:100CF0004FF0010332466946B8F1000F03A802D055
:100D000005F040FC01E005F052FCC9E90001C9F81A
:100D100008200AB0BDE8F0872C6400000048704746
:100D2000280000207546FFF7F9FFAE46050069462A
:100D3000534620F00700854618B020B5FFF75EFA4D
:100D4000BDE820404FF000064FF000074FF00008CC
:100D50004FF0000BAC46ACE8C009ACE8C009ACE809
:100D6000C009ACE8C00921F007018D46704710B5F5
:100D70000446AFF300802046BDE81040FFF729BAD3
:100D80004FF0013C50F8042B51F8043B9A4221D11A
:100D9000A2EB0C03934313EACC1317D150F8042BA6
:100DA00051F8043B9A4215D1A2EB0C03934313EA8A
:100DB000CC130BD150F8042B51F8043B9A4209D1C3
:100DC000A2EB0C03934313EACC13DBD04FF00000EB
:100DD000704700BFD01A01BAB1FA81F101F01801D1
:100DE00022FA01F0CB40DBB2C0B2C01AC1F120013F
:100DF0002CFA01F3D11A914311EAC311E6D17047DD
:100E000001491820ABBEFEE7260002007047000033
:100E10000146406A826A12F0500F03D0006A026BEA
:100E2000084610470168826A42F40072826289684B
:100E300001F46021B1F5602F01D1017B11B100F007
:100E40000DBB00BF816A21F480718162816AC9048F
:100E500048BF00F003BB816A41F00101816200F0EC
:100E6000FDBA0000406A816A41F040018162C16AB6
:100E700041F00401C16200F0F5BA0000406A00F0E0
:100E8000EFBA0000B0B582B004460020019021689E
:100E90008A68D2074BD1886840F00100886040F230
:100EA0002400C2F2000000684DF68361C4F21B31D9
:100EB000A0FB0101880C01900198A0B101980138B4
:100EC0000190019878B1019801380190019850B1D2
:100ED000019801380190019828B1019801380190DA
:100EE00001980028EAD100F05DFF21688968C907F0
:100EF0001CD1054603E000BF8068C00716D100F092
:100F000051FF411B20680329F6D38168C907F3D13B
:100F1000A06A40F01000A062E06A40F00100E062C8
:100F2000002084F82400012002B0B0BD002002B0EF
:100F3000B0BD000040F29400C2F20000007870479B
:100F400040F29400C2F200000121017000214170C2
:100F50008170C170C0E90111C0E90311C0E9051138
:100F6000C0E9071170470000B0B540F29405C2F225
:100F700000052879002847D0A888462842D02C1D93
:100F800028A120460822FFF7BBFAD8B3A888422838
:100F90003CD026A120460522FFF7B2FAB0B3A888BC
:100FA0004C2835D023A120460522FFF7A9FA78B3B3
:100FB000A88852282ED021A120460622FFF7A0FAA9
:100FC00040B3A888532827D01EA120460522FFF74A
:100FD00097FA08B3A888412820D01CA120460522F2
:100FE000FFF78EFAD0B1A8884D2819D019A1204654
:100FF0000722FFF785FA01460020002908BF0720D5
:10100000B0BD00BF0120B0BD0020B0BD0220B0BD0A
:101010000320B0BD0420B0BD0520B0BD0620B0BD8A
:101020000720B0BD464F5257415244004241434B06
:10103000000000004C45465400000000524947485B
:101040005400000053544F50000000004155544FCD
:10105000000000004D414E55414C0000704700001B
:1010600070B588B040F29406C2F20006F1780446EA
:10107000C1B1A4F120006D465F2823463FA2284657
:101080004FF0200128BF2E23FFF7CAF82846FFF7AC
:1010900063FA82B240F2F460C2F20000294664238F
:1010A00002F0E8FC0D2C2FD00A2C25D1B0780021BD
:1010B00030440171FFF758FFF1780446A9B147F2B7
:1010C00038226D46331DC0F6000228462021FFF766
:1010D000A7F82846FFF740FA82B240F2F460C2F265
:1010E00000002946642302F0C5FC94B1062C0DD003
:1010F000072C0DD101200AE0B0781E2809D8411C28
:10110000B17031180C7188B108B070BD002030701A
:1011100074700020B070C6E90100C6E90300C6E99A
:101120000500C6E9070008B070BD00BFFFF71CFF4F
:101130000028E9D0062803D0072803D1012100E0C8
:10114000002131707070F0780028E2D047F2382228
:101150006C46331DC0F6000220462021FFF760F8E0
:101160002046FFF7F9F982B240F2F460C2F20000C3
:101170002146642302F07EFCCBE700BF52583A259B
:10118000630D0A0010B50138C0B206289ABF0DA140
:1011900051F8204007A42046FFF7DEF982B240F262
:1011A000F460C2F2000021466423BDE8104002F062
:1011B00061BC00BF41434B3A554E4B4E4F574E0D0D
:1011C0000A00000000720008F871000808720008A8
:1011D00028720008307200081D72000810720008A2
:1011E000002808BF704710B50446FFF7B5F982B272
:1011F00040F2F460C2F2000021466423BDE81040D2
:1012000002F038BC40F29401C2F20001002818BF7D
:101210000120C8707047000001289EBF40F2940171
:10122000C2F2000108707047F0B595B00746184645
:1012300014460D4605F02AFBCDE9005405AC0E46D8
:1012400002900AA2204640213B460396FEF7E8FFA3
:101250002046FFF781F982B240F2F460C2F200004A
:101260002146642302F006FC15B0F0BD4C3A25750A
:101270002C4D3A25752C523A25752C453A252B2EA6
:1012800033660D0A00000000FEE7000040F6004053
:10129000C4F201004FF40041012200F07DBD0000C6
:1012A00040F60040C4F201004FF40041012200F07A
:1012B00073BD000040F60040C4F201004FF400414D
:1012C000002200F069BD000040F23C50C2F2000074
:1012D00000F0DEBA70470000EFF3108072B600BF76
:1012E000FEE7000010B581B00022009290F82420A3
:1012F000012A03D10221084601B010BD4B6801222A
:10130000062B80F8242033D8D0F800C003EB8303E9
:101310005A1F1F23DCF834E003FA02F40B682EEAAC
:10132000040403FA02F22243CCF83420092B03EB25
:10133000430249D9DCF80CE01E3A0724896894403E
:101340002EEA0404914023F001022143102ACCF834
:101350000C1043D142F20841C4F20101A1F108028C
:10136000944543D0816A41F020018162012136E039
:10137000D0F800C00C2B03EB830213D8233A1F23B1
:10138000DCF830E003FA02F40B682EEA040403FAF6
:1013900002F22243CCF83020092B03EB4302C9D8D8
:1013A00012E000BF413A1F23DCF82CE003FA02F4FC
:1013B0000B682EEA040403FA02F22243CCF82C2034
:1013C000092B03EB4302B5D8DCF8103007248968F9
:1013D0009440A34391401943CCF8101000210022FF
:1013E00080F82420084601B010BD00BF0A68120230
:1013F000F4D40A68102B42F400020A60EED140F2E5
:101400002401C2F2000109684DF68362C4F21B3266
:10141000A1FB0212910C01EB81014900009100999E
:101420000029DBD000990139009100990029D5D01D
:1014300000990139009100990029CFD00099013914
:10144000009100990029C9D00099013900910099B3
:1014500000294FF00001E5D1C1E70000704700000E
:101460007047000070470000002804BF012070474B
:10147000B0B50446806A28B121688868C0070CD1DD
:1014800015E000BF0020E06284F82400204600F050
:1014900097F821688868C00709D0886820F00100A3
:1014A000886000F07FFC21688A68D20726D1A06A94
:1014B000C0063AD4A06A41F2021290430230A06200
:1014C000E069D4E9013240EA030C531EB3FA83F316
:1014D0005D091346B2F5807F18BF2B02207D257B66
:1014E00001284CEA45002CD135B3A56A45F020050A
:1014F000A562E56A45F00105E56222E0054602E0E5
:101500008868C007D3D000F04DFC401B2168032839
:10151000F6D38868C007F3D0A06A40F01000A0623C
:10152000E06A40F00100E062A06AA06A40F01000AA
:10153000A0620120B0BD00BFA56903EB4533A3F550
:10154000C0534D68B2F5807F25F4694543EA050331
:101550004B608B684FF2FD75CFF6E17503EA05032A
:1015600043EA00038B6001D0012A07D122690023DE
:10157000CFF6F07303EB025201E000BF0022CB6A0A
:1015800023F470031A43CA62896840F6FE62CFF6FC
:101590001F721140814207D10020E062A16A01223E
:1015A00062F30101A162B0BDA06A40F0100020F01A
:1015B0000200A062E06A40F00100E0620120B0BDDC
:1015C00070B586B0044640F60000C4F20100216800
:1015D00000F5E052002691420596CDE90366029699
:1015E00002D006B070BD00BF41F21801C4F2020182
:1015F0000A6842F400720A600A6802F400720192FA
:10160000019A0A6842F004020A60096801F00401C4
:10161000019101991C2102910321039102A900F07B
:10162000ADFA40F23C550820C2F20005C4F20200B7
:101630004FF48072C5E9000605F1100080214FF4D7
:1016400080634FF0200C80E80C102846C5E9026149
:10165000EE6100F0EDF9002818BFFFF73DFE2562AE
:101660006C6206B070BD0000F0B581B0036842F650
:101670000006C4F20106B34205D042F20046C4F2AD
:101680000106B3420AD142F20443C4F201031B68CB
:1016900013F4702F02D0012001B0F0BD90F8243077
:1016A000012B03D1022001B0F0BD00BF0D46012186
:1016B000174680F824100646FFF7E4FB30B10020FF
:1016C00086F82400012001B0F0BD00BF42F20440C2
:1016D0003168B36AC4F20100324640F60176B34382
:1016E00000F57F7603F58073B142936244D0906A2F
:1016F00020F4801090624868400504D5906A012368
:1017000063F30D309062936A0020DB044FF0000316
:1017100044BFD36A23F00603D36282F82400106A20
:1017200040F6116340F67D66C0F60003C0F6000681
:1017300040F66564C0F60004C0E90A366FF00203A3
:1017400004630B608B68144643F480738B604C31E8
:101750002A463B4600F0AEF92068816801F4602219
:101760008168B2F5602F0CBF41F4A00141F48011F3
:101770008160002001B0F0BD036813F4702FB6D073
:10178000936A43F48013936200684005B6D4BAE7C5
:10179000014690F82100022816D10868D1E90FC34C
:1017A000026822F00E020260026822F0010202606A
:1017B000012000FA03F2CCF8042081F82100002077
:1017C000002281F820207047042088630120002235
:1017D00081F820207047000090F82110022923D1C1
:1017E000026840F2040C1168C4F2020C21F00E01F0
:1017F000116013682F21C4F202018A4223F0010311
:10180000136015DD3023C4F202039A421CD0442336
:10181000C4F202039A421BD05823C4F202039A4234
:101820001CD14FF4803321E00421816301207047F3
:101830000823C4F202039A420ED01C23C4F202030E
:101840009A420BD1102311E04FF480730EE000BFD9
:101850004FF480530AE000BF012307E00CF1680158
:101860004FF080738A4208BF4FF480130121CCF8F7
:10187000003080F82110416B0022002980F82020E0
:1018800004BF0020704780B58847002080BD00005D
:1018900010B5D0E90FCE0168DCF800300A6823FAF1
:1018A0000EF35C072AD512F0040427D00A689206CA
:1018B00003D40A6822F004020A602F22C4F2020252
:1018C000914240F20402C4F202025BDD3023C4F212
:1018D0000203994272D04423C4F20203994273D0A6
:1018E0005823C4F20203994240F07A804FF48023D7
:1018F0001360C16A002940F098806FE09C0727D5EB
:1019000012F0020424D00A68920606D40A6822F073
:101910000A020A60012280F821202F22C4F202026A
:10192000914240F20402C4F202023BDD3023C4F2D1
:101930000203994260D04423C4F2020399425FD06B
:101940005823C4F20203994260D14FF4003365E09A
:101950001B0743D512F0080208BF10BD0A6822F029
:101960000E020A60012101FA0EF2CCF80420816314
:1019700080F82110016B0022002980F8202054D12A
:101980002CE000BF0823C4F20203994222D01C239A
:10199000C4F20203994223D140231360C16A002993
:1019A00043D11BE00823C4F2020399422CD01C232C
:1019B000C4F20203994229D120232FE04FF480631F
:1019C0001360C16A89BB09E04FF480431360C16AA8
:1019D00059BB03E004231360C16A31BB10BD00BFD3
:1019E00002F168044FF08063A14208BF4FF4800306
:1019F0001360C16AC9B9F1E74FF400730EE000BF8C
:101A00004FF400530AE000BF022307E002F168042C
:101A10004FF00073A14208BF4FF400131360816AB6
:101A20000022002980F82020D8D0BDE810400847C7
:101A3000014600284FF0010008BF70472DE9F04330
:101A4000D1F800C04FF6F873CBF6FD734CF6CD42DB
:101A50006344CCF6CC42A3FB02236FF0030202EAFC
:101A600093020023C4F2020301F10C08C1E90F3212
:101A70000222D1E9019E98E8F00181F82120DCF8EA
:101A8000002043F6F0739A4342EA090242EA0E024A
:101A900022432A4332433A4342EA0802CCF8002068
:101AA00000228A6381F8210081F820200020BDE80F
:101AB000F043704790F820C0BCF1010F04BF022032
:101AC0007047F0B54FF0010E80F820E090F821C08B
:101AD000BCF1010F26D14FF0020C80F821C04FF06D
:101AE000000CC0F838C0D0E900C4C56AC66BDCF889
:101AF0000070102C27F00107CCF80070006C0EFA73
:101B000000F070600846CCF8043004BF10460A4666
:101B1000CCF80800CCF80C20DCF8000045B140F00F
:101B20000E000DE0002180F820100220F0BD00BF63
:101B300020F00400CCF80000DCF8000040F00A00BF
:101B4000CCF80000DCF8000040F00100CCF8000008
:101B50000020F0BDB0B5044600F024F9054640F27F
:101B60000000C2F200000078611C18BF044400BFEE
:101B700000F018F9401BA042FAD3B0BD2DE9F04F98
:101B800082B00E68002E00F0FD8041F20042C4F2E7
:101B90000102042340F2004E904208BF03234FF697
:101BA000FF7CC4F2010E009300240123C1F2100C4B
:101BB0004FF0000A4FF000094BE000BF41F2000275
:101BC000C4F20102009F904208BF022704F00C03F8
:101BD0000F229A402BEA020207FA03F34FEA9A0512
:101BE0001A4346F825204E6840F20C45F202DEF812
:101BF000082054BF22EA080242EA0802C4F20105A2
:101C0000CEF808202A68B30254BF22EA080242EA4A
:101C100008022A60B303DEF8042054BF22EA080257
:101C200042EA0802F303CEF80420DEF800204FF069
:101C3000010354BF22EA080242EA0802CEF800205B
:101C40000E680AF1010A36FA0AF204F1040400F0FF
:101C5000998003FA0AFB16EA0B08F1D04E68664534
:101C600012DC122E56D8DFE806F0350B4D495555DB
:101C7000555555555555555555555545510000BF68
:101C8000D1F80C9046E000BF4FF6FF72C1F221027E
:101C900096420FDC0022C1F2110296421AD00022B5
:101CA000C1F21202964215D00022C1F221029642E0
:101CB00010D02FE00022C1F2220296420AD0002268
:101CC000C1F23102964205D00022C1F232029642A0
:101CD00020D100BF8A684AB1012A14BFC0F814B0ED
:101CE000C0F810B04FF0080914E000BF4FF004092D
:101CF00010E000BFCA6802F104090BE04FF00009D0
:101D000008E000BFCA6802F1080903E0CA6802F1EE
:101D10000C0900BF02462646B8F5807F24BF043276
:101D2000203E17680F25B54027EA050509FA06F693
:101D300035431560CA79D2067FF582AF41F21803A8
:101D4000C4F202031A68AEF57E7642F001021A6010
:101D50001A6802F001020192019A2AF0030256F871
:101D600002B040F60002C4F20102904208D040F6F0
:101D70000042C4F2010290427FF420AF012725E720
:101D8000002723E702B0BDE8F08F0000806808401C
:101D900018BF012070470000002A08BF0904016134
:101DA0007047000040F23C70C2F2000000687047CB
:101DB000002804BF01207047F0B581B0044690F8B8
:101DC0003D0028B9002084F83C00204600F090F93E
:101DD000242084F83D002068016821F001010160A1
:101DE000016841F400410160016821F40041016093
:101DF00000F0DCFB636848F2A16CC0F2010C40F615
:101E00000011C0F23D0163453CBF48F28041C0F281
:101E10001E01884202D2012001B0F0BD4DF683615F
:101E2000C4F21B31A0FB01122168970CD1F804E029
:101E30004FF496762EF03F0545EA92454D60774384
:101E400048F638160D6AC0F24106A7FB067625F063
:101E50003F07634538BF960C721C3A430A62CA6951
:101E600048F2A0664CF6FF77C0F20106B34222EAC0
:101E700007020BD801385B00B0FBF3F001306FF3C1
:101E80001F30042898BF04201BE000BFA76801385A
:101E900057B119277B43B0FBF3F001306FF31F30CC
:101EA00070B100F5804007E003EB4303B0FBF3F0B3
:101EB00001306FF31F3018B100F5004001E000BFA2
:101EC00001201043C8610868D4E9072320F0C0004E
:101ED000104318430860886848F2FF3204F10C0789
:101EE00090438CCF18431043A6698860C86820F0DF
:101EF000FF0038433043C860086840F001000860C4
:101F000000202021206484F83D10206384F83E00E6
:101F100001B0F0BD2DE9F04383B01E461746894657
:101F20000446FFF73FFF94F83D10202924D10546D1
:101F3000206800BF816989071AD5FFF733FF411B6D
:101F400020681A29F6D381698907F3D5002020215A
:101F5000206384F83D1084F83E00216C41F020019C
:101F6000216484F83C00022003B0BDE8F08300BF88
:101F700094F83C10012903D1022003B0BDE8F0839E
:101F8000012184F83C100168C90703D1016841F0C0
:101F900001010160016840F2020821F40061016062
:101FA000212184F83D10102184F83E100021216485
:101FB00067626685618DC0F201082185A8F1021172
:101FC000E162E16A0A9E11F5803F18BF01291DD127
:101FD000016841F48071016020464FF00111002238
:101FE0003346009501F072FE50B120680068C005CC
:101FF00044BF4FF400702064012003B0BDE8F083BB
:102000002069B0F5804F07D1FE2015E00829DFD008
:10201000216B1229DCD0DFE7062000EAD910216805
:10202000F030086108F10601204632462B4601F0E7
:1020300033FF0028E0D1FF20216800EA0900086191
:102040002046414632462B4601F026FF0028D3D1D8
:1020500000200290206841690291806902900298F4
:1020600006E000BF204631462A4601F0D1FD18BBEC
:10207000208D68B3204631462A4601F079FFD8B951
:10208000606A2168024612F8013B0B616262628D50
:10209000013A6285228D531E23854F697F07E1D562
:1020A0001B04DFD0437802300B616062608D013821
:1020B0006085901E2085D5E7206C04289CD120687F
:1020C000016841F400710160012003B0BDE8F083B4
:1020D0002068016841F400710160202084F83D000F
:1020E000002084F83E0084F83C0003B0BDE8F08393
:1020F00010B586B0006845F20041C4F20001884284
:102100004FF00000CDE90400CDE9020002D006B096
:1021100010BD00BF41F21804C4F20204206802A9F5
:1021200040F008002060206800F00800019001984D
:102130004FF440700290122003900320059040F667
:102140000040C4F20100FFF719FD0420C4F20100B1
:10215000016841F0E06141F002010160606840F413
:1021600000106060606800F400100190019806B0F3
:1021700010BD000040F2000040F23C71C2F20000CD
:10218000C2F2000100780A6810440860704700003D
:1021900080B542F20000C4F20200016841F0100173
:1021A0000160032000F08CF80F2000F005F800F02B
:1021B00027F8002080BD000070B540F20006C2F292
:1021C000000640F224013278C2F200014FF47A7323
:1021D0000968B3FBF2F20446B1FBF2F1084600F0E5
:1021E0000DFC0F2C4FF0010508D838B94FF0FF3027
:1021F00021460022002500F037F87460284670BDA3
:1022000082B041F21800C4F202000168022241F0DB
:1022100001010160016801F001010191019941682A
:1022200041F080514160406800F08050009000987B
:102230000420C4F20100016862F31A61016002B077
:1022400070470000002848BF704700F01F010122BE
:1022500002FA01F11C2202EAD0004EF20012CEF284
:10226000000281507047000010B54EF60C5CCEF2B3
:10227000000CDCF80030C3F3022E8EF00704042CAF
:1022800028BF0424BEF103034FF0FF3E0EFA04F40E
:1022900038BF0023A14399400EFA03F39A43114338
:1022A00000F00F0200F160430901043A03F56443B2
:1022B0006244002848BF02F10C03197010BD0000F1
:1022C0004EF60C51CEF200010A684FF6FF031A4099
:1022D00060F30A2242F0806040F0FD7008607047B1
:1022E0002DE9F04182B00446007841F21C06C00797
:1022F000C4F202064AD030685FEAC00808D43068E9
:1023000040F080503060306800F0805001900198BB
:1023100047F20007C4F200073868C00512D43868D5
:1023200040F480703860FFF73DFD05463868C00511
:1023300008D4FFF737FD401B6428F7D9032002B00B
:10234000BDE8F081706810F4407012D0616801F44B
:10235000407188420DD0706840F24042C4F242227F
:10236000012320F4407113600023C00713607160E3
:1023700026D17068616820F440700843B8F1000FFE
:10238000706003D4306820F080503060206881078E
:1023900007D556F8181CA26821F44041114346F8AD
:1023A000181CC00607D556F8180CE16820F4800008
:1023B000084346F8180C002002B0BDE8F08100BFC9
:1023C000FFF7F0FC054641F2883700BF70688007D0
:1023D000CFD4FFF7E7FC401BB8424FF00300F5D91C
:1023E000EAE70000002804BF012070472DE9F04310
:1023F00081B042F20008C4F202080446D8F8000096
:102400000D4600F0070088420CD2D8F8000020F0FA
:1024100007002843C8F80000D8F8000000F00700C3
:10242000A8426CD1206841F204098107C4F2020974
:1024300017D5410705D5D9F8001041F4E061C9F876
:102440000010010705D5D9F8001041F46051C9F812
:102450000010D9F80010A26821F0F0011143C9F86A
:102460000010C00742D1D8F8000000F00700A842D1
:102470000CD9D8F8000020F007002843C8F8000065
:10248000D8F8000000F00700A84238D120684107C2
:1024900007D5D9F80010E26821F4E0611143C9F8CA
:1024A0000010000708D5D9F80000216920F4605019
:1024B00040EAC100C9F80000D9F8002002F00C0081
:1024C000082841F20020C0F27A004DD147F2A6035D
:1024D000C2F38341C0F60003595CD20338D440F6FE
:1024E0000010C0F23D0048433EE000BF606859F86C
:1024F000041C022808D0012826D1890306D4012013
:1025000001B0BDE8F08300BF8901F8D5D9F800100B
:1025100021F003010843C9F80000FFF743FC064619
:1025200041F28837D9F80000616800F00C00B0EB88
:10253000810F98D0FFF736FC801BB842F2D90320F8
:1025400001B0BDE8F08300BF8907D8D5DEE700BF42
:10255000D9F8002047F2A403C2F34042C0F60003BA
:102560009A5C4843B0FBF2F0D9F8001047F28C02B5
:10257000C1F30311C0F60002515C40F2240220FABC
:1025800001F140F20400C2F200000068C2F2000251
:102590001160FFF711FE002001B0BDE8F0830000DC
:1025A00040F22400C2F200000068704740F22400AC
:1025B00041F20401C2F20000C4F20201006809689D
:1025C00047F29C02C1F30221C0F60002515CC840F0
:1025D0007047000040F2240041F20401C2F2000002
:1025E000C4F202010068096847F29C02C1F3C221EB
:1025F000C0F60002515CC84070470000002804BFCC
:10260000012070472DE9F04182B00446007841F284
:102610000006C007C4F202060CD0706800F00C007F
:10262000042840F081803068800303D5606800286A
:1026300000F04681207880071BD5706810F00C0FE1
:1026400009D0706800F00C00082840F0878070689E
:10265000C00300F183803068800703D5206901281A
:1026600040F02E813068616920F0F80040EAC10036
:1026700030602078000713D4207840072CD4E56917
:10268000002D00F01881706800F00C00082840F060
:10269000A780012D40F00481012002B0BDE8F08147
:1026A000A069002800F084800020C4F242200121AB
:1026B000C0F88014FFF776FB054600BF706A8007FC
:1026C00000F1B280FFF76EFB401B0228F6D9032011
:1026D00002B0BDE8F08100BFF0695FEAC00808D42D
:1026E000F06940F08050F061F06900F08050009097
:1026F000009847F20007C4F200073868C00549D4C3
:10270000386840F480703860FFF74CFB054600BF26
:102710003868C0053ED4FFF745FB401B6428F7D955
:10272000032002B0BDE8F081706800F00C000828BA
:1027300003D17068C0033FF576AF61683068002947
:1027400000F00C81B1F5A02F00F00081B1F5803FC1
:1027500040F01A8140F480301CE100BF206900285D
:1027600040F20000C4F2422000F0888001210160A4
:10277000FFF718FB054600BF306880073FF572AFD2
:10278000FFF710FB401B0228F6D9032002B0BDE87A
:10279000F08100BFE168306A002900F09D800529C2
:1027A00000F09280012940F0AF8040F00100B1E0DC
:1027B0000020C4F242200021C0F88014FFF7F2FA92
:1027C000054600BF706A80077FF556AFFFF7EAFA4B
:1027D000401B0228F6D9032002B0BDE8F08100BFFB
:1027E0000027C4F2422700203866FFF7DBFA022DEB
:1027F00005460DD13068800140F1DE80FFF7D2FA46
:10280000401B02284FF00300F4D902B0BDE8F0816C
:10281000306880014FD5FFF7C5FA401B02284FF002
:102820000300F5D9F1E700BF40F22400C2F2000036
:10283000006844F6D351C1F26201A0FB0101480ACD
:10284000019000BF00BF0198411E002801913FF494
:1028500013AF00BF0198411E002801913FF40CAF57
:1028600000BF0198411E002801913FF405AF00BF51
:102870000198411E00280191E4D1FDE6002101608C
:10288000FFF790FA054600BF306880077FF5F1AE8C
:10289000FFF788FA401B02284FF00300F4D9B4E791
:1028A0007068216A00F480328A4209D1616A00F4BA
:1028B0007010884204D1002002B0BDE8F08100BF52
:1028C000012002B0BDE8F08140F004003062306ABF
:1028D00040F001001EE000BF20F001003062306ACD
:1028E00020F004003062FFF75DFA054641F28837B8
:1028F000306A800720D5FFF755FA401BB8424FF0E9
:102900000300F5D981E700BF20F001003062306A92
:1029100020F004003062FFF745FA054641F288379F
:10292000306A800708D4FFF73DFA401BB842F7D958
:10293000032002B0BDE8F081B8F1000F3FF59FAE73
:10294000F06920F08050F06199E600BF40F48020EB
:102950003060306840F480301CE000BF20F48030EC
:102960003060306820F480203060FFF71BFA0546A5
:10297000306880037FF55EAEFFF714FA401B6428D1
:102980004FF00300F4D940E720F480303060306825
:1029900020F480203060FFF705FA05463068800398
:1029A0003FF548AEFFF7FEF9401B6428F6D9032037
:1029B00002B0BDE8F08100BF206AB0F5803F05D1CC
:1029C0007168A26821F40031114371607168626A14
:1029D00021F4741111430843706001203866FFF739
:1029E000E1F90446306880013FF565AFFFF7DAF999
:1029F000001B02284FF00300F4D906E7411E002017
:102A0000B0EB116F1CBF012070474EF21002CEF2E6
:102A1000000251604EF62351CEF20001F0230B70FC
:102A2000072190601160704790F83C20012A04BF94
:102A300002207047B0B501F108053CCDD1E900CEC8
:102A400023F47C5322F470521A432EF4F0431A43B9
:102A50002CF4E0431A4324F4C0431A432A43C969BF
:102A600022F48042036811435964002180F83C102D
:102A70000020B0BD90F83C20012A4FF0020236D071
:102A800010B580F83D200268D2F804E0D2F808C002
:102A90000C682EF07003234340F2FF74C4F200046C
:102AA000A24253600ADCB2F1804F13D040F20043DF
:102AB000C4F200039A420DD011E000BF42F6004379
:102AC000C4F201039A4205D040F60003C4F20003A9
:102AD0009A4204D149682CF0800319439160012186
:102AE000002280F83D1080F83C20BDE810401046E0
:102AF00070470000002804BF012070472DE9F04F07
:102B000081B090F83D2042B9002280F83C20044674
:102B10000D4600F09DF829462046022280F83D200F
:102B2000026844F20705936842F6004CAB43936099
:102B300040F2FF731468C4F200039A42C4F2010C1D
:102B400014DCB2F1804F19D040F20045C4F2000508
:102B5000AA4213D09A4217DCB2F1804F1CD040F247
:102B60000043C4F200039A4216D01AE0624505D031
:102B700040F60005C4F20005AA42EBD1856824F0B6
:102B800070042C439A42E7DD624505D040F600030D
:102B9000C4F200039A4204D1036924F4407543EA65
:102BA000050424F080038469D0F804E0C568234359
:102BB00062451360D562C2F828E002D14369CCF8BF
:102BC00030304FF0010EC2F814E01569ED0703D064
:102BD000156925F00105156195689469D2F820C042
:102BE000D1E90038D1E9027B43EA050A8D694FF645
:102BF000FF7924EA090447EA05254FF6FC47BD435F
:102C0000D1E9077644EA0B040B692C4344EA072414
:102C10002CF02207496944EA031347EA080743EA0C
:102C2000063347EA0111C2F808A09361116280F8E7
:102C300046E080F83EE080F83FE080F842E080F82F
:102C400043E080F83DE0002001B0BDE8F08F0000D7
:102C500080B586B0006840F60001C4F200018842E9
:102C60004FF00001CDE90411CDE902111ED0B0F101
:102C7000804F3FD141F21800C4F20200416841F098
:102C800001014160416801F0010101910199016870
:102C900041F0040101600068032100F0040001908C
:102CA000019840F60000C4F201001CE041F2180057
:102CB000C4F20200416841F004014160416801F042
:102CC000040101910199016841F008010160006867
:102CD000C02100F008000190019840F60000C4F205
:102CE000010000F5806002910021CDE9031102A9E5
:102CF000FEF744FF06B080BD80B590F83E2090F806
:102D00003F3090F842E090F843C004290AD0B9B9A6
:102D1000012A4FF0010208BFBEF1010F34D0104666
:102D200080BD00BF012B4FF0010208BFBCF1010FB5
:102D3000F5D1022180F83F1080F8431000681EE0B2
:102D4000012A4FF0010208BF012BE8D1BEF1010FAB
:102D5000E5D1BCF1010FE2D1022280F83E2080F8DB
:102D60003F2080F8422080F8432091B10068016A3A
:102D700021F001010162016A41F0010101621021AB
:102D80006FF0100209E000BF022180F83E1080F8C9
:102D90004210006801216FF00102036A1A400262CA
:102DA000026A114301620168002241F001010160E1
:102DB000104680BD90F83C30012B04BF02207047C4
:102DC0004FEAB202032A00F2F1802DE9F043DFE876
:102DD00002F003A53B7500BF036842F600461D6A7A
:102DE0001A6AC4F2010622F001021A621A465C68ED
:102DF00052F818CFB3428E68D1F800E025F00205F2
:102E000045EA06050CD1CE68D1E9057824F4407472
:102E100025F00C0526F004063C43354344EA08043B
:102E20002CF0730747EA0E075C609F614F680969E1
:102E30005F631D629F6947F008079F619F6927F0E4
:102E400004079F61A6E000BF036842F600461D6AC2
:102E50001A6AC4F2010622F480721A621A46D3F882
:102E600004C052F81CEFB3428E680C6825F400755C
:102E700045EA06250FD1CE68D1E90598360240F221
:102E8000FF4725F44065BE4335432CF4405748EADC
:102E9000090647EA061C2EF073072743C3F804C04F
:102EA000DF614F680969DF631D62DF6947F008076A
:102EB000DF61DF6927F00407DF616BE0036842F63A
:102EC0000047D3F820C01A6AC4F2010722F48052E6
:102ED0001A621A465C6852F81C5FD1F800E08E68EE
:102EE000BB4204D14F6924F4804444EA87142CF493
:102EF000005747EA063725F4E64646EA0E265C60A8
:102F0000DE614E6809691E641F62DF6947F400676D
:102F1000DF61DF6927F48067DF613AE0036842F62A
:102F200000461D6A1A6AC4F2010622F010021A62F3
:102F30001A46D3F804C052F8184FB3428E68D1F83D
:102F400000E025F0200545EA06150FD1CE68D1E94D
:102F500005986FF0400725F0C00507EA06163543CF
:102F60002CF4406748EA090647EA860C24F4E64454
:102F700044EA0E27C3F804C09F614F6809699F6344
:102F80001D629F6947F400679F619F6927F480670E
:102F90009F6109021368194311600021BDE8F043E5
:102FA000002280F83C200846704700BF0121002223
:102FB00080F83C2008467047002804BF0120704775
:102FC00010B590F83D1031B9002180F83C1004464E
:102FD00000F070F82046022180F83D10016840F2B0
:102FE000FF740B68C4F2000442F6004CA142C4F224
:102FF000010C15DCB1F1804F1AD040F20042C4F24E
:103000000002914214D0A14218DCB1F1804F1DD0D2
:1030100040F20042C4F20002914217D01AE000BF11
:10302000614505D040F60002C4F200029142EAD1A7
:10303000826823F070031343A142E6DD614505D0A9
:1030400040F60002C4F20002914203D1026923F467
:1030500040731343846923F08002D0F804E0C3680E
:10306000224361450A60CB62C1F828E002D142697F
:10307000CCF8302001224A610B69DB0703D00B69D1
:1030800023F001030B6180F8462080F83E2080F891
:103090003F2080F8402080F8412080F8422080F8CE
:1030A000432080F8442080F8452080F83D2000200F
:1030B00010BD000082B0006840F20041C4F200017F
:1030C000884215D042F60041C4F2010188421CD169
:1030D00041F21800C4F20200016841F4006101608D
:1030E000006800F400600190019802B0704700BFD2
:1030F00041F21800C4F20200416841F0020141604F
:10310000406800F002000090009802B07047000094
:10311000C1B1042908D0082914BF41224022825C91
:10312000012A05D016E000BF3F22825C012A11D19E
:103130000222082910D0042914BF80F8412080F809
:103140003F200BE090F83E20012A03D1022280F8B4
:103150003E2003E00120704780F84020006801F025
:103160001F010122036A8A4023EA02010162036A05
:1031700042F64441C4F201011A43A1F144039842CA
:1031800002620FD040F2FF71C4F20001884213DCEA
:10319000B0F1804F1CD040F20041C4F200018842DF
:1031A00016D01CE00A6842F400420A6040F2FF7147
:1031B000C4F200018842EBDD42F60041C4F2010195
:1031C000884205D040F60001C4F20001884206D1D1
:1031D000816801F00701062904BF002070470168DB
:1031E00041F00101016000207047000070470000BD
:1031F00070470000B0B582B001680A68CC684B69BE
:1032000002F02F05202D04F0200505D125B102B0D4
:10321000BDE8B04002F05EBC5FEA027C1EBF03F076
:10322000010E04F4907313EB0E0341D1036BD5062A
:1032300018D5012B16D114F0100313D000220192DF
:103240000A6801924A680192019A496949064BD479
:10325000818DC28DC38D002B18BF914240F0F48147
:1032600002B0B0BD13062DD514F080032AD090F81B
:103270004120212AF4D18268B2F5805F03D102692E
:10328000002A00F06782026A531C036212784A60C7
:10329000C28C013A1304C284E2D1C86820F08000D5
:1032A000C860C86840F04000C86002B0B0BD00BF50
:1032B000D30718BF14F4807340F0D080530700F197
:1032C000D380D8E05206CBD514F04002C8D0CA68EB
:1032D00022F04002CA60202180F8411002B0BDE80F
:1032E000B04000F091BC00BFC16B0A68526893B255
:1032F000002BB5D0858DAB42B2D2C2858969202919
:1033000000F0A180016851E8031F026821F4807178
:1033100042E80313DBB1016851E8031F026821F49E
:10332000807142E8031393B1016851E8031F0268FA
:1033300021F4807142E803134BB1016851E8031F87
:10334000026821F4807142E80313002BDAD101688E
:1033500051E8051F026821F0010142E80513C3B3DB
:10336000016851E8051F026821F0010142E80513D8
:103370007BB3016851E8051F026821F0010142E8B2
:10338000051333B3016851E8051F026821F00101FC
:1033900042E80513002BDAD11BE000BF016851E8B9
:1033A000051F026821F0400142E80513DBB1016806
:1033B00051E8051F026821F0400142E8051393B16E
:1033C000016851E8051F026821F0400142E8051339
:1033D0004BB1016851E8051F026821F0400142E845
:1033E0000513002BDAD1202180F84210002101635F
:1033F000016851E8031F026821F0100142E803133D
:10340000DBB1016851E8031F026821F0100142E8B6
:10341000031393B1016851E8031F026821F0100102
:1034200042E803134BB1016851E8031F026821F021
:10343000100142E80313002BDAD1C16B04460846A1
:10344000FEF7A6F9204602214163818DC28D891ABB
:1034500089B202B0BDE8B040FFF7C8BE436C43F08C
:1034600001034364530706D5BEF1000F03D0436C3C
:1034700043F002034364930706D5BEF1000F03D067
:10348000436C43F004034364BCF1000F06D55EEACD
:10349000050303D0436C43F008034364436C002BE3
:1034A0003FF4DEAE920605D525B1044602F012FBCC
:1034B000216820464969426C01F0400102F008028F
:1034C000891800F0B98000BF016851E8031F026845
:1034D00021F4907142E80313BBB3016851E8031F64
:1034E000026821F4907142E8031373B3016851E854
:1034F000031F026821F4907142E803132BB30168A3
:1035000051E8031F026821F4907142E80313002B75
:10351000DAD11AE0016851E8051F026821F00101C3
:1035200042E80513DBB1016851E8051F026821F08C
:10353000010142E8051393B1016851E8051F0268D3
:1035400021F0010142E805134BB1016851E8051F64
:10355000026821F0010142E80513002BDAD1016B6A
:10356000012924D1016851E8031F026821F01001EC
:1035700042E80313DBB1016851E8031F026821F040
:10358000100142E8031393B1016851E8031F026878
:1035900021F0100142E803134BB1016851E8031F09
:1035A000026821F0100142E80313002BDAD1202138
:1035B00080F842100021016301684969490640F121
:1035C000C380016851E8051F026821F0400142E80C
:1035D0000513DBB1016851E8051F026821F04001C5
:1035E00042E8051393B1016851E8051F026821F014
:1035F000400142E805134BB1016851E8051F02681C
:1036000021F0400142E80513002BDAD1C16B0029FB
:1036100000F09A8045F6C922C0F60002044608462A
:103620004A63FEF7D9F800283FF41AAEE06B416B0D
:1036300002B0BDE8B04008470446FFF7D9FD0020BE
:10364000606402B0B0BD00BF891A00BF026852E8D2
:10365000032F036822F4907243E80325BDB3026888
:1036600052E8032F036822F4907243E8032575B3F0
:10367000026852E8032F036822F4907243E803259E
:103680002DB3026852E8032F036822F4907243E8D6
:103690000325002DDAD11AE0026852E8052F0368ED
:1036A00022F0010243E80525DDB1026852E8052F4A
:1036B000036822F0010243E8052595B1026852E84B
:1036C000052F036822F0010243E805254DB1026889
:1036D00052E8052F036822F0010243E80525002D7A
:1036E000DAD1202280F8422000220263026852E8E8
:1036F000032F036822F0100243E80325DDB10268BE
:1037000052E8032F036822F0100243E8032595B125
:10371000026852E8032F036822F0100243E80325F1
:103720004DB1026852E8032F036822F0100243E80B
:103730000325002DDAD1022289B2426302B0BDE82E
:10374000B040FFF753BD00BF02B0BDE8B040FFF787
:103750004FBD00BF026A32F8023B6FF35F234B603C
:10376000026295E5002804BF0120704710B50446A9
:1037700090F8410028B9002084F84000204600F06D
:1037800063F8242084F841002068D4E90212C36859
:1037900023F40053C360036923F440531A430261C6
:1037A000D4E904231143C268194341F20C639A43DC
:1037B0001143C1604169A26921F44071114343F68C
:1037C0000002C4F201029042416103D0FEF7EEFE16
:1037D00002E000BFFEF7FEFED4E9002319214843B2
:1037E0009900B0FBF1F048F21F5CC5F2EB1CA0FBA6
:1037F0000C314FF69C734909C0F6FF7301FB0300BF
:10380000322303EB0010A0FB0C03F02000EA53105E
:1038100000EB0110C3F343110844906010692021AC
:1038200020F490401061506920F02A005061D06867
:1038300040F40050D0600020606484F8411084F8A7
:103840004210606310BD000070B586B040F6000401
:10385000C4F20104006804F5405100268842059630
:10386000CDE90366029601D006B070BD41F21800A2
:10387000C4F20200016802AD41F4804101600168B8
:1038800001F4804101910199016841F00401016056
:103890000068294600F00400019001984FF4007080
:1038A000029002200390032005902046FEF766F95F
:1038B0004FF48060CDE90206204629460496FEF7C3
:1038C0005DF9252000210022FEF7CEFC2520FEF721
:1038D000B9FC06B070BD000090F84230202B07D133
:1038E00000294FF0010318BF002A05D11846704780
:1038F00002231846704700BF002303638162222120
:103900008285C285436480F842100169006819B15C
:10391000C16841F48071C160416941F001014161B8
:10392000C16841F02001C1601846704710B50068B9
:1039300043F60001C4F20101884201D010BD00BF6E
:1039400040F28804C2F200042078FDF789FB40F2BF
:10395000F460C2F2000021460122FFF7BDFF28B14A
:10396000EFF3108072B600BFFEE700BF2078413849
:103970003228E3D8DFE800F01C421A1A1A261A1A75
:103980001A1A1A50661A1A1A1A345E1A1A1A1A1AB7
:103990001A1A1A1A1A1A1A1A1C421A1A1A261A1A51
:1039A0001A1A1A50661A1A1A1A345E00C6E700BFAD
:1039B00001F0A6FB0020FDF72FFC27A0BDE810407A
:1039C000FDF70EBCFDF7B6FA01287FF4B7AF4FF450
:1039D000967001F0C3FA0120BDE81040FDF7D2BB9C
:1039E000FDF7A8FA012818BF10BDFA2001F042FB2C
:1039F0000420BDE81040FDF7C5BB00BFFDF79AFAF3
:103A000001287FF49BAF4FF4967001F061FA022019
:103A1000BDE81040FDF7B6BBFDF78CFA01287FF436
:103A20008DAFFA2001F0E0FA0320BDE81040FDF769
:103A3000A9BB00BF01F064FB0520BDE81040FDF705
:103A4000A1BB00BF01F05CFB0120FDF7E5FB05A079
:103A5000BDE81040FDF7C4BB4D4F44453A415554B5
:103A60004F0D0A004D4F44453A4D414E55414C0DC6
:103A70000A0000002DE9F04381B0044690F84100AF
:103A8000202809D100294FF0010018BF002A07D1D2
:103A900001B0BDE8F08300BF022001B0BDE8F083B3
:103AA0000020606421201D460E4684F84100174620
:103AB000FEF778F9A784E784A1688146B1F5805FB5
:103AC00002D1206900285DD037460020E28C2168B1
:103AD000002A5DD06A1C24D0002D4AD0804600BF49
:103AE0000868000608D4FEF75DF9A0EB0900A842BB
:103AF0007AD82168C868F3E717B117F8010B04E01A
:103B000038F8020B00276FF35F204860E08C013823
:103B1000E084E08C0028E3D13AE000BF0A68120696
:103B200009D40A68120606D40A6812065CBF0A683D
:103B30005FEA0262F2D51FB117F8012B05E000BF62
:103B400030F8022B00276FF35F224A60E28C013AC3
:103B5000E284E28C002AE4D11AE000BF30F8022BA4
:103B600000276FF35F224A60E28C013AE284E28C24
:103B700072B10A68120635D5002FEFD017F8012B65
:103B8000F1E700BF00273046E28C2168002AA1D16E
:103B9000086840061ED42DB3681C14D1086840067E
:103BA0002AD40868400627D40868400624D4086848
:103BB00040064FF00000F1D50DE000BF2068C1685D
:103BC0000068400618D4FEF7EDF8A0EB0900A84203
:103BD000F4D909E00020202184F8411001B0BDE8AB
:103BE000F08300BFFEF7DEF80320202184F84110A7
:103BF00001B0BDE8F08300BF0020202184F841100F
:103C000001B0BDE8F083000070470000FEE700004F
:103C100070B50368044653F8140F400711D40E46DC
:103C2000481C29D086BB00BF1868400527D4FEF782
:103C3000B9F8236853F8140F400737D518684007C0
:103C4000F2D5002070BD00BF18684007F9D418688D
:103C5000400514D418684007F3D4186840050ED402
:103C600018684007EDD41868400508D41868400764
:103C70004FF0000048BF70BD18684005E4D56FF4F0
:103C800080601860042012E0154603E053F8140F1A
:103C90004007D6D418684005F1D4FEF783F8401BDE
:103CA0002368B042F2D958694007EFD420200021A0
:103CB0002022216384F83D2084F83E10226C1043BA
:103CC0002064012084F83C1070BD00002DE9F04113
:103CD000054600681E46144601F47F0201338FB288
:103CE00042D0DDF81880B2F5803F40F0878040690F
:103CF0003840C01BB0FA80F04009A04240F0C880B4
:103D00004EB924E040693840C01BB0FA80F0400949
:103D1000A04240F0BD80FEF745F8A0EB08012868FE
:103D2000B142EFD941693940C91BB1FA81F1490962
:103D3000A142E7D19BE000BF40693840C01BB0FA08
:103D400080F04009A0424FF0000040F0A280FEF752
:103D500029F8286841693940C91BB1FA81F149093C
:103D6000A142E9D183E000BFB2F5803F24D100BF7A
:103D700041693940C91BB1FA81F14909A14240F0BA
:103D8000878041693940C91BB1FA81F14909A142D3
:103D900040F07E8041693940C91BB1FA81F149097F
:103DA000A14275D141693940C91BB1FA81F1490974
:103DB000A142DDD06CE000BF81693940C91BB1FA76
:103DC00081F14909A14263D181693940C91BB1FA26
:103DD00081F14909A1425BD181693940C91BB1FA1E
:103DE00081F14909A14253D181693940C91BB1FA16
:103DF00081F14909A142DFD04AE000BF8069384023
:103E0000C01BB0FA80F04009A04241D146B923E07E
:103E100080693840C01BB0FA80F04009A04237D119
:103E2000FDF7C0FFA0EB08012868B142F0D9816915
:103E30003940C91BB1FA81F14909A142E8D116E024
:103E400080693840C01BB0FA80F04009A0424FF0B2
:103E5000000018BFBDE8F081FDF7A4FF2868816964
:103E60003940C91BB1FA81F14909A142E8D10020CA
:103E70002021286385F83D1085F83E00296C41F02B
:103E80002001296485F83C000120BDE8F08100BFD5
:103E90000020BDE8F0810000F0B581B00446006864
:103EA0001D4643698FB203EA0701B94202D10020DF
:103EB00001B0F0BD4169164601323CD0490512D42B
:103EC0007EB300BFFDF76EFF411B2068B14203D9EE
:103ED00041693940B9422BD141693940B942E6D0F4
:103EE00041694905EED5016841F4007101606FF444
:103EF00080614161042000212022216384F83D205B
:103F000084F83E10226C1043206484F83C10012099
:103F100001B0F0BD41693940B942C8D04169490595
:103F2000E1D4FDF73FFF206841693940B942F1D043
:103F30002020E0E741694905D5D441693940B942BB
:103F4000B5D041694905CED441693940B942AED0B6
:103F500041694905C7D441693940B942A7D041698F
:103F60004905C0D441693940B942E3D19FE7000017
:103F700070B50368044653F8140F000611D40E46BA
:103F8000481C29D086BB00BF1868400527D4FDF720
:103F900009FF236853F8140F000637D51868000688
:103FA000F2D5002070BD00BF18680006F9D418686B
:103FB000400514D418680006F3D4186840050ED4E0
:103FC00018680006EDD41868400508D41868000683
:103FD0004FF0000048BF70BD18684005E4D56FF48D
:103FE00080601860042012E0154603E053F8140FB7
:103FF0000006D6D418684005F1D4FDF7D3FE401B67
:104000002368B042F2D958690006EFD4202000217D
:104010002022216384F83D2084F83E10226C104356
:104020002064012084F83C1070BD0000B0B584B05D
:1040300040F20C5042F20041C2F20000C4F2010111
:1040400000234FF4807201244FF46025C0E900136F
:10405000032104730375C56182600161FDF704FAF1
:10406000002818BFFDF738F90520039040F20C50E6
:104070000225C2F2000001A9CDE90154FDF732F991
:10408000002818BFFDF728F940F20C500324C2F2B3
:10409000000001A9CDE90145FDF724F9002818BF6A
:1040A000FDF71AF90420CDE9010440F20C50C2F2E8
:1040B000000001A9FDF716F9002818BFFDF70CF95B
:1040C00004B0B0BD80B582B041F21400C4F2020069
:1040D0000168002241F0010101600068002100F048
:1040E0000100019001980B20FEF7BEF80B2002B0F2
:1040F000BDE88040FEF7A6B8F0B585B0002641F2D5
:104100001800CDE90366CDE90166C4F2020001683A
:1041100040F6004441F0200101600168C4F201044E
:1041200001F02001009100990168002241F0040192
:10413000016001684BF6034501F00401009100990C
:10414000016841F00801016000684BF6034100F08E
:104150000800009000982046FDF71EFE0195022001
:1041600001AD0127049020462946CDE90276FDF7EE
:1041700005FD4FF4804001A9C1C120462946FDF745
:10418000FDFC05B0F0BD000080B540F2805045F266
:104190000041C2F20000C4F2000148F2A062002314
:1041A0004FF4804CC0F2010280E80E00C0E9033CED
:1041B000C0E90533C0E90733FDF7FAFD002808BF61
:1041C00080BDBDE88040FDF787B80000B0B598B06D
:1041D00040F60004C4F2010440F2D450002104F57A
:1041E0001052C2F20000472344F61F651191CDE939
:1041F0000F11CDE90D11CDE90B11CDE90911CDE973
:104200000711CDE90511CDE90311CDE90111C0E98F
:104210000023C0E90215C0E904118161FEF7CCFE5C
:10422000002818BFFDF758F840F2D450C2F2000041
:1042300010A9FEF71FFC002818BFFDF74DF86020FD
:10424000099040F2D4500025C2F2000009A90022D2
:10425000CDE90A55CDE90C55CDE90E55FEF7AAFD7D
:10426000002818BFFDF738F80595CDE90355CDE9CD
:104270000155089540F2D4554FF40050C2F20005A4
:10428000069001A92846FEF7CFFB002818BFFDF7CE
:1042900023F8286840F20041C4F2000188424FF040
:1042A0000001CDE91611CDE9141115D042F60041F7
:1042B000C4F20101884225D141F21800C4F2020083
:1042C000016841F004010160006800F004001390EF
:1042D00013984FF480700DE041F21800C4F2020010
:1042E000016841F004010160006800F004001390CF
:1042F0001398C020149002201590179014A92046FE
:10430000FDF73CFC18B0B0BD80B58CB040F21C602D
:104310000021C2F200004FF080424FF6FF73C0E967
:1043200000210122CDE90011C0E902130161816180
:10433000CDE90321CDE90521CDE90711CDE9092119
:104340000B9103A9FEF7D6FB002818BFFCF7C4FFAA
:1043500040F21C60C2F200006946FEF78BFB0028A9
:1043600018BFFCF7B9FF0CB080BD0000B0B590B02D
:1043700040F2004540F26460C4F200050021C2F240
:10438000000040F2C6226323CDE90811CDE90611F1
:10439000CDE90411C0E90052C0E902130161816155
:1043A000FEF70AFE002818BFFCF796FF40F2646093
:1043B000C2F2000008A9FEF75DFB002818BFFCF759
:1043C0008BFF602001900020CDE90200059040F2B3
:1043D0006460C2F2000001A90022FEF7EBFC002895
:1043E00018BFFCF779FF40F26464C2F2000401A92F
:1043F00020460422FEF7DEFC002818BFFCF76CFF05
:1044000020680021A842CDE90E110D910C9115D024
:1044100042F60041C4F20101884226D141F218005F
:10442000C4F20200016841F004010160006800F07C
:1044300004000B900B984FF480700DE041F21800CF
:10444000C4F20200016841F004010160006800F05C
:1044500004000B900B98C0200C9002200D900F9040
:1044600005F582300CA9FDF789FB10B0B0BD000046
:1044700080B58CB040F2AC6040F600020021C2F280
:104480000000C4F200024FF6FF73C0E900210122D0
:10449000CDE90011C0E9021301618161CDE9032179
:1044A000CDE90521CDE90711CDE909210B9103A93A
:1044B000FEF720FB002818BFFCF70EFF40F2AC60AF
:1044C000C2F200006946FEF7D5FA002818BFFCF7D3
:1044D00003FF0CB080BD000080B540F2F46043F6ED
:1044E0000001C2F20000C4F2010100234FF00C0CE5
:1044F0004FF4165280E80E00C0E90333C0E905C34B
:10450000C361FFF72FF9002808BF80BDBDE88040D8
:10451000FCF7E2BEFEE70000FEE7000080B540F2D7
:104520000C10C2F200004FF48061FCF734F8BDE8D3
:10453000804000F063B90000F0B583B06420FDF75F
:1045400009FB40F280544FF42E40C2F20004ADF853
:104550000A004FF0FF350DF10A02204678210223B0
:104560000095FDF7D7FC4FF400560DF10A022046E6
:1045700078210223ADF80A600095FDF7CBFC4FF4DB
:104580000070ADF80A000DF10A02204678210223DE
:104590000095FDF7BFFC4FF43040ADF80A000DF177
:1045A0000A022046782102230095FDF7B3FC4FF460
:1045B0004840ADF80A000DF10A0220467821022396
:1045C0000095FDF7A7FC00270DF10A02204678218F
:1045D0000223ADF80A700095FDF79CFC4FF4805063
:1045E000ADF80A000DF10A02204678210223009559
:1045F000FDF790FC4FF48040ADF80A000DF10A027F
:104600002046782102230095FDF784FC4FF40140F9
:10461000ADF80A000DF10A02204678210223009528
:10462000FDF778FC4FF4FE40ADF80A000DF10A02E8
:104630002046782102230095FDF76CFC4FF42140C1
:10464000ADF80A000DF10A022046782102230095F8
:10465000FDF760FC4FF42640ADF80A000DF10A02A8
:104660002046782102230095FDF754FC4FF42840A2
:10467000ADF80A000DF10A022046782102230095C8
:10468000FDF748FC4FF47C50ADF80A000DF10A022A
:104690002046782102230095FDF73CFC4FF424408E
:1046A000ADF80A000DF10A02204678210223009598
:1046B000FDF730FC4FF45340ADF80A000DF10A024B
:1046C0002046782102230095FDF724FC0DF10A0213
:1046D000204678210223ADF80A700095FDF71AFCF8
:1046E0004FF45540ADF80A000DF10A02204678213A
:1046F00002230095FDF70EFC4FF47040ADF80A0060
:104700000DF10A022046782102230095FDF702FCF4
:104710004FF45940ADF80A000DF10A022046782105
:1047200002230095FDF7F6FB4FF40850ADF80A00A0
:104730000DF10A022046782102230095FDF7EAFBDD
:104740004FF45A40ADF80A000DF10A0220467821D4
:1047500002230095FDF7DEFB4FF49050ADF80A0000
:104760000DF10A022046782102230095FDF7D2FBC5
:104770004FF45B40ADF80A000DF10A0220467821A3
:1047800002230095FDF7C6FB0DF10A0220467821B1
:104790000223ADF80A600095FDF7BCFB4FF40D4015
:1047A000ADF80A000DF10A02204678210223009597
:1047B000FDF7B0FB4FF4A050ADF80A000DF10A026E
:1047C0002046782102230095FDF7A4FB40F20C104F
:1047D000C2F200004FF48061FBF7DDFE00F00EF83E
:1047E0004FF42F40ADF80A000DF10A02204678215F
:1047F00002230095FDF78EFB03B0F0BD2DE9F04FCD
:1048000087B00DF10B094FF6004740F2805509F1D2
:1048100001064FF00008CFF6FF774FF0FF34C2F2E9
:1048200000054FF0000B00BF4BF0B0008DF80C00FE
:10483000284678214A4602238DF80B800094FDF724
:1048400069FB4FF48050ADF80B00284678214A46AA
:1048500002230094FDF75EFB284678214A46022396
:10486000ADF80B800094FDF755FB40F20C10C2F23E
:10487000000000EB070A40208DF80B00DAF8000476
:10488000DAF80414DAF80824DAF80C3430607160CD
:10489000B260F360284678214A4611230094FDF760
:1048A00039FBDAF81004DAF81414DAF81824DAF814
:1048B0001C3430607160B260F360284678214A464B
:1048C00011230094FDF726FBDAF82004DAF824140B
:1048D000DAF82824DAF82C3430607160B260F360C2
:1048E000284678214A4611230094FDF713FBDAF895
:1048F0003004DAF83414DAF83824DAF83C3430606A
:104900007160B260F360284678214A461123009412
:10491000FDF700FBDAF84004DAF84414DAF848242A
:10492000DAF84C3430607160B260F3602846782168
:104930004A4611230094FDF7EDFADAF85004DAF84C
:104940005414DAF85824DAF85C3430607160B260DC
:10495000F360284678214A4611230094FDF7DAFADD
:10496000DAF86004DAF86414DAF86824DAF86C34F7
:1049700030607160B260F360284678214A461123A6
:104980000094FDF7C7FADAF87004DAF87414DAF86C
:104990007824DAF87C3430607160B260F3602846C5
:1049A00078214A4611230094FDF7B4FA80370BF1C1
:1049B000010B7FF439AF07B0BDE8F08F2DE9F04F60
:1049C00099B01891A2F12001C9B2102904D2C3A252
:1049D00052F821302BE000BFA2F13001C9B2092901
:1049E00047F2B601C0F6000106D802EB420201EB25
:1049F0004201A1F1C0031AE0A2F14103DBB2192B7D
:104A000006D802EB420201EB4201A1F1EA030EE0FB
:104A1000A2F16101C9B247F2B6031929C0F6000339
:104A200005D802EB420103EB4101A1F5D573DDF896
:104A300060A04FF0010B0AF007020AF1010C0BFA1B
:104A400002F10CF007070AF1020E0E910BFA07F1C2
:104A50000EF007060AF103080D910BFA06F108F0B3
:104A600007050AF104090C910BFA05F109F0070496
:104A70000AF105050B910BFA04F105F007020A9102
:104A80000BFA02F109910AF1060101F007070BFA8E
:104A900007F20AF1070707F0070608920BFA06F279
:104AA000EEB2C9B240F20C15C2F200051691C90867
:104AB000009205EBC112F1085FFA89F405EBC11110
:104AC0001191E1085FFA88F805EBC1115FFA8EFEDB
:104AD00010914FEAD801179605EBC1164FEADE0197
:104AE0005FFA8CFB05EBC11C0E99FFB2C94307911D
:104AF0000D991597C94306910C99FF08C943059173
:104B00000B991494C94304910A99F146C94303913E
:104B10000999DE46C943029108994FEADB04C9436B
:104B200001910099B3464FEADA0605EBC71705EB8A
:104B3000C41405EBC61AC94300251297CDF84C8062
:104B40000F910BE0129F0F9917F808600E4007F8BD
:104B5000086000BF0135062D00F0BC802E1877B22A
:104B6000002FF7D4189F5FFA86F83F2F16D9BEF1B1
:104B70003F0F2AD9B9F13F0F3DD913993F294CD99D
:104B8000149E3F2E5BD9179E3F2E6CD9169E3F2E4A
:104B900040F27D80159E3F2EDCD88BE05E5DF607EF
:104BA0000AD11AF8086007990E400AF80860BEF1A9
:104BB0003F0FDFD809E000BF1AF808600E9F3E43A0
:104BC0000AF80860BEF13F0FD4D85E5DB60709D47D
:104BD00014F8086006990E4004F80860B9F13F0F18
:104BE000CBD808E014F808600D9F3E4304F8086035
:104BF000B9F13F0FC1D85E5D760705D41CF8086097
:104C000005990E4004E000BF1CF808600C9F3E436D
:104C10000CF8086013993F29B2D85E5D360705D4B9
:104C20001BF8086004990E4004E000BF1BF8086000
:104C30000B9F3E430BF80860149E3F2EA3D85E5D89
:104C4000F60605D41099039F11F808603E4004E071
:104C500010990A9F11F808603E4301F80860179EFA
:104C60003F2E3FF693AF5E5DB60605D41199029FC5
:104C700011F808603E4004E01199099F11F808609E
:104C80003E4301F80860169E3F2E3FF683AF5E5DFF
:104C9000760605D412F8086001990E4004E000BFC2
:104CA00012F80860089F3E4302F80860159E3F2EE8
:104CB0003FF650AF5E57B6F1FF3F3FF743AF59465F
:104CC000DDF848B0009F1BF808603E430BF8086011
:104CD0008B463FE719B0BDE8F08F00BFB670000803
:104CE000BC700008C2700008C8700008CE700008D0
:104CF000D4700008DA700008E0700008E670000860
:104D0000EC700008F2700008F8700008FE700008EF
:104D1000047100080A710008107100081378002B54
:104D200008BFFFF76BBD70B50C460546561E00BFA9
:104D3000E8B2DAB221460023FFF740FEB378063529
:104D4000002B06F10106F3D1BDE87040FFF756BD18
:104D50007047000070470000FDF70CBA7047000074
:104D600040F2B80C0028C2F2000C1CBFBCF84C305A
:104D7000038000291CBFBCF84E000880002A1CBF1D
:104D8000BCF850001080704740F2B800C2F200003A
:104D9000C068704770B50138302888BF70BD40F2D8
:104DA000B805C2F200052878002847D140F208046F
:104DB000C2F2000460880026E0800120C5E9056693
:104DC000C5E90966C5E90D662870FCF7EBFFC5E982
:104DD0000F0040F26460C2F200000068C5F806608F
:104DE00046638663208821896289814288BF08469C
:104DF00040F2D451C2F20001904228BF1046096827
:104E0000A08040F60044C4F201044863204601211A
:104E10000122FCF7C1FF204602210022FCF7BCFF63
:104E200020464FF480610122FCF7B6FF20464FF484
:104E300000610022BDE87040FCF7AEBF70BD00000D
:104E4000B0B540F60044C4F2010420464FF480514E
:104E50000122FCF7A1FF204601210122FCF79CFF63
:104E60002046022100220025FCF796FF20464FF441
:104E700080610122FCF790FF20464FF40061002280
:104E8000FCF78AFF40F26460C2F2000000684563EC
:104E9000856340F20800C2F200000188028943895C
:104EA0008A4288BF114640F2D452C2F200029942AF
:104EB00028BF1946126881805163B0BD40F2B80026
:104EC000C2F200000078002818BF012070470000DF
:104ED000B0B5044640F2B80040F60045C2F200000A
:104EE0000021C4F201050170284601210022FCF7CF
:104EF00053FF284602210122FCF74EFF28464FF4BB
:104F000080610022FCF748FF28464FF4006101222F
:104F1000FCF742FF40F26462C2F2000224EAE4704D
:104F200040F2E7311268884238BF014640F208007B
:104F300051639163C2F200000188028943898A4269
:104F400088BF114640F2D452C2F20002994228BFF3
:104F50001946126881805163B0BD0000B0B50446A7
:104F600040F2B80040F60045C2F200000021C4F251
:104F700001050170284601210122FCF70DFF28469A
:104F800002210022FCF708FF28464FF4806101222D
:104F9000FCF702FF28464FF400610022FCF7FCFEFC
:104FA00040F26462C2F2000224EAE47040F2E731A7
:104FB0001268884238BF014640F20800516391638D
:104FC000C2F200000188028943898A4288BF1146E3
:104FD00040F2D452C2F20002994228BF1946126828
:104FE00081805163B0BD0000B0B5044640F2B80006
:104FF00040F60045C2F200000021C4F20105017034
:10500000284601210022FCF7C7FE28460221012282
:10501000FCF7C2FE28464FF480610122FCF7BCFE7B
:1050200028464FF400610022FCF7B6FE40F26462AD
:10503000C2F2000224EAE47040F2E73112688842CA
:1050400038BF014640F2080051639163C2F200008C
:105050000188028943898A4288BF114640F2D452AE
:10506000C2F20002994228BF19461268818051633A
:10507000B0BD0000B0B5044640F2B80040F60045AF
:10508000C2F200000021C4F201050170284601218E
:105090000122FCF781FE284602210022FCF77CFE5B
:1050A00028464FF480610022FCF776FE28464FF434
:1050B00000610122FCF770FE40F26462C2F200025D
:1050C00024EAE47040F2E7311268884238BF0146B2
:1050D00040F2080051639163C2F200000188028926
:1050E00043898A4288BF114640F2D452C2F200027C
:1050F000994228BF1946126881805163B0BD0000F3
:10510000B0B540F2B80040F60044C2F200000025FD
:10511000C4F201040570204601210122FCF73CFE87
:10512000204602210022FCF737FE20464FF4806122
:105130000122FCF731FE20464FF400610022FCF70B
:105140002BFE40F26460C2F2000000684563856394
:1051500040F20800C2F200000188028943898A42B5
:1051600088BF114640F2D452C2F20002994228BFD1
:105170001946126881805163B0BD0000F0B581B05E
:1051800040F6004501284FF00007C4F201050E4625
:10519000B8BF012700284FF0000228464FF0010158
:1051A0004FF00004C8BF0122FCF7F6FD284602219B
:1051B0003A46FCF7F1FD012E4FF00007B8BF01277A
:1051C000002EC8BF012428464FF480612246FCF718
:1051D000E3FD28464FF400613A4601B0BDE8F040D7
:1051E000FCF7DABD40F2080C40F2B803C2F2000C42
:1051F000C2F200031961CCE90302704740F20801D2
:10520000C2F200010880704740F20802C2F20002B8
:10521000108151817047000040F20801C2F2000184
:105220004880C8807047000010B540F2B800C2F254
:10523000000000F14C0140F20C50C2F200000322C9
:10524000FCF712FA002818BFFCF746F840F2646435
:10525000C2F2000420460021FDF75AFF2046042137
:10526000FDF756FF40F2D450C2F200000021FDF7D6
:105270004FFF40F21C60C2F200003C21FDF73CFDF4
:1052800040F2AC60C2F200003C21FDF735FD40F673
:105290000040C4F201004FF480510122BDE81040EB
:1052A000FCF77ABD2DE9F04F83B040F2B809C2F2A5
:1052B000000999F80000002856D0FCF773FDD9F8D2
:1052C0004010044699F80000661ADFE810F0280242
:1052D00009006D02B1022B02FD023F03F3029903A4
:1052E00040F26460C2F20000006800214163816303
:1052F00040F20800C2F200000188028943898A4214
:1053000088BF114640F2D452C2F20002994228BF2F
:105310001946126840F60045C4F2010581805163C8
:10532000284601210122FCF737FD284602210022F0
:105330000226FCF731FD28464FF480610122FCF77C
:105340002BFD28464FF400610022FCF725FDD9F81B
:105350003C00201AC828C0F0E28189F80060C9F832
:10536000404003B0BDE8F08FB9F84C00B9F84E509A
:10537000B9F8506001F078FC0446284601F074FC4E
:105380000746304601F070FC05462046394601F0DC
:10539000A9FA294601F0A6FA4FF07E51064601F01F
:1053A00026FB08B1002412E02846214601F0A4FDA6
:1053B000314601F02FFB4CF28F21044620F00040D3
:1053C000C3F6F54101F013FB002818BF00244CF68A
:1053D000CD4124F00040C3F6CC61C9F80C4001F087
:1053E000FFFA40F20808C2F20008B8F8026000288C
:1053F0005ED10021C4F2F021204601F0B1FC01F0A1
:10540000FFFB311A0291D9F8101006440191D9E935
:10541000051B204601F066FA0021C4F27A410746D6
:1054200001F0D0FA002100281CBF0027C4F27A47FF
:10543000CCF27A41384601F0DAFA00281CBF002786
:10544000CCF27A47D8E9035A20465946C9E905748F
:1054500001F052FD01998346384601F081FC074670
:105460002846214601F07CFC394601F03BFA04460F
:105470005046594601F074FC214601F033FA0021F0
:10548000B8F80040C4F2401101F06AFC01F0B8FB2A
:10549000B8F808102044B8F80A20029B8842D8BF08
:1054A0000846904228BF1046814288BF084609E05E
:1054B000B8F80000B8F80810B8F80A20814288BF90
:1054C00008463346904228BF104640F2D451C2F2FB
:1054D0000001096840F6004482B2C4F201044A6344
:1054E000A8F80400204601210122A9F80230A9F8F9
:1054F0000460FCF751FC204602210022FCF74CFC22
:1055000020464FF480610122FCF746FC20464FF410
:1055100000610022FCF740FCB8F9020040F2E73BD2
:1055200020EAE07A40F26460C2F200000068DA45E6
:10553000029028BFDA46C0F834A0C0F838A040F284
:105540001C60C2F20000006840F2AC62406AC2F225
:1055500000021268D9F84410C9F84400526AD9F818
:105560004830401AD11A0191B9F90210C9F84820FF
:1055700000B2B9F90420081A009201F05DFBD9E9E4
:105580000914054608462946474601F0ABF90021B3
:10559000C4F27A41064601F015FA40F20008CCF256
:1055A0007A4800281CBF0026C4F27A46304641469D
:1055B00001F01DFA0028284621461CBF0026CCF227
:1055C0007A46C9F8246001F097FC0446D9F81C001B
:1055D0007F693146C9F8285001F0C2FB06463846BB
:1055E000294601F0BDFB314601F07CF9D9F82010C5
:1055F00005460846214601F0B3FB294601F072F941
:1056000005460198009900B2081A01F015FBD9E986
:105610000D1406460846314601F064F90021C4F233
:105620007A41074601F0CEF900281CBF0027C4F2DA
:105630007A473846414601F0DAF9002830462146DB
:105640001CBF0027CCF27A47C9F8347001F054FC33
:10565000804640F20800C2F200008469C9F8386050
:10566000D9E90B09394601F07BFB07462046314654
:1056700001F076FB394601F035F9044648464146CB
:1056800001F06EFB214601F02DF90024C4F27014E4
:1056900006462846214601F095F90027CCF27017FE
:1056A00000281CBF0025C4F270152846394601F0B9
:1056B0009EF90028304621461CBF0025CCF270150B
:1056C00001F080F900281CBF0026C4F27016304695
:1056D000394601F08CF9002850461CBF0026CCF258
:1056E000701601F0A9FA04462846214601F0FAF89E
:1056F00001F086FA05463046214601F0F3F801F044
:105700007FFA25EAE57120EAE070594528BF59463D
:10571000584538BF834602984163C0F838B003B09B
:10572000BDE8F08F40F20800C2F200000188028953
:1057300043898A4288BF114640F2D452C2F2000225
:10574000994228BF1946126840F60045C4F2010587
:1057500081805163284601210122FCF71DFB284668
:1057600002210022FCF718FB28464FF48061012239
:10577000FCF712FB28464FF400610022FCF70CFBFB
:1057800040F26460C2F200000068DC2141630A213B
:10579000B6F52F7F8163C2D3052089F80000C9F8D0
:1057A000404003B0BDE8F08F40F20800C2F20000B4
:1057B0000188028943898A4288BF114640F2D45247
:1057C000C2F20002994228BF1946126840F600450D
:1057D000C4F2010581805163284601210122FCF7B2
:1057E000DBFA284602210022FCF7D6FA28464FF4BD
:1057F00080610122FCF7D0FA28464FF400610022B4
:10580000FCF7CAFA40F26460C2F2000000680A21A4
:1058100041634FF48C71B6F52F7F8163FFF47FAF46
:10582000032089F80000C9F8404003B0BDE8F08FBC
:1058300040F26460C2F200000068002141638163AD
:1058400040F20800C2F200000188028943898A42BE
:1058500088BF114640F2D452C2F20002994228BFDA
:105860001946126840F60045C4F201058180516373
:10587000284601210122FCF78FFA28460221002246
:10588000FCF78AFA28464FF480610122FCF784FA7B
:1058900028464FF400610022FCF77EFA00F0BEF9C2
:1058A000A9F80600042089F80000C9F8404003B0B8
:1058B000BDE8F08FB6F5167FFFF431AF082089F808
:1058C000000003B0BDE8F08F40F26460C2F2000057
:1058D000006800214163816340F20800C2F20000C9
:1058E0000188028943898A4288BF114640F2D45216
:1058F000C2F20002994228BF1946126840F60045DC
:10590000C4F2010581805163284601210122FCF780
:1059100043FA284602210022FCF73EFA28464FF4BB
:1059200080610122FCF738FA28464FF4006100221A
:10593000FCF732FA00F072F9A9F80800062089F89D
:105940000000C9F8404003B0BDE8F08F40F2646643
:10595000C2F200063068002140F20807416381630B
:10596000C2F200073888398940F60045814288BF75
:1059700008467989C4F20105884228BF084640F2EA
:10598000D451C2F200010968B88048632846012159
:105990000122FCF701FA284602210022FCF7FCF95B
:1059A00028464FF480610122FCF7F6F928464FF4AF
:1059B00000610022FCF7F0F9B9F80600B9F8081008
:1059C00032282DD331292BD8284601210122FCF77A
:1059D000E3F9284602210022FCF7DEF928464FF4BD
:1059E00080610122FCF7D8F928464FF400610022BB
:1059F000FCF7D2F9788800EBD03109B249104AE0BF
:105A000040F20800C2F20000C1884180002089F8FD
:105A10000000C9E90F00C9F8060003B0BDE8F08F27
:105A200031281DD832291BD3284601210122FCF739
:105A3000B3F9284602210022FCF7AEF928464FF4BC
:105A400080610122FCF7A8F928464FF4006100228A
:105A5000FCF7A2F9798801EBD13000B240101AE0CE
:105A600031284FF000034FF0000288BF0123884225
:105A70004FF001004FF0010128BF012203EA0205A7
:105A8000FFF77CFB7888002D00EBD0310AB201468D
:105A900014BF5110501009B221EAE17140F2E7320F
:105AA00000B2914228BF1146336820EAE07090426C
:105AB00038BF024659639A63072089F80000C9F885
:105AC000404003B0BDE8F08F406A0021C185C18429
:105AD000FDF78EBB81B090F84210222921D1836856
