:020000040800F2
:10000000F80E0020C1010008CD4C0008C1260008F0
:10001000C94C00080D0500089153000800000000BD
:100020000000000000000000000000008D500008EB
:10003000C50A000800000000214E000879510008A0
:10004000DB010008DB010008DB0100087D5000082F
:10005000DB010008DB010008DB010008DB01000810
:10006000DB010008DB010008DB010008DB01000800
:10007000DB010008DB01000811050008130500087A
:10008000DB010008DB010008DB010008DB010008E0
:10009000DB010008DB010008DB010008DB010008D0
:1000A000DB010008DB010008DB010008DB010008C0
:1000B000DB010008DB010008DB010008DB010008B0
:1000C000DB010008DB010008DB010008DB010008A0
:1000D000DB010008DB010008DB010008DB01000890
:1000E000C70A0008DB010008DB010008DB0100088B
:1000F0001152000800000000DB010008DB010008CD
:100100000000000000000000DB010008DB01000827
:10011000DB010008DB010008DB0100080000000033
:10012000DB01000800F002F800F03AF80AA090E8BD
:10013000000C82448344AAF10107DA4501D100F0A2
:100140002FF8AFF2090EBAE80F0013F0010F18BF35
:10015000FB1A43F00103184778630000986300001E
:10016000103A24BF78C878C1FAD8520724BF30C8E3
:1001700030C144BF04680C607047000000230024B5
:1001800000250026103A28BF78C1FBD8520728BFA7
:1001900030C148BF0B6070471FB51FBD10B510BD03
:1001A00000F001F91146FFF7F7FF05F0EFFC00F052
:1001B0001FF903B4FFF7F2FF03BC00F027F90000BA
:1001C0000948804709480047FEE7FEE7FEE7FEE7EB
:1001D000FEE7FEE7FEE7FEE7FEE7FEE70448054927
:1001E000054A064B704700000D5200082501000823
:1001F000F8020020F80E0020F8060020F806002083
:1002000053EA020C00F069802DE9F04B4FF0000634
:10021000002B1FBFB3FA83F503FA05F424FA05F6A1
:100220005E4012BF1643B2FA82F502FA05F4C5F138
:1002300020051EBF22FA05FC44EA0C04203556EACC
:10024000044C4FEA144418BF641C4FF000084FF0F0
:100250000009904271EB030C39D3002919BFB1FAA0
:1002600081F701FA07F6B0FA80F700FA07F6C7F14E
:1002700020071EBF20FA07FC46EA0C062037B6FB13
:10028000F4FCA7EB0507103F07F01F0BCBF120068E
:100290000CFA0BFB2CFA06F644BFB3460026202FBF
:1002A000A4BF5E464FF0000B5BEA060C08BF4FF0A0
:1002B000010B19EB0B09ABFB027C48EB0608C01BDA
:1002C00006FB02CC0BFB03CC71EB0C01C1E70B4628
:1002D000024641464846BDE8F08B13B54FF000009A
:1002E0004FF00001AFF30080BDE81C40704710B52F
:1002F000203AC0F00B80B1E81850203AA0E818501E
:10030000B1E81850A0E81850BFF4F5AF5FEA027CDE
:1003100024BFB1E81850A0E8185044BF18C918C04D
:10032000BDE810405FEA827C24BF51F8043B40F8EE
:10033000043B08BF7047D20728BF31F8023B48BFD3
:1003400011F8012B28BF20F8023B48BF00F8012B11
:1003500070474FF0000200B5134694469646203988
:1003600022BFA0E80C50A0E80C50B1F12001BFF46E
:10037000F7AF090728BFA0E80C5048BF0CC05DF8D4
:1003800004EB890028BF40F8042B08BF704748BF22
:1003900020F8022B11F0804F18BF00F8012B704796
:1003A000704770477047754600F02CF8AE46050060
:1003B0006946534620F00700854618B020B5FFF780
:1003C0000DFFBDE820404FF000064FF000074FF052
:1003D00000084FF0000B21F00701AC46ACE8C00963
:1003E000ACE8C009ACE8C009ACE8C0098D4670476C
:1003F00010B50446AFF300802046BDE81040FFF77B
:10040000D8BE00000048704798020020014918201B
:10041000ABBEFEE726000200704770B5044600251B
:1004200020680068C0F3801018B32068806820F04E
:1004300001002168886000F0C7FF054613E000F066
:10044000C3FF401B02280ED920680068C0F380104B
:1004500048B1E06C40F01000E064206D40F0010015
:100460002065012070BD20680068C0F3801000285E
:10047000E5D10020F6E7000038B50446002500204D
:10048000009020680068C0F3801088BB20688068F6
:1004900040F00100216888601A4800681A49B0FBE2
:1004A000F1F000EB4000009002E00098401E009048
:1004B00000980028F9D100F087FF054619E000F008
:1004C00083FF401B022814D920680068C0F3801005
:1004D00078B9E06C40F01000E064206D40F001005D
:1004E000206500BF002084F8480000BF012038BD0F
:1004F00005E020680068C0F380100028DFD00020ED
:10050000F5E700001400002040420F0000BFFEE7A6
:10051000704770472DE9F04106460D46002725B18A
:10052000012D0BD0032D1BD111E0304605F024FE28
:1005300080461E4905F06CFE07461AE0304605F07D
:100540001BFE80461A4905F063FE074611E030465F
:1005500005F012FE8046174905F05AFE074608E0EE
:10056000304605F009FE8046104905F051FE074669
:1005700000BF00BF1049384605F016FF01D20E4FEC
:1005800005E00E49384605F00FFE00D20B4F384605
:1005900005F0D6FD44B20F2C00DD0F2414F10F0F2F
:1005A00001DA6FF00E042046BDE8F0816F12833A45
:1005B000CDCCCC3D4C37893D00007041000070C16E
:1005C00001480068704700002C0000202DE9F0472A
:1005D00080460F460020CA49087048600872487279
:1005E000887200BF05E00022C5490B310A54411C46
:1005F000C8B20628F7DB0020C14948748874C14896
:100600000760384600F0B2F9BF4908600846006844
:1006100005F0B2FD8246BD480168504605F0F8FD80
:10062000814605F08DFDB8490860B948007800BBE7
:10063000B84800780A2805DAB6480078401CB54961
:10064000087016E0B0480068B3490860AE4800681A
:100650000968401AB14908600120AD490870B048E6
:10066000B0490860AC480068AD490861AA48006814
:100670008860AD480078C8B1A3480068A649086002
:10068000A14800680968401AA44908600020A649EA
:100690000870A348A34908609F480068A049086102
:1006A0009D48006848629C48006888609E480078C1
:1006B00030B99548006898490968401A9749086018
:1006C0009148006894490968401A944908608E4826
:1006D000006896490968401A954908609148006881
:1006E000007809282FD2DFE800F006050B10151A54
:1006F0001F24290000BF894800688149486027E01D
:100700008B4800687E49486022E0844800687C4944
:1007100048601DE0814800687949486018E07F48DA
:1007200000687749486013E07C4800687449486075
:100730000EE07A4800687249486009E0774800682E
:100740006F49486004E0754800686D49486000BF23
:1007500000BF01206B490872694841687148006810
:1007600004F090FF044666494C6066494C6071494C
:100770004C606348007A08726148407A4872604869
:10078000807A88725E4800780870002007E05C4933
:100790000B310A5C67490B310A54411CC8B2062868
:1007A000F5DB5748407C634948745548807C887421
:1007B0005349887A03F04CFB514846685948006811
:1007C000407D20B1012812D0032838D123E05A48B7
:1007D0000078012804D14A48406800EB800605E013
:1007E00055480078022801D1454846682AE0524819
:1007F0000078012805D14249486800EBD0714E10BD
:1008000008E04D480078022804D13D49486800EBD3
:10081000D0714E1016E048480078012805D13848BC
:100820004068142190FBF1F608E043480078022864
:1008300004D1334840680A2190FBF1F602E03048C9
:10084000466800BF00BF01202D490870002E01DA64
:10085000087202E000202A4908722A4846602848A7
:100860004660304800684078254948722D48006845
:100870000078887208464568002D00DA6D42002035
:100880000FE00A2195FBF1F201FB1251CAB2C0F14F
:1008900005031B490B31CA540A2195FBF1F5411C94
:1008A000C8B20628EDDB1648407A08B9012000E0FE
:1008B0000020134948740846C07A8874194A12689F
:1008C000517D0F4A506800F045F81C4890F900002F
:1008D000002806DB1948007809498874002008724E
:1008E00006E01648007840420549887401200872E5
:1008F000142203494046FFF7FAFCBDE8F0870000E8
:100900004C020020F4010020280000206800002094
:100910003D0000203C000020300000202C00002082
:1009200060020020240000206C000020380000201D
:1009300034000020240200206D0000206F00002001
:100940000248006802490860704700002800002043
:100950003800002070B504460D4629462046FFF7B2
:10096000D9FD0149087070BD6F0000202DE9F047E6
:100970000546494804780078401CDFF81C9189F846
:100980000000464840F8245048460078092802DB19
:1009900000204C4620700022002010E03F4C54F80C
:1009A000204044B93C4C2478A04204DB3A4C2478E3
:1009B0001CB9082801D1541CE2B2441CE0B2092839
:1009C000ECDB092A31DA4FF000090024002022E094
:1009D000DFF8C8A05AF820A0BAF1000F0ED1DFF856
:1009E000B8A09AF800A0504508DBDFF8ACA09AF850
:1009F00000A0BAF1000F0AD1082808D1DFF89CA0A6
:100A00005AF820A0D14404F1010A0AF0FF0400F1D1
:100A1000010A0AF0FF000928DADB002C03DD99FB4C
:100A2000F4F0BDE8F0872846FBE71C480668076835
:100A30004FF0000CE046012013E0184C54F8204021
:100A4000B44203DA154C54F820608446134C54F831
:100A50002040BC4203DD114C54F820708046441CF9
:100A6000E0B20928E9DB0023002100200BE060450B
:100A700007D0404505D0094C54F8204023444C1C75
:100A8000E1B2441CE0B20928F1DB002902DD93FB4E
:100A9000F1F0C6E72846C4E720000020000200204D
:100AA0000146002004E0054A42F82010421CD0B262
:100AB0000928F8DB0020024A10707047000200206D
:100AC00020000020704710B54FF4805000F086FBE6
:100AD00010BD72B600BFFEE702466AB121B101291E
:100AE00004D0032906D103E0022070470320FCE76D
:100AF0000420FAE70320F8E721B1012904D00329F3
:100B000006D103E00120F0E70220EEE70320ECE746
:100B10000220EAE77047000038B5024600230020B3
:100B2000009000BF92F84800012801D1022038BD92
:100B3000012082F8480000BF4868072812D21068D8
:100B4000006C0C79641E04EB84051F24AC40A043A8
:100B50000D796D1E05EB85050C68AC4020431468CB
:100B6000206453E048680D2812D21068C06B0C79DD
:100B7000E41F04EB84051F24AC40A0430D79ED1F56
:100B800005EB85050C68AC4020431468E0633DE04C
:100B90004868132812D21068806B0C790D3C04EB66
:100BA00084051F24AC40A0430D790D3D05EB850560
:100BB0000C68AC4020431468A06327E048681928FB
:100BC00012D21068406B0C79133C04EB84051F248F
:100BD000AC40A0430D79133D05EB85050C68AC4096
:100BE00020431468606311E01068006B0C79193CB5
:100BF00004EB84051F24AC40A0430D79193D05EB9F
:100C000085050C68AC4020431468206308680A28F6
:100C100010D2106840690C7804EB44050724AC40FE
:100C2000A0430D7805EB45058C68AC402043146863
:100C300060612CE00868142812D2106800690C78F2
:100C40000A3C04EB44050724AC40A0430D780A3D60
:100C500005EB45058C68AC4020431468206116E024
:100C600008681A2812D81068C0680C78143C04EB85
:100C700044050724AC40A0430D78143D05EB450521
:100C80008C68AC4020431468E06000E000BF086856
:100C9000102802D0086811281DD11248006800F4FD
:100CA0000000C0B90F48006840F400000D4C2060FF
:100CB000086810280FD10C4800680C4CB0FBF4F009
:100CC00000EB80004000009002E00098401E009081
:100CD00000980028F9D100BF002082F8480000BF2A
:100CE000184624E7042701401400002040420F006A
:100CF0007047704770470000F8B50446002700268B
:100D000000250CB90120F8BD206918B194F82C0019
:100D100000B100BF606B102800D000BFE06C10BBBA
:100D20000020206584F8480000BF6B48006840F050
:100D30000100694908600846006800F00100009061
:100D400000BF00BF654860656548A0656548E0650F
:100D50006548206665486066A06E08B96448A0666C
:100D60002046A16E8847E06C00F01000002878D182
:100D7000E06C20F4885040F00200E0645D480068B8
:100D800020F44030616808435A4908606169E068AE
:100D9000084394F83C104FF4007292FAA2F2B2FAAF
:100DA00082F291400843216A084394F824100222F9
:100DB00092FAA2F2B2FA82F2914008430543606BC4
:100DC000102803D0D4E90D010843054320680068CA
:100DD000C0F38010A0BBA0690543E169A068084387
:100DE0002169B1F5807F02D02169012902D14FF438
:100DF000807100E000210843064394F82C0001288C
:100E000017D194F8240060B9206B401E4FF4604164
:100E100091FAA1F1B1FA81F1884040F400600643F3
:100E200007E0E06C40F02000E064206D40F001003D
:100E30002065206840683049084030432168486098
:100E4000206880682D49084028432168886020690F
:100E5000B0F5807F02D02069012803D14FF4807063
:100E600001E035E00020B0F5807F10D12068006BF4
:100E700020F0F871A06A401E4FF0F87292FAA2F2C8
:100E8000B2FA82F2904001432068016305E02068D5
:100E9000006B20F0F87021680863206880681849AA
:100EA0000840A84208D100202065E06C20F0020034
:100EB00040F00100E0640CE0E06C20F0020040F043
:100EC0001000E064206D40F001002065012700E083
:100ED0000127384617E7000020380240F10C0008CF
:100EE000F30C0008050F0008F50C0008150B0008AE
:100EF000090F000804270140FF16FCFC89F1FFC020
:100F0000FEFF80BF7047000010B586B00446142174
:100F100001A8FFF71EFA16492068884225D100BFB4
:100F20001448006840F400701249086008460068E0
:100F300000F40070009000BF00BF00BF081F0068F1
:100F400040F00100091F08600846006800F0010039
:100F5000009000BF00BF20200190032002900020DD
:100F6000039001A9044800F047F906B010BD000045
:100F700000240140203802400000024070B50446C1
:100F8000002500BF94F84800012801D1022070BD5F
:100F9000012084F8480000BF2046FFF76DFA05469F
:100FA00095BBE06C40F20161884340F48070E064DE
:100FB0002068406800F4806028B1E06C20F40050A4
:100FC00040F48050E064E06C00F48050B0F5805F45
:100FD00004D1206D20F00600206501E0002020658E
:100FE00000BF002084F8480000BF6FF02200216895
:100FF00008602068806800F0405028B92068806848
:1010000040F08040216888602846C0E770B50446FB
:10101000002500BF94F84800012801D1022070BDCE
:10102000012084F8480000BF2046FFF7F6F9054686
:101030002DB9E06C20F4885040F00100E06400BF5E
:10104000002084F8480000BF2846E8E770B5044651
:1010500000F0BAF906462546681C10B1044800683D
:10106000054400BF00F0B0F9801BA842FAD370BD60
:101070008C000020F0B50B4600210022002478E00F
:1010800001258D4005EA0302002A71D03B4D8E08F0
:1010900055F826408D072E0F0F25B5402C40384DB2
:1010A000A84201D1002514E0364DA84201D1012506
:1010B0000FE0354DA84201D102250AE0334DA84288
:1010C00001D1032505E0324DA84201D1042500E0FD
:1010D00005258E07360FB540A54223D12D4D2D682D
:1010E00095432C4E3560351D2D689543361D356072
:1010F000284D0C352D689543264E0C363560351F2E
:101100002D689543361F35608D072E0F0F2505FA84
:1011100006F41A4D8E0855F82650A543174E8F0831
:1011200046F8275005684F000326BE40B5430560CA
:10113000CE0800F1200555F826504E07F70E0F2671
:10114000BE40B543CF0800F1200646F82750C568D9
:101150004F000326BE40B543C560456801268E405A
:10116000B543456085684F000326BE40B5438560A2
:10117000491C23FA01F5002D82D1F0BD0800014081
:10118000000002400004024000080240000C02403F
:10119000001002400004014010B50446B4F5805F21
:1011A00017D10C480068C0F3C02090B100BF0A48B6
:1011B000C06820F001000849C86000BF03F068FF64
:1011C00000BF0548C06840F001000349C86000BF87
:1011D00000BF10BD100802400014004010B50446C6
:1011E00004480068204020B1024804602046FFF710
:1011F000D3FF10BD1404014078B503460A46002110
:1012000000240020C4E001268E40156805EA06048B
:10121000002C72D0157905F00305012D04D0157945
:1012200005F00305022D13D198684E000325B54043
:10123000A8434E00D568B5402843986058680125FA
:101240008D40A8431579C5F300158D40284358609B
:10125000157905F00305032D09D0D8684E00032544
:10126000B540A8434E009568B5402843D86015792D
:1012700005F00305022D13D1CE0803F1200555F822
:1012800026004D07EE0E0F25B540A8434E07F60E7B
:101290001569B5402843CE0803F1200545F826001E
:1012A00018684E000325B540A843157905F00305DD
:1012B0004E00B54028431860556805F44035002DB0
:1012C00065D000BF354D2D6845F00105334E3560C2
:1012D00035462D6805F00105009500BF00BF304D73
:1012E0008E0855F826008D072E0F0F25B540A84310
:1012F0002C4DAB4202D1002515E048E02A4DAB420F
:1013000001D101250FE0294DAB4201D102250AE0B0
:10131000274DAB4201D1032505E0264DAB4201D15B
:10132000042500E005258E07360FB54028431C4DE7
:101330008E0845F82600204D2868A043556805F41E
:10134000801505B120431C4D28602D1D2868A04341
:10135000556805F4001505B12043174D2D1D286073
:10136000154D2D1F2868A043556805F4003505B1BB
:101370002043114D2D1F28602D1F2868A04355685C
:1013800005F4803505B120430B4D083D2860491C0C
:101390001568CD40002D7FF436AF78BD203802406F
:1013A0000800014000000240000402400008024022
:1013B000000C024000100240080401400AB18161A3
:1013C00001E00B048361704701480068704700002A
:1013D0008400002003480068034909680844014963
:1013E00008607047840000208C00002010B50024A5
:1013F000032000F05DFA002000F008F808B1012495
:1014000001E000F0ABF9204610BD000070B50446C5
:10141000002511480068D8B10F4800684FF47A7170
:10142000B1FBF0F00D490968B1FBF0F6304601F070
:10143000E7F858B9102C07D200222146501E00F0C0
:10144000F9F90748046004E0012502E0012500E005
:101450000125284670BD00008C00002014000020EB
:101460008800002070B50446002600250CB9012034
:1014700070BD94F8350028B9002084F83400204667
:1014800000F078F8022084F835002068006820F029
:10149000010021680860002506E000212068143062
:1014A00040F82510681CC5B20F2DF6D92068806859
:1014B00040F0040021688860D4E901010843A16A72
:1014C0000843E16A0843E1690843216A0843A169C6
:1014D0000843616A084321684968254A1140084366
:1014E00021684860204602F0B9FCD4E903010843B2
:1014F00061690843216B08432168096821F0FE01F6
:101500000843216808602068006840F001002168F5
:101510000860FFF759FF064609E0FFF755FF801BFB
:10152000B0F57A7F03D90820A0630320A0E72068E4
:10153000806800F001000028EFD0FFF745FF064665
:1015400009E0FFF741FF801BB0F57A7F03D9102037
:10155000A06303208CE720688068C0F30010002897
:10156000EFD00020A063012084F8350000207FE741
:101570000F0000FC10B586B00446142101A8FEF748
:10158000E8FE34492068884261D100BF32480068D3
:1015900040F40070304908600846006800F40070AC
:1015A000009000BF00BF00BF2B480838006840F023
:1015B00004002949083908600846006800F0040062
:1015C000009000BF00BF00BF0846006840F0010067
:1015D00008600846006800F00100009000BF00BFEE
:1015E00000BF0846006840F0020008600846006836
:1015F00000F00200009000BF00BF40F2FF10019019
:10160000022002900020039004900B20059001A975
:101610001248FFF7F1FD48F2CE70019002200290CF
:101620000020039004900B20059001A90C48FFF7BF
:10163000E3FD4FF63B7001900220029000200390E2
:1016400004900B20059001A90648FFF7D5FD06B0D0
:1016500010BD000000240040243802400008024071
:10166000000002400004024070B5044608202168D2
:10167000C8602068806840F0040021688860FFF737
:10168000A3FE05460EE0FFF79FFE401BB0F57A7FF4
:1016900008D90420A06300BF002084F8340000BFF4
:1016A000032070BD20688068C0F3C0000028EAD025
:1016B000012084F8350000BF002084F8340000BF0A
:1016C00000BFEEE72DE9F04104460D4616461F46E1
:1016D0004FF0000894F83500012803D094F8350045
:1016E000022839D194F83500012828D100BF94F898
:1016F0003400012802D10220BDE8F081012084F8E5
:10170000340000BF022084F83500FFF75DFE8046FC
:101710000FE0FFF759FEA0EB0800B0F57A7F08D97B
:101720000220A06300BF002084F8340000BF032023
:10173000E2E720688068C0F380000028E9D12068D3
:10174000143050F82500F1438843384321681431A0
:1017500041F825000020CFE70120CDE70EB500209D
:101760000190029000BF1948006840F000401749FE
:1017700008600846006800F00040009000BF00BF0D
:1017800000BF081F006840F00100091F08600846FC
:10179000006800F00100009000BF00BF00BF081DFE
:1017A000006840F08050091D08600846006800F09D
:1017B0008050009000BF00BF602001900020029088
:1017C00001A800F089F800F0E3F80EBD24380240CB
:1017D00010B501460846002817DB00F01F03012260
:1017E0009A400B4B440943F8242000BF00BF00BFC0
:1017F000BFF34F8F00BF00BF00BF00BF00BF00BFDF
:10180000BFF36F8F00BF00BF00BF00BF10BD00005F
:1018100080E100E001460846002809DB00F01F03D4
:1018200001229A4043099B0003F1E023C3F8002101
:1018300000BF70472DE9F05F80460D461646002731
:1018400003F096FF074639462A46334601F0070063
:10185000C0F1070ABAF1040F02D94FF0040A01E0FF
:10186000C0F1070AD14600F1040ABAF1070F02D20B
:101870004FF0000A01E0A0F1030AD4464FF0010A3C
:101880000AFA09FAAAF1010A0AEA020A0AFA0CFAA1
:101890004FF0010B0BFA0CFBABF1010B0BEA030B46
:1018A0004AEA0B042146404603F07EFFBDE8F09F64
:1018B00000BF00F00702064B19684FF6FF031940FE
:1018C000044B0B4343EA0221014B196000BF7047F0
:1018D0000CED00E00000FA052B49096821F0E00159
:1018E00002681143284A11602849096821F48031AF
:1018F000264A1160111F096821F48031121F1160FE
:1019000000BF2249091D096821F480311F4A121DB8
:101910001160111D096821F48031121D116000BF92
:10192000416801F48031B1F5803F07D11749091FA3
:10193000096841F48031154A121F1160416801F4B1
:101940000031B1F5003F05D11049096841F48031FB
:101950000E4A1160017901F0010139B10B49091DED
:10196000096841F48031094A121D1160017901F0C2
:101970000201022907D105490831096841F4803183
:10198000024A0832116070470070004004040140B0
:101990000120102191FAA1F1B1FA81F1014A42F836
:1019A0002100704700000E42F8B50446207800F090
:1019B000010020B9207800F0020002287ED12078B2
:1019C00000F0010000B100BF207800F00200022802
:1019D00000D100BF00277248006800F0805070B945
:1019E00000BF6F48006840F080506D4908600846AD
:1019F000006800F08050009000BF00BF01276948D8
:101A0000006800F48070B0B96648006840F48070E7
:101A100064490860FFF7D8FC064606E0FFF7D4FCEF
:101A2000801B642801D90320F8BD5E48006800F4DB
:101A300080700028F2D05A482438006800F0C04571
:101A4000606800F0C040A84204D1A06800F0C04027
:101A5000A8420FD0606800F44030B0F5403F09D193
:101A60004F482438006800F40030B0F5003F01D141
:101A70000120D9E74A481030006800F440359DB392
:101A8000606800F44030A84203D0207800F00100E4
:101A900048B9A06800F44030A8422DD0207800F06A
:101AA0000200022828D13E481030006820F440355A
:101AB00001203D4908600020086000E06EE03848E1
:101AC0001030056005F48070B0F5807F14D1FFF709
:101AD0007BFC064609E0FFF777FC801B41F288316A
:101AE000884202D903209FE706E02D4810300068A5
:101AF00000F400700028EED0207800F002000228E8
:101B00001FD100BF00BFA06800F44030B0F5403FD7
:101B10000BD123482438006820F0C040A16801F0B0
:101B2000C04108431E492439086000BF1C481030DA
:101B30000068A16801F44031084319491031086078
:101B400000BF207800F00100F8B100BF00BF60685E
:101B500000F44030B0F5403F0BD111482438006804
:101B600020F0C040616801F0C04108430C492439AD
:101B7000086000BF0A4810300068616801F4403115
:101B8000084307491031086000BF012F05D1044800
:101B9000006820F080500249086000BF002043E741
:101BA0002438024000700040DC0647422DE9F04135
:101BB00004460D4614B90120BDE8F0817E48006856
:101BC00000F00100A84218D200BF012D05D17A48CB
:101BD000006840F00400784908607748006820F009
:101BE000010028437449086000BF0846006800F0FF
:101BF0000100A84201D00120DEE7207800F00200B9
:101C0000022807D16D48006820F0F000A168084361
:101C10006A490860207800F0010000287FD06068E1
:101C2000022807D165480838006800F40030F8B988
:101C30000120C1E76068032807D1604808380068C0
:101C400000F00070A0B90120B6E76068012807D154
:101C50005A480838006800F0020048B90120ABE794
:101C600056480838006800F4007008B90120A3E75E
:101C70005248006820F00300616808434F4908603B
:101C8000FFF7A2FB06466068022810D108E0FFF7C4
:101C90009BFB801B41F28831884201D903208BE7EE
:101CA0004648006800F00C000828F0D137E0606872
:101CB000032810D108E0FFF787FB801B41F2883131
:101CC000884201D9032077E73C48006800F00C0007
:101CD0000C28F0D123E06068012810D108E0FFF75C
:101CE00073FB801B41F28831884201D9032063E7EE
:101CF0003248006800F00C000428F0D10FE008E042
:101D0000FFF762FB801B41F28831884201D9032032
:101D100052E72A48006800F00C000028F0D126485D
:101D2000006800F00100A84218D900BF012D05D1BC
:101D30002148006840F004001F4908601E48006800
:101D400020F0010028431C49086000BF08460068D5
:101D500000F00100A84201D001202DE7207800F01A
:101D60000400042807D11548006820F4E060E16809
:101D7000084312490860207800F00800082808D1BC
:101D80000E48006820F46050216940EAC1000B4908
:101D9000086000F01BF809490968C1F30311084AFB
:101DA000515CC8400749086007480068FFF72EFBF0
:101DB0000746384600E70000003C02400838024071
:101DC0008864000814000020880000202DE9F05FDE
:101DD0002248D0F8009009F00C0070B3042804D019
:101DE000082804D00C2829D103E01D4D32E01D4DF8
:101DF00030E01D48C9F3834110F801A0C9F38150B8
:101E0000441C1648006800F4803050B11548A0FB0F
:101E10000A700146224600233846FEF7F1F90646CD
:101E200009E00F48A0FB0A7001462246002338460D
:101E3000FEF7E6F9064635460CE000E000BF07482D
:101E4000001F0068C0F3423B0BF1010001218140FB
:101E5000CD0300BF00BF2846BDE8F09F0838024010
:101E60000024F40000127A007F6400082DE9F84392
:101E7000044614B90120BDE8F883FE48006800F06C
:101E80000C06FC48006800F48037207800F0010060
:101E9000002875D0082E04D00C2E0ED1B7F5803F47
:101EA0000BD1F4480838006800F40030002867D0EF
:101EB0006068002864D10120DDE700BF6068012868
:101EC00008D1EC480838006840F48030E949083906
:101ED00008602DE0606868B9E6480838006820F4BA
:101EE0008030E449083908600846006820F4802002
:101EF00008601DE0606805280DD1DE4808380068DC
:101F000040F48020DB49083908600846006840F446
:101F1000803008600CE0D7480838006820F4803032
:101F2000D449083908600846006820F48020086019
:101F300000BF606890B1FFF747FA054606E0FFF77B
:101F400043FA401B642801D9032094E7C9480838A4
:101F5000006800F400300028F1D011E0FFF734FAF7
:101F6000054606E0FFF730FA401B642801D903203C
:101F700081E7C0480838006800F400300028F1D13B
:101F8000207800F00200022853D1042E02D00C2E3B
:101F900017D1B7B9B7480838006800F0020020B17F
:101FA000E068012801D0012065E7B248001F006801
:101FB00020F4F850216940EA0120AE49091F086069
:101FC00037E0E06800B30120AB490860FFF7FCF997
:101FD000054606E0FFF7F8F9401B022801D9032067
:101FE00049E7A4480838006800F002000028F1D052
:101FF000A048001F006820F4F850216940EA012041
:102000009C49091F086014E000209B490860FFF705
:10201000DBF9054606E0FFF7D7F9401B022801D996
:10202000032028E793480838006800F002000028E1
:10203000F1D1207800F01000102871D1F6BB8D4846
:102040000838006800F4007018B1A06908B90120D0
:1020500011E78849091F206A096801F46041884234
:1020600019D9206A02F07AFF08B1012003E78148FC
:10207000001F006820F46040216A08437D49091F61
:102080000860217F7B48001F006861F31F60794969
:10209000091F08601AE07748001F006820F46040BC
:1020A000216A08437349091F0860217F7148001F96
:1020B000006861F31F606F49091F00E020E00860BD
:1020C000206A02F04BFF08B10120D4E60121206A0A
:1020D00001EB503101208840C00366490968C1F313
:1020E0000311664A515CC84065490860654800684C
:1020F000FFF78CF98046B8F1000F42D04046BAE6AF
:10210000A06948B301205C490862FFF75DF9054604
:1021100007E0FFF759F9401B022802D90320AAE67D
:102120002FE054480838006800F400700028F0D010
:102130005048001F006820F46040216A08434D4960
:10214000091F0860217F4B48001F006861F31F6072
:102150004849091F086014E0002047490862FFF75A
:1021600033F9054606E0FFF72FF9401B022801D995
:10217000032080E63F480838006800F4007000281B
:10218000F1D1207800F0080008282CD16069A8B1AE
:1021900001203D490860FFF717F9054606E0FFF703
:1021A00013F9401B022801D9032064E631482C3082
:1021B000006800F002000028F1D014E0002032494D
:1021C0000860FFF701F9054606E0FFF7FDF8401B40
:1021D000022801D903204EE626482C30006800F082
:1021E00002000028F1D1207800F0040004286ED10C
:1021F0004FF000091F481C30006800F0805088B97B
:1022000000BF1C481C30006840F0805019491C3148
:1022100008600846006800F08050009000BF00BFD2
:102220004FF001091948006800F48070B0B91748F0
:10223000006840F4807015490860FFF7C5F805464E
:1022400006E0FFF7C1F8401B642801D9032012E61D
:102250000E48006800F480700028F2D000BFA0682B
:10226000012817D103482C30006840F480700149E0
:102270002C310DE008380240000047428864000815
:1022800014000020880000208006474200700040B3
:10229000086028E0A06858B96648006820F480709B
:1022A000644908600846006820F4806008601AE00D
:1022B000A06805280CD15F48006840F480605D4943
:1022C00008600846006840F4807008600BE040E059
:1022D0005848006820F48070564908600846006835
:1022E00020F48060086000BFA06898B1FFF76CF828
:1022F000054608E0FFF768F8401B41F28831884244
:1023000001D90320B7E54B48006800F400700028AD
:10231000F0D012E0FFF758F8054608E0FFF754F850
:10232000401B41F28831884201D90320A3E541488E
:10233000006800F400700028F0D1B9F1010F07D156
:102340003C481038006820F080503A491039086045
:1023500000BF606AA8B30C2E52D0606A022839D13F
:10236000002035490866FFF72FF8054606E0FFF71D
:102370002BF8401B022801D903207CE52D48343876
:10238000006800F000700028F1D1D4E90A01084388
:10239000216B084327492C39096821F47D01084342
:1023A00024492C390860012023490866FFF70CF8FE
:1023B000054607E0FFF708F8401B022802D9032072
:1023C00059E535E01B483438006800F000700028FB
:1023D000F0D02DE0002018490866FEF7F5FF05460D
:1023E00006E0FEF7F1FF401B022801D9032042E579
:1023F00010483438006800F000700028F1D117E070
:10240000606A012800D136E50A482C38076807F4CD
:102410008031A06A814209D107F47011E06A8142DB
:1024200004D107F44001206B814201D0012022E554
:10243000002020E5343802400000474270477047D2
:10244000704770477047704710B504464FF48010CE
:102450000A4908602068C068C0F3802050B1206835
:10246000C06800F0800060F490602168C860204679
:10247000E16A88470120607710BD00001404014024
:102480007047000070B504460CB9012070BD607F34
:10249000D0B900202077324820623248606232484A
:1024A000A0623248E06232482063324860633248BA
:1024B000A063E06B08B93148E0632046E16B8847D0
:1024C000206C08B92E482064022060772068C0681C
:1024D000C0F3001000283CD100BFCA202168486228
:1024E00053202168486200BF204602F08BFD05465C
:1024F000EDB9206880682349084021688860216917
:102500006068084361690843216889680843216855
:1025100088602168E068086120680169208941EAD3
:10252000004021680861204602F091FD05465DB932
:102530002068006C20F48020216808642068006C0A
:10254000A16908432168086400BFFF202168486230
:1025500000E000250DB901206077284696E70000CD
:10256000812400083D240008452400084724000871
:102570003F2400084124000843240008A125000846
:1025800089250008BFFF8FFF034A0168914202D1ED
:102590000021024A1160704700280040D8064742D7
:1025A000034A0168914202D10121024A1160704739
:1025B00000280040D806474270B5044600254FF673
:1025C00057702168C860FEF7FFFE054607E0FEF77A
:1025D000FBFE401BB0F57A7F01D9032070BD206857
:1025E000C06800F020000028F1D00020F6E74FF08E
:1025F000E020006940F002004FF0E02108617047E0
:1026000070B504462546681EB0F1807F01D30120D5
:102610000FE0681E4FF0E02148610F214FF0FF30BE
:1026200003F0C2F800204FF0E02188610720086124
:10263000002070BD4FF0E020006920F002004FF054
:10264000E021086170470000014691F83900012837
:1026500001D001207047022081F839000868C06865
:1026600040F001000B68D8600868B0F1804F0BD0D3
:10267000104B0868984207D00F4B0868984203D067
:102680000E4B086898420CD10868806800F0070279
:10269000062A0CD00868006840F001000B6818603A
:1026A00005E00868006840F001000B681860002031
:1026B000D0E700000004004000080040000801408E
:1026C00000BFFEE700200549086005490870487012
:1026D0000448002101604160816070475000002083
:1026E00000000020A801002010B500240122D10321
:1026F000604801F09DFD4FF400415E4801F096FDF9
:102700004FF400415B4801F08EFD00224FF4005170
:10271000584801F08DFD01225103564801F09CFDFF
:1027200000224FF48041534801F082FD01229103C1
:10273000504801F091FD4FF480414E4801F05EFD9C
:1027400008B9062407E04FF400514A4801F056FD4D
:1027500008B904B9022400224FF40041454801F0B1
:1027600067FD0122D103434801F076FD0122910368
:10277000404801F05DFD4FF480413E4801F056FDB8
:102780004FF480413B4801F04EFD00224FF40051D0
:10279000384801F04DFD01225103364801F05CFD3F
:1027A00000224FF40041334801F042FD0122D103E1
:1027B000304801F051FD4FF400512E4801F01EFD4C
:1027C00010B94CB9032407E04FF40041294801F047
:1027D00015FD08B904B9012400224FF480412548B1
:1027E00001F026FD01229103224801F035FD01226E
:1027F0005103204801F01CFD4FF400511D4801F029
:1028000015FD4FF400511B4801F00DFD00224FF45F
:102810008041184801F00CFD01229103154801F098
:102820001BFD00224FF40041124801F001FD01227E
:10283000D103104801F010FD4FF480410D4801F024
:10284000DDFC10B94CB9042407E04FF400410948FD
:1028500001F0D4FC08B904B9052400224FF400515A
:10286000044801F0E5FC01225103024801F0F4FCA8
:10287000204610BD000802402DE9F04786B004460E
:1028800014B906B0BDE8F0876078012806D00228A8
:1028900075D0032874D0042873D117E102F0F0FD3D
:1028A0000546207807286DD2DFE800F0CC9B812711
:1028B0000416CB00FE480078082802D102F0C4FEBE
:1028C00009E0FB480078012803D0F9480078022885
:1028D00001D102F093FEB6E0082D03D10020F449A7
:1028E000087009E0022D05D0032D03D0042D01D07E
:1028F000052D01D102F04EFDA5E0ED480078082835
:102900000AD1012002F0F4FDEA4800690090E9488C
:102910000FC800F037FD49E0E7A001F009FA01F027
:102920006BFA02F0B3FD0646777802F09DFE7078F0
:10293000B84230D0707808B9012000E0002081460C
:10294000484601F07FFADD48006820B3DB480168A3
:1029500001A8FDF73BFE142201A9D648FDF7C7FCEC
:10296000FEF732FD82460EE0D248007858B1D148D9
:1029700000690090CF480FC800F004FD09E064E052
:10298000A5E0A5E05EE0FEF71FFDA0EB0A006428CD
:10299000EAD300BF00BFC648407808B9012000E074
:1029A00000208046404601F04DFA00BF4BE0C04891
:1029B000007808280BD14FF0FF3002F099FDBD4898
:1029C00000690090BB480FC800F0DCFC08E0012D56
:1029D00004D1FDF7B5FF02F0CFFD01E002F0DAFD12
:1029E00031E00020FEF75CF8012D07D10120B44949
:1029F0000870B2480068AE49086116E0022D0DD19A
:102A0000FDF79EFFAD480068A9498860AB480068A3
:102A10008862AA490868FEF743F806E0A7480068FC
:102A2000A34988600120A6490870A4490868FEF7F8
:102A300037F8A048006900909E480FC800F0A2FC3B
:102A400001E000E000BF00BF43E0207807283AD251
:102A5000DFE800F039321F0D040A380008209449DD
:102A6000087002F007FE2FE002F0D8FC2CE090483E
:102A7000007808280AD1012002F03AFD8D4800694B
:102A800000908C480FC800F07DFC01E002F0ECFDE6
:102A90001AE08748007808280BD14FF0FF3002F089
:102AA00027FD84480069009082480FC800F06AFC46
:102AB00001E002F0DBFC07E002F0E8FC054602F072
:102AC00087FD01E000E000BF00BF02E000BF00E0C2
:102AD00000BF00BF607850B101207A490870FEF74E
:102AE00073FC00F5FA707849086002F0C3FD77487E
:102AF000007800F0010080B10121062000F0C0FB49
:102B00007348007820F00100401C714908706F483C
:102B1000007820F001006D4908706C480078C0F31F
:102B2000801098B30121062000F0AAFB68480078C5
:102B300020F040004030664908706448007820F07A
:102B40004000624908705A480078082843D1584824
:102B500090F82000D8B95F480078142190FBF1F27A
:102B600001FB12000A2808DA0121062000F088FB88
:102B70000121032000F084FB28E00021062000F062
:102B80007FFB0021032000F07BFB1FE023E048488F
:102B900090F82000012819D14E480078142190FBAC
:102BA000F1F201FB12000A2808DA0121062000F0E8
:102BB00067FB0121042000F063FB07E000210620F1
:102BC00000F05EFB0021042000F05AFB4148007831
:102BD000401C404908703D480078C0F3400060B197
:102BE0003B48007820F00200801C394908703748C3
:102BF000007820F002003549087034480078C00998
:102C000060B13348007820F080008030304908708F
:102C10002E48007820F080002C4908702B4800785E
:102C2000C0F3800060B12A48007820F00400001D45
:102C3000274908702548007820F0040023490870CF
:102C40002248407800F0010060B12148407820F02F
:102C50000100401C1E4948701C48407820F00100CB
:102C60001A49487019480078C0F3C00060B118488C
:102C7000007820F0080008301549087013480078E3
:102C800020F008001149087010484078C0F3400057
:102C900060B10F48407820F00200801C0C49487059
:102CA0000A48407820F0020008494870074813E0BD
:102CB000600200203802002055490000600000201A
:102CC0006C00002048000020440000205800002034
:102CD000500000206E0000200078C0F3001060B1AA
:102CE0003448007820F01000103032490870324823
:102CF000007820F01000304908702F484078C0F369
:102D0000800060B12B48407820F00400001D294964
:102D100048702948407820F0040027494870264828
:102D20000078C0F3401060B12248007820F0200005
:102D30002030204908702048007820F020001E49EB
:102D400008701D484078C0F3C00060B11948407851
:102D500020F008000830174948701748407820F0E4
:102D6000080015494870207805280CD160780228A1
:102D700009D11248016801A8FDF728FC142201A915
:102D80000F48FDF7B4FA0E48006900900C480FC8D0
:102D900000F0F8FA2078052809D16078022806D1D9
:102DA00007480069009006480FC800F0EBFA00BF22
:102DB00067E500005000002058000020600000205F
:102DC00038020020F8B5FFF78FFC07463548046845
:102DD0003548C588C78057B325B98460012032497A
:102DE00008605CE030488068A04206D82E488068C1
:102DF000201A322100FB01F608E02B488068C0F160
:102E0000FF302044401C322100FB01F6B6F57A7FEA
:102E10000CD3264800680090F8B28DF80000684690
:102E2000FFF72AFD15202049086000BF37E0B5B341
:102E30001D488068A04206D81B488068201A3221AD
:102E400000FB01F608E018488068C0F1FF3020441C
:102E5000401C322100FB01F6642E0DD3B6F57A7FBB
:102E60000AD21248001D00680090E8B28DF80000F8
:102E70006846FFF701FD0DE0B6F57A7F0AD30B48EF
:102E8000083000680090E8B28DF800006846FFF74F
:102E9000F3FC00BF002004490860886000BF0248BE
:102EA0008580F8BD70000020A8010020746400082F
:102EB00010B50248FFF7C8FB10BD0000100100204C
:102EC00010B504460021204600F0DAF910BD0000DC
:102ED00010B5002004E00021114A42F82010401CE7
:102EE0000428F8DB002003E000210E4A1154401CA6
:102EF0000628F9DB00200DE028B1022803D00428C1
:102F000001D0062805D1002207490968143141F88B
:102F10002020401C0828EFDB0348FEF7A5FB10BD6E
:102F2000B4010020180000209000002010B501F02E
:102F3000B7FCFFF7CDFF0220FFF7C2FF0320FFF72A
:102F4000BFFF0420FFF7BCFF0520FFF7B9FF0620F5
:102F5000FFF7B6FF0720FFF7B3FF0820FFF7B0FF2A
:102F60000121192000F08CF90920FFF7A9FF292081
:102F7000FFF7A6FF1820FFF7A3FF1720FFF7A0FF1A
:102F80001620FFF79DFF1520FFF79AFF1420FFF78B
:102F900097FF1320FFF794FF1220FFF791FF1120F6
:102FA000FFF78EFF1020FFF78BFF0F20FFF788FF42
:102FB0000E20FFF785FF0D20FFF782FF0C20FFF7A3
:102FC0007FFF0B20FFF77CFF0A20FFF779FF1A2015
:102FD000FFF776FF1B20FFF773FF1C20FFF770FF42
:102FE0001D20FFF76DFF1E20FFF76AFF1F20FFF770
:102FF00067FF2020FFF764FF2120FFF761FF2220F9
:10300000FFF75EFF2320FFF75BFF2420FFF758FF49
:103010002520FFF755FF2620FFF752FF2720FFF757
:103020004FFF2820FFF74CFF00F0E6FE10BD000028
:103030002DE9F34F89B004460A9806287ED2DFE8CE
:1030400000F0031D37516B8702260227B0464FF070
:1030500001094FF0010A4FF0010B012008900020F8
:103060000790012006900220059003200490022082
:103070000390002002900120019086E0042604279E
:10308000B0464FF003094FF0030A4FF0030B032043
:103090000890002007900120069002200590032050
:1030A00004900220039000200290012001906CE027
:1030B00006260627B0464FF005094FF0050A4FF0E7
:1030C000050B0520089000200790012006900220A3
:1030D000059003200490022003900020029001201C
:1030E000019052E008260827B0464FF007094FF03C
:1030F000070A4FF0070B07200890002007900120D7
:1031000006900220059003200490022003900020E6
:1031100002900120019038E00A260A27B0464FF0BD
:1031200009094FF0090A4FF0090B09200890002007
:103130000790012006900220059000E022E0032085
:1031400004900220039000200290012001901CE0D6
:103150000C260C27B0464FF00B094FF00B0A4FF02E
:103160000B0B0B20089000200790012006900220F6
:10317000059003200490022003900020029001207B
:10318000019002E00BB0BDE8F08F00BF0025092CD4
:1031900003DC204639490D5C44E01C2C01D01D2C79
:1031A00001D140253EE01E2C01D100253AE00A2C39
:1031B00037DB1B2C35DCA4F10A0012282ED2DFE805
:1031C00000F0090B0D0F11131517191B1D1F2123DB
:1031D0002527292B772523E07C2521E039251FE0B1
:1031E0005E251DE079251BE0712519E03D2517E0DE
:1031F000762515E0062513E00E2511E038250FE0B1
:103200003F250DE073250BE06D2509E0782507E0EB
:103210003E2505E06E2503E05B2501E0002500BFAB
:1032200000E0002505F001023146079802F00AFC93
:10323000C5F340023946069802F004FCC5F380024B
:103240004146059802F0FEFBC5F3C00249460498CA
:1032500002F0F8FBC5F300125146039802F0F2FBAE
:10326000C5F340125946029802F0ECFBC5F38012F8
:103270000899019802F0E6FB00BF83E7C3640008E9
:103280007CB505460E462A2D6AD2DFE805F01517F3
:10329000191B1D1F21232527292B2D2F31333537AE
:1032A000393B3D3F41434547494B4D4F515355579E
:1032B000595B5D5F61636567402452E03F2450E0E5
:1032C00037244EE038244CE03A244AE0392448E0E0
:1032D000362446E0342444E0352442E0452440E0EE
:1032E00046243EE048243CE049243AE04A2438E0C1
:1032F0004B2436E04C2434E04D2432E04E2430E0C0
:103300004F242EE050242CE051242AE0522428E0BF
:10331000532426E0542424E0552422E0472420E0CE
:1033200056241EE057241CE058241AE0592418E0C3
:103330005A2416E05B2414E05C2412E05D2410E0C3
:103340005E240EE05F240CE060240AE0612408E0C3
:10335000622406E0632404E0652402E0642400E0C3
:103360007CBD00BF6A4601A9204602F038FA30B1A0
:1033700032469DF800109DF8040002F063FB00BF88
:10338000EEE700000FB400B591B0FFF7A1FDFC48D7
:10339000407D109000F052FD0F900F9800780E9035
:1033A000F748407808B9012000E000200D90DDE9E1
:1033B0000D01814204D00F990D9808700D980E9060
:1033C0009DF850000C90EF491398884201DB0120D2
:1033D00000E000200B9013980A900C9802F085FBF7
:1033E0001098002878D1E7491398884201DB012022
:1033F00000E000200890089820B39DF853000021B9
:103400000690FFF715FE12A8007B01210690FFF73A
:103410000FFE12A8407B02210690FFF709FE12A8BA
:10342000807B03210690FFF703FE12A8C07B0421D6
:103430000690FFF7FDFD12A8007C05210690FFF71E
:10344000F7FD75E000200690012005900020039014
:103450000DE00DF153000399405C28B10398C0B210
:1034600006900020059005E00398401C0390039807
:103470000628EEDB00BF10990E98FDF72DFB049097
:103480000498012807DB0498052804DC0498401EF2
:10349000C0B2049001E0062004900598E8B1002035
:1034A000039015E0DDE90301884207DB0398C0B211
:1034B000014602900020FFF7BBFD06E00398C0B272
:1034C000014602901E20FFF7B3FD0398401C0390B5
:1034D00003980628E6DB2AE03DE00020039023E085
:1034E000DDE90301884201DA012000E000200290BA
:1034F000029858B106990398884207DA0398C0B237
:10350000014601901E20FFF793FD0AE00398C0B228
:1035100001900DF153000399405C00900199FFF771
:1035200087FD0398401C039003980628D8DB00BF52
:1035300010990E98FDF7D0FA07900798012809DB3B
:103540000798052806DC0798401EC0B201210690A6
:1035500002F08CFCB6E08B491398884201DB012015
:1035600000E000200890089820B39DF85300002147
:103570000690FFF75DFD12A8007B01210690FFF782
:1035800057FD12A8407B02210690FFF751FD12A8BB
:10359000807B03210690FFF74BFD12A8C07B04211E
:1035A0000690FFF745FD12A8007C05210690FFF765
:1035B0003FFD74E00020069001200590002003905C
:1035C0000DE00DF153000399405C28B10398C0B29F
:1035D00006900020059005E00398401C0390039896
:1035E0000628EEDB00BF10990E98FDF775FA0490DF
:1035F0000498012807DB0498052804DC0498401E81
:10360000C0B2049001E0062004900598E0B10020CB
:10361000039015E0DDE90301884207DB0398C0B29F
:10362000014602900020FFF703FD06E00398C0B2B8
:10363000014602901E20FFF7FBFC0398401C0390FC
:1036400003980628E6DB29E00020039023E0DDE96B
:103650000301884201DA012000E000200290029874
:1036600058B106990398884207DA0398C0B2014618
:1036700001901E20FFF7DCFC0AE00398C0B2019025
:103680000DF153000399405C00900199FFF7D0FCC5
:103690000398401C039003980628D8DB00BF1099BC
:1036A0000E98FDF719FA07900798012809DB07988B
:1036B000052806DC0798401EC0B20121069002F0E2
:1036C000D5FB00BF0E9802F04DFA01F0D9FE08902C
:1036D00002F0D4F92A48007D40B1294890F8300022
:1036E00020B901210620FFF7CBFD02E00620FFF7FD
:1036F000E7FB23480078082806D10720FFF7E0FB06
:103700000820FFF7DDFB1CE01D4890F83000A8B151
:103710000A9801F0D1FE0890089838B901210720D5
:10372000FFF7AEFD0820FFF7CBFB06E00720FFF711
:10373000C7FB01210820FFF7A3FD02E00A9802F071
:10374000E5F90F480078082873D1FFF7C1FB0C4852
:1037500090F82000C0BB01210620FFF791FD012158
:103760000320FFF78DFD0648806908900020069031
:1037700007900898002807DA0898404205E0000002
:1037800060020020A08601000898059000200190AA
:1037900014E00A21059890FBF1F201FB1200C1B27E
:1037A0000198C0F1050006AA11540A21059890FB62
:1037B000F1F005900198401CC0B2019001980628D4
:1037C000E7DB002001900BE034E006A90198085CDB
:1037D00000900199FFF72CFC0198401CC0B20190A9
:1037E00001980628F1DB0898002803DA012002F08E
:1037F0007CF902E0002002F078F9FD48407808B931
:10380000012000E000200490F948407D0390DDE9AC
:103810000310FDF761F902900298012809DB029874
:10382000052806DC0298401EC0B20121019002F07A
:103830001DFB6DE0EE4890F82000012868D10121C1
:103840000620FFF71DFD01210420FFF719FDE848C0
:10385000C06908900020069007900898002802DAB6
:103860000898404200E0089805900020019014E07C
:103870000A21059890FBF1F201FB1200C1B20198F8
:10388000C0F1050006AA11540A21059890FBF1F039
:1038900005900198401CC0B2019001980628E7DB12
:1038A000002001900AE006A90198085C00900199A7
:1038B000FFF7BEFB0198401CC0B20190019806289A
:1038C000F1DB0898002803DA012002F00EF902E08B
:1038D000002002F00AF9C648407808B9012000E04B
:1038E00000200490C248407D0390DDE90310FDF7FD
:1038F000F3F802900298012809DB0298052806DCFB
:103900000298401EC0B20121019002F0AFFA00BF40
:1039100001F0B6FD0990099802280DD0099858B118
:103920000998032808D00998042805D00998052883
:1039300002D0099808287BD101211920FFF7A0FCAB
:103940000998052875D101F0B1FD089001F0A8FD96
:10395000079001F09FFD1399081A06900120059029
:1039600012E005981730C0B20490FFF7A9FA059845
:103970001930C0B20490FFF7A3FA01211920FFF714
:103980007FFC0598401C059005980F28E9DD0698F6
:1039900000284FDD089818B9069802F0EDFB02E008
:1039A000089802F0E9FB0590069802F0E5FB02900A
:1039B000059902F003FB04904FF07E51049802F049
:1039C000F3FC02D24FF07E5004900021049802F0E4
:1039D000EBFB01D2002004908649049802F018FC09
:1039E000029002F0ADFB039003980F2801DD0F2039
:1039F00003900398012801DA01200390012002902E
:103A00000DE002981730C0B201210190FFF738FC99
:103A100001211920FFF734FC0298401C0290DDE9D7
:103A200002018842EDDD039841B2734801705DE008
:103A30000FE173E00698002851DA079810B906984C
:103A4000404201E0079840420590059802F094FB3F
:103A500002900698404202F08FFB0190029902F01A
:103A6000ADFA04904FF07E51049802F09DFC02D212
:103A70004FF07E5004900021049802F095FB01D293
:103A8000002004905B49049802F0C2FB029002F00F
:103A900057FB039003980F2801DD0F200390039834
:103AA000012801DA01200390012002900DE0029824
:103AB0001930C0B201210190FFF7E2FB012119206A
:103AC000FFF7DEFB0298401C0290DDE9020188420C
:103AD000EDDD0398404240B24749087006E00020FF
:103AE0004549087001211920FFF7CAFB08980F28E3
:103AF00004DD01210920FFF7C3FB02E00920FFF7E5
:103B0000DFF9079810F10F0F04DA01212920FFF7E0
:103B1000B7FB02E02920FFF7D3F9FEE0364890F921
:103B200000000F2804DD01210920FFF7A9FB02E0B6
:103B30000920FFF7C5F9304890F9000010F10F0F88
:103B400004DA01212920FFF79BFB02E02920FFF77F
:103B5000B7F9012008900CE008981730C0B2079020
:103B6000FFF7AEF901211920FFF78AFB0898401CE6
:103B7000089008980F28EFDD012008900CE00898C5
:103B80001930C0B20790FFF79BF901211920FFF708
:103B900077FB0898401C089008980F28EFDD16481E
:103BA00090F90000002829DD134890F900000F2843
:103BB00001DD0F2002E0104890F9000008900898FD
:103BC000002814DD01211920FFF75AFB012007907E
:103BD00009E007981730C0B201210690FFF750FBAB
:103BE0000798401C0790DDE907018842F1DD94E069
:103BF00060020020000070416F0000204B4890F9E7
:103C00000000002824DA494890F9000040420F28BB
:103C100001DD0F2003E0454890F900004042089084
:103C200001211920FFF72CFB0898002810DD012046
:103C3000079009E007981930C0B201210690FFF7FC
:103C40001FFB0798401C0790DDE907018842F1DD62
:103C500063E001211920FFF713FB0920FFF730F97A
:103C60002920FFF72DF91820FFF72AF91720FFF771
:103C700027F91620FFF724F91520FFF721F9142062
:103C8000FFF71EF91320FFF71BF91220FFF718F9B1
:103C90001120FFF715F91020FFF712F90F20FFF799
:103CA0000FF90E20FFF70CF90D20FFF709F90C2092
:103CB000FFF706F90B20FFF703F90A20FFF700F9D9
:103CC0001A20FFF7FDF81B20FFF7FAF81C20FFF77A
:103CD000F7F81D20FFF7F4F81E20FFF7F1F81F207A
:103CE000FFF7EEF82020FFF7EBF82120FFF7E8F8C8
:103CF0002220FFF7E5F82320FFF7E2F82420FFF762
:103D0000DFF82520FFF7DCF82620FFF7D9F8272079
:103D1000FFF7D6F82820FFF7D3F801211920FFF785
:103D2000AFFA00F069F811B05DF814FB6F000020E5
:103D30002DE9F04104460CB9BDE8F081FFF7C8F861
:103D40000025002652E0605D30280CDB605D3928DC
:103D500009DC605D3038C7B231463846FFF768F994
:103D6000701CC6B240E0605D41280CDB605D5A28E3
:103D700009DC605D3738C7B231463846FFF758F97D
:103D8000701CC6B230E0605D61280CDB605D7A2893
:103D900009DC605D5738C7B231463846FFF748F94D
:103DA000701CC6B220E0605D2D2808D1062E06DA10
:103DB00031461D20FFF73CF9701CC6B214E0605D6F
:103DC0002E2809D1052E07DA002E0DDD711EC8B28E
:103DD000012102F04BF807E0062E05DA31461E20DD
:103DE000FFF726F9701CC6B2681CC5B2605D08B149
:103DF000062EA8DB00BF9FE72DE9F041002412E06A
:103E000065000C480068143050F825800A4850F8C6
:103E1000246088EA06072FB133463A46294605480A
:103E2000FDF750FC641C042CEADB0248FDF71CFC87
:103E3000BDE8F08190000020B401002000487047E8
:103E4000C40100200149087070470000C40100202F
:103E50000149487070470000C401002070B5044655
:103E60000025FDF7B1FA054609E0FDF7ADFA401B64
:103E7000B0F57A7F03D90120A063032070BD2068CC
:103E80008068C0F340100028EFD00020F6E7000063
:103E900008B5054909680143034A116011460968DC
:103EA0000140009100BF08BD1C38024008B505491B
:103EB00009680143034A11601146096801400091F5
:103EC00000BF08BD2438024030B54B1E054CE35CF2
:103ED000C35823F4405313434C1E024D2C5D035131
:103EE00030BD00002D64000830B54B1E054CE35C6E
:103EF000C35844F21004A34313434C1E014D2C5DE0
:103F0000035130BD2D64000830B54B1E054CE35CF9
:103F1000C35823F0800313434C1E024D2C5D035104
:103F200030BD00002D64000830B54B1E054CE35C2D
:103F3000C35823F4406313434C1E024D2C5D0351C0
:103F400030BD00002D64000830B54B1E054CE35C0D
:103F5000C35823F0200313434C1E024D2C5D035124
:103F600030BD00002D64000830B54B1E054CE35CED
:103F7000C35823F0400313434C1E024D2C5D0351E4
:103F800030BD00002D64000830B54B1E054CE35CCD
:103F9000C35823F4407313434C1E024D2C5D035150
:103FA00030BD00002D640008024909688143014AC0
:103FB0001160704704040140024909688143014AC5
:103FC0001160704700040140024909680143014A39
:103FD0001160704704040140024909680143014A25
:103FE000116070470C040140024909680143014A0D
:103FF0001160704700040140024909680143014A09
:10400000116070470804014070B50446002520790E
:1040100000284DD02068002850D0607920B10128B8
:1040200009D0022815D10DE02068FFF7BDFF2068F8
:10403000FFF7DAFF0FE02068FFF7BEFF2068FFF709
:10404000C3FF08E02068FFF7CFFF2068FFF7BCFF41
:1040500001E0012500BF00BFA07940B3A07901288D
:1040600004D002280DD003281FD117E0206814497E
:1040700009688143124A116000BF2068FFF7BCFF46
:1040800015E020680E49091F096881430C4A121F78
:10409000116000BF2068FFF79FFF08E02068FFF76E
:1040A000ABFF2068FFF798FF01E0012500BF05E0A6
:1040B0002068FFF781FF2068FFF776FF284670BD74
:1040C0000C040140F0B502460B460024002118689C
:1040D00090FAA0F0B0FA80F48AE00125A5401868B3
:1040E00000EA050100297DD05868012802D05868EF
:1040F00002281CD19868956891FAA1F6B6FA86F65E
:1041000077000326BE40B54391FAA1F6B6FA86F6CB
:10411000760000FA06F63543956000BFD86855680A
:104120008D4301FB00F63543556000BF00BF1869A1
:10413000D56891FAA1F6B6FA86F677000326BE4056
:10414000B54391FAA1F6B6FA86F6760000FA06F6BD
:104150003543D56000BF5868022831D191FAA1F0EB
:10416000B0FA80F0082814D25869156A91FAA1F6BD
:10417000B6FA86F6B7000F26BE40B54391FAA1F60F
:10418000B6FA86F6B60000FA06F63543156200BFA9
:1041900016E05869556A0E0A96FAA6F6B6FA86F639
:1041A000B7000F26BE40B5430E0A96FAA6F6B6FA39
:1041B00086F6B60000FA06F63543556200BF00BF2A
:1041C0005868156891FAA1F6B6FA86F677000326C4
:1041D000BE40B54391FAA1F6B6FA86F6760000FA2B
:1041E00006F600E003E03543156000BF00BF641C25
:1041F0001868E04000287FF470AFF0BD02461069F7
:104200000840884201D1012070470020FCE70246A7
:1042100010690840884201D1012070470020FCE766
:104220000A04826170470A048261704781617047A5
:1042300030B5036891FAA1F4B4FA84F4650003245C
:10424000AC40A34391FAA1F4B4FA84F4640002FAF6
:1042500004F42343036030BD30B5C36891FAA1F480
:10426000B4FA84F465000324AC40A34391FAA1F4AA
:10427000B4FA84F4640002FA04F42343C36030BD4A
:1042800010B5044600F002FE2060206800F0CAFD70
:104290006060606800F0D6FDA060606800F0E4FD3A
:1042A000E06010BD016841F001010160704700004D
:1042B00010B502461368B2F1804F0BD01C48824201
:1042C00008D01C48824205D01B48824202D01B48BD
:1042D000824204D123F070004C6840EA0403B2F13A
:1042E000804F11D0124882420ED0124882420BD029
:1042F0001148824208D01148824205D010488242BB
:1043000002D01048824204D123F44070CC6840EAC5
:10431000040313608868D06200BF0888906200BF01
:1043200000BF506940F00100506100BF002010BD87
:104330000004004000080040000C0040000801405C
:10434000000C0140001001402DE9F04106460C46EA
:1043500015460127012C08D0102C0CD0B4F5807F15
:104360000FD0B4F5805F18D111E02946304600F037
:10437000CFFC074612E02946304600F0EBFC07462A
:104380000CE02946304600F007FD074606E02946C6
:10439000304600F023FD074600E000BF00BF38466E
:1043A000BDE8F081826844F207039A430A438260C1
:1043B000704700002DE9FF4104460D460127002605
:1043C000204600F043F8002836D1E96868680843C1
:1043D00029690843A9690843E16849F20C629143DD
:1043E0000843E060A868216921F44051014321613C
:1043F00000BF6869616921F440710143616100BFD8
:104400006846FFF73DFF0E48844201D1039E08E055
:104410000C48844201D1029E03E00B48844200D143
:10442000029E4EB1286838B10027314620462B68DD
:10443000AA6900F010F800BF384604B0BDE8F0816A
:104440000038014000440040004800400146C86870
:10445000C0F340307047F0B5B2F5004F4ED101EBDC
:10446000C10404EB01145D00B4FBF5F46425B4FB56
:10447000F5F4250101EBC10404EB01145E00B4FB6B
:10448000F6F401EBC10606EB01165F00B6FBF7F68A
:104490006427B6FBF7F606EBC60707EB0616A4EB98
:1044A0008604322606EBC4046426B4FBF6F404F05A
:1044B000F80405EB440501EBC10404EB01145E00B4
:1044C000B4FBF6F401EBC10606EB01165F00B6FB88
:1044D000F7F66427B6FBF7F606EBC60707EB0616FA
:1044E000A4EB8604322606EBC4046426B4FBF6F47F
:1044F00004F007042C44A4B284604CE001EBC10436
:1045000004EB01149D00B4FBF5F401EBC10505EBD0
:1045100001159E00B5FBF6F56426B5FBF6F505EB37
:10452000C50606EB0515A4EB8504322505EB04143E
:104530006425B4FBF5F404F0F00401EBC10505EBD0
:1045400001159E00B5FBF6F56426B5FBF6F504EB08
:10455000051501EBC10404EB01149E00B4FBF6F455
:1045600001EBC10606EB01169F00B6FBF7F66427C8
:10457000B6FBF7F606EBC60707EB0616A4EB8604B8
:10458000322606EB04146426B4FBF6F404F00F04A0
:104590002C44A4B28460F0BD00B59FB00020009010
:1045A00001900290702103A8FBF7D3FE20480390EE
:1045B0000020049000210591069107914FF480613D
:1045C0000891002109918DF8301001210D910021F1
:1045D0008DF8381001210F911021109100211191B7
:1045E0008DF848100398806820F0010003998860D6
:1045F0000120FCF72BFD03A8FCF77EFB08B1FCF7BC
:1046000068FA05200090012001900620029069467A
:1046100003A8FCF781FA08B1FCF75BFA03A8FCF7E2
:10462000ADFC10B903A8FCF7F1FC1FB000BD000001
:104630000024014038B54FF08070154909680143E6
:10464000134A1160114609680140009100BF00BF84
:1046500001F086F805460022114600F039FB0446B9
:1046600021460E2001F08CF80E2001F06BF801F0CD
:1046700077F805460022114600F02AFB0446214641
:104680000F2001F07DF80F2001F05CF838BD00002C
:104690001C38024010B588B0002006900790182101
:1046A0006846FBF756FE0420FFF7F2FB2020FFF7D9
:1046B000EFFB0120FFF7ECFB0220FFF7E9FB0820EE
:1046C000FFF7E6FB10217048FFF7AAFD04216F48B1
:1046D000FFF7A6FD4FF400716D48FFF7A1FD04211F
:1046E0006C48FFF79DFD4FF480606949886100BF09
:1046F000C000009000200190012004900220029050
:1047000069466348FFF7DEFC4FF4804000900020CC
:104710000190012004900220029069465C48FFF756
:10472000D1FC4FF400400090002001900120049043
:104730000220029069465648FFF7C4FC1020009002
:1047400001200190002002900390049069464E4899
:10475000FFF7B8FC04200090012001900020029097
:104760000390049069464948FFF7ACFC4FF4007091
:10477000009001200190002002900390049069466F
:104780004348FFF79FFC4FF48060009001200190A8
:104790000220029001200390049069463C48FFF7F4
:1047A00091FC4FF4006000900020019001200490E3
:1047B00069463748FFF786FC0420009001200190ED
:1047C000002002900390049069463248FFF77AFC7B
:1047D00002213148314A00F0030352F8232022EA33
:1047E0001042030C93FAA3F3B3FA83F301FA03F331
:1047F0001A432A4B00F0030443F8242000BFC802E8
:104800000121234AD26890FAA0F3B3FA83F35C0043
:104810000323A3409A4390FAA0F3B3FA83F35B0017
:1048200001FA03F31A431A4BDA6000BF00211A465B
:10483000126890FAA0F3B3FA83F35C000323A34059
:104840009A4390FAA0F3B3FA83F35B0001FA03F3FF
:104850001A430F4B1A6000BF069001208DF81C0010
:1048600000208DF81D0002208DF81E0006A8FFF71D
:10487000CBFB002202212820FCF7DCFF2820FCF7DC
:10488000C9FF08B010BD0000000002400004024053
:1048900000080240000C024003000F000800014025
:1048A00010B51148114908600020486000210F48E8
:1048B00081600C21C16040210161002141614FF400
:1048C000A05181618021C161302101628021016399
:1048D000002181624FF40041C162FCF7C3FD08B1C1
:1048E000FCF7F7F810BD0000002400409000002005
:1048F00010B5124812490860002048607F21104816
:104900008160FF21C1600021016141618161FDF78A
:10491000B9FD08B1FCF7DDF809480068806840F48B
:104920008060074909688860002211460320FCF76F
:1049300081FF0320FCF76EFF10BD0000002800403F
:10494000CC00002010B501F04DFA10BD70B590B04C
:1049500000200C900D900E900F90089009900A90F6
:104960000B90182102A8FBF7F4FC0120FFF79EFA38
:104970000120544909680143524A116011460968EF
:104980000140019100BF00BF0020ADF830000D9044
:1049900006200E9000200F900CA94FF08040FFF7EA
:1049A00087FC00BF4FF08040006840F080004FF06F
:1049B0008041086000BF00214FF08040FFF7F2FC0B
:1049C0004FF08042012008B1002409E0102801D1F5
:1049D000022405E0B0F5807F01D1042400E0062424
:1049E0002346394CE55C02F1180429190C68374D4F
:1049F000EE5C0825B5402C430C6000BF30200890C9
:104A00000120099003200A9000200B9008AA0121A0
:104A10008807FFF799FC4FF08042012008B100247D
:104A200009E0102801D1022405E0B0F5807F01D112
:104A3000042400E006242346234CE55C02F118041C
:104A400029190C68214DEE5C0425B540AC430C607F
:104A500000BF00204FF08041496821F07001014300
:104A60004FF08042516000BF00BF1046806820F0C8
:104A700080001146886000BF012002900220039050
:104A8000032004900020059006900120079002A9C1
:104A90000F48FFF717FB01208107096A01438207CE
:104AA000116200BF8007FFF7FDFB0020019002E0CC
:104AB0000198401C01900198B0F57A7FF8DB10B0A6
:104AC00070BD00001C380240116400081864000822
:104AD000000002401FB5002000900190029003905A
:104AE0002020FFF7E3F9002211462C20FCF7A2FE5C
:104AF0002C20FCF78FFE43F67F60ADF8000000200D
:104B00000190312002900020039069460948FFF788
:104B1000CFFB00210748FFF745FC00BF0548C068F0
:104B200040F001000349C86000BF0846FFF7BAFB28
:104B30001FBD00000014004000B58FB01C2108A864
:104B4000FBF707FC182102A8FBF703FC4FF4804099
:104B5000594909680143584A1160114609680140E2
:104B6000019100BF00BF0220111F09680143121FFD
:104B70001160114609680140019100BF00BF40204B
:104B800002900220039003200490002005900690DC
:104B90000720079002A94948FFF794FA8020029065
:104BA0000220039003200490002005900690072027
:104BB000079002A94148FFF785FA002205214048E5
:104BC000FFF792F9002205213D48FFF77DF9002209
:104BD00005213B48FFF7B8F9002205213848FFF7C7
:104BE000C3F9802205213648FFF78EF900220521FE
:104BF0003348FFF7C9F9002205213148FFF794F93E
:104C0000102204212E48FFF76FF9002204212C48BE
:104C1000FFF75AF9002204212948FFF795F90022ED
:104C200004212748FFF7A0F9802204212448FFF738
:104C30006BF9002204212248FFF7A6F90022042183
:104C40001F48FFF771F94FF4E130089000200990F8
:104C50000A900B900C200C9000200D900E9008A94B
:104C60001848FFF7A7FB174800BF00BF00BF00F1BF
:104C7000140252E8002F22F4806100F1140242E88D
:104C80000013002BF3D100BF00BF00BF0D48006927
:104C900020F490400B4908610846406920F02A0042
:104CA000486100BF00BF0846C06840F40050C860BB
:104CB00000BF0FB000BD00002038024000040240D9
:104CC000006002400038014000BFFEE700BFFEE781
:104CD000F0B503460C4603F00701C1F107000428B4
:104CE00001D9042001E0C1F107000646081D07288C
:104CF00001D2002000E0C81E05460120B040401E41
:104D00002040A8400127AF407F1E17403843F0BD28
:104D100070B50246106A20F001001062146A5568EE
:104D2000936923F0030323F070000E6840EA060342
:104D300024F00200CE6840EA060424F001004E6828
:104D400040EA0604556093618868506300BF1462AE
:104D5000002070BD70B50246106A20F0100010628D
:104D6000146A5568936923F4407323F4E0400E6895
:104D700040EA062324F02000CE6840EA061424F01E
:104D800010004E6840EA061455609361886890638D
:104D900000BF1462002070BD70B50246106A20F496
:104DA00080701062146A5568D36923F0030323F0FE
:104DB00070000E6840EA060324F40070CE6840EAF2
:104DC000062424F480704E6840EA06245560D361BE
:104DD0008868D06300BF1462002070BD70B50246C1
:104DE000106A20F480501062146A5568D36923F465
:104DF000407323F4E0400E6840EA062324F4005098
:104E0000CE6840EA063424F480504E6840EA063406
:104E10005560D3618868106400BF1462002070BDC3
:104E200070470000014600BF0448006800F0F00031
:104E30000009034A125C21FA02F070470838024068
:104E400088640008014600BF0548006800F4E0607F
:104E5000044A02EB1020027821FA02F070470000A9
:104E60000838024098640008014600BF0548006801
:104E700000F46050044A02EBD020027821FA02F0DC
:104E800070470000083802409864000810B500BF61
:104E90001749096801F00C0131B1042911D0082922
:104EA00011D00C2914D110E000BF1149091F096865
:104EB00001F46041012202EB513201219140C8030B
:104EC00013E00C4811E00C480FE000F017F80CE07C
:104ED00000BF0749091F096801F46041012202EB84
:104EE000513201219140C80300BF00BF10BD000036
:104EF000083802400024F40000127A0010B500BF08
:104F00001248006800F4803002461AB1B2F5803FC2
:104F100004D101E00E4903E00E4901E00C4900BF55
:104F200000BF00BF0948006800F470100A4B03EB93
:104F3000904000784843054B1B6803F4400301246C
:104F400004EB9353B0FBF3F010BD000008380240AF
:104F50000024F40000127A007F64000818B50346AC
:104F600000222548006800F0F00050BB22481C30A9
:104F7000006800F0805020B12048006800F4C05163
:104F800018E000BF1C481C30006840F080501A4CEC
:104F90001C3420602046006800F08050009000BF64
:104FA00000BF1648006800F4C0512046006820F099
:104FB00080502060B1F5C05F03D1B3F5404F00D100
:104FC000012200BF012A05D10D48006840F004000D
:104FD0000B4C20600A48006820F001001043084C88
:104FE000206000BF2046006800F00100904201D020
:104FF000012018BD0020FCE7083802400070004086
:10500000003C024070B50446002600252068C068B8
:1050100000F04000C8B92068C06840F080002168F6
:10502000C860FCF7D1F9064608E0FCF7CDF9801B13
:10503000B0F57A7F02D90420607701252068C06826
:1050400000F0400008B9012DEFD1284670BD70B5C1
:10505000044600252068C06820F080002168C860F0
:105060002068806800F0200030B92046FDF7A4FADF
:1050700010B1042060770125284670BD10B50248A4
:10508000FDF7E2F910BD0000CC00002070470000E1
:105090002DE9F04100250026FDF7CCFA00BF31488C
:1050A000C06820F001002F49C86000BF00202E49D1
:1050B00008702820FCF78CFB4FF480502B490860C7
:1050C00000243CE0002609E0701C064641F28831CD
:1050D000884203D9FDF78BFABDE8F08124480068C7
:1050E00000F480500028EFD021480068C0F3C027AA
:1050F00007FA04F00543172C12DA002608E0701CAA
:10510000064641F28831884202D9FDF770FAE3E79A
:105110001748006800F48050B0F5805FEFD00DE0D4
:105120004FF4FA7000F054FB1148006800F480500E
:10513000B0F5805F02D0FDF75AFACDE7641C182C59
:10514000C0DB0C480560012007490870FDF74FFAE5
:1051500000BF0448C06840F001000249C86000BFB9
:1051600000BFB9E7001400406500002014040140AE
:10517000100802406000002010B5FCF72BF910BDAC
:1051800000B595B0342108A8FBF7E3F8142103A873
:10519000FBF7DFF800200090019002901A480068A9
:1051A00020F4C05040F400601749086009200890BE
:1051B000012009900D9002201190C10312918104E9
:1051C00013918105149108A8FCF750FE08B1FBF774
:1051D00080FC0F200390032004900020059006908F
:1051E0000790012103A8FCF7E1FC08B1FBF771FC73
:1051F00001200090400401906846FCF7D5FB08B1FF
:10520000FBF767FC15B000BD007000407047000060
:1052100010B500BF0C48006900F0010098B100BF54
:105220006FF001000849086100BF08480068401C91
:1052300006490860012006490870FDF7FBF9FDF7F3
:10524000C1FDFDF7D4F910BD00140040700000202E
:105250004900002010B507A0FEF76AFD4FF47A70F0
:10526000FBF7F4FEFDF734FEFEF7C6FD012000F06B
:105270004BF810BD555342200000000000B587B028
:10528000182101A8FBF765F801201A4909680143B4
:10529000184A1160114609680140009100BF00BF23
:1052A000C0020190002002900220059001A912483E
:1052B000FEF708FF4FF4805001900020029002207A
:1052C000059001A90C48FEF7FDFE00200B4908706F
:1052D0000B49087001200B49087001030648FEF7CE
:1052E00096FF012803D105490870FFF7B3FF07B007
:1052F00000BD00001C3802400000024010000020E9
:10530000110000201200002010B504460B48047064
:1053100024B1012C06D0022C0CD107E008A0FEF726
:1053200007FD08E006A0FEF703FD04E004A0FEF779
:10533000FFFC00E000BF00BF10BD00001100002016
:10534000555342002DE9F04106460C461546AC4245
:1053500002D13046BDE8F081304600F00DFF07462F
:105360003CB9012D05D10949384600F027FE074612
:1053700007E0012C05D125B90449384600F048FF63
:105380000746384600F0DCFEE4E700003333CB414B
:1053900000BFFEE710B51C480078022806D003289D
:1053A0000BD0042810D0052826D11AE00320164976
:1053B000087016480068C86022E00420124908708E
:1053C00012480068C8601BE005200F4908700F48AC
:1053D00000680F49086000200E4908600E49086007
:1053E0000EE00220084908700020094908600949B8
:1053F00008600949086003E002200349087000BF03
:1054000000BF00F037F910BD60020020340000201A
:10541000780000207C0000208000002000B585B0CE
:105420000F48407D401C0E4948750846407D0428C1
:1054300001DB0020487500F01DF90A480168684644
:10544000FBF7C4F8142269460748FAF750FF0648EC
:105450000069009004480FC8FDF794FF05B000BD37
:1054600060020020600000203802002010B50620F5
:105470000249087000F0FEF810BD00006002002034
:105480000148007870470000600200200048704723
:10549000600200200148006870470000780000208A
:1054A0000148006870470000800000200148006843
:1054B000704700007C00002010B501460B48007DBD
:1054C00018B10A4890F8300008B9002010BD07480C
:1054D000426B806983180548C0698418A14203DBC8
:1054E000994201DC0020F1E70120EFE76002002093
:1054F00010B504460D4890F8200010B101280CD1D9
:1055000005E00A4880692044084988610AE00748A4
:10551000C06920440549C86104E00020034981F8BE
:10552000200000BF00BF00F0A5F810BD6002002001
:1055300010B500200E4908704870012088700020C6
:1055400048608860C86008610875012048750020BF
:105550008861C86181F8200048628862C86281F869
:1055600030004863FBF730FF0249086010BD0000BF
:10557000600200207400002010B5FBF721F80446FB
:105580000220034908700846846200F073F810BDD9
:105590006002002010B50120034908700846806AA7
:1055A000486200F067F810BD6002002010B50446A4
:1055B00004B9064C6078401C60706078022801DBFA
:1055C0000020607000F056F810BD0000600200205E
:1055D00010B5044604B9084CA07808B9012000E0D1
:1055E0000020A070A07810B1FFF7A2FF02E0002019
:1055F0006060E06010BD00006002002010B510483F
:105600000078012803D00E480078022814D10C48F5
:1056100090F8300008B9012000E00020084981F826
:105620003000084690F8300018B1064840684863DA
:1056300002E000200249486300F01CF810BD0000A1
:10564000600200202402002010B5064890F82000D7
:1056500008B9012000E00020024981F8200000F094
:1056600009F810BD6002002010B50020FFF79EFF72
:1056700010BD000010B5FBF7A7FE0149086010BD82
:105680007400002070B504460E4604B9284C2078FA
:10569000012801D0207808B9354606E02078022894
:1056A00001D1354601E0A068351A2078032804D0DE
:1056B000042809D0052832D10DE0E168A94200DABA
:1056C000E560E16861602CE0E168A94200DDE56029
:1056D000E168616025E01749096871B916490968F0
:1056E00059B91649096841B915490968114A116043
:1056F0000021114A1160114A116000200D4909680A
:10570000681A0D490968884201DD0B4908600B4998
:105710000968884201DA09490860656001E065604E
:1057200000BF00BF627800216068FFF70BFE70BD0C
:1057300060020020780000207C0000208000002013
:1057400034000020002809DB00F01F0201219140F5
:105750004209920002F1E022C2F8001170470000F5
:1057600002480068C0F30220704700000CED00E022
:1057700002480068C0F30220704700000CED00E012
:1057800010B5002804DB0A07130E054A135406E07F
:105790000A07140E034A00F00F031B1FD45410BD58
:1057A00000E400E018ED00E010B5002804DB0A0773
:1057B000130E054A135406E00A07140E034A00F0BC
:1057C0000F031B1FD45410BD00E400E018ED00E0EF
:1057D000000100BF011EA0F10100FBD1704710B510
:1057E000034601B10AB9002010BD4F2B71D028DC4F
:1057F000402B41D019DC372B48D00CDC342B5ED049
:1058000004DC022B2ED0032B6ED130E0352B5BD085
:10581000362BF9D14EE0A3F13800082864D2DFE836
:1058200000F03A443FF063636330A3F144000B2877
:10583000F4D2DFE800F0FCA09B4F96918C87827D2C
:105840007800A3F150001628E8D2DFE800F0625D8E
:1058500058534E48999EA3A8ADB2B7BCC1C6CBD091
:10586000D5DCE6E10220087000201070E6E003209D
:10587000087000201070E1E0002008701020107007
:10588000DCE0032008700F201070D7E003200870C0
:105890000D201070D2E0002008700E201070CDE0B6
:1058A000022008700E201070C8E0012008700E2041
:1058B0001070C3E0022008700D201070BEE00020C0
:1058C00008700D201070B9E0012008700D201070D4
:1058D000B4E023E00320087011201070AEE0012036
:1058E000087015201070A9E0A6E0002008701520AF
:1058F0001070A3E003200870142010709EE00220B6
:1059000008701420107099E00120087014201070A5
:1059100094E000200870142010708FE003200870BD
:10592000132010708AE0022008701320107085E0A8
:10593000012008701320107080E0002008701320F0
:1059400010707BE0032008701220107076E00220B7
:1059500008701220107071E0012008701220107081
:105960006CE0002008701220107067E002200870C0
:105970001120107062E001200870112010705DE0AD
:10598000022008701520107058E0032008701520C0
:10599000107053E000200870162010704EE00120B7
:1059A00008701620107049E0022008701620107050
:1059B00044E003200870162010703FE000200870BB
:1059C000172010703AE0012008701720107035E0A1
:1059D000022008701720107030E003200870172094
:1059E00010702BE0002008701820107026E00120B5
:1059F00008701820107021E0022008701820107024
:105A00001CE00FE013E0032008701820107015E070
:105A1000012008701920107010E000200870192073
:105A200010700BE0032008700E20107006E00020BC
:105A300008701120107001E00020D5E600BF0120A1
:105A4000D2E6000010B5032800DD10BD4AB10A4BB4
:105A500053F8203001248C402343074C44F8203075
:105A600008E0054B53F8203001248C40A343024C3E
:105A700044F8203000BFE8E7B401002010B5044628
:105A80000220FDF71DFA0320FDF71AFA0420FDF7A6
:105A900017FA0520FDF714FA0620FDF711FA092C74
:105AA00020D2DFE804F01E1F050A0F141F1F190083
:105AB00001210220FDF7E4FB15E001210320FDF7A1
:105AC000DFFB10E001210420FDF7DAFB0BE00121F0
:105AD0000520FDF7D5FB06E001210620FDF7D0FBF0
