:020000040800F2
:10000000501F00202D020008295E0008414800080A
:10001000255E0008810C0008098700080000000028
:10002000000000000000000000000000AD5F0008BC
:10003000ED0C0008000000002D5E0008CD620008F5
:10004000470200084702000847020008470200086C
:10005000470200084702000847020008470200085C
:10006000470200084702000847020008470200084C
:100070004702000847020008D50C0008E10C000800
:10008000470200084702000847020008470200082C
:10009000818500084702000847020008470200085F
:1000A000470200084702000847020008470200080C
:1000B00047020008470200084702000847020008FC
:1000C00047020008470200084702000847020008EC
:1000D00047020008196A00084702000847020008A2
:1000E000F10C000847020008470200084702000818
:1000F0008163000800000000470200084702000872
:10010000000000000000000047020008470200084D
:1001100047020008470200084702000800000000EC
:100120004702000800F002F800F070F814A696E804
:10013000000CB244B344DA4501D100F067F8BAE8E4
:100140000F000FA696E83000A5EB040504EB0607A8
:10015000AAEB0704A7F101074FEA15154FEA34147B
:10016000A4F10104AC4201D300F050F813F0010FE8
:1001700018BFFB1A43F0010300F001F8DBE7184752
:1001800090A60000B0A600000A444FF0000C10F842
:10019000013B13F0070408BF10F8014B1D1108BF05
:1001A00010F8015B641E05D010F8016B641E01F8A5
:1001B000016BF9D113F0080F1EBF10F8014BAD1CF5
:1001C0000C1B09D16D1E58BF01F801CBFAD505E013
:1001D00014F8016B01F8016B6D1EF9D59142D6D36D
:1001E000704700007047000000230024002500260F
:1001F000103A28BF78C1FBD8520728BF30C148BF8A
:100200000B6070471FB51FBD10B510BD00F06CF836
:100210001146FFF7F7FF08F079FA00F08AF803B407
:10022000FFF7F2FF03BC00F08DF80000094880479B
:1002300009480047FEE7FEE7FEE7FEE7FEE7FEE7C8
:10024000FEE7FEE7FEE7FEE704480549054A064BE0
:10025000704700007D630008250100085019002048
:10026000501F0020501B0020501B00204FF00002A8
:1002700000B5134694469646203922BFA0E80C509C
:10028000A0E80C50B1F12001BFF4F7AF090728BF77
:10029000A0E80C5048BF0CC05DF804EB890028BFF3
:1002A00040F8042B08BF704748BF20F8022B11F01C
:1002B000804F18BF00F8012B704770477047704798
:1002C00010B500F009F8006810BD10B5044600F044
:1002D00003F8046010BD0000004870478001002052
:1002E00000487047800100207546FFF7F9FFAE46D1
:1002F00005006946534620F00700854618B020B532
:10030000FFF7A2FFBDE820404FF000064FF00007C6
:100310004FF000084FF0000BAC46ACE8C009ACE869
:10032000C009ACE8C009ACE8C00921F007018D465E
:10033000704710B50446AFF300802046BDE810407A
:10034000FFF76DBF01491820ABBEFEE72600020093
:1003500070470000B0B582B00446002001902168CB
:100360000A6852064DD4886840F00100886040F267
:100370002400C2F2000000684DF68361C4F21B3114
:10038000A0FB0101880C00EB400001900198A0B196
:10039000019801380190019878B1019801380190D5
:1003A000019850B1019801380190019828B1019845
:1003B0000138019001980028EAD101F079FA21680A
:1003C000096849061CD4054603E000BF00684006E2
:1003D00016D401F06DFA411B20680329F6D3016899
:1003E0004906F3D4E06C40F01000E064206D40F06A
:1003F00001002065002084F84800012002B0B0BD53
:10040000002002B0B0BD000080B505F045FF05F04A
:1004100059FF05F031FD04F02FFA05F0B7FB04F0A9
:1004200047FB00F019FC05F015FE08F0AFF806F0E8
:1004300059F840F20C20C2F200000221017005F0D0
:100440003DFD05F0B5FDBDE8804004F02BBB00008C
:1004500080B50178013904295CD8DFE801F0033D5B
:1004600023310D00407802284CD0012852D1BDE83C
:10047000804005F0C7BC00BF4078022838D0012872
:1004800018BF80BD05F07CFB407E45F2565101301F
:100490004143090C01EB4101401A80B2BDE88040A4
:1004A00005F098BC4078022834D105F069FB807EC5
:1004B00000280CBF01200020BDE8804005F09CBC56
:1004C0004078022826D105F05BFBC17E21B3BDE850
:1004D000804005F04DBB00BF407801281AD105F0DF
:1004E0004FFB007E30B30020BDE8804005F052BCD9
:1004F00005F046FB007E012822D80220BDE880409E
:1005000005F048BC05F0C2FC40F20C20C2F200002D
:100510000021017080BD00BF40F20C21C2F2000139
:1005200005220A7000220A71C1E9032200684861AD
:1005300080BD00BF0120BDE8804005F02BBC00BF9E
:10054000032807D00228CED10320BDE8804005F063
:1005500021BC00BF0420BDE8804005F01BBC0000AA
:100560002DE9F04385B040F20C27C2F2000707F1F5
:100570001C04204604F066F9787058B1387F0228D0
:1005800008D1787F022805D10320387000F06EFA78
:100590000020B87038780138052800F22782DFE89B
:1005A00010F007002B000D00250255007F0000BF52
:1005B00005B0BDE8F04300F01DBA00BF7878002810
:1005C00000F0148205F062FE397F0139042900F23F
:1005D0000D82DFE811F00500BB00A5000B02CF0083
:1005E000787F022840F0028205F06EFE022038700B
:1005F00005B0BDE8F08300BF01A805F0E5FCC0B17F
:1006000001F056F99DF80D60B86002200121002E1E
:1006100008BF0120012504F039FD002E08BF022586
:100620002846002104F032FD01A805F0BDFA00F0D3
:1006300061FA05F0BDFC787810B12046FFF708FF9D
:1006400005F052FC05B0BDE8F08300BF01A805F03D
:10065000BBFC28B101F02CF9B86001A805F0A4FAA0
:1006600005F0A6FC7878002800F0288105F088FACB
:10067000397F032932D0042940D1797F012940F004
:1006800087803979022900F0AB80012900F0A4802D
:10069000002940F0138100687861012038710DE174
:1006A00004F000FA00200E2105F000F801200F21CF
:1006B0000F2404F0FBFF02200F2104F0F7FFF8786D
:1006C000002818BF00240320214604F0EFFF4FF458
:1006D000FA7005B0BDE8F04300F05CBF787F0128F8
:1006E00040F0EC803879022800F06E80012840F05C
:1006F000E580F8680130F860E0E000BF022940F0D2
:10070000DD80787F012840F0D980387902285FD0D9
:10071000012840F0D380F8680138F860CEE000BFCF
:10072000797F012940F06281B978DFE801F0037F29
:100730006F7900BF0178002940F09B800121017092
:1007400005B0BDE8F04300F091B900BF797F012901
:1007500040F04C81B978DFE801F00387737D00BF7A
:10076000017800291CBF0139017005B0BDE8F043D4
:1007700000F07CB9787F012840F03881B8780130EA
:1007800000F00300B87005B0BDE8F04300F06EB9AA
:10079000022940F093803979032900F08F800321EA
:1007A0003971044601F084F8A27E617EB861DAB145
:1007B000002969D0022961D0012921D14BF2177893
:1007C000C3F6510864E000BF3869013002E000BFA1
:1007D00038690138386171E0022038716EE000BF7D
:1007E000002038716AE000BF002947D0022907D0F5
:1007F000012905D141F26F28C3F6832848E000BFE4
:100800004DF20A78C3F6234842E000BF81780129FF
:100810009CBF0131817005B0BDE8F04300F026B9FE
:10082000C178022925D8013117E000BF417803299A
:100830009CBF0131417005B0BDE8F04300F016B92E
:10084000817800291CBF0139817005B0BDE8F043F3
:1008500000F00CB9C17861B10139C17005B0BDE8D3
:10086000F04300F003B900BF417800291CBF0139F3
:10087000417005B0BDE8F04300F0F8B841F26F28D0
:10088000C3F6032804E000BF4CF2AC58C3F2A778CB
:10089000D7E903507E6909F0FDFC0146404609F0A6
:1008A0008DFD0446284609F0F5FC0146404609F056
:1008B00085FD02463046214605F092FA05F060F9C2
:1008C000044600F0F5FF44F6D351C1F26201A0FBEB
:1008D0000101C1F3401804F0E5F8A17E02200029CF
:1008E0004FF0010108BF012004F0D0FBA07E1726C5
:1008F00000284FF018004FF0000108BF182604F040
:10090000C5FB1720002104F0C1FBA17E607E59B118
:1009100010B3022814D0012818D14BF21779C3F66E
:100920005109052523E000BF50B102281AD0012843
:100930000CD141F26F29C3F68329032517E000BFCC
:1009400041F26F29C3F60329042510E04DF20A791C
:10095000C3F6234900250AE04CF2AC59C3F2A7794B
:10096000052504E04DF20A79C3F6234902253879BA
:10097000DFE800F0022808120D20414604F086FB53
:1009800020682EE00D20012104F080FB3046414616
:1009900004F07CFB38691EE00D20012104F076FB99
:1009A0003046012104F072FB2068294604F084FAE5
:1009B00000F07EFFB969401AB0F5FA6F24BF02203B
:1009C000387011E00D20012104F060FB30464146F3
:1009D00004F05CFBF86809F05DFC0146484609F04C
:1009E000EDFC294604F068FA04F05AFE05B0BDE8B3
:1009F000F0830000B0B584B004F05AF84FF4FA6008
:100A000000F0C8FD04F04EF805F058FA05F0D0FAF1
:100A100000F04EFF044600F04BFF001B00097C284D
:100A20000DD86D46284605F0CFFA98B90A2000F097
:100A3000B1FD00F03DFF001BB0F5FA6FF2D340F2BC
:100A40000C20C2F200000121C1700621017004B027
:100A5000B0BD00BF40F20C24C2F20004022020709E
:100A600000F026FFA06004B0B0BD000010B505F096
:100A70000DFC044604F016F840F20C20C2F200000F
:100A80008078DFE800F0032B131F00BF0020012156
:100A900004F00CFE2178002918BF0121042004F085
:100AA00005FEBDE8104004F0FBBD00BF002003219F
:100AB00004F0FCFDA178042004F0F8FDBDE810402E
:100AC00004F0EEBD0020042104F0F0FDE1780420E4
:100AD00004F0ECFDBDE8104004F0E2BD002002216E
:100AE00004F0E4FD6178042004F0E0FDBDE810406E
:100AF00004F0D6BDB0B505F043F8044690F82A00DE
:100B0000002808BFB0BDA17E607E002584F82A5071
:100B1000C1B1022807D8C00040F20551C0B2C0F2EE
:100B2000040121FA00F505F0B1FBC178032912D0C8
:100B3000022913D001290CBF4FF080404FF07E50A6
:100B40000EE000BF032838BFC0F1040505F09EFB8E
:100B5000C1780329ECD1406802E000BF4FF07C501F
:100B6000216809F02BFCE9B204F0A6F9A57EB5FADC
:100B700085F041090120002D18BF012504F086FAF7
:100B80000220294604F082FA207E0238B0FA80F072
:100B90004109112004F07AFA207E0338B0FA80F07F
:100BA0004109132004F072FA207E0438B0FA80F074
:100BB0004109122004F06AFA207E0138B0FA80F070
:100BC0004109102004F062FAE07E18B318200021D9
:100BD00004F05CFA17200021172504F057FA0F20C3
:100BE000012104F053FA94F828000138B0FA80F09B
:100BF00041090D2004F04AFAA07E94F8281000283C
:100C000001F0FE0008BF1825022811D12846012155
:100C100010E000BF0F20002104F038FA0D20002161
:100C200004F034FA1820002104F030FA172000E014
:100C30002846002104F02AFA05F0FAF80021C4F24F
:100C4000200109F0F4F918B90020012104F01EFA7E
:100C5000BDE8B04004F024BD40F2E01141F2801044
:100C6000C2F200010022C2F20000C1E90222C1E981
:100C70000422C1E90622C1E908220A7000F0B4BAD0
:100C8000FEE70000002070470020704710B540F6D6
:100C9000E464C2F2000440F6E421C2F200012046FE
:100CA000002205F0D3FF40F2E461C2F200012046C9
:100CB00005F0C6FF002010BD10B540F6E464C2F296
:100CC00000040146204605F0BBFF204605F09AFFD0
:100CD000002010BD41F21820C2F2000000F062BBFB
:100CE00041F2D410C2F2000000F05CBB704700007B
:100CF0004FF4805000F0F6BCEFF3108072B600BFE6
:100D0000FEE7000010B581B00022009290F8482064
:100D1000012A03D1022001B010BD00BF4B6801229F
:100D2000062B80F8482015D8D0F800E003EB8303A9
:100D30005A1F1F23DEF840C003FA02F40B682CEAA6
:100D4000040403FA02F22243CEF84020092B48D8CB
:100D50007FE000BF0C2B15D8D0F800E003EB830335
:100D6000A3F123041F23DEF83CC003FA04F20B684E
:100D70002CEA020203FA04F42243CEF83C20092BA9
:100D80002FD866E0122B15D8D0F800E003EB8303D0
:100D9000A3F141041F23DEF838C003FA04F20B6804
:100DA0002CEA020203FA04F42243CEF83820092B7D
:100DB00017D84EE0D0F800E0182B03EB830337D8A8
:100DC000A3F15F041F23DEF834C003FA04F20B68BA
:100DD0002CEA020203FA04F42243CEF83420092B51
:100DE00037D9132B0ED803EB4304DEF810C01E3C9A
:100DF00007228968A2402CEA0202A1401143CEF8E2
:100E0000101033E01A2B0FD803EB4304DEF80CC0AC
:100E10003C3C07228968A2402CEA0202A14011430F
:100E2000CEF80C1022E000BF00BF0B681EE000BF30
:100E3000A3F17D041F23DEF830C003FA04F20B682F
:100E40002CEA020203FA04F42243CEF83020092BE4
:100E5000C7D8DEF814C003EB430407228968A24018
:100E60002CEA0202A1401143CEF8141023F0010134
:100E7000102934D142F20471C4F201010A6812024D
:100E80002DD40A68102B42F400020A6027D140F2E8
:100E90002401C2F2000109684DF68362C4F21B32DC
:100EA000A1FB0212910C01EB810149000091009914
:100EB000A9B100BF009901390091009979B1009959
:100EC00001390091009951B10099013900910099BF
:100ED00029B100990139009100990029EAD1002136
:100EE00080F84810002001B010BD00000068806D3F
:100EF00070470000002804BF0120704770B582B021
:100F0000064656F84C1F00294CD03168C90661D4FA
:100F1000C16C41F202129143023142F2047CC1647D
:100F2000C4F2010CDCF80020436822F44032C468AB
:100F300041691A43056ACCF80020214390F83C40EF
:100F400090F824E02943426B41EA4421102A41EA07
:100F50004E0102D0856B2A431143026815686D0665
:100F60004CD48568D0E906C403692C43012B44F4B2
:100F7000807508BF2C46B3F5807F90F82C3008BFF1
:100F80002C46012B41EA0C0130D1BEF1000F25D0D7
:100F9000C36C43F02003C364036D43F00103036596
:100FA00024E000BF0021016580F8481043F62001CD
:100FB000C4F202010A68044642F001020A600968AC
:100FC00001F001010191019900F056F820463168C5
:100FD000C9069DD5012002B070BD00BF036B4EF65F
:100FE0000005CFF6FF7505EB43331C43536841F210
:100FF000FF65CFF6FC452B402343536093684FF2C7
:101000008915CCF2FF052B400B4393600369B3F5C0
:10101000807F01D0012B0BD1136B856A0024CFF6A2
:10102000F07423F0F87304EB05552B4303E000BF85
:10103000136B23F0F873136392684FF6FE73CBF6CD
:1010400080731A408A4207D100220265C06C0021D9
:1010500020F003020AE000BFC16C41F0100121F052
:101060000201C16450F8502F0121064642F00100F0
:101070003060084602B070BD80B586B042F20041D3
:101080000068C4F20101002288420592CDE90322E2
:101090000292019202D006B080BD00BF43F61C0050
:1010A000C4F20200436843F400734360436803F4EE
:1010B00000730093009B036843F001030360006822
:1010C00000F0010000900098202001900320CDE95D
:1010D000020201F55C4001A900F010FB06B080BDE2
:1010E00070B5044600680D468268520544BF8068AA
:1010F0005FEAC05038D400F0DBFB21680A68920731
:1011000049D40646681C3CD0DDB90868800721D563
:10111000086880073FD4086880071BD508688007E7
:1011200039D40868800715D50868800733D4086863
:1011300080070FD508688007E7D52CE0086880078E
:1011400029D400F0B5FB801B2168A842F6D90868B5
:101150008007F3D4E06C40F00400E064002084F8E1
:101160004800032070BD00BFE06C40F02000E06448
:10117000002084F84800012070BD00BF0868800787
:1011800009D40868800706D4086880075CBF08682F
:101190005FEA8070F2D5A069002804BF6FF01200EA
:1011A0000860E06C40F40070E064886810F0405F14
:1011B00002D0002070BD00BF94F824000028F8D1B0
:1011C000086B10F0F87F02D088684005F1D4E06C1D
:1011D00020F48070E064E06CC004EAD4E06C40F07D
:1011E0000100E064002070BDB0B590F848100129FE
:1011F00004BF0220B0BD012480F848400546FFF737
:10120000A9F808B12046B0BD2868EA6C40F2017325
:101210009A4302F58072EA6442682946520504D571
:10122000CA6C012363F30D32CA64CA6C0024D20471
:101230004FF0000244BF0A6D22F006020A6581F8F1
:1012400048406FF022010160816811F0405FD9D100
:10125000816841F0804181602046B0BDB0B5044650
:1012600090F84800012804BF0220B0BD0121206889
:1012700084F848100168490609D5816821F0010108
:10128000816000F015FB2168096849060ED42146EB
:1012900051F84C0F41F2011220EA0202002042F004
:1012A00001020A60002184F84810B0BD054602E042
:1012B00000684006EBD500F0FBFA411B20680329CB
:1012C000F6D301684906F3D5E06C214640F01000E2
:1012D000E06451F8502F0120E1E7000042F20400E1
:1012E000CEF20400016841F0010101607047000086
:1012F00042F20400CEF20400016841F002010160F4
:1013000070470000014690F82100022818D10868B3
:10131000D1E90FC3026822F00E020260026822F0D7
:101320000102026003F01C00012202FA00F0CCF876
:10133000040081F821200020002281F8202070473D
:10134000042088630120002281F8202070470000DB
:1013500090F82110022921D180B50268D0F834C05C
:10136000D0E90FE1136801F01C0123F00E031360B4
:101370001368BCF1000F23F0010313604FF001026A
:1013800002FA01F1CEF804104FF0000180F821209C
:1013900080F8201018BFE047002080BD0421816341
:1013A00001207047B0B5D0E90FC30268DCF8001027
:1013B00003F01C030424D2F800E09C400C4218BF48
:1013C0001EF0040520D102249C400C4218BF1EF0E0
:1013D000020529D1D940090714D51EF0080108BF1C
:1013E000B0BD116821F00E011160012101FA03F274
:1013F000CCF80420816380F82110016B002280F872
:10140000202069B9B0BD00BF1168890603D41168F6
:1014100021F004011160CCF80440C16A0029F1D028
:10142000BDE8B040084700BF1168890606D41168BE
:1014300021F00A011160012180F82110CCF804404C
:10144000816A0022002980F82020E9D1DAE7000033
:10145000014600284FF0010008BF70472DE9F04712
:1014600046F2000CC4F2020C0A6849F6F8330CF597
:10147000816ECBF6FD73724538BF03F5806303EBD5
:10148000020E4CF6CD43CCF6CC43AEFB033E0CF53E
:1014900080636FF00304D1E9019AD1F80C803CBF5E
:1014A00046F20003C4F2020304EA9E04C1E90F34C9
:1014B000022381F82130136847F6F074A34301F149
:1014C000100743EA0903F0CF43EA0A0343EA08039B
:1014D00023432B4333433B43136000228A6381F849
:1014E000210081F820200020BDE8F047704700006F
:1014F00090F820C0BCF1010F04BF02207047F0B586
:101500004FF0010E80F820E090F821C0BCF1010FEF
:1015100028D14FF0020C80F821C04FF0000CC0F829
:1015200038C0D0E900C4C56AC66BDCF80070102C66
:1015300027F00107CCF80070006C00F01C000EFAD8
:1015400000F070600846CCF8043004BF10460A462C
:10155000CCF80800CCF80C20DCF8000045B140F0D5
:101560000E000DE0002180F820100220F0BD00BF29
:1015700020F00400CCF80000DCF8000040F00A0085
:10158000CCF80000DCF8000040F00100CCF80000CE
:101590000020F0BDB0B5044600F08AF9054640F2DF
:1015A0000000C2F200004068611C18BF044400BF84
:1015B00000F07EF9401BA042FAD3B0BD002908BF5D
:1015C00070472DE9F04F81B000F13E4202F1FF7704
:1015D00041F20002C4F2020205234FEAB72690420C
:1015E00008BF042300F1200E042E38BF4FEAB723B2
:1015F000002400270025009326E000BF0268032393
:10160000A3409A4302606FF0030202EA550607F016
:101610001C0C5EF806800F2202FA0CF228EA020285
:101620004EF80620C2689A43C260426822EA0A0263
:10163000426082689A438260013531FA05F207F10F
:10164000040704F102043BD0012202FA05FA1AEA67
:101650000108F1D040F20042C4F20102A2F57E7C02
:1016600025F0030307F00C0B0F225CF8033002FA9D
:101670000BF9009A03EA090302FA0BF29342BDD177
:1016800040F20046C4F20106326840F20C4322EAFE
:10169000080232607268C4F2010322EA0802726032
:1016A0001A6822EA08021A60B268AB0822EA080245
:1016B000B2605CF8232022EA09024CF823209DE75F
:1016C00001B0BDE8F04F7047B0F5805F18BF7047BC
:1016D00040F61000C4F202000068000548BF04F0A4
:1016E0000FBD704740F21441C4F201010A68024282
:1016F00014BF08607047FFF7E7BF00002DE9F04F07
:1017000083B00E68002E00F0C98000F1200200F1C5
:101710003E4741F2000C009207F1FF77C4F2020C41
:10172000052240F2004B4FEAB725604508BF04226E
:10173000C4F2010B042D38BF4FEAB7220025002761
:101740004FF0000801920AE00E6808F1010836FA2D
:1017500008F207F1020705F1040500F09F8001225D
:1017600002FA08FE16EA0E09EED0D1F804C00322F0
:101770000CF00306741EBA40012C6FEA020A11D85D
:101780008268CC6802EA0A02BC4022438260426856
:10179000CCF3001422EA0E0204FA08F42243426059
:1017A00004E000BF032E01D103261EE0C2688C684E
:1017B00002EA0A02BC402243022EC26015D16FF039
:1017C000030202EA580E009A05F01C0452F80EC0FB
:1017D0000F230E69A3402CEA0303A640334342F8CB
:1017E0000E30D1F804C00CF00306026806FA07F3C5
:1017F00002EA0A021A431CF4403F0260A4D043F6F6
:101800002003C4F202031A684FF6084C42F00102AA
:101810001A601A68CFF6FF7C02F001020292029A67
:1018200028F003025A4452F80C3005F00C060F243D
:10183000B440A343019C04FA06F6334342F80C304B
:10184000DBF808204B6842EA090640F20C4CDC0247
:1018500058BF22EA0906CBF80860C4F2010CDCF894
:1018600000209C0242EA090658BF22EA0906CCF889
:101870000060DBF804209C0342EA090658BF22EA14
:101880000906CBF80460DBF80020DB0342EA090616
:1018900058BF22EA0906CBF8006055E703B0BDE85F
:1018A000F08F0000002A08BF090481617047000022
:1018B00041F64810C2F200000068704740F2000094
:1018C00041F64811C2F20000C2F2000140680A6805
:1018D000104408607047000080B5032000F072FAE1
:1018E000002000F009F800281CBF012080BD00F096
:1018F000EFF9002080BD0000B0B540F20005C2F253
:1019000000056968F1B1044640F22400C2F200000B
:101910004FF47A720068B2FBF1F1B0FBF1F001F024
:1019200033FE01460F2C4FF001000AD8002918BFE2
:10193000B0BD4FF0FF302146002200F017FA002022
:101940002C60B0BD0120B0BDB0B5044690F83500A4
:10195000012805D094F8350002281CBF0120B0BD35
:1019600094F8340001284FF0020008BFB0BD0121F7
:1019700084F8341084F83500FFF79AFF054600BF5D
:101980002068816849070DD5FFF792FF401BB0F52D
:101990007A7FF5D90220A0630320002184F8341057
:1019A000B0BD00BF002141618161C161016241623E
:1019B0008162C162016341638163C1630164416407
:1019C0008164C16401650821C160816841F004013E
:1019D0008160FFF76DFF05462068806800070DD421
:1019E000FFF766FF401BB0F57A7FF5D90420A063AE
:1019F0000020002184F83410B0BD00BF012084F81D
:101A000035000020002184F83410B0BD002804BF48
:101A1000012070472DE9F041044690F8350028B9BF
:101A2000002084F83400204600F080F8022084F87A
:101A300035002068016821F0010101600021416149
:101A40008161C161016241628162C162016341637E
:101A50008163C163016441648164C164016581681B
:101A600041F0040181604168D4E901736FF31911F9
:101A7000D4E90A2539431943D4E906C81143D4E906
:101A8000086E294341EA0801314341EA0C0141EA69
:101A90000E014160FFF70CFF054600BF206881681A
:101AA000890608D4FFF704FF401BB0F57A7FF5D90B
:101AB0000120A0632068016804F10C078CCF21F09D
:101AC000FE011143266B194339433143016001681C
:101AD00041F001010160FFF7EBFE064620688568D2
:101AE000FFF7E6FEE90705460ED1A81BB0F57A7FA1
:101AF000F4D90820A0630320BDE8F081FFF7D8FEE9
:101B0000401BB0F57A7F0BD820688068C006F5D5F9
:101B100000200121A06384F83510BDE8F08100BFEA
:101B20001020A0630320BDE8F08100002DE9F04102
:101B300086B042F200450068C4F200050026A842C3
:101B40000596CDE903660296019603D006B0BDE87E
:101B5000F08100BF43F61C00C4F20200816801ACB2
:101B600041F40071816081684FF0020801F4007156
:101B70000091009901680B2741F0040101600168A0
:101B800001F0040100910099016841F00101016038
:101B9000016801F0010100910099016841F0020122
:101BA00001600068214600F002000090009840F2B9
:101BB000FF10019005F5F230CDE9028604960597F5
:101BC000FFF79CFD48F2CE70CDE9010805F5EE3037
:101BD0002146CDE903660597FFF790FD4FF63B7070
:101BE000CDE9010805F5F0302146CDE903660597FA
:101BF000FFF784FD06B0BDE8F0810000B0B50446F3
:101C000000680821C160816841F004018160FFF72C
:101C10004FFE05462068806800070DD4FFF748FE98
:101C2000401BB0F57A7FF5D90420A0630320002182
:101C300084F83410B0BD00BF012084F835000020C6
:101C4000002184F83410B0BD2DE9F041064690F82B
:101C500035009846154601280F4606D096F83500FF
:101C600002281CBF0120BDE8F08196F8350001284C
:101C700022D196F8340001284FF0020008BFBDE8D9
:101C8000F081012186F8341086F83500FFF710FE48
:101C9000044600BF3068816849070ED5FFF708FE8B
:101CA000001BB0F57A7FF5D90220B063002086F8DA
:101CB00034000320BDE8F081306800EB8700416903
:101CC000294041EA080141610020BDE8F08100009F
:101CD00083B043F62400C4F20200016841F00041E1
:101CE0000160016801F000410291029950F8041C62
:101CF00041F0010140F8041C50F8041C01F00101FE
:101D000001910199016841F080510160006800F083
:101D100080500090009803B070470000002848BF32
:101D2000704700F01F01012202FA01F11C2202EAB1
:101D3000D0004EF28012CEF200028150BFF34F8FDE
:101D4000BFF36F8F70470000002848BF704700F056
:101D50001F01012202FA01F11C2202EAD0004EF218
:101D60000012CEF2000281507047000010B54EF60E
:101D70000C5CCEF2000CDCF80030C3F3022E8EF0C7
:101D80000704042C28BF0424BEF103034FF0FF3ED8
:101D90000EFA04F438BF0023A14399400EFA03F36E
:101DA0009A43114300F00F0200F160430901043A25
:101DB00003F564436244002848BF02F10C03197024
:101DC00010BD00004EF60C51CEF200010A684FF62D
:101DD000FF031A4060F30A2242F0806040F0FD7079
:101DE0000860704780B501F0070C0CEB8C0C00EB21
:101DF000CC0C0CF1100C01EB810E090600EBCE00AF
:101E000058BF00F5A87C5AB1ACF808301B0C012172
:101E10000A202CF8003000208CF80C1080BD00BF88
:101E2000002106202CF8003000208CF80C1080BD1A
:101E30000420C4F201000268012922F0010208BF57
:101E4000013202607047000001EB8102D0F8D0320D
:101E500000EBC200426A184605F07EB901EB810230
:101E6000D0F8D03200EBC200D0F86421184605F05B
:101E7000D9B9000010B501F0070E0A464FFA81FCEF
:101E80000EEB8E0100EBC10303F5A871BCF1000F4E
:101E900048BF03F1100190F89032D209012B4A702B
:101EA00081F800E004BF022010BD0268012380F821
:101EB00090320446104605F033FF002084F890026B
:101EC00010BD0000027901F00F03934284BF01208E
:101ED000704710B501F0070303EB830200EBC20269
:101EE0004FFA81FC8E4602F5A871BCF1000F48BF85
:101EF00002F110014FEADE124A7090F890224FF082
:101F0000000C012A81F802C00B7004BF022010BD32
:101F10000268012380F890320446104605F08CFFD9
:101F2000002084F8900210BD01F0070101EB81014F
:101F300000EBC100D0F86C0170470000B0B501F0B3
:101F400007048C464FFA81FE04EB840100EBC105C7
:101F500005F5A871BEF1000F48BF05F110014FEA69
:101F6000DC156FF3DF224D700C700A61022BCB7011
:101F700004BF00220A7190F89022012A04BF0220B7
:101F8000B0BD0268012380F890320446104605F087
:101F900035FD002084F89002B0BD000010B501F0BE
:101FA000070C0CEB8C0100EBC10E00680EF5A8715C
:101FB0000024CEF86421CEF86831CEF86C418EF85A
:101FC00051418EF850C105F08DFF002010BD00007A
:101FD000027901F0070C94454FF001022AD810B5A0
:101FE00001EB810300EBC3034FFA81FE03F5A873F5
:101FF0000CEB8C04C90900EBC404BEF1000F48BF10
:1020000004F11003597090F890129A70012983F826
:1020100000C001D102220BE00168012280F8902269
:1020200004460846194605F043FF002284F8902232
:10203000BDE810401046704780B501F0070C0CEB6E
:102040008C0100EBC10101F810CF00684FF0010CCA
:1020500001F1140781F824C04FF0000E87E80C400E
:102060000B6281F801C005F03DFF002080BD00003B
:102070002DE9F04F83B00446006806F091FA0104A0
:102080001CD441052ED441043ED4810400F1D083F8
:10209000C10400F1D783010500F10884810500F136
:1020A0001F84C0052CD52068B0F8441021F480713D
:1020B000A0F8441003B0BDE8F08F00BF2068B0F96D
:1020C0004410B1F1FF3F1BDC04F5A871019104F14C
:1020D000100148F2C005029104F5267140F60F790F
:1020E00000913DE02068B0F8441021F48061A0F830
:1020F0004410204600F022FD94F8900201280DD1F2
:1021000003B0BDE8F08F00BF2068B0F8441021F4A0
:102110008041A0F8441003B0BDE8F08F01200025F5
:1021200084F8900225732068002106F097FA84F85D
:10213000905203B0BDE8F08FB0F8501032780844E8
:1021400000EB02100021A0F80C1431782046FFF7B4
:102150007BFE00BF2068B0F94410B1F1FF3FCFDC37
:10216000B0F8442012F00F080CD030F928104FEAD4
:10217000480BB1F1FF3F1FFA81FA2FDD5FEA0A60D9
:10218000E8D547E10188D20662D401EA090101F5E8
:1021900000410180B0F85010227C00EB410000EBC0
:1021A0000210B0F80404616A6FF39F20E0620844F3
:1021B000606220460021FFF747FE207B0028C9D03F
:1021C000A06A0028C6D1207B216840F08000C0B200
:1021D000A1F84C0000202073BCE700BF30F81B10B2
:1021E00001EA0901803120F81B10019A08EB8801EF
:1021F00002EBC106317B002900F07E80F1780229D4
:1022000040F08A80B0F850303178B26900EB430377
:102210005FEA4A4703EB011300F19680B3F80C74B0
:1022200000236FF39F27D21B38BF1A46B26140F2DA
:10223000A1805FEA4A6200F1AD8030F8212002EA15
:1022400009022A4320F82120002F40F0A480C3E097
:102250000A052FD409B2B1F1FF3F3FF77BAF0188E8
:1022600001EA090180310180B0F8501094F8502142
:1022700000EB410101EB0211B1F80C346FF39F2325
:10228000002BC4F86C3100F0FB81D4F864110029F4
:102290003FF460AFB4F8562106F086F9D4F8640133
:1022A000D4F86C110844C4F8640120460021FFF7FB
:1022B000D5FD4FE7B0F8501094F8502100EB4101E4
:1022C00001EB0211B1F80C146FF39F210829C4F837
:1022D0006C1140F0D182B4F856210099082306F021
:1022E00063F92068018801EA0901803101802046F4
:1022F00000F052FC2EE700BFB0F85010327800EB2F
:10230000410101EB0211B1F80C746FF39F27002F0C
:1023100062D07169F2885AE0317830F8212002EAFF
:1023200009022A4320F8212030F82120B0F850304B
:1023300000EB0111520401EB430115D4B1F80C7408
:102340006FF39F273FBB47E0B3F8047400236FF39C
:102350009F27D21B38BF1A46B2611FD95FEA4A6273
:102360002BD497BB38E000BFB1F804746FF39F27FC
:102370005FBB31E030F8212043F60F731A404CF276
:102380008003A3F500535A4020F821205FEA4A62F7
:102390007FF553AF07B37169728918E030F82120D7
:1023A00043F60F731A404CF28003A3F500535A40D2
:1023B00020F821205FEA4A62D3D530F8212002EAD2
:1023C00009022A4320F8212037B1716932893B463E
:1023D00006F0EAF801E000BF0027D6E9060139441B
:1023E000F16110B13069B84208D931782046FFF761
:1023F00035FD5FEA0A607FF5ADAE0BE07069C1198B
:1024000020687161314605F06DFD5FEA0A607FF575
:10241000A1AE00BF206808EB880130F81B20029BAA
:1024200003EBC10602EA090101F5004120F81B1087
:10243000F378012B22D1317B00294FF00001B161EB
:102440003FF483AE5FEA4A617CD4717801293FF49E
:1024500073AE00297FF479AEB0F85010327808449A
:1024600000EB0210B0F80C146FF39F21A0F80C14CD
:10247000B0F80C1441F4004165E600BF5FEACA51B0
:102480001ED4B0F85020317800EB420202EB01126A
:10249000B2F80424B3696FF39F229B1A4FF0000730
:1024A00038BF3B46B3617FF651AE7169F3691144A1
:1024B00071619918F161314605F014FD4AE600BFDB
:1024C000B0F850503178B2695FEA4A6700EB011EFC
:1024D00050D40EF20C4C3CF8155000276FF39F259A
:1024E000521B38BF3A46B26174D95FEA4A4208D4F7
:1024F00030F821204CF2800302EA09021A4320F846
:10250000212096F82410012940F08381D6E9043176
:10251000D6E9077229442F449A427161F76180F02D
:102520000581002A00F040810023336286F82430C0
:1025300013467278012A40F0FF80B0F850202CF842
:10254000023050E17178012900F0908000297FF479
:10255000FCADB0F850103278084400EB0210B0F82F
:1025600004146FF39F21A0F80414B0F8041441F48C
:10257000004182E00EF2044C3CF8155000276FF346
:102580009F25521B38BF3A46B26147D95FEA4A429B
:1025900008D530F821204CF2800302EA09021A43E0
:1025A00020F8212096F82410012940F03281D6E944
:1025B0000431D6E9072729442A449F427161F26118
:1025C00080F0D0800022002F86F8242040F0CC80BC
:1025D0002F46CAE07278012A5ED0002A48F2C00570
:1025E00065D1B0F850207244B2F804746FF39F279D
:1025F000A2F80474B2F8047447F40047A2F8047413
:10260000B0F850203CF802706FF39F272CF802704E
:102610003CF8027047F4004747E000BF7278012A97
:102620005AD0002A48F2C00562D1B0F850203CF8D8
:1026300002506FF39F252CF802503CF8025045F4ED
:1026400000452CF80250B0F8502048F2C005724402
:10265000B2F80C746FF39F27A2F80C74B2F80C74E4
:1026600047F40047A2F80C7442E000BFB0F85010E5
:102670003278084400EB02100021A0F8041464E54D
:10268000018843F60F7211404CF28002A2F580528D
:10269000514001805EE500BFB0F8502048F2C0050F
:1026A0007244A2F80474B0F850202CF80270022B87
:1026B00009D130F8212040F63F731A40A5F12003DC
:1026C0005A4020F821202046FFF7BEFB5FEA4A402F
:1026D0003FF540AD1FE000BFB0F8502000252CF8BA
:1026E0000250B0F850207244A2F80C5448F2C005D1
:1026F000022B09D130F8212040F63F731A40A5F192
:1027000020035A4020F821202046FFF79DFB5FEA76
:102710004A407FF51FAD206831784CF2800330F8D5
:10272000212002EA09021A437FE000BFD21A326276
:102730007278012A3FF401AF002A54D1B0F85070EA
:102740003CF807206FF39F222CF80720A3B33E2B01
:102750003AD803F001023CF8075002EB530245EA75
:1027600082223EE0FA1A1F4632627278012A15D0A0
:10277000002A4AD1B0F850203CF802306FF39F2372
:102780002CF80230E7B13E2F30D807F001033CF8B7
:10279000025003EB570345EA832334E0B0F850209E
:1027A0002CF8027031E000BF002286F824202B466E
:1027B0007278012AC0D1C0E63CF807200FE000BFC4
:1027C0003CF802301DE000BF5A09DD063CF807E086
:1027D0004FF0FF3508BF05EB53124EEA822242F458
:1027E00000422CF8072072899BB210E07B09FD069D
:1027F0003CF802E04FF0FF3508BF05EB57134EEAF7
:10280000832343F400432CF802303289BBB205F035
:102810002DFF2068317840F63F7330F8212048F2D0
:10282000C0051A40A5F110035A4020F8212091E478
:102830002068B0F8441021F40051A0F8441003B00F
:10284000BDE8F08F2068B0F8401021F00401A0F836
:102850004010B0F8401021F00801A0F840102046C8
:1028600000F07EF92068B0F8441021F48051A0F8FF
:10287000441003B0BDE8F08F018843F60F72114099
:1028800005F57C6251400180018840F63F7211409D
:10289000A5F1300251400180018840F60F721140CD
:1028A0008031018003B0BDE8F08F00BF2168B1F82E
:1028B000400040F00800A1F84000B1F8440020F4C6
:1028C0000060A1F84400B1F8400040F00402204646
:1028D000A1F8402003B0BDE8F04F00F07FB900BF81
:1028E0002168B1F8440020F400722046A1F8442089
:1028F00003B0BDE8F04F00F037B90000002804BF76
:1029000001207047F0B581B0044690F8910228B9D3
:10291000002084F89002204600F0F8F8032084F8A4
:102920009102206805F07EFA94F804E0BEF1000FF1
:1029300000F0E0800EF0030CBEF1040F4FF0000237
:1029400038D30EF0FC03A4F1A0000321012500BF41
:10295000CE1E80F8B0608E1E80F8D8604E1E80F8C3
:10296000006180F828110E1D013180F8B15080F807
:10297000B320C0E93022C0F8C82080F8D95080F8D0
:10298000DB20C0E93A22C0F8F02080F8015180F83D
:102990000321C0E94422C0F8182180F8295180F8A9
:1029A0002B21C0E94E22C0F84021A0309942314687
:1029B000CED1F21EBCF1000F2ED004F1100002EBBC
:1029C000820100EBC105012300F831200021BCF198
:1029D000010F6B70E970C5E90411A9611CD0551C89
:1029E00005EB850600EBC607BCF1020F7B7000F813
:1029F0003650F970C7E90411B9610DD0911C01EB93
:102A0000810200EBC203012500F8321000205D7046
:102A1000D870C3E904009861BEF1000F6AD0BEF11E
:102A2000040F4FF0000235D30EF0FC0003212346C3
:102A3000CF1E83F850718F1E83F878714F1E83F874
:102A4000C8110D1D013183F8512183F85321C3E9C9
:102A50005822C3F8682183F8792183F87B21C3E9E0
:102A60006222C3F8902183F8A12183F8A07183F832
:102A7000A321C3E96C22C3F8B82183F8C92183F8E4
:102A8000CB21C3E97622C3F8E021A0338142294655
:102A9000CED1EA1EBCF1000F2CD004F5A87002EBD9
:102AA000820300EBC3070021BCF1010F797000F82D
:102AB0003320F970C7E90411B9611BD0531C03EB33
:102AC000830700EBC706BCF1020F717000F83730C6
:102AD000F170C6E90411B1610CD0911C01EB8102C7
:102AE00000EBC20300275F7000F83210DF70C3E90B
:102AF00004779F6194E8070005F086F90020012122
:102B0000207384F8911201B0F0BD0000006845F612
:102B10000041C4F20001884218BF704781B043F6FB
:102B20002400C4F20200016841F400010160006861
:102B300000F400000090009801B0704710B5044602
:102B40004079022818BFFEF7D7F8D4F8D002012147
:102B500004F06AFCD4F8D002BDE8104004F024BCB4
:102B6000D0F8D00204F04ABCD0F8D00204F04EBC39
:102B700090F89022012A04BF0220704710B501226C
:102B800080F89022017302680446104605F066FD45
:102B9000002084F8900210BDD0F8D02200F52671F4
:102BA000104604F057BC000090F89012012904BFB1
:102BB0000220704710B50168012280F89022044677
:102BC000084605F0D3FC20460121FFF731F92068C3
:102BD00005F018F9002084F8900210BD10B50446E5
:102BE000D0F8D00204F088FC607A002808BF10BD3D
:102BF0004EF61050CEF20000016841F0060101606F
:102C000010BD000047F20000C4F20000016841F06E
:102C1000020101604EF61050CEF20000016841F052
:102C20000401016030BF70472DE9F04182B00446D5
:102C3000007880077BD043F63406C4F2020656F8CB
:102C4000100C5FEAC0080BD456F8100C40F080500E
:102C500046F8100C56F8100C00F0805001900198C6
:102C600047F20007C4F200073868C00512D438687C
:102C700040F480703860FEF71BFE05463868C005DA
:102C800008D4FEF715FE401B6428F7D9032002B0D4
:102C9000BDE8F08156F8341C606801F0C04100F0D6
:102CA000C04291420AD100F44032B2F5403F0ED109
:102CB000A26802F0C042914205D108E000F4403120
:102CC000B1F5403F03D156F8341C89035AD431681A
:102CD00011F440311DD000F4403081421CBF2078F7
:102CE0005FEAC07007D1A06800F44030814210D084
:102CF000207880070DD5306840F2DC62C4F24722AC
:102D0000012320F4403113600023C00513603160BB
:102D10003CD4206881070FD4C0071FD1B8F1000F41
:102D200005D456F8100C20F0805046F8100C002006
:102D300002B0BDE8F08100BFA26802F44031B1F5F5
:102D4000403F06D156F8343C520F62F35E7346F8AA
:102D5000343C326811433160C007DFD0616801F450
:102D60004030B0F5403F06D156F8342C490F61F39E
:102D70005E7246F8342C316808433060B8F1000FB9
:102D8000CFD5D4E7012002B0BDE8F081FEF790FD79
:102D9000054641F2883700BF30688005B9D4FEF798
:102DA00087FD401BB8424FF00300F5D9C0E7000093
:102DB0002DE9F041002800F0A78043F60807C4F28F
:102DC00002070446D7F8F8030D4600F001008842D8
:102DD00015D2012D05D1D7F8F80340F00400C7F84B
:102DE000F803D7F8F80320F001002843C7F8F803E8
:102DF000D7F8F80300F00100A84240F08580206871
:102E0000810705D53968A26821F0F00111433960C6
:102E1000C00735D1D7F8F80300F00100A84209D95E
:102E2000D7F8F80320F00100C7F8F803D7F8F80343
:102E3000C00769D12068410705D53968E26821F4E7
:102E4000E06111433960000706D53868216920F434
:102E5000605040EAC10038603968C1F38102501EF9
:102E6000022842F20040C0F2F40027D3C2B957F85A
:102E7000040C4FF48031C0F3423001FA00F01DE041
:102E8000606857F8081C012836D003282ED0022885
:102E900038D189035CBF0120BDE8F08138E000BF74
:102EA0004AF60503C1F38342C0F600039A5CC1F3FE
:102EB000815101313B685043B0FBF1F039684AF26F
:102EC000C572C1F30311C0F60002515C40F2240246
:102ED00020FA01F140F20000C2F200000068C2F2E4
:102EE00000021160BDE8F041FEF706BD89015CBF3C
:102EF0000120BDE8F0810BE089075CBF0120BDE83F
:102F0000F08105E0890503D40120BDE8F08100BF10
:102F1000396821F0030108433860FEF7C9FC616895
:102F20000646032941F2883839D0022929D00129DF
:102F300010D100BF386800F00C0004283FF46AAFDD
:102F4000FEF7B6FC801B40454FF00300F2D9BDE808
:102F5000F08100BF386810F00C0F3FF45BAFFEF754
:102F6000A7FC801B40454FF0030088BFBDE8F081FF
:102F7000F0E700BFFEF79CFC801B40454FF00300CC
:102F8000E5D8386800F00C000828F3D142E700BF0C
:102F9000FEF78EFC801B40454FF00300D7D8386801
:102FA00000F00C000C28F3D134E7000040F22400BC
:102FB00043F60801C2F20000C4F202010068096889
:102FC0004AF2D572C1F30221C0F60002515CC8403A
:102FD0007047000040F2240043F60801C2F20000EE
:102FE000C4F20201006809684AF2D572C1F3C22135
:102FF000C0F60002515CC84070470000002804BFC2
:10300000012070472DE9F04383B043F600060446E3
:10301000C4F20206B068B768217800F00C09C9074D
:1030200011D0B9F1080F07D0B9F10C0F40F0EA80C8
:1030300017F4803000F0E6803068800303D56068C4
:10304000002800F09382207880072FD5B9F1040F73
:103050001ED0B9F10C0F08BF17F4803018D0E0680B
:10306000002840F20000C4F2472000F04381012113
:103070000160FEF71DFC0546306880070FD4FEF79F
:1030800017FC401B02284FF00300F5D96BE200BF8C
:103090003068800703D5E068012840F067827068D7
:1030A000216920F4F85040EA012070602078C006C1
:1030B00026D42078000741D42078400758D4656A88
:1030C000CDB1B9F10C0F40F0D180012D00F04E824E
:1030D000B068A16A00F480328A4240F04782E16A17
:1030E00000F470128A4240F04182216B00F44000EB
:1030F000884240F03B82002003B0BDE8F08300BF6F
:10310000B9F1000F6AD0A069002800F09B80002070
:10311000C4F2472001210162FEF7CAFB054600BF49
:103120003068800500F1C480FEF7C2FB401B022816
:10313000F6D9032003B0BDE8F08300BF6069002822
:1031400040F20000C4F247206AD00121C0F8801686
:10315000FEF7AEFB054600BF706B8007ACD4FEF7F0
:10316000A7FB401B0228F7D9032003B0BDE8F0837A
:10317000706A5FEAC00808D4706A40F080507062DC
:10318000706A00F080500090009847F20007C4F287
:1031900000073868C00513D4386840F48070386080
:1031A000FEF786FB054600BF3868C00508D4FEF769
:1031B0007FFB401B64284FF00300F5D9D3E100BF2B
:1031C000A168706B002900F0AF80052900F0A48091
:1031D000012940F0C18040F48070C3E03068800570
:1031E00003D5A069002800F0C181206A716801F44C
:1031F000604188426AD9B16811F0F00F00F0028195
:10320000002159E161683068002900F0CF8005296C
:1032100000F0C480012940F0DF8040F48030E1E01C
:103220000021C0F88016FEF743FB0546706B80074F
:103230007FF542AFFEF73CFB401B02284FF0030036
:10324000F4D990E10020C4F2472000210162FEF78A
:103250002FFB0546306880057FF52BAFFEF728FB76
:10326000401B02284FF00300F4D97CE10027C4F290
:10327000472700203866FEF71BFB022D05460BD1C1
:103280003068800140F1EA80FEF712FB401B022803
:103290004FF00300F4D966E1306880017FF52BAF71
:1032A000FEF706FB401B02284FF00300F4D95AE159
:1032B0007068D4E9071220F46040104370607068B1
:1032C00020F07F4040EA01607060F2E6716821F40E
:1032D0006041014371607168E26921F07F4141EA18
:1032E00002617160B16811F0F00F00F0A18000215F
:1032F0000EE100BF00210160FEF7DAFA054600BFCB
:10330000306880077FF5D2AEFEF7D2FA401B022864
:103310004FF00300F4D926E140F480607063706BD5
:1033200040F480701EE000BF20F480707063706B0A
:1033300020F480607063FEF7BBFA054641F28837DF
:10334000706B800520D5FEF7B3FA401BB8424FF0F2
:103350000300F5D907E100BF20F480707063706B43
:1033600020F480607063FEF7A3FA054641F28837C7
:10337000706B800508D4FEF79BFA401BB842F7D962
:10338000032003B0BDE8F083B8F1000F3FF597AE1E
:10339000706A20F08050706291E600BF40F4802097
:1033A0003060306840F480301CE000BF20F4803092
:1033B0003060306820F480203060FEF779FA0546EE
:1033C000306880037FF53FAEFEF772FA401B642839
:1033D0004FF00300F4D9C6E020F48030306030684C
:1033E00020F480203060FEF763FA054630688003E1
:1033F0003FF529AEFEF75CFA401B64284FF003004E
:10340000F4D9B0E0716AC90047F20001C4F20001CA
:1034100040D4726A42F080527262726A02F0805244
:103420000192019A0A68716A21F08051716232E05A
:10343000716AC90047F20001C4F2000156D4726AF1
:1034400042F080527262726A02F080520292029AD4
:103450000A68716A21F08051716248E0B06804F135
:1034600028030ECB20F47D00084310431843B060BE
:1034700001203866FEF71CFA044600BF3068800160
:103480003FF539AEFEF714FA001B02284FF0030097
:10349000F4D968E00A68B0F5404F4FF000010BD155
:1034A00002F4C052B2F5C05F06D1D6F8001441F064
:1034B0000401C6F800140121D6F8002422F001020C
:1034C0000A44C6F80024D6F8002402F001028A4219
:1034D0004CD1716821F46041014371607168E26907
:1034E00021F07F4141EA026171601EE00A68B0F597
:1034F000404F4FF000010BD102F4C052B2F5C05F53
:1035000006D1D6F8001441F00401C6F800140121D8
:10351000D6F8002422F001020A44C6F80024D6F8A6
:10352000002402F001028A4220D1B1684AF2C57239
:10353000C1F30311C0F60002400B515C4FF480321E
:1035400002FA00F020FA01F140F20000C2F200009D
:1035500040F224020068C2F200021160FEF7CCF9CA
:1035600000283FF4A6AD03B0BDE8F083012003B00E
:10357000BDE8F0834EF21000CEF20000016841F089
:103580000201016070470000411E0020B0EB116F86
:103590001CBF012070474EF21002CEF200025160B3
:1035A0004EF62351CEF20001F0230B7007219060FC
:1035B000116070474EF21000CEF20000016821F059
:1035C000020101607047000090F83820012A4FF096
:1035D000020236D010B580F839200268D2F804E033
:1035E000D2F808C00C682EF07003234340F2FF7439
:1035F000C4F20004A24253600ADCB2F1804F13D03F
:1036000040F20043C4F200039A420DD011E000BF23
:1036100040F60003C4F201039A4205D040F60003CD
:10362000C4F200039A4204D149682CF08003194384
:1036300091600121002280F8391080F83820BDE81F
:103640001040104670470000002804BF012070475A
:1036500010B590F8391031B9002180F838100446BF
:1036600000F086F82046022180F83910016840F207
:10367000FF730A68C4F20003994227DD40F6000395
:10368000C4F2000399422AD040F60003C4F20103B9
:10369000994224D040F60043C4F2000399421ED060
:1036A00040F6FF33C4F20003994222DD40F6FF33B7
:1036B000C4F2010399422DDC40F60043C4F200033A
:1036C000994233D040F600032CE000BFB1F1804FA7
:1036D00005D040F20043C4F200039942E0D1836870
:1036E00022F070021A4340F6FF33C4F200039942FD
:1036F000DCDCB1F1804F19D040F20043C4F200038A
:10370000994213D040F60003C4F2000399420DD051
:1037100010E000BF41F20003C4F20103994205D05A
:1037200040F60043C4F20103994203D1036922F435
:1037300040721A434368C46822F0800C4269CC622C
:103740008B620B6842EA0C0243F004030B60012316
:103750004B610A6080F83E3080F83A3080F83B30A8
:1037600080F83C3080F83D3080F83930002010BDC2
:10377000006840F60041C4F20001884218BF70475B
:1037800081B043F62400C4F20200016841F0080150
:103790000160006800F008000090009801B07047D8
:1037A00090F8391001291CBF01207047022180F8D0
:1037B0003910006840F2FF72C168C4F20002904202
:1037C00041F00101C16009DCB0F1804F12D040F23C
:1037D0000041C4F2000188420CD012E040F6000122
:1037E000C4F20101884205D040F60001C4F2000194
:1037F000884206D1816801F00701062904BF002034
:103800007047016841F0010101600020704700002D
:1038100090F83820012A4FF002026CD080B580F871
:103820003920D0F800C04FF67772DCF8083023EA70
:103830000202CCF808200B684F2B29DC1F2B45DD3A
:10384000202B46D0302B44D0402B40F0AF80D1F815
:1038500004E0C968DCF82030DCF8202022F0010206
:10386000CCF82020DCF8182022F0F00242EA011106
:1038700023F00A0242EA0E02CCF81810CCF82020FD
:10388000DCF8081041F0470121F0300128E000BFCA
:103890006F2B33DDB3F5005F74D0B3F5805F21D0BB
:1038A000702B40F08380D1E901E3C968DCF808207F
:1038B00043EA0E0322F47F4243EA01211143CCF88C
:1038C0000810DCF8081041F0770109E00BB1102B6B
:1038D0006CD1DCF8081021F07001194341F00701A8
:1038E000CCF808100022012180F83910002180F85E
:1038F0003810BDE880401046704700BF502B21D0E3
:10390000602B53D1D1F804E0C968DCF82030DCF832
:10391000202022F01002CCF82020DCF8182022F41D
:10392000704242EA013123F0A00242EA0E12CCF8C2
:103930001810CCF82020DCF8081041F0670121F0C5
:103940001001CDE7D1F804E0C968DCF82030DCF8DC
:10395000202022F00102CCF82020DCF8182022F0F0
:10396000F00242EA011123F00A0242EA0E02CCF808
:103970001810CCF82020DCF8081041F0570121F095
:103980002001ADE7D1E901E3C968DCF8082043EA8A
:103990000E0322F47F4243EA01211143CCF80810C0
:1039A000DCF8081041F480419AE700BF01229AE751
:1039B00090F83830012B04BF022070474FEAB20262
:1039C000032A00F29580F0B5DFE802F002601E42A3
:1039D0000368D3F820C01A6A22F001021A621A465C
:1039E000D3F804E052F8184F91E8E00024F0730493
:1039F000C9682C432CF002052F43C3F804E014607F
:103A0000D6611F621CE000BF0368D3F820C01A6AA9
:103A100022F480721A621A46D3F804E052F81C5F4E
:103A2000D1E9004725F07305D1E902612C432CF45C
:103A3000007545EA0626C3F804E0146017621E62AA
:103A4000136843F008031360136823F0040342E093
:103A50000368D3F820C01A6A22F480521A621A4608
:103A6000D3F804E052F81C5FD1E9004725F4E6459D
:103A7000D1E9026145EA04242CF4005545EA0636F2
:103A8000C3F804E0146057621CE000BF0368D3F879
:103A900020C01A6A22F010021A621A46D3F804E013
:103AA00052F8185FD1E9004725F4E645D1E90261F3
:103AB00045EA04242CF0200545EA0616C3F804E084
:103AC000146017621E621368090243F400631360F6
:103AD000136823F480631360136819431160002195
:103AE000BDE8F040002280F838200846704700BF4B
:103AF0000121002280F8382008467047002804BFC2
:103B00000120704710B590F8391031B9002180F8C4
:103B10003810044600F086F82046022180F839105B
:103B2000016840F2FF730A68C4F20003994227DD7E
:103B300040F60003C4F2000399422AD040F6000385
:103B4000C4F20103994224D040F60043C4F20003BA
:103B500099421ED040F6FF33C4F20003994222DDA1
:103B600040F6FF33C4F2010399422DDC40F60043D6
:103B7000C4F20003994233D040F600032CE000BFAA
:103B8000B1F1804F05D040F20043C4F200039942E6
:103B9000E0D1836822F070021A4340F6FF33C4F28A
:103BA00000039942DCDCB1F1804F19D040F20043B0
:103BB000C4F20003994213D040F60003C4F200039C
:103BC00099420DD010E000BF41F20003C4F201039E
:103BD000994205D040F60043C4F20103994203D153
:103BE000036922F440721A434368C46822F0800CCF
:103BF0004269CC628B620B6842EA0C0243F0040318
:103C00000B6001234B610A6080F83E3080F83A3047
:103C100080F83B3080F83C3080F83D3080F8393017
:103C2000002010BD70470000C1B1042908D0082948
:103C300014BF3D223C22825C012A05D016E000BF61
:103C40003B22825C012A11D10222082910D00429CA
:103C500014BF80F83D2080F83B200BE090F83A201C
:103C6000012A03D1022280F83A2003E001207047A4
:103C700080F83C20006801F01F010122036A02FA6B
:103C800001F123EA01020262026A114340F2FF726B
:103C9000C4F20002904201620ADCB0F1804F13D0FE
:103CA00040F20041C4F2000188420DD013E000BF91
:103CB00040F60001C4F20101884205D040F600013F
:103CC000C4F20001884206D1816801F0070106298B
:103CD00004BF00207047016841F00101016000202D
:103CE0007047000010B5026801F01F0E4FF0010C84
:103CF000146A0CFA0EF324EA03031362136A41F206
:103D000011141362136A23420ED0082912D0042919
:103D100016D000294FF0010114BF80F83D1080F843
:103D20003A10002010BD00BF136823F00103136098
:103D30000829ECD1012180F83C10002010BD00BF03
:103D4000012180F83B10002010BD0000B0B50446F2
:103D500090F8380001284FF0020008BFB0BD0125DF
:103D600084F8385084F83900204602F017FB002808
:103D70004FF0010006D0002184F8395084F8381043
:103D8000B0BD00BF2068C16821F04001C160C168BA
:103D900021F48041C1600020002184F8395084F86A
:103DA0003810B0BD7047000010B504460068416986
:103DB00094F84120212A56D111F0800153D000BF40
:103DC000206850E8050F216820F0800041E80502D6
:103DD000DAB1206850E8050F216820F0800041E842
:103DE000050292B1206850E8050F216820F080009C
:103DF00041E805024AB1206850E8050F216820F02B
:103E0000800041E80502002ADAD1A06B002818BF23
:103E1000FDF778FA206850E8030F216820F0C00011
:103E200041E80302DAB1206850E8030F216820F06E
:103E3000C00041E8030292B1206850E8030F2168F6
:103E400020F0C00041E803024AB1206850E8030FA7
:103E5000216820F0C00041E80302002ADAD12020C6
:103E600084F841002068406994F84210222940F00B
:103E7000A78010F0400000F0A38000BF206850E849
:103E8000050F216820F0400041E80502DAB1206802
:103E900050E8050F216820F0400041E8050292B18A
:103EA000206850E8050F216820F0400041E8050235
:103EB0004AB1206850E8050F216820F0400041E831
:103EC0000502002ADAD1E06B002818BFFDF71AFAC4
:103ED000206850E8030F216820F4907041E8030245
:103EE000BAB3206850E8030F216820F4907041E8CD
:103EF000030272B3206850E8030F216820F4907029
:103F000041E803022AB3206850E8030F216820F437
:103F1000907041E80302002ADAD11AE0206850E8E4
:103F2000050F216820F0010041E80502DAB12068A0
:103F300050E8050F216820F0010041E8050292B128
:103F4000206850E8050F216820F0010041E80502D3
:103F50004AB1206850E8050F216820F0010041E8CF
:103F60000502002ADAD1206B012824D1206850E80C
:103F7000030F216820F0100041E80302DAB1206845
:103F800050E8030F216820F0100041E8030292B1CD
:103F9000206850E8030F216820F0100041E8030278
:103FA0004AB1206850E8030F216820F0100041E872
:103FB0000302002ADAD1202084F842000020206386
:103FC000002010BD70470000B0B582B001680A68DB
:103FD000CC684B6902F02F05202D04F0200505D197
:103FE00025B102B0BDE8B04002F026BC5FEA027C19
:103FF0001EBF03F0010E04F4907313EB0E0341D1C6
:10400000036BD50618D5012B16D114F0100313D06D
:10401000002201920A6801924A680192019A496954
:1040200049064BD4818DC28DC38D002B18BF9142A0
:1040300040F0048202B0B0BD13062DD514F0800309
:104040002AD090F84120212AF4D18268B2F5805F0D
:1040500003D10269002A00F07782026A531C0362CE
:1040600012784A60C28C013A1304C284E2D1C86853
:1040700020F08000C860C86840F04000C86002B00E
:10408000B0BD00BFD30718BF14F4807340F0E080C8
:10409000530700F1E380E8E05206CBD514F040026C
:1040A000C8D0CA6822F04002CA60202180F84110BE
:1040B00002B0BDE8B04000F0B3BB00BFC26B1168F6
:1040C0004B68858D99B2002900F0B480A94280F038
:1040D000B180C3859169202900F0A180016851E871
:1040E000031F026821F4807142E80313DBB1016809
:1040F00051E8031F026821F4807142E8031393B171
:10410000016851E8031F026821F4807142E803133B
:104110004BB1016851E8031F026821F4807142E845
:104120000313002BDAD1016851E8051F026821F062
:10413000010142E80513C3B3016851E8051F026895
:1041400021F0010142E805137BB3016851E8051F26
:10415000026821F0010142E8051333B3016851E818
:10416000051F026821F0010142E80513002BDAD196
:104170001BE000BF016851E8051F026821F0400103
:1041800042E80513DBB1016851E8051F026821F020
:10419000400142E8051393B1016851E8051F026828
:1041A00021F0400142E805134BB1016851E8051FB9
:1041B000026821F0400142E80513002BDAD12021EA
:1041C00080F8421000210163016851E8031F026872
:1041D00021F0100142E80313DBB1016851E8031F2D
:1041E000026821F0100142E8031393B1016851E81D
:1041F000031F026821F0100142E803134BB101686C
:1042000051E8031F026821F0100142E80313002B5C
:10421000DAD1C16B04460846FDF774F82046022146
:104220004163818DC28D891A89B202B0BDE8B04068
:10423000FFF7B8BD8D427FF4FDAE9269202A7FF46E
:10424000F9AE0222426302B0BDE8B040FFF7AABD5A
:10425000436C43F001034364530706D5BEF1000FDE
:1042600003D0436C43F002034364930706D5BEF1C9
:10427000000F03D0436C43F004034364BCF1000F10
:1042800006D55EEA050303D0436C43F0080343649C
:10429000436C002B3FF4CEAE920605D525B1044603
:1042A00002F0CAFA216820464969426C01F04001D7
:1042B00002F00802891800F0B98000BF016851E8D7
:1042C000031F026821F4907142E80313BBB3016835
:1042D00051E8031F026821F4907142E8031373B39D
:1042E000016851E8031F026821F4907142E803134A
:1042F0002BB3016851E8031F026821F4907142E872
:104300000313002BDAD11AE0016851E8051F026897
:1043100021F0010142E80513DBB1016851E8051FF6
:10432000026821F0010142E8051393B1016851E8E8
:10433000051F026821F0010142E805134BB1016835
:1043400051E8051F026821F0010142E80513002B26
:10435000DAD1016B012924D1016851E8031F0268F9
:1043600021F0100142E80313DBB1016851E8031F9B
:10437000026821F0100142E8031393B1016851E88B
:10438000031F026821F0100142E803134BB10168DA
:1043900051E8031F026821F0100142E80313002BCB
:1043A000DAD1202180F842100021016301684969B7
:1043B000490640F1C380016851E8051F026821F0F9
:1043C000400142E80513DBB1016851E8051F0268AE
:1043D00021F0400142E8051393B1016851E8051F3F
:1043E000026821F0400142E805134BB1016851E831
:1043F000051F026821F0400142E80513002BDAD1C5
:10440000C16B002900F09A8046F23952C0F60002D2
:10441000044608464A63FCF79BFF00283FF40AAEB7
:10442000E06B416B02B0BDE8B04008470446FFF7BF
:10443000C9FD0020606402B0B0BD00BF891A00BF92
:10444000026852E8032F036822F4907243E80325C0
:10445000BDB3026852E8032F036822F4907243E868
:10446000032575B3026852E8032F036822F49072A3
:1044700043E803252DB3026852E8032F036822F4B2
:10448000907243E80325002DDAD11AE0026852E861
:10449000052F036822F0010243E80525DDB102681B
:1044A00052E8052F036822F0010243E8052595B183
:1044B000026852E8052F036822F0010243E805254F
:1044C0004DB1026852E8052F036822F0010243E86B
:1044D0000525002DDAD1202280F842200022026337
:1044E000026852E8032F036822F0100243E8032514
:1044F000DDB1026852E8032F036822F0100243E89E
:10450000032595B1026852E8032F036822F01002D8
:1045100043E803254DB1026852E8032F036822F0F7
:10452000100243E80325002DDAD1022289B242634A
:1045300002B0BDE8B040FFF735BC00BF02B0BDE837
:10454000B040FFF73FBD00BF026A32F8023B6FF395
:104550005F234B60026285E5002804BF012070479D
:1045600010B5044690F8410028B9002084F84000B6
:10457000204600F021F8242084F841002068C1681A
:1045800021F40051C160204602F0D6F9206801698B
:1045900021F490410161416921F02A014161C16822
:1045A00041F40051C16000202021606484F8411072
:1045B00084F84210606310BD2DE9F04186B00446D6
:1045C00043F600002168C4F20100002681420596EE
:1045D000CDE903660296019602D006B0BDE8F081EF
:1045E00043F61C01C4F202014A6846F2440842F450
:1045F00080424A604A6800F54C4002F480420092D2
:10460000009A0A68C4F2020842F002020A600968CD
:1046100001F0020100910099C02101910221CDE930
:104620000216032104910721059101A9FDF766F8FF
:1046300041F2D41508F11400C2F200058027C5E943
:1046400000062846C5E90267C5E90466C5E90666AD
:10465000FCF7FEFE002818BFFCF74EFBE5636C621A
:1046600041F21825C2F2000510200021C5E90080A2
:104670002846C5E90217C5E90411C5E90611FCF78A
:10468000E7FE002818BFFCF737FBA5636C6206B095
:10469000BDE8F08170B582B090F84250202D0BD16A
:1046A00013460A460146002A4FF0010018BF002BAE
:1046B00006D102B070BD00BF022002B070BD00BFC5
:1046C000002622200E638A628B854E6481F84200A8
:1046D0000C680D46C86B46F2C161C0F6000146F693
:1046E000210C46F2455EC0F6000CC0F6000E816259
:1046F000211DC0F82CC0C0F830E04663FCF7F8FE7E
:1047000040B110206864202085F84200012002B0EA
:1047100070BD00BF01962868294602680192406872
:1047200001900198286928B3086850E8030F0A68C7
:1047300040F4807042E80303E3B1086850E8030FD7
:104740000A6840F4807042E803039BB1086850E8AF
:10475000030F0A6840F4807042E8030353B108680D
:1047600050E8030F0A6840F4807042E80303002B0E
:10477000DAD100BF086850E8050F0A6840F0010070
:1047800042E80503DBB3086850E8050F0A6840F00B
:10479000010042E8050393B3086850E8050F0A6872
:1047A00040F0010042E805034BB3086850E8050FEC
:1047B0000A6840F0010042E80503002BDAD11EE050
:1047C000086850E8050F0A6840F0400042E8050319
:1047D000FBB1086850E8050F0A6840F0400042E865
:1047E0000503B3B1086850E8050F0A6840F04000BF
:1047F00042E80503002B4FF000003FF45AAF086871
:1048000050E8050F0A6840F0400042E80503002B1D
:10481000D6D1002002B070BD704700007047000084
:10482000006843F60001C4F20101884218BF7047D6
:1048300040F20820C2F20000002101707047000021
:10484000FEE7000040F2302CC2F2000C9CF8003071
:104850009CF801209A4204BF002070470CEBC20371
:10486000D9689B68C0E90031501C00F007008CF843
:10487000010001207047000010B540F23024C2F260
:10488000000404F108004021FBF7F0FC0020C4E91B
:10489000000010BD80B540F60001C4F202010868B6
:1048A000012262F39F7008604FF4004088614FF06E
:1048B00000408861086820F040600860C86862F3C2
:1048C0009B60C860086820F040500860C86862F3C8
:1048D0001D70C8600869400406D44FF0060C06201D
:1048E0004FF0060E0FE000BF0869800406D44FF0B9
:1048F000020C02204FF0020E05E000BF4FF0000E48
:1049000003204FF0010C0B6823F040430B60CB6891
:1049100062F39F73CB600B6862F31D730B604FF4FF
:1049200080438B614FF080438B610B6823F04063C1
:104930000B60CB6862F39B63CB600B6823F0404352
:104940000B60CB6862F39F73CB600A69920404D555
:104950000869000458BFE64670460A68012322F041
:1049600040520A60CA6863F31D72CA600A6863F342
:104970009B620A604FF400528A614FF000528A61D4
:104980000A6822F040520A60CA6863F31D72CA6066
:104990000A6822F040420A60CA6863F39F72CA60E4
:1049A0000A69520404D4002808BF042006E000BFAE
:1049B0000A69120402D4002808BF05200A6822F000
:1049C00040620A60CA6863F39B62CA6080BD0000EF
:1049D00070B5FFF75FFF40F23024C2F20004A17807
:1049E000022923D0012941D1E178884244D161686C
:1049F00001311429616040D3217862784B1C03F0A7
:104A0000070595420ED004F1080606EBC10206F830
:104A1000310002205070FCF74BFF2178257006EB27
:104A2000C10148600220A07070BD00BFE17810B1E4
:104A3000884208BF70BD20786278431C03F00705E8
:104A400095420ED004F1080606EBC00206F83010BD
:104A500003205070FCF72CFF2178257006EBC10174
:104A6000486000206080606070BD00BF28B10121F7
:104A7000A170E070616070BD00B170BD6068023807
:104A80001128EED820786278431C03F00705954280
:104A9000E7D004F1080606EBC00206F8301001204A
:104AA000D7E7000041F25C20C2F20000FCF74CBFE7
:104AB00010B541F25C24C2F200042068016841F0A4
:104AC000010101602046FCF73FFF0020012100F0BA
:104AD000EDFD0120022100F0E9FD0220032100F09C
:104AE000E5FD0320042100F0E1FD0420052100F094
:104AF000DDFD0520062100F0D9FD204600216FF4E0
:104B000000324FF40033FDF79FF8204600216FF488
:104B100080324FF48033FDF797F8204606216FF47A
:104B200000424FF40043FDF78FF8204604216FF058
:104B300001020123FDF788F8204606216FF00102EB
:104B40000123FDF781F8204602216FF001020123C5
:104B5000FDF77AF8204600216FF001020123FDF7EE
:104B600073F8204606216FF400624FF40063FDF7EE
:104B70006BF8204600216FF400524FF40053FDF70C
:104B800063F8204606216FF480524FF48053FDF7FE
:104B90005BF8204602216FF400524FF40053FDF7FA
:104BA00053F8204604216FF400524FF40053FDF7F0
:104BB0004BF8204606216FF400524FF40053FDF7E6
:104BC00043F8204600216FF480424FF48043FDF704
:104BD0003BF8204602216FF480424FF48043FDF7FA
:104BE00033F8204604216FF480424FF48043FDF7F0
:104BF0002BF8204606216FF480424FF48043FDF7E6
:104C000023F8204602216FF480424FF48043FDF7E1
:104C10001BF8204600216FF400424FF40043FDF7DB
:104C200013F8204602216FF400424FF40043FDF7D1
:104C30000BF8204604216FF400424FF40043FDF7C7
:104C400003F8204602216FF480324FF48033FCF7E2
:104C5000FBFF204604216FF480324FF48033FCF7D1
:104C6000F3FF204604216FF480324FF48033FCF7C9
:104C7000EBFF204606216FF480324FF48033FCF7BF
:104C8000E3FF204606216FF010021023FCF7DCFF43
:104C9000204606216FF040024023FCF7D5FF204656
:104CA00006216FF400324FF40033FCF7CDFF2046AD
:104CB00002216FF400324FF40033FCF7C5FF2046A9
:104CC00004216FF400324FF40033FCF7BDFF20469F
:104CD00000216FF480224FF48023FCF7B5FF2046BB
:104CE00002216FF480224FF48023FCF7ADFF2046B1
:104CF00004216FF480224FF48023FCF7A5FF2046A7
:104D000006216FF480224FF48023FCF79DFF20469C
:104D100000216FF400224FF40023FCF795FF20469A
:104D200002216FF400224FF40023FCF78DFF204690
:104D300004216FF400224FF40023FCF785FF204686
:104D400006216FF400224FF40023FCF77DFF20467C
:104D500000216FF480124FF48013FCF775FF20469A
:104D600002216FF480124FF48013FCF76DFF204690
:104D700004216FF480124FF48013FCF765FF204686
:104D800006216FF480124FF48013FCF75DFF20467C
:104D900000216FF400124FF40013FCF755FF20467A
:104DA00002216FF400124FF40013FCF74DFF204670
:104DB00004216FF400124FF40013FCF745FF204666
:104DC00006216FF400124FF40013FCF73DFF20465C
:104DD00000216FF480024FF48003FCF735FF20467A
:104DE00002216FF480024FF48003FCF72DFF204670
:104DF00004216FF480024FF48003FCF725FF204666
:104E000006216FF480024FF48003FCF71DFF20465B
:104E100000216FF400024FF40003FCF715FF204659
:104E200002216FF400024FF40003FCF70DFF20464F
:104E300004216FF400024FF40003FCF705FF204645
:104E400006216FF400024FF40003FCF7FDFE20463C
:104E500000216FF080724FF08073FCF7F5FE204662
:104E600002216FF080724FF08073FCF7EDFE204658
:104E700004216FF080724FF08073FCF7E5FE20464E
:104E800006216FF080724FF08073FCF7DDFE204644
:104E900000216FF000724FF00073FCF7D5FE204642
:104EA00002216FF000724FF00073FCF7CDFE204638
:104EB000BDE81040FCF7A2BE2DE9F04F83B00D46CF
:104EC00001910021044605F0C0F80028029418BFA3
:104ED00084F00044204605F007F8064628460F46B1
:104EE00004F09EFC0B4600210246C4F2240100207F
:104EF00003F01EFD02460B463046394604F0E0FC46
:104F00000023C3F6E073002204F02EFA04F044FC00
:104F10004CF6CD41CCF6CC41A0FB0112D10849F6AC
:104F20009A12C1F69912A1FB023C48F21F53C5F236
:104F3000EB13A0FB03367309A3FB026E44F6D356B2
:104F4000C1F26206A0FB0664A409A4FB026741F259
:104F50005976CDF2B716A0FB06654FEA5538A8FB87
:104F6000022945F6C5254209C0F67C25A2FB052A83
:104F700001EB8102A0EB420000900CEB8C00A1EB56
:104F8000400B0EEB8E00A3EB400607EB8700A4EB73
:104F9000400509EB8900A8EB40044FEADA104CF613
:104FA000CD414143C90C01EB8101A0EB410081B22D
:104FB000002000F07BFB01202146012400F076FB5D
:104FC0000220294600F072FB0320314600F06EFB00
:104FD0000420594600F06AFB0098C1B2052000F099
:104FE00065FB41F25C26C2F20006304606216FF0F6
:104FF00004020023FCF728FE304606216FF0100261
:105000000023FCF721FE304606216FF0400200230A
:10501000FCF71AFE304606216FF480720023FCF77D
:1050200013FE304606216FF480620023FCF70CFE6D
:105030000199481EC0B204280FD84AF2C070C0F6C9
:105040000000401A4079062104FA00F341F25C2086
:10505000DA43C2F20000FCF7F7FD0298002104F0E9
:10506000F4FF41F25C24C2F200040346002820460B
:105070004FF004016FF0010218BF0123FCF7E4FDBB
:10508000204603B0BDE8F04FFCF7B8BDB0B53B28F3
:1050900088BFB0BDDFE810F0640170014001580125
:1050A0002801C201CE013C003C003C003C003C0019
:1050B000500234010A02FA002C024C01AA0120021B
:1050C0007C018801F20138020601EE00A402BC0254
:1050D00068028C02DA019E01E601BE00A60076009D
:1050E0008E005E00980244021C01B6015C02520070
:1050F000B200FE01D4026A00CA00E200F802EC022B
:10510000E0028200B002C8029A007402D600800257
:1051100007384AF2C072C0B2C0F60002105C012229
:10512000824001FA00F341F25C20D243C2F2000057
:105130000621BDE8B040FCF787BD00BF41F25C200E
:105140004B05C2F2000002216FF40012BDE8B0402E
:10515000FCF77ABD41F25C20CB04C2F200000621CC
:105160006FF40022BDE8B040FCF76EBD41F25C2058
:105170008B05C2F2000002216FF48002BDE8B0404E
:10518000FCF762BD41F25C20CB04C2F200000221B8
:105190006FF40022BDE8B040FCF756BD41F25C2040
:1051A000CB05C2F2000006216FF40002BDE8B0405A
:1051B000FCF74ABD41F25C20CB04C2F2000004219E
:1051C0006FF40022BDE8B040FCF73EBD41F25C2028
:1051D0000B06C2F2000004216FF08072BDE8B040FF
:1051E000FCF732BD41F25C20CB04C2F2000000218A
:1051F0006FF40022BDE8B040FCF726BD41F25C2010
:105200004B05C2F2000004216FF40012BDE8B0406B
:10521000FCF71ABD41F25C208B04C2F200000621AB
:105220006FF48022BDE8B040FCF70EBD41F25C2077
:105230008B05C2F2000004216FF48002BDE8B0408B
:10524000FCF702BD41F25C204B06C2F200000021D7
:105250006FF00072BDE8B040FCF7F6BC41F25C2094
:105260008B05C2F2000006216FF48002BDE8B04059
:10527000FCF7EABC41F25C200B04C2F200000421FE
:105280006FF48032BDE8B040FCF7DEBC41F25C2038
:105290004B03C2F2000004216FF40052BDE8B0409D
:1052A000FCF7D2BC41F25C250C04C2F20005284692
:1052B00002216FF480322346FCF7C6FC2846042105
:1052C0006FF480322346BDE8B040FCF7BDBC00BFA0
:1052D00041F25C200B05C2F2000004216FF4801241
:1052E000BDE8B040FCF7B0BC41F25C20C2F2000067
:1052F0000B4606216FF00102BDE8B040FCF7A4BCEC
:1053000041F25C204B03C2F2000000216FF4005216
:10531000BDE8B040FCF798BC41F25C20CB03C2F280
:10532000000006216FF40042BDE8B040FCF78CBCE1
:1053300041F25C208B03C2F2000000216FF4804236
:10534000BDE8B040FCF780BC41F25C20C2F2000036
:105350000B4604216FF00102BDE8B040FCF774BCBD
:1053600041F25C204B04C2F2000000216FF40032D5
:10537000BDE8B040FCF768BC41F25C200B04C2F20F
:10538000000000216FF48032BDE8B040FCF75CBC47
:1053900041F25C208B03C2F2000006216FF48042D0
:1053A000BDE8B040FCF750BC41F25C24C2F20004FE
:1053B0008B0320460D4602216FF48042FCF744FC2B
:1053C000EB03204600216FF40042BDE8B040FCF73B
:1053D0003BBC00BF41F25C208B04C2F20000022102
:1053E0006FF48022BDE8B040FCF72EBC41F25C2097
:1053F0008B03C2F2000002216FF48042BDE8B0408E
:10540000FCF722BC41F25C200B05C2F20000062131
:105410006FF48012BDE8B040FCF716BC41F25C208E
:10542000C2F200000B4602216FF00102BDE8B0405D
:10543000FCF70ABC41F25C20C2F200000B460021DE
:105440006FF00102BDE8B040FCF7FEBB41F25C200A
:105450008B04C2F2000000216FF48022BDE8B0404E
:10546000FCF7F2BB41F25C208B04C2F20000042185
:105470006FF48022BDE8B040FCF7E6BB41F25C204F
:10548000CB03C2F2000002216FF40042BDE8B0403D
:10549000FCF7DABB41F25C204B05C2F200000621AA
:1054A0006FF40012BDE8B040FCF7CEBB41F25C24C3
:1054B000C2F200040B0320460D4606216FF4805211
:1054C000FCF7C2FB6B03204602216FF40052BDE8DB
:1054D000B040FCF7B9BB00BF41F25C208B03C2F2C5
:1054E000000004216FF48042BDE8B040FCF7ACBB83
:1054F00041F25C204B03C2F2000006216FF400521F
:10550000BDE8B040FCF7A0BB41F25C20CB03C2F287
:10551000000004216FF40042BDE8B040FCF794BBEA
:1055200041F25C200B05C2F2000002216FF48012F0
:10553000BDE8B040FCF788BB41F25C20CB02C2F270
:10554000000006216FF40062BDE8B040FCF77CBBB0
:1055500041F25C204B05C2F2000000216FF4001202
:10556000BDE8B040FCF770BB41F25C204B04C2F2D6
:10557000000004216FF40032BDE8B040FCF764BBCA
:1055800041F25C200B06C2F2000006216FF080722F
:10559000BDE8B040FCF758BB41F25C204B06C2F2BC
:1055A000000002216FF00072BDE8B040FCF74CBB78
:1055B00041F25C204B04C2F2000006216FF400327D
:1055C000BDE8B040FCF740BB41F25C200B05C2F2E5
:1055D000000000216FF48012BDE8B040FCF734BB3E
:1055E00041F25C200B04C2F2000006216FF480320D
:1055F000BDE8B040FCF728BB41F25C200B06C2F2CC
:10560000000000216FF08072BDE8B040FCF71CBBC9
:1056100041F25C204B04C2F2000002216FF4003220
:10562000BDE8B040FCF710BB41F25C200B06C2F2B3
:10563000000002216FF08072BDE8B040FCF704BBAF
:1056400041F25C208B05C2F2000000216FF4800261
:10565000BDE8B040FCF7F8BA41F25C20CB05C2F2DD
:10566000000004216FF40002BDE8B040FCF7ECBA82
:1056700041F25C20CB05C2F2000002216FF400026F
:10568000BDE8B040FCF7E0BA41F25C20CB05C2F2C5
:10569000000000216FF40002BDE8B040FCF7D4BA6E
:1056A00041F25C20C2F20000FCF7A8BA052894BFC2
:1056B000092970472DE9F04119A2165C4AF2DD7004
:1056C000C0F6000000EB810710F821000321B14073
:1056D00041F25C28CD43C2F2000800FA06F34046CE
:1056E00000212A46FCF7B0FA7878BC78FF7800FAF7
:1056F00006F3404602212A46FCF7A6FA04FA06F30E
:10570000404604212A46FCF79FFA0120B040C243DC
:1057100007FA06F340460621BDE8F041FCF794BACB
:1057200001030507090B000070B584B041F2801435
:1057300042F20040C2F20004C4F201002060201DC9
:105740002121FAF793FD002610200125C4E90D065A
:105750002046A56284F82C6084F83C60FBF7CAFB05
:10576000002818BFFBF7C8FA052001A961C141F262
:105770008010C2F2000001A9FBF7C4FA002818BF8C
:10578000FBF7BAFA04B070BD81B043F61C00C4F256
:105790000200016841F080710160006800F08070D3
:1057A0000090009801B070472DE9F04F87B00025B8
:1057B00043F61C000695CDE90455CDE90255C4F227
:1057C0000200016840F6000841F004010160016830
:1057D000C4F2020801F00401019101990168A8F5E1
:1057E000006B41F0200101600168002201F02001FE
:1057F000019101990168102641F0010101600168E1
:1058000001F0010101910199016841F0020101607B
:10581000016801F0020101910199016841F008015C
:1058200001600068102100F00800019001985846BE
:10583000FCF738F8A8F580673846042100224FF0BD
:10584000040AFCF72FF840464FF400710022FCF7E1
:1058500029F808F58069484604210022FCF722F85F
:105860004FF4604002ACCDE9020540462146049564
:10587000FBF744FF0296012658462146CDE9036511
:105880000595FBF73BFF38462146CDE902A6CDE959
:105890000455FBF733FF4FF40070CDE90206404694
:1058A0002146CDE90455FBF729FF48462146CDE9BD
:1058B00002A6CDE90455FBF721FF07B0BDE8F08F44
:1058C00010B541F25C2042F20041C2F20000C4F285
:1058D00000010022C0E9001200F108010C234FF082
:1058E000400C81E80C1030214FF4A05E802401624E
:1058F0004FF40041C0E9052EC461C0E90A210463E8
:10590000FCF784F8002808BF10BDBDE81040FBF785
:10591000F3B9000070B596B040F6004541F26C5006
:10592000C4F200050021C2F200004FF0FF328023D4
:105930000F91CDE90D110B91CDE90911CDE90711B9
:10594000CDE90411CDE90211CDE90011C0E9005102
:10595000C0E90212C0E90413FDF776FE002818BF63
:10596000FBF7CAF94FF480500C9041F26C50C2F230
:1059700000000CA9FDF74CFF002818BFFBF7BCF98D
:1059800041F26C50C2F20000FEF7B8F8002818BFD0
:10599000FBF7B2F90420079041F26C500024C2F2E8
:1059A000000007A90894FEF7D1F9002818BFFBF7FB
:1059B000A3F93020CDE9040441F26C50C2F200009A
:1059C00004A9FDF701FE002818BFFBF795F941F285
:1059D0006C546020C2F20004009000266946204604
:1059E0000022CDE901660396FDF7E2FF002818BF0B
:1059F000FBF782F92A20E06020466660FDF724FE6E
:105A000015200190694620460022FDF7D1FF20684D
:105A10001596A842CDE913661296119602D016B0DB
:105A200070BD00BF43F61C00C4F20200016841F0E3
:105A3000010101600068002100F001001090109841
:105A40000120119002201290CDE91311159005F557
:105A5000FA3011A9FBF752FE16B070BD80B582B0C6
:105A600043F62400C4F20200016840F67F4241F090
:105A700020010160006841F2004100F02000019027
:105A8000019841F2AC50C2F20000C4F200010023C0
:105A900040F2F31C80E80E1080214161FDF7D4FD37
:105AA000002818BFFBF728F92C2003210022FCF75F
:105AB0005DF92C2002B0BDE88040FCF745B900003C
:105AC00080B541F2EC5043F60001C2F20000C4F28E
:105AD000010100234FF00C0C4FF4E13280E80E007E
